{
	"Funciones avanzadas/require.sol": {
		"Require": {
			"abi": [
				{
					"inputs": [
						{
							"internalType": "string",
							"name": "_pass",
							"type": "string"
						}
					],
					"name": "passwordComparer",
					"outputs": [
						{
							"internalType": "string",
							"name": "",
							"type": "string"
						}
					],
					"stateMutability": "view",
					"type": "function"
				}
			],
			"devdoc": {
				"kind": "dev",
				"methods": {},
				"version": 1
			},
			"evm": {
				"assembly": "    /* \"Funciones avanzadas/require.sol\":68:407  contract Require{... */\n  mstore(0x40, 0x80)\n    /* \"Funciones avanzadas/require.sol\":150:178  string password = \"P4SSW0RD\" */\n  mload(0x40)\n  dup1\n  0x40\n  add\n  0x40\n  mstore\n  dup1\n  0x08\n  dup2\n  mstore\n  0x20\n  add\n  0x5034535357305244000000000000000000000000000000000000000000000000\n  dup2\n  mstore\n  pop\n  0x00\n  swap1\n  dup1\n  mload\n  swap1\n  0x20\n  add\n  swap1\n  tag_1\n  swap3\n  swap2\n  swap1\n  tag_2\n  jump\t// in\ntag_1:\n  pop\n    /* \"Funciones avanzadas/require.sol\":68:407  contract Require{... */\n  callvalue\n  dup1\n  iszero\n  tag_3\n  jumpi\n  0x00\n  dup1\n  revert\ntag_3:\n  pop\n  jump(tag_4)\ntag_2:\n  dup3\n  dup1\n  sload\n  0x01\n  dup2\n  0x01\n  and\n  iszero\n  0x0100\n  mul\n  sub\n  and\n  0x02\n  swap1\n  div\n  swap1\n  0x00\n  mstore\n  keccak256(0x00, 0x20)\n  swap1\n  0x1f\n  add\n  0x20\n  swap1\n  div\n  dup2\n  add\n  swap3\n  dup3\n  0x1f\n  lt\n  tag_6\n  jumpi\n  dup1\n  mload\n  not(0xff)\n  and\n  dup4\n  dup1\n  add\n  or\n  dup6\n  sstore\n  jump(tag_5)\ntag_6:\n  dup3\n  dup1\n  add\n  0x01\n  add\n  dup6\n  sstore\n  dup3\n  iszero\n  tag_5\n  jumpi\n  swap2\n  dup3\n  add\ntag_7:\n  dup3\n  dup2\n  gt\n  iszero\n  tag_8\n  jumpi\n  dup3\n  mload\n  dup3\n  sstore\n  swap2\n  0x20\n  add\n  swap2\n  swap1\n  0x01\n  add\n  swap1\n  jump(tag_7)\ntag_8:\ntag_5:\n  pop\n  swap1\n  pop\n  tag_9\n  swap2\n  swap1\n  tag_10\n  jump\t// in\ntag_9:\n  pop\n  swap1\n  jump\t// out\ntag_10:\ntag_11:\n  dup1\n  dup3\n  gt\n  iszero\n  tag_12\n  jumpi\n  0x00\n  dup2\n  0x00\n  swap1\n  sstore\n  pop\n  0x01\n  add\n  jump(tag_11)\ntag_12:\n  pop\n  swap1\n  jump\t// out\ntag_4:\n  dataSize(sub_0)\n  dup1\n  dataOffset(sub_0)\n  0x00\n  codecopy\n  0x00\n  return\nstop\n\nsub_0: assembly {\n        /* \"Funciones avanzadas/require.sol\":68:407  contract Require{... */\n      mstore(0x40, 0x80)\n      callvalue\n      dup1\n      iszero\n      tag_1\n      jumpi\n      0x00\n      dup1\n      revert\n    tag_1:\n      pop\n      jumpi(tag_2, lt(calldatasize, 0x04))\n      shr(0xe0, calldataload(0x00))\n      dup1\n      0x0c0ef9b7\n      eq\n      tag_3\n      jumpi\n    tag_2:\n      0x00\n      dup1\n      revert\n        /* \"Funciones avanzadas/require.sol\":184:404  function passwordComparer(string memory _pass) public view returns(string memory){... */\n    tag_3:\n      tag_4\n      0x04\n      dup1\n      calldatasize\n      sub\n      dup2\n      add\n      swap1\n      tag_5\n      swap2\n      swap1\n      tag_6\n      jump\t// in\n    tag_5:\n      tag_7\n      jump\t// in\n    tag_4:\n      mload(0x40)\n      tag_8\n      swap2\n      swap1\n      tag_9\n      jump\t// in\n    tag_8:\n      mload(0x40)\n      dup1\n      swap2\n      sub\n      swap1\n      return\n    tag_7:\n        /* \"Funciones avanzadas/require.sol\":251:264  string memory */\n      0x60\n        /* \"Funciones avanzadas/require.sol\":349:357  password */\n      0x00\n        /* \"Funciones avanzadas/require.sol\":332:358  abi.encodePacked(password) */\n      add(0x20, mload(0x40))\n      tag_11\n      swap2\n      swap1\n      tag_12\n      jump\t// in\n    tag_11:\n      mload(0x40)\n      0x20\n      dup2\n      dup4\n      sub\n      sub\n      dup2\n      mstore\n      swap1\n      0x40\n      mstore\n        /* \"Funciones avanzadas/require.sol\":322:359  keccak256(abi.encodePacked(password)) */\n      dup1\n      mload\n      swap1\n      0x20\n      add\n      keccak256\n        /* \"Funciones avanzadas/require.sol\":311:316  _pass */\n      dup3\n        /* \"Funciones avanzadas/require.sol\":294:317  abi.encodePacked(_pass) */\n      add(0x20, mload(0x40))\n      tag_13\n      swap2\n      swap1\n      tag_14\n      jump\t// in\n    tag_13:\n      mload(0x40)\n      0x20\n      dup2\n      dup4\n      sub\n      sub\n      dup2\n      mstore\n      swap1\n      0x40\n      mstore\n        /* \"Funciones avanzadas/require.sol\":284:318  keccak256(abi.encodePacked(_pass)) */\n      dup1\n      mload\n      swap1\n      0x20\n      add\n      keccak256\n        /* \"Funciones avanzadas/require.sol\":284:359  keccak256(abi.encodePacked(_pass)) == keccak256(abi.encodePacked(password)) */\n      eq\n        /* \"Funciones avanzadas/require.sol\":275:373  require( keccak256(abi.encodePacked(_pass)) == keccak256(abi.encodePacked(password)), \"Try again\") */\n      tag_15\n      jumpi\n      mload(0x40)\n      0x08c379a000000000000000000000000000000000000000000000000000000000\n      dup2\n      mstore\n      0x04\n      add\n      tag_16\n      swap1\n      tag_17\n      jump\t// in\n    tag_16:\n      mload(0x40)\n      dup1\n      swap2\n      sub\n      swap1\n      revert\n    tag_15:\n        /* \"Funciones avanzadas/require.sol\":383:397  return \"Pass!\" */\n      mload(0x40)\n      dup1\n      0x40\n      add\n      0x40\n      mstore\n      dup1\n      0x05\n      dup2\n      mstore\n      0x20\n      add\n      0x5061737321000000000000000000000000000000000000000000000000000000\n      dup2\n      mstore\n      pop\n      swap1\n      pop\n        /* \"Funciones avanzadas/require.sol\":184:404  function passwordComparer(string memory _pass) public view returns(string memory){... */\n      swap2\n      swap1\n      pop\n      jump\t// out\n        /* \"--CODEGEN--\":6:448   */\n    tag_19:\n      0x00\n        /* \"--CODEGEN--\":108:111   */\n      dup3\n        /* \"--CODEGEN--\":101:105   */\n      0x1f\n        /* \"--CODEGEN--\":93:99   */\n      dup4\n        /* \"--CODEGEN--\":89:106   */\n      add\n        /* \"--CODEGEN--\":85:112   */\n      slt\n        /* \"--CODEGEN--\":75:77   */\n      tag_21\n      jumpi\n        /* \"--CODEGEN--\":126:127   */\n      0x00\n        /* \"--CODEGEN--\":123:124   */\n      dup1\n        /* \"--CODEGEN--\":116:128   */\n      revert\n        /* \"--CODEGEN--\":75:77   */\n    tag_21:\n        /* \"--CODEGEN--\":163:169   */\n      dup2\n        /* \"--CODEGEN--\":150:170   */\n      calldataload\n        /* \"--CODEGEN--\":185:250   */\n      tag_22\n        /* \"--CODEGEN--\":200:249   */\n      tag_23\n        /* \"--CODEGEN--\":242:248   */\n      dup3\n        /* \"--CODEGEN--\":200:249   */\n      tag_24\n      jump\t// in\n    tag_23:\n        /* \"--CODEGEN--\":185:250   */\n      tag_25\n      jump\t// in\n    tag_22:\n        /* \"--CODEGEN--\":176:250   */\n      swap2\n      pop\n        /* \"--CODEGEN--\":270:276   */\n      dup1\n        /* \"--CODEGEN--\":263:268   */\n      dup3\n        /* \"--CODEGEN--\":256:277   */\n      mstore\n        /* \"--CODEGEN--\":306:310   */\n      0x20\n        /* \"--CODEGEN--\":298:304   */\n      dup4\n        /* \"--CODEGEN--\":294:311   */\n      add\n        /* \"--CODEGEN--\":339:343   */\n      0x20\n        /* \"--CODEGEN--\":332:337   */\n      dup4\n        /* \"--CODEGEN--\":328:344   */\n      add\n        /* \"--CODEGEN--\":374:377   */\n      dup6\n        /* \"--CODEGEN--\":365:371   */\n      dup4\n        /* \"--CODEGEN--\":360:363   */\n      dup4\n        /* \"--CODEGEN--\":356:372   */\n      add\n        /* \"--CODEGEN--\":353:378   */\n      gt\n        /* \"--CODEGEN--\":350:352   */\n      iszero\n      tag_26\n      jumpi\n        /* \"--CODEGEN--\":391:392   */\n      0x00\n        /* \"--CODEGEN--\":388:389   */\n      dup1\n        /* \"--CODEGEN--\":381:393   */\n      revert\n        /* \"--CODEGEN--\":350:352   */\n    tag_26:\n        /* \"--CODEGEN--\":401:442   */\n      tag_27\n        /* \"--CODEGEN--\":435:441   */\n      dup4\n        /* \"--CODEGEN--\":430:433   */\n      dup3\n        /* \"--CODEGEN--\":425:428   */\n      dup5\n        /* \"--CODEGEN--\":401:442   */\n      tag_28\n      jump\t// in\n    tag_27:\n        /* \"--CODEGEN--\":68:448   */\n      pop\n      pop\n      pop\n      swap3\n      swap2\n      pop\n      pop\n      jump\t// out\n        /* \"--CODEGEN--\":456:803   */\n    tag_6:\n      0x00\n        /* \"--CODEGEN--\":570:572   */\n      0x20\n        /* \"--CODEGEN--\":558:567   */\n      dup3\n        /* \"--CODEGEN--\":549:556   */\n      dup5\n        /* \"--CODEGEN--\":545:568   */\n      sub\n        /* \"--CODEGEN--\":541:573   */\n      slt\n        /* \"--CODEGEN--\":538:540   */\n      iszero\n      tag_30\n      jumpi\n        /* \"--CODEGEN--\":586:587   */\n      0x00\n        /* \"--CODEGEN--\":583:584   */\n      dup1\n        /* \"--CODEGEN--\":576:588   */\n      revert\n        /* \"--CODEGEN--\":538:540   */\n    tag_30:\n        /* \"--CODEGEN--\":649:650   */\n      0x00\n        /* \"--CODEGEN--\":638:647   */\n      dup3\n        /* \"--CODEGEN--\":634:651   */\n      add\n        /* \"--CODEGEN--\":621:652   */\n      calldataload\n        /* \"--CODEGEN--\":672:690   */\n      0xffffffffffffffff\n        /* \"--CODEGEN--\":664:670   */\n      dup2\n        /* \"--CODEGEN--\":661:691   */\n      gt\n        /* \"--CODEGEN--\":658:660   */\n      iszero\n      tag_31\n      jumpi\n        /* \"--CODEGEN--\":704:705   */\n      0x00\n        /* \"--CODEGEN--\":701:702   */\n      dup1\n        /* \"--CODEGEN--\":694:706   */\n      revert\n        /* \"--CODEGEN--\":658:660   */\n    tag_31:\n        /* \"--CODEGEN--\":724:787   */\n      tag_32\n        /* \"--CODEGEN--\":779:786   */\n      dup5\n        /* \"--CODEGEN--\":770:776   */\n      dup3\n        /* \"--CODEGEN--\":759:768   */\n      dup6\n        /* \"--CODEGEN--\":755:777   */\n      add\n        /* \"--CODEGEN--\":724:787   */\n      tag_19\n      jump\t// in\n    tag_32:\n        /* \"--CODEGEN--\":714:787   */\n      swap2\n      pop\n        /* \"--CODEGEN--\":600:793   */\n      pop\n        /* \"--CODEGEN--\":532:803   */\n      swap3\n      swap2\n      pop\n      pop\n      jump\t// out\n        /* \"--CODEGEN--\":810:1157   */\n    tag_33:\n      0x00\n        /* \"--CODEGEN--\":922:961   */\n      tag_35\n        /* \"--CODEGEN--\":955:960   */\n      dup3\n        /* \"--CODEGEN--\":922:961   */\n      tag_36\n      jump\t// in\n    tag_35:\n        /* \"--CODEGEN--\":973:1044   */\n      tag_37\n        /* \"--CODEGEN--\":1037:1043   */\n      dup2\n        /* \"--CODEGEN--\":1032:1035   */\n      dup6\n        /* \"--CODEGEN--\":973:1044   */\n      tag_38\n      jump\t// in\n    tag_37:\n        /* \"--CODEGEN--\":966:1044   */\n      swap4\n      pop\n        /* \"--CODEGEN--\":1049:1101   */\n      tag_39\n        /* \"--CODEGEN--\":1094:1100   */\n      dup2\n        /* \"--CODEGEN--\":1089:1092   */\n      dup6\n        /* \"--CODEGEN--\":1082:1086   */\n      0x20\n        /* \"--CODEGEN--\":1075:1080   */\n      dup7\n        /* \"--CODEGEN--\":1071:1087   */\n      add\n        /* \"--CODEGEN--\":1049:1101   */\n      tag_40\n      jump\t// in\n    tag_39:\n        /* \"--CODEGEN--\":1122:1151   */\n      tag_41\n        /* \"--CODEGEN--\":1144:1150   */\n      dup2\n        /* \"--CODEGEN--\":1122:1151   */\n      tag_42\n      jump\t// in\n    tag_41:\n        /* \"--CODEGEN--\":1117:1120   */\n      dup5\n        /* \"--CODEGEN--\":1113:1152   */\n      add\n        /* \"--CODEGEN--\":1106:1152   */\n      swap2\n      pop\n        /* \"--CODEGEN--\":902:1157   */\n      pop\n      swap3\n      swap2\n      pop\n      pop\n      jump\t// out\n        /* \"--CODEGEN--\":1164:1524   */\n    tag_43:\n      0x00\n        /* \"--CODEGEN--\":1294:1333   */\n      tag_45\n        /* \"--CODEGEN--\":1327:1332   */\n      dup3\n        /* \"--CODEGEN--\":1294:1333   */\n      tag_36\n      jump\t// in\n    tag_45:\n        /* \"--CODEGEN--\":1345:1434   */\n      tag_46\n        /* \"--CODEGEN--\":1427:1433   */\n      dup2\n        /* \"--CODEGEN--\":1422:1425   */\n      dup6\n        /* \"--CODEGEN--\":1345:1434   */\n      tag_47\n      jump\t// in\n    tag_46:\n        /* \"--CODEGEN--\":1338:1434   */\n      swap4\n      pop\n        /* \"--CODEGEN--\":1439:1491   */\n      tag_48\n        /* \"--CODEGEN--\":1484:1490   */\n      dup2\n        /* \"--CODEGEN--\":1479:1482   */\n      dup6\n        /* \"--CODEGEN--\":1472:1476   */\n      0x20\n        /* \"--CODEGEN--\":1465:1470   */\n      dup7\n        /* \"--CODEGEN--\":1461:1477   */\n      add\n        /* \"--CODEGEN--\":1439:1491   */\n      tag_40\n      jump\t// in\n    tag_48:\n        /* \"--CODEGEN--\":1512:1518   */\n      dup1\n        /* \"--CODEGEN--\":1507:1510   */\n      dup5\n        /* \"--CODEGEN--\":1503:1519   */\n      add\n        /* \"--CODEGEN--\":1496:1519   */\n      swap2\n      pop\n        /* \"--CODEGEN--\":1274:1524   */\n      pop\n      swap3\n      swap2\n      pop\n      pop\n      jump\t// out\n        /* \"--CODEGEN--\":1556:2440   */\n    tag_49:\n      0x00\n        /* \"--CODEGEN--\":1693:1698   */\n      dup2\n        /* \"--CODEGEN--\":1687:1699   */\n      sload\n        /* \"--CODEGEN--\":1727:1728   */\n      0x01\n        /* \"--CODEGEN--\":1716:1725   */\n      dup2\n        /* \"--CODEGEN--\":1712:1729   */\n      and\n        /* \"--CODEGEN--\":1740:1741   */\n      0x00\n        /* \"--CODEGEN--\":1735:2003   */\n      dup2\n      eq\n      tag_52\n      jumpi\n        /* \"--CODEGEN--\":2014:2015   */\n      0x01\n        /* \"--CODEGEN--\":2009:2434   */\n      dup2\n      eq\n      tag_53\n      jumpi\n        /* \"--CODEGEN--\":1705:2434   */\n      jump(tag_51)\n        /* \"--CODEGEN--\":1735:2003   */\n    tag_52:\n        /* \"--CODEGEN--\":1813:1817   */\n      0x7f\n        /* \"--CODEGEN--\":1809:1810   */\n      0x02\n        /* \"--CODEGEN--\":1798:1807   */\n      dup4\n        /* \"--CODEGEN--\":1794:1811   */\n      div\n        /* \"--CODEGEN--\":1790:1818   */\n      and\n        /* \"--CODEGEN--\":1832:1921   */\n      tag_54\n        /* \"--CODEGEN--\":1914:1920   */\n      dup2\n        /* \"--CODEGEN--\":1909:1912   */\n      dup8\n        /* \"--CODEGEN--\":1832:1921   */\n      tag_47\n      jump\t// in\n    tag_54:\n        /* \"--CODEGEN--\":1825:1921   */\n      swap6\n      pop\n        /* \"--CODEGEN--\":1959:1963   */\n      0xff\n        /* \"--CODEGEN--\":1955:1964   */\n      not\n        /* \"--CODEGEN--\":1944:1953   */\n      dup4\n        /* \"--CODEGEN--\":1940:1965   */\n      and\n        /* \"--CODEGEN--\":1935:1938   */\n      dup7\n        /* \"--CODEGEN--\":1928:1966   */\n      mstore\n        /* \"--CODEGEN--\":1989:1995   */\n      dup1\n        /* \"--CODEGEN--\":1984:1987   */\n      dup7\n        /* \"--CODEGEN--\":1980:1996   */\n      add\n        /* \"--CODEGEN--\":1973:1996   */\n      swap4\n      pop\n        /* \"--CODEGEN--\":1742:2003   */\n      pop\n        /* \"--CODEGEN--\":1735:2003   */\n      jump(tag_51)\n        /* \"--CODEGEN--\":2009:2434   */\n    tag_53:\n        /* \"--CODEGEN--\":2078:2079   */\n      0x02\n        /* \"--CODEGEN--\":2067:2076   */\n      dup3\n        /* \"--CODEGEN--\":2063:2080   */\n      div\n        /* \"--CODEGEN--\":2094:2183   */\n      tag_55\n        /* \"--CODEGEN--\":2176:2182   */\n      dup2\n        /* \"--CODEGEN--\":2171:2174   */\n      dup8\n        /* \"--CODEGEN--\":2094:2183   */\n      tag_47\n      jump\t// in\n    tag_55:\n        /* \"--CODEGEN--\":2087:2183   */\n      swap6\n      pop\n        /* \"--CODEGEN--\":2205:2243   */\n      tag_56\n        /* \"--CODEGEN--\":2237:2242   */\n      dup6\n        /* \"--CODEGEN--\":2205:2243   */\n      tag_57\n      jump\t// in\n    tag_56:\n        /* \"--CODEGEN--\":2259:2260   */\n      0x00\n        /* \"--CODEGEN--\":2267:2397   */\n    tag_58:\n        /* \"--CODEGEN--\":2281:2287   */\n      dup3\n        /* \"--CODEGEN--\":2278:2279   */\n      dup2\n        /* \"--CODEGEN--\":2275:2288   */\n      lt\n        /* \"--CODEGEN--\":2267:2397   */\n      iszero\n      tag_60\n      jumpi\n        /* \"--CODEGEN--\":2346:2353   */\n      dup2\n        /* \"--CODEGEN--\":2340:2354   */\n      sload\n        /* \"--CODEGEN--\":2336:2337   */\n      dup2\n        /* \"--CODEGEN--\":2331:2334   */\n      dup10\n        /* \"--CODEGEN--\":2327:2338   */\n      add\n        /* \"--CODEGEN--\":2320:2355   */\n      mstore\n        /* \"--CODEGEN--\":2387:2388   */\n      0x01\n        /* \"--CODEGEN--\":2378:2385   */\n      dup3\n        /* \"--CODEGEN--\":2374:2389   */\n      add\n        /* \"--CODEGEN--\":2363:2389   */\n      swap2\n      pop\n        /* \"--CODEGEN--\":2303:2307   */\n      0x20\n        /* \"--CODEGEN--\":2300:2301   */\n      dup2\n        /* \"--CODEGEN--\":2296:2308   */\n      add\n        /* \"--CODEGEN--\":2291:2308   */\n      swap1\n      pop\n        /* \"--CODEGEN--\":2267:2397   */\n      jump(tag_58)\n    tag_60:\n        /* \"--CODEGEN--\":2420:2426   */\n      dup3\n        /* \"--CODEGEN--\":2415:2418   */\n      dup9\n        /* \"--CODEGEN--\":2411:2427   */\n      add\n        /* \"--CODEGEN--\":2404:2427   */\n      swap6\n      pop\n        /* \"--CODEGEN--\":2016:2434   */\n      pop\n      pop\n      pop\n        /* \"--CODEGEN--\":1705:2434   */\n    tag_51:\n      pop\n        /* \"--CODEGEN--\":1663:2440   */\n      pop\n      swap3\n      swap2\n      pop\n      pop\n      jump\t// out\n        /* \"--CODEGEN--\":2449:2757   */\n    tag_61:\n      0x00\n        /* \"--CODEGEN--\":2609:2675   */\n      tag_63\n        /* \"--CODEGEN--\":2673:2674   */\n      0x09\n        /* \"--CODEGEN--\":2668:2671   */\n      dup4\n        /* \"--CODEGEN--\":2609:2675   */\n      tag_38\n      jump\t// in\n    tag_63:\n        /* \"--CODEGEN--\":2602:2675   */\n      swap2\n      pop\n        /* \"--CODEGEN--\":2708:2719   */\n      0x54727920616761696e0000000000000000000000000000000000000000000000\n        /* \"--CODEGEN--\":2704:2705   */\n      0x00\n        /* \"--CODEGEN--\":2699:2702   */\n      dup4\n        /* \"--CODEGEN--\":2695:2706   */\n      add\n        /* \"--CODEGEN--\":2688:2720   */\n      mstore\n        /* \"--CODEGEN--\":2748:2750   */\n      0x20\n        /* \"--CODEGEN--\":2743:2746   */\n      dup3\n        /* \"--CODEGEN--\":2739:2751   */\n      add\n        /* \"--CODEGEN--\":2732:2751   */\n      swap1\n      pop\n        /* \"--CODEGEN--\":2595:2757   */\n      swap2\n      swap1\n      pop\n      jump\t// out\n        /* \"--CODEGEN--\":2765:3040   */\n    tag_14:\n      0x00\n        /* \"--CODEGEN--\":2920:3015   */\n      tag_65\n        /* \"--CODEGEN--\":3011:3014   */\n      dup3\n        /* \"--CODEGEN--\":3002:3008   */\n      dup5\n        /* \"--CODEGEN--\":2920:3015   */\n      tag_43\n      jump\t// in\n    tag_65:\n        /* \"--CODEGEN--\":2913:3015   */\n      swap2\n      pop\n        /* \"--CODEGEN--\":3032:3035   */\n      dup2\n        /* \"--CODEGEN--\":3025:3035   */\n      swap1\n      pop\n        /* \"--CODEGEN--\":2901:3040   */\n      swap3\n      swap2\n      pop\n      pop\n      jump\t// out\n        /* \"--CODEGEN--\":3047:3316   */\n    tag_12:\n      0x00\n        /* \"--CODEGEN--\":3199:3291   */\n      tag_67\n        /* \"--CODEGEN--\":3287:3290   */\n      dup3\n        /* \"--CODEGEN--\":3278:3284   */\n      dup5\n        /* \"--CODEGEN--\":3199:3291   */\n      tag_49\n      jump\t// in\n    tag_67:\n        /* \"--CODEGEN--\":3192:3291   */\n      swap2\n      pop\n        /* \"--CODEGEN--\":3308:3311   */\n      dup2\n        /* \"--CODEGEN--\":3301:3311   */\n      swap1\n      pop\n        /* \"--CODEGEN--\":3180:3316   */\n      swap3\n      swap2\n      pop\n      pop\n      jump\t// out\n        /* \"--CODEGEN--\":3323:3633   */\n    tag_9:\n      0x00\n        /* \"--CODEGEN--\":3470:3472   */\n      0x20\n        /* \"--CODEGEN--\":3459:3468   */\n      dup3\n        /* \"--CODEGEN--\":3455:3473   */\n      add\n        /* \"--CODEGEN--\":3447:3473   */\n      swap1\n      pop\n        /* \"--CODEGEN--\":3520:3529   */\n      dup2\n        /* \"--CODEGEN--\":3514:3518   */\n      dup2\n        /* \"--CODEGEN--\":3510:3530   */\n      sub\n        /* \"--CODEGEN--\":3506:3507   */\n      0x00\n        /* \"--CODEGEN--\":3495:3504   */\n      dup4\n        /* \"--CODEGEN--\":3491:3508   */\n      add\n        /* \"--CODEGEN--\":3484:3531   */\n      mstore\n        /* \"--CODEGEN--\":3545:3623   */\n      tag_69\n        /* \"--CODEGEN--\":3618:3622   */\n      dup2\n        /* \"--CODEGEN--\":3609:3615   */\n      dup5\n        /* \"--CODEGEN--\":3545:3623   */\n      tag_33\n      jump\t// in\n    tag_69:\n        /* \"--CODEGEN--\":3537:3623   */\n      swap1\n      pop\n        /* \"--CODEGEN--\":3441:3633   */\n      swap3\n      swap2\n      pop\n      pop\n      jump\t// out\n        /* \"--CODEGEN--\":3640:4056   */\n    tag_17:\n      0x00\n        /* \"--CODEGEN--\":3840:3842   */\n      0x20\n        /* \"--CODEGEN--\":3829:3838   */\n      dup3\n        /* \"--CODEGEN--\":3825:3843   */\n      add\n        /* \"--CODEGEN--\":3817:3843   */\n      swap1\n      pop\n        /* \"--CODEGEN--\":3890:3899   */\n      dup2\n        /* \"--CODEGEN--\":3884:3888   */\n      dup2\n        /* \"--CODEGEN--\":3880:3900   */\n      sub\n        /* \"--CODEGEN--\":3876:3877   */\n      0x00\n        /* \"--CODEGEN--\":3865:3874   */\n      dup4\n        /* \"--CODEGEN--\":3861:3878   */\n      add\n        /* \"--CODEGEN--\":3854:3901   */\n      mstore\n        /* \"--CODEGEN--\":3915:4046   */\n      tag_71\n        /* \"--CODEGEN--\":4041:4045   */\n      dup2\n        /* \"--CODEGEN--\":3915:4046   */\n      tag_61\n      jump\t// in\n    tag_71:\n        /* \"--CODEGEN--\":3907:4046   */\n      swap1\n      pop\n        /* \"--CODEGEN--\":3811:4056   */\n      swap2\n      swap1\n      pop\n      jump\t// out\n        /* \"--CODEGEN--\":4063:4319   */\n    tag_25:\n      0x00\n        /* \"--CODEGEN--\":4125:4127   */\n      0x40\n        /* \"--CODEGEN--\":4119:4128   */\n      mload\n        /* \"--CODEGEN--\":4109:4128   */\n      swap1\n      pop\n        /* \"--CODEGEN--\":4163:4167   */\n      dup2\n        /* \"--CODEGEN--\":4155:4161   */\n      dup2\n        /* \"--CODEGEN--\":4151:4168   */\n      add\n        /* \"--CODEGEN--\":4262:4268   */\n      dup2\n        /* \"--CODEGEN--\":4250:4260   */\n      dup2\n        /* \"--CODEGEN--\":4247:4269   */\n      lt\n        /* \"--CODEGEN--\":4226:4244   */\n      0xffffffffffffffff\n        /* \"--CODEGEN--\":4214:4224   */\n      dup3\n        /* \"--CODEGEN--\":4211:4245   */\n      gt\n        /* \"--CODEGEN--\":4208:4270   */\n      or\n        /* \"--CODEGEN--\":4205:4207   */\n      iszero\n      tag_73\n      jumpi\n        /* \"--CODEGEN--\":4283:4284   */\n      0x00\n        /* \"--CODEGEN--\":4280:4281   */\n      dup1\n        /* \"--CODEGEN--\":4273:4285   */\n      revert\n        /* \"--CODEGEN--\":4205:4207   */\n    tag_73:\n        /* \"--CODEGEN--\":4303:4313   */\n      dup1\n        /* \"--CODEGEN--\":4299:4301   */\n      0x40\n        /* \"--CODEGEN--\":4292:4314   */\n      mstore\n        /* \"--CODEGEN--\":4103:4319   */\n      pop\n      swap2\n      swap1\n      pop\n      jump\t// out\n        /* \"--CODEGEN--\":4326:4648   */\n    tag_24:\n      0x00\n        /* \"--CODEGEN--\":4470:4488   */\n      0xffffffffffffffff\n        /* \"--CODEGEN--\":4462:4468   */\n      dup3\n        /* \"--CODEGEN--\":4459:4489   */\n      gt\n        /* \"--CODEGEN--\":4456:4458   */\n      iszero\n      tag_75\n      jumpi\n        /* \"--CODEGEN--\":4502:4503   */\n      0x00\n        /* \"--CODEGEN--\":4499:4500   */\n      dup1\n        /* \"--CODEGEN--\":4492:4504   */\n      revert\n        /* \"--CODEGEN--\":4456:4458   */\n    tag_75:\n        /* \"--CODEGEN--\":4569:4573   */\n      0x1f\n        /* \"--CODEGEN--\":4565:4574   */\n      not\n        /* \"--CODEGEN--\":4558:4562   */\n      0x1f\n        /* \"--CODEGEN--\":4550:4556   */\n      dup4\n        /* \"--CODEGEN--\":4546:4563   */\n      add\n        /* \"--CODEGEN--\":4542:4575   */\n      and\n        /* \"--CODEGEN--\":4534:4575   */\n      swap1\n      pop\n        /* \"--CODEGEN--\":4633:4637   */\n      0x20\n        /* \"--CODEGEN--\":4627:4631   */\n      dup2\n        /* \"--CODEGEN--\":4623:4638   */\n      add\n        /* \"--CODEGEN--\":4615:4638   */\n      swap1\n      pop\n        /* \"--CODEGEN--\":4393:4648   */\n      swap2\n      swap1\n      pop\n      jump\t// out\n        /* \"--CODEGEN--\":4655:4813   */\n    tag_57:\n      0x00\n        /* \"--CODEGEN--\":4723:4726   */\n      dup2\n        /* \"--CODEGEN--\":4715:4726   */\n      swap1\n      pop\n        /* \"--CODEGEN--\":4760:4763   */\n      dup2\n        /* \"--CODEGEN--\":4757:4758   */\n      0x00\n        /* \"--CODEGEN--\":4750:4764   */\n      mstore\n        /* \"--CODEGEN--\":4792:4796   */\n      0x20\n        /* \"--CODEGEN--\":4789:4790   */\n      0x00\n        /* \"--CODEGEN--\":4779:4797   */\n      keccak256\n        /* \"--CODEGEN--\":4771:4797   */\n      swap1\n      pop\n        /* \"--CODEGEN--\":4709:4813   */\n      swap2\n      swap1\n      pop\n      jump\t// out\n        /* \"--CODEGEN--\":4820:4942   */\n    tag_36:\n      0x00\n        /* \"--CODEGEN--\":4914:4919   */\n      dup2\n        /* \"--CODEGEN--\":4908:4920   */\n      mload\n        /* \"--CODEGEN--\":4898:4920   */\n      swap1\n      pop\n        /* \"--CODEGEN--\":4879:4942   */\n      swap2\n      swap1\n      pop\n      jump\t// out\n        /* \"--CODEGEN--\":4950:5113   */\n    tag_38:\n      0x00\n        /* \"--CODEGEN--\":5065:5071   */\n      dup3\n        /* \"--CODEGEN--\":5060:5063   */\n      dup3\n        /* \"--CODEGEN--\":5053:5072   */\n      mstore\n        /* \"--CODEGEN--\":5102:5106   */\n      0x20\n        /* \"--CODEGEN--\":5097:5100   */\n      dup3\n        /* \"--CODEGEN--\":5093:5107   */\n      add\n        /* \"--CODEGEN--\":5078:5107   */\n      swap1\n      pop\n        /* \"--CODEGEN--\":5046:5113   */\n      swap3\n      swap2\n      pop\n      pop\n      jump\t// out\n        /* \"--CODEGEN--\":5122:5267   */\n    tag_47:\n      0x00\n        /* \"--CODEGEN--\":5258:5261   */\n      dup2\n        /* \"--CODEGEN--\":5243:5261   */\n      swap1\n      pop\n        /* \"--CODEGEN--\":5236:5267   */\n      swap3\n      swap2\n      pop\n      pop\n      jump\t// out\n        /* \"--CODEGEN--\":5276:5421   */\n    tag_28:\n        /* \"--CODEGEN--\":5357:5363   */\n      dup3\n        /* \"--CODEGEN--\":5352:5355   */\n      dup2\n        /* \"--CODEGEN--\":5347:5350   */\n      dup4\n        /* \"--CODEGEN--\":5334:5364   */\n      calldatacopy\n        /* \"--CODEGEN--\":5413:5414   */\n      0x00\n        /* \"--CODEGEN--\":5404:5410   */\n      dup4\n        /* \"--CODEGEN--\":5399:5402   */\n      dup4\n        /* \"--CODEGEN--\":5395:5411   */\n      add\n        /* \"--CODEGEN--\":5388:5415   */\n      mstore\n        /* \"--CODEGEN--\":5327:5421   */\n      pop\n      pop\n      pop\n      jump\t// out\n        /* \"--CODEGEN--\":5430:5698   */\n    tag_40:\n        /* \"--CODEGEN--\":5495:5496   */\n      0x00\n        /* \"--CODEGEN--\":5502:5603   */\n    tag_82:\n        /* \"--CODEGEN--\":5516:5522   */\n      dup4\n        /* \"--CODEGEN--\":5513:5514   */\n      dup2\n        /* \"--CODEGEN--\":5510:5523   */\n      lt\n        /* \"--CODEGEN--\":5502:5603   */\n      iszero\n      tag_84\n      jumpi\n        /* \"--CODEGEN--\":5592:5593   */\n      dup1\n        /* \"--CODEGEN--\":5587:5590   */\n      dup3\n        /* \"--CODEGEN--\":5583:5594   */\n      add\n        /* \"--CODEGEN--\":5577:5595   */\n      mload\n        /* \"--CODEGEN--\":5573:5574   */\n      dup2\n        /* \"--CODEGEN--\":5568:5571   */\n      dup5\n        /* \"--CODEGEN--\":5564:5575   */\n      add\n        /* \"--CODEGEN--\":5557:5596   */\n      mstore\n        /* \"--CODEGEN--\":5538:5540   */\n      0x20\n        /* \"--CODEGEN--\":5535:5536   */\n      dup2\n        /* \"--CODEGEN--\":5531:5541   */\n      add\n        /* \"--CODEGEN--\":5526:5541   */\n      swap1\n      pop\n        /* \"--CODEGEN--\":5502:5603   */\n      jump(tag_82)\n    tag_84:\n        /* \"--CODEGEN--\":5618:5624   */\n      dup4\n        /* \"--CODEGEN--\":5615:5616   */\n      dup2\n        /* \"--CODEGEN--\":5612:5625   */\n      gt\n        /* \"--CODEGEN--\":5609:5611   */\n      iszero\n      tag_85\n      jumpi\n        /* \"--CODEGEN--\":5683:5684   */\n      0x00\n        /* \"--CODEGEN--\":5674:5680   */\n      dup5\n        /* \"--CODEGEN--\":5669:5672   */\n      dup5\n        /* \"--CODEGEN--\":5665:5681   */\n      add\n        /* \"--CODEGEN--\":5658:5685   */\n      mstore\n        /* \"--CODEGEN--\":5609:5611   */\n    tag_85:\n        /* \"--CODEGEN--\":5479:5698   */\n      pop\n      pop\n      pop\n      pop\n      jump\t// out\n        /* \"--CODEGEN--\":5706:5803   */\n    tag_42:\n      0x00\n        /* \"--CODEGEN--\":5794:5796   */\n      0x1f\n        /* \"--CODEGEN--\":5790:5797   */\n      not\n        /* \"--CODEGEN--\":5785:5787   */\n      0x1f\n        /* \"--CODEGEN--\":5778:5783   */\n      dup4\n        /* \"--CODEGEN--\":5774:5788   */\n      add\n        /* \"--CODEGEN--\":5770:5798   */\n      and\n        /* \"--CODEGEN--\":5760:5798   */\n      swap1\n      pop\n        /* \"--CODEGEN--\":5754:5803   */\n      swap2\n      swap1\n      pop\n      jump\t// out\n\n    auxdata: 0xa2646970667358221220b6e4a7696cc749d8a5cd9cf78d26f96ee020412b02de0e488a2131d45d75bbf064736f6c634300060c0033\n}\n",
				"bytecode": {
					"linkReferences": {},
					"object": "60806040526040518060400160405280600881526020017f50345353573052440000000000000000000000000000000000000000000000008152506000908051906020019061004f929190610062565b5034801561005c57600080fd5b506100ff565b828054600181600116156101000203166002900490600052602060002090601f016020900481019282601f106100a357805160ff19168380011785556100d1565b828001600101855582156100d1579182015b828111156100d05782518255916020019190600101906100b5565b5b5090506100de91906100e2565b5090565b5b808211156100fb5760008160009055506001016100e3565b5090565b6104898061010e6000396000f3fe608060405234801561001057600080fd5b506004361061002b5760003560e01c80630c0ef9b714610030575b600080fd5b61004a60048036038101906100459190610182565b610060565b6040516100579190610329565b60405180910390f35b606060006040516020016100749190610312565b604051602081830303815290604052805190602001208260405160200161009b91906102fb565b60405160208183030381529060405280519060200120146100f1576040517f08c379a00000000000000000000000000000000000000000000000000000000081526004016100e89061034b565b60405180910390fd5b6040518060400160405280600581526020017f50617373210000000000000000000000000000000000000000000000000000008152509050919050565b600082601f83011261013f57600080fd5b813561015261014d82610398565b61036b565b9150808252602083016020830185838301111561016e57600080fd5b610179838284610400565b50505092915050565b60006020828403121561019457600080fd5b600082013567ffffffffffffffff8111156101ae57600080fd5b6101ba8482850161012e565b91505092915050565b60006101ce826103d9565b6101d881856103e4565b93506101e881856020860161040f565b6101f181610442565b840191505092915050565b6000610207826103d9565b61021181856103f5565b935061022181856020860161040f565b80840191505092915050565b60008154600181166000811461024a576001811461026f576102b3565b607f600283041661025b81876103f5565b955060ff19831686528086019350506102b3565b6002820461027d81876103f5565b9550610288856103c4565b60005b828110156102aa5781548189015260018201915060208101905061028b565b82880195505050505b505092915050565b60006102c86009836103e4565b91507f54727920616761696e00000000000000000000000000000000000000000000006000830152602082019050919050565b600061030782846101fc565b915081905092915050565b600061031e828461022d565b915081905092915050565b6000602082019050818103600083015261034381846101c3565b905092915050565b60006020820190508181036000830152610364816102bb565b9050919050565b6000604051905081810181811067ffffffffffffffff8211171561038e57600080fd5b8060405250919050565b600067ffffffffffffffff8211156103af57600080fd5b601f19601f8301169050602081019050919050565b60008190508160005260206000209050919050565b600081519050919050565b600082825260208201905092915050565b600081905092915050565b82818337600083830152505050565b60005b8381101561042d578082015181840152602081019050610412565b8381111561043c576000848401525b50505050565b6000601f19601f830116905091905056fea2646970667358221220b6e4a7696cc749d8a5cd9cf78d26f96ee020412b02de0e488a2131d45d75bbf064736f6c634300060c0033",
					"opcodes": "PUSH1 0x80 PUSH1 0x40 MSTORE PUSH1 0x40 MLOAD DUP1 PUSH1 0x40 ADD PUSH1 0x40 MSTORE DUP1 PUSH1 0x8 DUP2 MSTORE PUSH1 0x20 ADD PUSH32 0x5034535357305244000000000000000000000000000000000000000000000000 DUP2 MSTORE POP PUSH1 0x0 SWAP1 DUP1 MLOAD SWAP1 PUSH1 0x20 ADD SWAP1 PUSH2 0x4F SWAP3 SWAP2 SWAP1 PUSH2 0x62 JUMP JUMPDEST POP CALLVALUE DUP1 ISZERO PUSH2 0x5C JUMPI PUSH1 0x0 DUP1 REVERT JUMPDEST POP PUSH2 0xFF JUMP JUMPDEST DUP3 DUP1 SLOAD PUSH1 0x1 DUP2 PUSH1 0x1 AND ISZERO PUSH2 0x100 MUL SUB AND PUSH1 0x2 SWAP1 DIV SWAP1 PUSH1 0x0 MSTORE PUSH1 0x20 PUSH1 0x0 KECCAK256 SWAP1 PUSH1 0x1F ADD PUSH1 0x20 SWAP1 DIV DUP2 ADD SWAP3 DUP3 PUSH1 0x1F LT PUSH2 0xA3 JUMPI DUP1 MLOAD PUSH1 0xFF NOT AND DUP4 DUP1 ADD OR DUP6 SSTORE PUSH2 0xD1 JUMP JUMPDEST DUP3 DUP1 ADD PUSH1 0x1 ADD DUP6 SSTORE DUP3 ISZERO PUSH2 0xD1 JUMPI SWAP2 DUP3 ADD JUMPDEST DUP3 DUP2 GT ISZERO PUSH2 0xD0 JUMPI DUP3 MLOAD DUP3 SSTORE SWAP2 PUSH1 0x20 ADD SWAP2 SWAP1 PUSH1 0x1 ADD SWAP1 PUSH2 0xB5 JUMP JUMPDEST JUMPDEST POP SWAP1 POP PUSH2 0xDE SWAP2 SWAP1 PUSH2 0xE2 JUMP JUMPDEST POP SWAP1 JUMP JUMPDEST JUMPDEST DUP1 DUP3 GT ISZERO PUSH2 0xFB JUMPI PUSH1 0x0 DUP2 PUSH1 0x0 SWAP1 SSTORE POP PUSH1 0x1 ADD PUSH2 0xE3 JUMP JUMPDEST POP SWAP1 JUMP JUMPDEST PUSH2 0x489 DUP1 PUSH2 0x10E PUSH1 0x0 CODECOPY PUSH1 0x0 RETURN INVALID PUSH1 0x80 PUSH1 0x40 MSTORE CALLVALUE DUP1 ISZERO PUSH2 0x10 JUMPI PUSH1 0x0 DUP1 REVERT JUMPDEST POP PUSH1 0x4 CALLDATASIZE LT PUSH2 0x2B JUMPI PUSH1 0x0 CALLDATALOAD PUSH1 0xE0 SHR DUP1 PUSH4 0xC0EF9B7 EQ PUSH2 0x30 JUMPI JUMPDEST PUSH1 0x0 DUP1 REVERT JUMPDEST PUSH2 0x4A PUSH1 0x4 DUP1 CALLDATASIZE SUB DUP2 ADD SWAP1 PUSH2 0x45 SWAP2 SWAP1 PUSH2 0x182 JUMP JUMPDEST PUSH2 0x60 JUMP JUMPDEST PUSH1 0x40 MLOAD PUSH2 0x57 SWAP2 SWAP1 PUSH2 0x329 JUMP JUMPDEST PUSH1 0x40 MLOAD DUP1 SWAP2 SUB SWAP1 RETURN JUMPDEST PUSH1 0x60 PUSH1 0x0 PUSH1 0x40 MLOAD PUSH1 0x20 ADD PUSH2 0x74 SWAP2 SWAP1 PUSH2 0x312 JUMP JUMPDEST PUSH1 0x40 MLOAD PUSH1 0x20 DUP2 DUP4 SUB SUB DUP2 MSTORE SWAP1 PUSH1 0x40 MSTORE DUP1 MLOAD SWAP1 PUSH1 0x20 ADD KECCAK256 DUP3 PUSH1 0x40 MLOAD PUSH1 0x20 ADD PUSH2 0x9B SWAP2 SWAP1 PUSH2 0x2FB JUMP JUMPDEST PUSH1 0x40 MLOAD PUSH1 0x20 DUP2 DUP4 SUB SUB DUP2 MSTORE SWAP1 PUSH1 0x40 MSTORE DUP1 MLOAD SWAP1 PUSH1 0x20 ADD KECCAK256 EQ PUSH2 0xF1 JUMPI PUSH1 0x40 MLOAD PUSH32 0x8C379A000000000000000000000000000000000000000000000000000000000 DUP2 MSTORE PUSH1 0x4 ADD PUSH2 0xE8 SWAP1 PUSH2 0x34B JUMP JUMPDEST PUSH1 0x40 MLOAD DUP1 SWAP2 SUB SWAP1 REVERT JUMPDEST PUSH1 0x40 MLOAD DUP1 PUSH1 0x40 ADD PUSH1 0x40 MSTORE DUP1 PUSH1 0x5 DUP2 MSTORE PUSH1 0x20 ADD PUSH32 0x5061737321000000000000000000000000000000000000000000000000000000 DUP2 MSTORE POP SWAP1 POP SWAP2 SWAP1 POP JUMP JUMPDEST PUSH1 0x0 DUP3 PUSH1 0x1F DUP4 ADD SLT PUSH2 0x13F JUMPI PUSH1 0x0 DUP1 REVERT JUMPDEST DUP2 CALLDATALOAD PUSH2 0x152 PUSH2 0x14D DUP3 PUSH2 0x398 JUMP JUMPDEST PUSH2 0x36B JUMP JUMPDEST SWAP2 POP DUP1 DUP3 MSTORE PUSH1 0x20 DUP4 ADD PUSH1 0x20 DUP4 ADD DUP6 DUP4 DUP4 ADD GT ISZERO PUSH2 0x16E JUMPI PUSH1 0x0 DUP1 REVERT JUMPDEST PUSH2 0x179 DUP4 DUP3 DUP5 PUSH2 0x400 JUMP JUMPDEST POP POP POP SWAP3 SWAP2 POP POP JUMP JUMPDEST PUSH1 0x0 PUSH1 0x20 DUP3 DUP5 SUB SLT ISZERO PUSH2 0x194 JUMPI PUSH1 0x0 DUP1 REVERT JUMPDEST PUSH1 0x0 DUP3 ADD CALLDATALOAD PUSH8 0xFFFFFFFFFFFFFFFF DUP2 GT ISZERO PUSH2 0x1AE JUMPI PUSH1 0x0 DUP1 REVERT JUMPDEST PUSH2 0x1BA DUP5 DUP3 DUP6 ADD PUSH2 0x12E JUMP JUMPDEST SWAP2 POP POP SWAP3 SWAP2 POP POP JUMP JUMPDEST PUSH1 0x0 PUSH2 0x1CE DUP3 PUSH2 0x3D9 JUMP JUMPDEST PUSH2 0x1D8 DUP2 DUP6 PUSH2 0x3E4 JUMP JUMPDEST SWAP4 POP PUSH2 0x1E8 DUP2 DUP6 PUSH1 0x20 DUP7 ADD PUSH2 0x40F JUMP JUMPDEST PUSH2 0x1F1 DUP2 PUSH2 0x442 JUMP JUMPDEST DUP5 ADD SWAP2 POP POP SWAP3 SWAP2 POP POP JUMP JUMPDEST PUSH1 0x0 PUSH2 0x207 DUP3 PUSH2 0x3D9 JUMP JUMPDEST PUSH2 0x211 DUP2 DUP6 PUSH2 0x3F5 JUMP JUMPDEST SWAP4 POP PUSH2 0x221 DUP2 DUP6 PUSH1 0x20 DUP7 ADD PUSH2 0x40F JUMP JUMPDEST DUP1 DUP5 ADD SWAP2 POP POP SWAP3 SWAP2 POP POP JUMP JUMPDEST PUSH1 0x0 DUP2 SLOAD PUSH1 0x1 DUP2 AND PUSH1 0x0 DUP2 EQ PUSH2 0x24A JUMPI PUSH1 0x1 DUP2 EQ PUSH2 0x26F JUMPI PUSH2 0x2B3 JUMP JUMPDEST PUSH1 0x7F PUSH1 0x2 DUP4 DIV AND PUSH2 0x25B DUP2 DUP8 PUSH2 0x3F5 JUMP JUMPDEST SWAP6 POP PUSH1 0xFF NOT DUP4 AND DUP7 MSTORE DUP1 DUP7 ADD SWAP4 POP POP PUSH2 0x2B3 JUMP JUMPDEST PUSH1 0x2 DUP3 DIV PUSH2 0x27D DUP2 DUP8 PUSH2 0x3F5 JUMP JUMPDEST SWAP6 POP PUSH2 0x288 DUP6 PUSH2 0x3C4 JUMP JUMPDEST PUSH1 0x0 JUMPDEST DUP3 DUP2 LT ISZERO PUSH2 0x2AA JUMPI DUP2 SLOAD DUP2 DUP10 ADD MSTORE PUSH1 0x1 DUP3 ADD SWAP2 POP PUSH1 0x20 DUP2 ADD SWAP1 POP PUSH2 0x28B JUMP JUMPDEST DUP3 DUP9 ADD SWAP6 POP POP POP POP JUMPDEST POP POP SWAP3 SWAP2 POP POP JUMP JUMPDEST PUSH1 0x0 PUSH2 0x2C8 PUSH1 0x9 DUP4 PUSH2 0x3E4 JUMP JUMPDEST SWAP2 POP PUSH32 0x54727920616761696E0000000000000000000000000000000000000000000000 PUSH1 0x0 DUP4 ADD MSTORE PUSH1 0x20 DUP3 ADD SWAP1 POP SWAP2 SWAP1 POP JUMP JUMPDEST PUSH1 0x0 PUSH2 0x307 DUP3 DUP5 PUSH2 0x1FC JUMP JUMPDEST SWAP2 POP DUP2 SWAP1 POP SWAP3 SWAP2 POP POP JUMP JUMPDEST PUSH1 0x0 PUSH2 0x31E DUP3 DUP5 PUSH2 0x22D JUMP JUMPDEST SWAP2 POP DUP2 SWAP1 POP SWAP3 SWAP2 POP POP JUMP JUMPDEST PUSH1 0x0 PUSH1 0x20 DUP3 ADD SWAP1 POP DUP2 DUP2 SUB PUSH1 0x0 DUP4 ADD MSTORE PUSH2 0x343 DUP2 DUP5 PUSH2 0x1C3 JUMP JUMPDEST SWAP1 POP SWAP3 SWAP2 POP POP JUMP JUMPDEST PUSH1 0x0 PUSH1 0x20 DUP3 ADD SWAP1 POP DUP2 DUP2 SUB PUSH1 0x0 DUP4 ADD MSTORE PUSH2 0x364 DUP2 PUSH2 0x2BB JUMP JUMPDEST SWAP1 POP SWAP2 SWAP1 POP JUMP JUMPDEST PUSH1 0x0 PUSH1 0x40 MLOAD SWAP1 POP DUP2 DUP2 ADD DUP2 DUP2 LT PUSH8 0xFFFFFFFFFFFFFFFF DUP3 GT OR ISZERO PUSH2 0x38E JUMPI PUSH1 0x0 DUP1 REVERT JUMPDEST DUP1 PUSH1 0x40 MSTORE POP SWAP2 SWAP1 POP JUMP JUMPDEST PUSH1 0x0 PUSH8 0xFFFFFFFFFFFFFFFF DUP3 GT ISZERO PUSH2 0x3AF JUMPI PUSH1 0x0 DUP1 REVERT JUMPDEST PUSH1 0x1F NOT PUSH1 0x1F DUP4 ADD AND SWAP1 POP PUSH1 0x20 DUP2 ADD SWAP1 POP SWAP2 SWAP1 POP JUMP JUMPDEST PUSH1 0x0 DUP2 SWAP1 POP DUP2 PUSH1 0x0 MSTORE PUSH1 0x20 PUSH1 0x0 KECCAK256 SWAP1 POP SWAP2 SWAP1 POP JUMP JUMPDEST PUSH1 0x0 DUP2 MLOAD SWAP1 POP SWAP2 SWAP1 POP JUMP JUMPDEST PUSH1 0x0 DUP3 DUP3 MSTORE PUSH1 0x20 DUP3 ADD SWAP1 POP SWAP3 SWAP2 POP POP JUMP JUMPDEST PUSH1 0x0 DUP2 SWAP1 POP SWAP3 SWAP2 POP POP JUMP JUMPDEST DUP3 DUP2 DUP4 CALLDATACOPY PUSH1 0x0 DUP4 DUP4 ADD MSTORE POP POP POP JUMP JUMPDEST PUSH1 0x0 JUMPDEST DUP4 DUP2 LT ISZERO PUSH2 0x42D JUMPI DUP1 DUP3 ADD MLOAD DUP2 DUP5 ADD MSTORE PUSH1 0x20 DUP2 ADD SWAP1 POP PUSH2 0x412 JUMP JUMPDEST DUP4 DUP2 GT ISZERO PUSH2 0x43C JUMPI PUSH1 0x0 DUP5 DUP5 ADD MSTORE JUMPDEST POP POP POP POP JUMP JUMPDEST PUSH1 0x0 PUSH1 0x1F NOT PUSH1 0x1F DUP4 ADD AND SWAP1 POP SWAP2 SWAP1 POP JUMP INVALID LOG2 PUSH5 0x6970667358 0x22 SLT KECCAK256 0xB6 0xE4 0xA7 PUSH10 0x6CC749D8A5CD9CF78D26 0xF9 PUSH15 0xE020412B02DE0E488A2131D45D75BB CREATE PUSH5 0x736F6C6343 STOP MOD 0xC STOP CALLER "
				},
				"gasEstimates": {
					"creation": {
						"codeDepositCost": "232200",
						"executionCost": "infinite",
						"totalCost": "infinite"
					},
					"external": {
						"passwordComparer(string)": "infinite"
					}
				},
				"methodIdentifiers": {
					"passwordComparer(string)": "0c0ef9b7"
				}
			},
			"storageLayout": {
				"storage": [
					{
						"astId": 5,
						"contract": "Funciones avanzadas/require.sol:Require",
						"label": "password",
						"offset": 0,
						"slot": "0",
						"type": "t_string_storage"
					}
				],
				"types": {
					"t_string_storage": {
						"encoding": "bytes",
						"label": "string",
						"numberOfBytes": "32"
					}
				}
			},
			"userdoc": {
				"kind": "user",
				"methods": {},
				"version": 1
			}
		}
	}
}