{
	"Funciones/returns.sol": {
		"ValoresDeRetorno": {
			"abi": [
				{
					"inputs": [
						{
							"internalType": "uint256",
							"name": "",
							"type": "uint256"
						}
					],
					"name": "array",
					"outputs": [
						{
							"internalType": "uint256",
							"name": "",
							"type": "uint256"
						}
					],
					"stateMutability": "view",
					"type": "function"
				},
				{
					"inputs": [
						{
							"internalType": "uint256",
							"name": "_a",
							"type": "uint256"
						},
						{
							"internalType": "uint256",
							"name": "_b",
							"type": "uint256"
						}
					],
					"name": "division",
					"outputs": [
						{
							"internalType": "uint256",
							"name": "",
							"type": "uint256"
						},
						{
							"internalType": "uint256",
							"name": "",
							"type": "uint256"
						},
						{
							"internalType": "bool",
							"name": "",
							"type": "bool"
						}
					],
					"stateMutability": "nonpayable",
					"type": "function"
				},
				{
					"inputs": [],
					"name": "guardar_valores",
					"outputs": [],
					"stateMutability": "nonpayable",
					"type": "function"
				},
				{
					"inputs": [
						{
							"internalType": "uint256",
							"name": "_a",
							"type": "uint256"
						},
						{
							"internalType": "uint256",
							"name": "_b",
							"type": "uint256"
						}
					],
					"name": "multiplicar",
					"outputs": [
						{
							"internalType": "uint256",
							"name": "",
							"type": "uint256"
						}
					],
					"stateMutability": "nonpayable",
					"type": "function"
				},
				{
					"inputs": [],
					"name": "numeros",
					"outputs": [
						{
							"internalType": "uint256",
							"name": "",
							"type": "uint256"
						},
						{
							"internalType": "uint256",
							"name": "",
							"type": "uint256"
						},
						{
							"internalType": "uint256",
							"name": "",
							"type": "uint256"
						},
						{
							"internalType": "uint256",
							"name": "",
							"type": "uint256"
						},
						{
							"internalType": "uint256",
							"name": "",
							"type": "uint256"
						}
					],
					"stateMutability": "nonpayable",
					"type": "function"
				},
				{
					"inputs": [
						{
							"internalType": "uint256",
							"name": "_x",
							"type": "uint256"
						}
					],
					"name": "par_impar",
					"outputs": [
						{
							"internalType": "bool",
							"name": "",
							"type": "bool"
						}
					],
					"stateMutability": "nonpayable",
					"type": "function"
				},
				{
					"inputs": [
						{
							"internalType": "string",
							"name": "_nombre",
							"type": "string"
						}
					],
					"name": "saludos",
					"outputs": [
						{
							"internalType": "string",
							"name": "",
							"type": "string"
						}
					],
					"stateMutability": "nonpayable",
					"type": "function"
				},
				{
					"inputs": [],
					"name": "ultimoValor",
					"outputs": [],
					"stateMutability": "nonpayable",
					"type": "function"
				},
				{
					"inputs": [],
					"name": "variable_ultimo",
					"outputs": [
						{
							"internalType": "uint256",
							"name": "",
							"type": "uint256"
						}
					],
					"stateMutability": "view",
					"type": "function"
				}
			],
			"devdoc": {
				"kind": "dev",
				"methods": {},
				"version": 1
			},
			"evm": {
				"assembly": "    /* \"Funciones/returns.sol\":94:1853  contract ValoresDeRetorno {\r... */\n  mstore(0x40, 0x80)\n  callvalue\n  dup1\n  iszero\n  tag_1\n  jumpi\n  0x00\n  dup1\n  revert\ntag_1:\n  pop\n  dataSize(sub_0)\n  dup1\n  dataOffset(sub_0)\n  0x00\n  codecopy\n  0x00\n  return\nstop\n\nsub_0: assembly {\n        /* \"Funciones/returns.sol\":94:1853  contract ValoresDeRetorno {\r... */\n      mstore(0x40, 0x80)\n      callvalue\n      dup1\n      iszero\n      tag_1\n      jumpi\n      0x00\n      dup1\n      revert\n    tag_1:\n      pop\n      jumpi(tag_2, lt(calldatasize, 0x04))\n      shr(0xe0, calldataload(0x00))\n      dup1\n      0xc19af07c\n      gt\n      tag_12\n      jumpi\n      dup1\n      0xc19af07c\n      eq\n      tag_7\n      jumpi\n      dup1\n      0xd2de9f68\n      eq\n      tag_8\n      jumpi\n      dup1\n      0xd8485531\n      eq\n      tag_9\n      jumpi\n      dup1\n      0xe0068052\n      eq\n      tag_10\n      jumpi\n      dup1\n      0xfbf188a2\n      eq\n      tag_11\n      jumpi\n      jump(tag_2)\n    tag_12:\n      dup1\n      0x1629af95\n      eq\n      tag_3\n      jumpi\n      dup1\n      0x38d94193\n      eq\n      tag_4\n      jumpi\n      dup1\n      0x703b3404\n      eq\n      tag_5\n      jumpi\n      dup1\n      0xae11ce3f\n      eq\n      tag_6\n      jumpi\n    tag_2:\n      0x00\n      dup1\n      revert\n        /* \"Funciones/returns.sol\":1701:1850  function ultimoValor() public{\r... */\n    tag_3:\n      tag_13\n      tag_14\n      jump\t// in\n    tag_13:\n      stop\n        /* \"Funciones/returns.sol\":1324:1344  uint [] public array */\n    tag_4:\n      tag_15\n      0x04\n      dup1\n      calldatasize\n      sub\n      dup2\n      add\n      swap1\n      tag_16\n      swap2\n      swap1\n      tag_17\n      jump\t// in\n    tag_16:\n      tag_18\n      jump\t// in\n    tag_15:\n      mload(0x40)\n      tag_19\n      swap2\n      swap1\n      tag_20\n      jump\t// in\n    tag_19:\n      mload(0x40)\n      dup1\n      swap2\n      sub\n      swap1\n      return\n        /* \"Funciones/returns.sol\":1218:1314  function numeros() public returns(uint,uint,uint,uint,uint){\r... */\n    tag_5:\n      tag_21\n      tag_22\n      jump\t// in\n    tag_21:\n      mload(0x40)\n      tag_23\n      swap6\n      swap5\n      swap4\n      swap3\n      swap2\n      swap1\n      tag_24\n      jump\t// in\n    tag_23:\n      mload(0x40)\n      dup1\n      swap2\n      sub\n      swap1\n      return\n        /* \"Funciones/returns.sol\":1412:1693  function guardar_valores() public {\r... */\n    tag_6:\n      tag_25\n      tag_26\n      jump\t// in\n    tag_25:\n      stop\n        /* \"Funciones/returns.sol\":628:794  function par_impar(uint _x) public returns(bool){\r... */\n    tag_7:\n      tag_27\n      0x04\n      dup1\n      calldatasize\n      sub\n      dup2\n      add\n      swap1\n      tag_28\n      swap2\n      swap1\n      tag_17\n      jump\t// in\n    tag_28:\n      tag_29\n      jump\t// in\n    tag_27:\n      mload(0x40)\n      tag_30\n      swap2\n      swap1\n      tag_31\n      jump\t// in\n    tag_30:\n      mload(0x40)\n      dup1\n      swap2\n      sub\n      swap1\n      return\n        /* \"Funciones/returns.sol\":1351:1378  uint public variable_ultimo */\n    tag_8:\n      tag_32\n      tag_33\n      jump\t// in\n    tag_32:\n      mload(0x40)\n      tag_34\n      swap2\n      swap1\n      tag_20\n      jump\t// in\n    tag_34:\n      mload(0x40)\n      dup1\n      swap2\n      sub\n      swap1\n      return\n        /* \"Funciones/returns.sol\":179:390  function saludos(string memory _nombre) public returns (string memory) {\r... */\n    tag_9:\n      tag_35\n      0x04\n      dup1\n      calldatasize\n      sub\n      dup2\n      add\n      swap1\n      tag_36\n      swap2\n      swap1\n      tag_37\n      jump\t// in\n    tag_36:\n      tag_38\n      jump\t// in\n    tag_35:\n      mload(0x40)\n      tag_39\n      swap2\n      swap1\n      tag_40\n      jump\t// in\n    tag_39:\n      mload(0x40)\n      dup1\n      swap2\n      sub\n      swap1\n      return\n        /* \"Funciones/returns.sol\":903:1152  function division(uint _a, uint _b) public returns(uint,uint,bool){\r... */\n    tag_10:\n      tag_41\n      0x04\n      dup1\n      calldatasize\n      sub\n      dup2\n      add\n      swap1\n      tag_42\n      swap2\n      swap1\n      tag_43\n      jump\t// in\n    tag_42:\n      tag_44\n      jump\t// in\n    tag_41:\n      mload(0x40)\n      tag_45\n      swap4\n      swap3\n      swap2\n      swap1\n      tag_46\n      jump\t// in\n    tag_45:\n      mload(0x40)\n      dup1\n      swap2\n      sub\n      swap1\n      return\n        /* \"Funciones/returns.sol\":484:575  function multiplicar(uint _a,uint _b) public returns(uint){\r... */\n    tag_11:\n      tag_47\n      0x04\n      dup1\n      calldatasize\n      sub\n      dup2\n      add\n      swap1\n      tag_48\n      swap2\n      swap1\n      tag_43\n      jump\t// in\n    tag_48:\n      tag_49\n      jump\t// in\n    tag_47:\n      mload(0x40)\n      tag_50\n      swap2\n      swap1\n      tag_20\n      jump\t// in\n    tag_50:\n      mload(0x40)\n      dup1\n      swap2\n      sub\n      swap1\n      return\n        /* \"Funciones/returns.sol\":1701:1850  function ultimoValor() public{\r... */\n    tag_14:\n        /* \"Funciones/returns.sol\":1741:1758  uint ultimo_valor */\n      0x00\n        /* \"Funciones/returns.sol\":1790:1799  numeros() */\n      tag_52\n        /* \"Funciones/returns.sol\":1790:1797  numeros */\n      tag_22\n        /* \"Funciones/returns.sol\":1790:1799  numeros() */\n      jump\t// in\n    tag_52:\n        /* \"Funciones/returns.sol\":1769:1799  (,,,,ultimo_valor) = numeros() */\n      swap1\n      swap2\n      swap3\n      swap4\n      pop\n      swap1\n      swap2\n      swap3\n      pop\n      swap1\n      swap2\n      pop\n      swap1\n      pop\n      dup1\n      swap2\n      pop\n      pop\n        /* \"Funciones/returns.sol\":1828:1840  ultimo_valor */\n      dup1\n        /* \"Funciones/returns.sol\":1810:1825  variable_ultimo */\n      0x01\n        /* \"Funciones/returns.sol\":1810:1840  variable_ultimo = ultimo_valor */\n      dup2\n      swap1\n      sstore\n      pop\n        /* \"Funciones/returns.sol\":1701:1850  function ultimoValor() public{\r... */\n      pop\n      jump\t// out\n        /* \"Funciones/returns.sol\":1324:1344  uint [] public array */\n    tag_18:\n      0x00\n      dup2\n      dup2\n      sload\n      dup2\n      lt\n      tag_53\n      jumpi\n      invalid\n    tag_53:\n      swap1\n      0x00\n      mstore\n      keccak256(0x00, 0x20)\n      add\n      0x00\n      swap2\n      pop\n      swap1\n      pop\n      sload\n      dup2\n      jump\t// out\n        /* \"Funciones/returns.sol\":1218:1314  function numeros() public returns(uint,uint,uint,uint,uint){\r... */\n    tag_22:\n        /* \"Funciones/returns.sol\":1252:1256  uint */\n      0x00\n        /* \"Funciones/returns.sol\":1257:1261  uint */\n      dup1\n        /* \"Funciones/returns.sol\":1262:1266  uint */\n      0x00\n        /* \"Funciones/returns.sol\":1267:1271  uint */\n      dup1\n        /* \"Funciones/returns.sol\":1272:1276  uint */\n      0x00\n        /* \"Funciones/returns.sol\":1296:1297  1 */\n      0x01\n        /* \"Funciones/returns.sol\":1298:1299  2 */\n      0x02\n        /* \"Funciones/returns.sol\":1300:1301  3 */\n      0x03\n        /* \"Funciones/returns.sol\":1302:1303  4 */\n      0x04\n        /* \"Funciones/returns.sol\":1304:1305  5 */\n      0x05\n        /* \"Funciones/returns.sol\":1288:1306  return (1,2,3,4,5) */\n      swap5\n      pop\n      swap5\n      pop\n      swap5\n      pop\n      swap5\n      pop\n      swap5\n      pop\n        /* \"Funciones/returns.sol\":1218:1314  function numeros() public returns(uint,uint,uint,uint,uint){\r... */\n      swap1\n      swap2\n      swap3\n      swap4\n      swap5\n      jump\t// out\n        /* \"Funciones/returns.sol\":1412:1693  function guardar_valores() public {\r... */\n    tag_26:\n        /* \"Funciones/returns.sol\":1457:1463  uint a */\n      0x00\n        /* \"Funciones/returns.sol\":1474:1480  uint b */\n      dup1\n        /* \"Funciones/returns.sol\":1491:1497  uint c */\n      0x00\n        /* \"Funciones/returns.sol\":1508:1514  uint d */\n      dup1\n        /* \"Funciones/returns.sol\":1525:1531  uint e */\n      0x00\n        /* \"Funciones/returns.sol\":1556:1565  numeros() */\n      tag_57\n        /* \"Funciones/returns.sol\":1556:1563  numeros */\n      tag_22\n        /* \"Funciones/returns.sol\":1556:1565  numeros() */\n      jump\t// in\n    tag_57:\n        /* \"Funciones/returns.sol\":1542:1565  (a,b,c,d,e) = numeros() */\n      dup1\n      swap6\n      pop\n      dup2\n      swap7\n      pop\n      dup3\n      swap8\n      pop\n      dup4\n      swap9\n      pop\n      dup5\n      swap10\n      pop\n      pop\n      pop\n      pop\n      pop\n      pop\n        /* \"Funciones/returns.sol\":1576:1581  array */\n      0x00\n        /* \"Funciones/returns.sol\":1587:1588  a */\n      dup6\n        /* \"Funciones/returns.sol\":1576:1589  array.push(a) */\n      swap1\n      dup1\n      0x01\n      dup2\n      sload\n      add\n      dup1\n      dup3\n      sstore\n      dup1\n      swap2\n      pop\n      pop\n      0x01\n      swap1\n      sub\n      swap1\n      0x00\n      mstore\n      keccak256(0x00, 0x20)\n      add\n      0x00\n      swap1\n      swap2\n      swap1\n      swap2\n      swap1\n      swap2\n      pop\n      sstore\n        /* \"Funciones/returns.sol\":1600:1605  array */\n      0x00\n        /* \"Funciones/returns.sol\":1611:1612  b */\n      dup5\n        /* \"Funciones/returns.sol\":1600:1613  array.push(b) */\n      swap1\n      dup1\n      0x01\n      dup2\n      sload\n      add\n      dup1\n      dup3\n      sstore\n      dup1\n      swap2\n      pop\n      pop\n      0x01\n      swap1\n      sub\n      swap1\n      0x00\n      mstore\n      keccak256(0x00, 0x20)\n      add\n      0x00\n      swap1\n      swap2\n      swap1\n      swap2\n      swap1\n      swap2\n      pop\n      sstore\n        /* \"Funciones/returns.sol\":1624:1629  array */\n      0x00\n        /* \"Funciones/returns.sol\":1635:1636  c */\n      dup4\n        /* \"Funciones/returns.sol\":1624:1637  array.push(c) */\n      swap1\n      dup1\n      0x01\n      dup2\n      sload\n      add\n      dup1\n      dup3\n      sstore\n      dup1\n      swap2\n      pop\n      pop\n      0x01\n      swap1\n      sub\n      swap1\n      0x00\n      mstore\n      keccak256(0x00, 0x20)\n      add\n      0x00\n      swap1\n      swap2\n      swap1\n      swap2\n      swap1\n      swap2\n      pop\n      sstore\n        /* \"Funciones/returns.sol\":1648:1653  array */\n      0x00\n        /* \"Funciones/returns.sol\":1659:1660  d */\n      dup3\n        /* \"Funciones/returns.sol\":1648:1661  array.push(d) */\n      swap1\n      dup1\n      0x01\n      dup2\n      sload\n      add\n      dup1\n      dup3\n      sstore\n      dup1\n      swap2\n      pop\n      pop\n      0x01\n      swap1\n      sub\n      swap1\n      0x00\n      mstore\n      keccak256(0x00, 0x20)\n      add\n      0x00\n      swap1\n      swap2\n      swap1\n      swap2\n      swap1\n      swap2\n      pop\n      sstore\n        /* \"Funciones/returns.sol\":1672:1677  array */\n      0x00\n        /* \"Funciones/returns.sol\":1683:1684  e */\n      dup2\n        /* \"Funciones/returns.sol\":1672:1685  array.push(e) */\n      swap1\n      dup1\n      0x01\n      dup2\n      sload\n      add\n      dup1\n      dup3\n      sstore\n      dup1\n      swap2\n      pop\n      pop\n      0x01\n      swap1\n      sub\n      swap1\n      0x00\n      mstore\n      keccak256(0x00, 0x20)\n      add\n      0x00\n      swap1\n      swap2\n      swap1\n      swap2\n      swap1\n      swap2\n      pop\n      sstore\n        /* \"Funciones/returns.sol\":1412:1693  function guardar_valores() public {\r... */\n      pop\n      pop\n      pop\n      pop\n      pop\n      jump\t// out\n        /* \"Funciones/returns.sol\":628:794  function par_impar(uint _x) public returns(bool){\r... */\n    tag_29:\n        /* \"Funciones/returns.sol\":671:675  bool */\n      0x00\n        /* \"Funciones/returns.sol\":702:703  0 */\n      dup1\n        /* \"Funciones/returns.sol\":696:697  2 */\n      0x02\n        /* \"Funciones/returns.sol\":691:693  _x */\n      dup4\n        /* \"Funciones/returns.sol\":691:697  _x % 2 */\n      dup2\n      tag_64\n      jumpi\n      invalid\n    tag_64:\n      mod\n        /* \"Funciones/returns.sol\":690:703  (_x % 2) == 0 */\n      eq\n        /* \"Funciones/returns.sol\":687:787  if((_x % 2) == 0){\r... */\n      iszero\n      tag_65\n      jumpi\n        /* \"Funciones/returns.sol\":726:730  true */\n      0x01\n        /* \"Funciones/returns.sol\":719:730  return true */\n      swap1\n      pop\n      jump(tag_63)\n        /* \"Funciones/returns.sol\":687:787  if((_x % 2) == 0){\r... */\n    tag_65:\n        /* \"Funciones/returns.sol\":770:775  false */\n      0x00\n        /* \"Funciones/returns.sol\":763:775  return false */\n      swap1\n      pop\n        /* \"Funciones/returns.sol\":628:794  function par_impar(uint _x) public returns(bool){\r... */\n    tag_63:\n      swap2\n      swap1\n      pop\n      jump\t// out\n        /* \"Funciones/returns.sol\":1351:1378  uint public variable_ultimo */\n    tag_33:\n      sload(0x01)\n      dup2\n      jump\t// out\n        /* \"Funciones/returns.sol\":179:390  function saludos(string memory _nombre) public returns (string memory) {\r... */\n    tag_38:\n        /* \"Funciones/returns.sol\":235:248  string memory */\n      0x60\n        /* \"Funciones/returns.sol\":261:289  string memory cadena_inicial */\n      dup1\n        /* \"Funciones/returns.sol\":261:316  string memory cadena_inicial = \"saludos y bienvenido, \" */\n      mload(0x40)\n      dup1\n      0x40\n      add\n      0x40\n      mstore\n      dup1\n      0x16\n      dup2\n      mstore\n      0x20\n      add\n      0x73616c75646f732079206269656e76656e69646f2c2000000000000000000000\n      dup2\n      mstore\n      pop\n      swap1\n      pop\n        /* \"Funciones/returns.sol\":358:372  cadena_inicial */\n      dup1\n        /* \"Funciones/returns.sol\":373:380  _nombre */\n      dup4\n        /* \"Funciones/returns.sol\":341:381  abi.encodePacked(cadena_inicial,_nombre) */\n      add(0x20, mload(0x40))\n      tag_68\n      swap3\n      swap2\n      swap1\n      tag_69\n      jump\t// in\n    tag_68:\n      mload(0x40)\n      0x20\n      dup2\n      dup4\n      sub\n      sub\n      dup2\n      mstore\n      swap1\n      0x40\n      mstore\n        /* \"Funciones/returns.sol\":327:382  return string(abi.encodePacked(cadena_inicial,_nombre)) */\n      swap2\n      pop\n      pop\n        /* \"Funciones/returns.sol\":179:390  function saludos(string memory _nombre) public returns (string memory) {\r... */\n      swap2\n      swap1\n      pop\n      jump\t// out\n        /* \"Funciones/returns.sol\":903:1152  function division(uint _a, uint _b) public returns(uint,uint,bool){\r... */\n    tag_44:\n        /* \"Funciones/returns.sol\":954:958  uint */\n      0x00\n        /* \"Funciones/returns.sol\":959:963  uint */\n      dup1\n        /* \"Funciones/returns.sol\":964:968  bool */\n      0x00\n        /* \"Funciones/returns.sol\":980:986  uint q */\n      dup1\n        /* \"Funciones/returns.sol\":994:996  _b */\n      dup5\n        /* \"Funciones/returns.sol\":989:991  _a */\n      dup7\n        /* \"Funciones/returns.sol\":989:996  _a / _b */\n      dup2\n      tag_71\n      jumpi\n      invalid\n    tag_71:\n      div\n        /* \"Funciones/returns.sol\":980:996  uint q = _a / _b */\n      swap1\n      pop\n        /* \"Funciones/returns.sol\":1007:1013  uint r */\n      0x00\n        /* \"Funciones/returns.sol\":1021:1023  _b */\n      dup6\n        /* \"Funciones/returns.sol\":1016:1018  _a */\n      dup8\n        /* \"Funciones/returns.sol\":1016:1023  _a % _b */\n      dup2\n      tag_72\n      jumpi\n      invalid\n    tag_72:\n      mod\n        /* \"Funciones/returns.sol\":1007:1023  uint r = _a % _b */\n      swap1\n      pop\n        /* \"Funciones/returns.sol\":1034:1047  bool multiplo */\n      0x00\n        /* \"Funciones/returns.sol\":1070:1071  0 */\n      dup1\n        /* \"Funciones/returns.sol\":1067:1068  r */\n      dup3\n        /* \"Funciones/returns.sol\":1067:1071  r==0 */\n      eq\n        /* \"Funciones/returns.sol\":1064:1112  if(r==0){\r... */\n      iszero\n      tag_73\n      jumpi\n        /* \"Funciones/returns.sol\":1096:1100  true */\n      0x01\n        /* \"Funciones/returns.sol\":1087:1100  multiplo=true */\n      swap1\n      pop\n        /* \"Funciones/returns.sol\":1064:1112  if(r==0){\r... */\n    tag_73:\n        /* \"Funciones/returns.sol\":1131:1132  q */\n      dup3\n        /* \"Funciones/returns.sol\":1133:1134  r */\n      dup3\n        /* \"Funciones/returns.sol\":1135:1143  multiplo */\n      dup3\n        /* \"Funciones/returns.sol\":1124:1144  return(q,r,multiplo) */\n      swap6\n      pop\n      swap6\n      pop\n      swap6\n      pop\n      pop\n      pop\n      pop\n        /* \"Funciones/returns.sol\":903:1152  function division(uint _a, uint _b) public returns(uint,uint,bool){\r... */\n      swap3\n      pop\n      swap3\n      pop\n      swap3\n      jump\t// out\n        /* \"Funciones/returns.sol\":484:575  function multiplicar(uint _a,uint _b) public returns(uint){\r... */\n    tag_49:\n        /* \"Funciones/returns.sol\":537:541  uint */\n      0x00\n        /* \"Funciones/returns.sol\":565:567  _b */\n      dup2\n        /* \"Funciones/returns.sol\":560:562  _a */\n      dup4\n        /* \"Funciones/returns.sol\":560:567  _a * _b */\n      mul\n        /* \"Funciones/returns.sol\":553:567  return _a * _b */\n      swap1\n      pop\n        /* \"Funciones/returns.sol\":484:575  function multiplicar(uint _a,uint _b) public returns(uint){\r... */\n      swap3\n      swap2\n      pop\n      pop\n      jump\t// out\n        /* \"--CODEGEN--\":6:448   */\n    tag_76:\n      0x00\n        /* \"--CODEGEN--\":108:111   */\n      dup3\n        /* \"--CODEGEN--\":101:105   */\n      0x1f\n        /* \"--CODEGEN--\":93:99   */\n      dup4\n        /* \"--CODEGEN--\":89:106   */\n      add\n        /* \"--CODEGEN--\":85:112   */\n      slt\n        /* \"--CODEGEN--\":75:77   */\n      tag_78\n      jumpi\n        /* \"--CODEGEN--\":126:127   */\n      0x00\n        /* \"--CODEGEN--\":123:124   */\n      dup1\n        /* \"--CODEGEN--\":116:128   */\n      revert\n        /* \"--CODEGEN--\":75:77   */\n    tag_78:\n        /* \"--CODEGEN--\":163:169   */\n      dup2\n        /* \"--CODEGEN--\":150:170   */\n      calldataload\n        /* \"--CODEGEN--\":185:250   */\n      tag_79\n        /* \"--CODEGEN--\":200:249   */\n      tag_80\n        /* \"--CODEGEN--\":242:248   */\n      dup3\n        /* \"--CODEGEN--\":200:249   */\n      tag_81\n      jump\t// in\n    tag_80:\n        /* \"--CODEGEN--\":185:250   */\n      tag_82\n      jump\t// in\n    tag_79:\n        /* \"--CODEGEN--\":176:250   */\n      swap2\n      pop\n        /* \"--CODEGEN--\":270:276   */\n      dup1\n        /* \"--CODEGEN--\":263:268   */\n      dup3\n        /* \"--CODEGEN--\":256:277   */\n      mstore\n        /* \"--CODEGEN--\":306:310   */\n      0x20\n        /* \"--CODEGEN--\":298:304   */\n      dup4\n        /* \"--CODEGEN--\":294:311   */\n      add\n        /* \"--CODEGEN--\":339:343   */\n      0x20\n        /* \"--CODEGEN--\":332:337   */\n      dup4\n        /* \"--CODEGEN--\":328:344   */\n      add\n        /* \"--CODEGEN--\":374:377   */\n      dup6\n        /* \"--CODEGEN--\":365:371   */\n      dup4\n        /* \"--CODEGEN--\":360:363   */\n      dup4\n        /* \"--CODEGEN--\":356:372   */\n      add\n        /* \"--CODEGEN--\":353:378   */\n      gt\n        /* \"--CODEGEN--\":350:352   */\n      iszero\n      tag_83\n      jumpi\n        /* \"--CODEGEN--\":391:392   */\n      0x00\n        /* \"--CODEGEN--\":388:389   */\n      dup1\n        /* \"--CODEGEN--\":381:393   */\n      revert\n        /* \"--CODEGEN--\":350:352   */\n    tag_83:\n        /* \"--CODEGEN--\":401:442   */\n      tag_84\n        /* \"--CODEGEN--\":435:441   */\n      dup4\n        /* \"--CODEGEN--\":430:433   */\n      dup3\n        /* \"--CODEGEN--\":425:428   */\n      dup5\n        /* \"--CODEGEN--\":401:442   */\n      tag_85\n      jump\t// in\n    tag_84:\n        /* \"--CODEGEN--\":68:448   */\n      pop\n      pop\n      pop\n      swap3\n      swap2\n      pop\n      pop\n      jump\t// out\n        /* \"--CODEGEN--\":456:586   */\n    tag_86:\n      0x00\n        /* \"--CODEGEN--\":536:542   */\n      dup2\n        /* \"--CODEGEN--\":523:543   */\n      calldataload\n        /* \"--CODEGEN--\":514:543   */\n      swap1\n      pop\n        /* \"--CODEGEN--\":548:581   */\n      tag_88\n        /* \"--CODEGEN--\":575:580   */\n      dup2\n        /* \"--CODEGEN--\":548:581   */\n      tag_89\n      jump\t// in\n    tag_88:\n        /* \"--CODEGEN--\":508:586   */\n      swap3\n      swap2\n      pop\n      pop\n      jump\t// out\n        /* \"--CODEGEN--\":593:940   */\n    tag_37:\n      0x00\n        /* \"--CODEGEN--\":707:709   */\n      0x20\n        /* \"--CODEGEN--\":695:704   */\n      dup3\n        /* \"--CODEGEN--\":686:693   */\n      dup5\n        /* \"--CODEGEN--\":682:705   */\n      sub\n        /* \"--CODEGEN--\":678:710   */\n      slt\n        /* \"--CODEGEN--\":675:677   */\n      iszero\n      tag_91\n      jumpi\n        /* \"--CODEGEN--\":723:724   */\n      0x00\n        /* \"--CODEGEN--\":720:721   */\n      dup1\n        /* \"--CODEGEN--\":713:725   */\n      revert\n        /* \"--CODEGEN--\":675:677   */\n    tag_91:\n        /* \"--CODEGEN--\":786:787   */\n      0x00\n        /* \"--CODEGEN--\":775:784   */\n      dup3\n        /* \"--CODEGEN--\":771:788   */\n      add\n        /* \"--CODEGEN--\":758:789   */\n      calldataload\n        /* \"--CODEGEN--\":809:827   */\n      0xffffffffffffffff\n        /* \"--CODEGEN--\":801:807   */\n      dup2\n        /* \"--CODEGEN--\":798:828   */\n      gt\n        /* \"--CODEGEN--\":795:797   */\n      iszero\n      tag_92\n      jumpi\n        /* \"--CODEGEN--\":841:842   */\n      0x00\n        /* \"--CODEGEN--\":838:839   */\n      dup1\n        /* \"--CODEGEN--\":831:843   */\n      revert\n        /* \"--CODEGEN--\":795:797   */\n    tag_92:\n        /* \"--CODEGEN--\":861:924   */\n      tag_93\n        /* \"--CODEGEN--\":916:923   */\n      dup5\n        /* \"--CODEGEN--\":907:913   */\n      dup3\n        /* \"--CODEGEN--\":896:905   */\n      dup6\n        /* \"--CODEGEN--\":892:914   */\n      add\n        /* \"--CODEGEN--\":861:924   */\n      tag_76\n      jump\t// in\n    tag_93:\n        /* \"--CODEGEN--\":851:924   */\n      swap2\n      pop\n        /* \"--CODEGEN--\":737:930   */\n      pop\n        /* \"--CODEGEN--\":669:940   */\n      swap3\n      swap2\n      pop\n      pop\n      jump\t// out\n        /* \"--CODEGEN--\":947:1188   */\n    tag_17:\n      0x00\n        /* \"--CODEGEN--\":1051:1053   */\n      0x20\n        /* \"--CODEGEN--\":1039:1048   */\n      dup3\n        /* \"--CODEGEN--\":1030:1037   */\n      dup5\n        /* \"--CODEGEN--\":1026:1049   */\n      sub\n        /* \"--CODEGEN--\":1022:1054   */\n      slt\n        /* \"--CODEGEN--\":1019:1021   */\n      iszero\n      tag_95\n      jumpi\n        /* \"--CODEGEN--\":1067:1068   */\n      0x00\n        /* \"--CODEGEN--\":1064:1065   */\n      dup1\n        /* \"--CODEGEN--\":1057:1069   */\n      revert\n        /* \"--CODEGEN--\":1019:1021   */\n    tag_95:\n        /* \"--CODEGEN--\":1102:1103   */\n      0x00\n        /* \"--CODEGEN--\":1119:1172   */\n      tag_96\n        /* \"--CODEGEN--\":1164:1171   */\n      dup5\n        /* \"--CODEGEN--\":1155:1161   */\n      dup3\n        /* \"--CODEGEN--\":1144:1153   */\n      dup6\n        /* \"--CODEGEN--\":1140:1162   */\n      add\n        /* \"--CODEGEN--\":1119:1172   */\n      tag_86\n      jump\t// in\n    tag_96:\n        /* \"--CODEGEN--\":1109:1172   */\n      swap2\n      pop\n        /* \"--CODEGEN--\":1081:1178   */\n      pop\n        /* \"--CODEGEN--\":1013:1188   */\n      swap3\n      swap2\n      pop\n      pop\n      jump\t// out\n        /* \"--CODEGEN--\":1195:1561   */\n    tag_43:\n      0x00\n      dup1\n        /* \"--CODEGEN--\":1316:1318   */\n      0x40\n        /* \"--CODEGEN--\":1304:1313   */\n      dup4\n        /* \"--CODEGEN--\":1295:1302   */\n      dup6\n        /* \"--CODEGEN--\":1291:1314   */\n      sub\n        /* \"--CODEGEN--\":1287:1319   */\n      slt\n        /* \"--CODEGEN--\":1284:1286   */\n      iszero\n      tag_98\n      jumpi\n        /* \"--CODEGEN--\":1332:1333   */\n      0x00\n        /* \"--CODEGEN--\":1329:1330   */\n      dup1\n        /* \"--CODEGEN--\":1322:1334   */\n      revert\n        /* \"--CODEGEN--\":1284:1286   */\n    tag_98:\n        /* \"--CODEGEN--\":1367:1368   */\n      0x00\n        /* \"--CODEGEN--\":1384:1437   */\n      tag_99\n        /* \"--CODEGEN--\":1429:1436   */\n      dup6\n        /* \"--CODEGEN--\":1420:1426   */\n      dup3\n        /* \"--CODEGEN--\":1409:1418   */\n      dup7\n        /* \"--CODEGEN--\":1405:1427   */\n      add\n        /* \"--CODEGEN--\":1384:1437   */\n      tag_86\n      jump\t// in\n    tag_99:\n        /* \"--CODEGEN--\":1374:1437   */\n      swap3\n      pop\n        /* \"--CODEGEN--\":1346:1443   */\n      pop\n        /* \"--CODEGEN--\":1474:1476   */\n      0x20\n        /* \"--CODEGEN--\":1492:1545   */\n      tag_100\n        /* \"--CODEGEN--\":1537:1544   */\n      dup6\n        /* \"--CODEGEN--\":1528:1534   */\n      dup3\n        /* \"--CODEGEN--\":1517:1526   */\n      dup7\n        /* \"--CODEGEN--\":1513:1535   */\n      add\n        /* \"--CODEGEN--\":1492:1545   */\n      tag_86\n      jump\t// in\n    tag_100:\n        /* \"--CODEGEN--\":1482:1545   */\n      swap2\n      pop\n        /* \"--CODEGEN--\":1453:1551   */\n      pop\n        /* \"--CODEGEN--\":1278:1561   */\n      swap3\n      pop\n      swap3\n      swap1\n      pop\n      jump\t// out\n        /* \"--CODEGEN--\":1568:1672   */\n    tag_101:\n        /* \"--CODEGEN--\":1645:1666   */\n      tag_103\n        /* \"--CODEGEN--\":1660:1665   */\n      dup2\n        /* \"--CODEGEN--\":1645:1666   */\n      tag_104\n      jump\t// in\n    tag_103:\n        /* \"--CODEGEN--\":1640:1643   */\n      dup3\n        /* \"--CODEGEN--\":1633:1667   */\n      mstore\n        /* \"--CODEGEN--\":1627:1672   */\n      pop\n      pop\n      jump\t// out\n        /* \"--CODEGEN--\":1679:2026   */\n    tag_105:\n      0x00\n        /* \"--CODEGEN--\":1791:1830   */\n      tag_107\n        /* \"--CODEGEN--\":1824:1829   */\n      dup3\n        /* \"--CODEGEN--\":1791:1830   */\n      tag_108\n      jump\t// in\n    tag_107:\n        /* \"--CODEGEN--\":1842:1913   */\n      tag_109\n        /* \"--CODEGEN--\":1906:1912   */\n      dup2\n        /* \"--CODEGEN--\":1901:1904   */\n      dup6\n        /* \"--CODEGEN--\":1842:1913   */\n      tag_110\n      jump\t// in\n    tag_109:\n        /* \"--CODEGEN--\":1835:1913   */\n      swap4\n      pop\n        /* \"--CODEGEN--\":1918:1970   */\n      tag_111\n        /* \"--CODEGEN--\":1963:1969   */\n      dup2\n        /* \"--CODEGEN--\":1958:1961   */\n      dup6\n        /* \"--CODEGEN--\":1951:1955   */\n      0x20\n        /* \"--CODEGEN--\":1944:1949   */\n      dup7\n        /* \"--CODEGEN--\":1940:1956   */\n      add\n        /* \"--CODEGEN--\":1918:1970   */\n      tag_112\n      jump\t// in\n    tag_111:\n        /* \"--CODEGEN--\":1991:2020   */\n      tag_113\n        /* \"--CODEGEN--\":2013:2019   */\n      dup2\n        /* \"--CODEGEN--\":1991:2020   */\n      tag_114\n      jump\t// in\n    tag_113:\n        /* \"--CODEGEN--\":1986:1989   */\n      dup5\n        /* \"--CODEGEN--\":1982:2021   */\n      add\n        /* \"--CODEGEN--\":1975:2021   */\n      swap2\n      pop\n        /* \"--CODEGEN--\":1771:2026   */\n      pop\n      swap3\n      swap2\n      pop\n      pop\n      jump\t// out\n        /* \"--CODEGEN--\":2033:2393   */\n    tag_115:\n      0x00\n        /* \"--CODEGEN--\":2163:2202   */\n      tag_117\n        /* \"--CODEGEN--\":2196:2201   */\n      dup3\n        /* \"--CODEGEN--\":2163:2202   */\n      tag_108\n      jump\t// in\n    tag_117:\n        /* \"--CODEGEN--\":2214:2303   */\n      tag_118\n        /* \"--CODEGEN--\":2296:2302   */\n      dup2\n        /* \"--CODEGEN--\":2291:2294   */\n      dup6\n        /* \"--CODEGEN--\":2214:2303   */\n      tag_119\n      jump\t// in\n    tag_118:\n        /* \"--CODEGEN--\":2207:2303   */\n      swap4\n      pop\n        /* \"--CODEGEN--\":2308:2360   */\n      tag_120\n        /* \"--CODEGEN--\":2353:2359   */\n      dup2\n        /* \"--CODEGEN--\":2348:2351   */\n      dup6\n        /* \"--CODEGEN--\":2341:2345   */\n      0x20\n        /* \"--CODEGEN--\":2334:2339   */\n      dup7\n        /* \"--CODEGEN--\":2330:2346   */\n      add\n        /* \"--CODEGEN--\":2308:2360   */\n      tag_112\n      jump\t// in\n    tag_120:\n        /* \"--CODEGEN--\":2381:2387   */\n      dup1\n        /* \"--CODEGEN--\":2376:2379   */\n      dup5\n        /* \"--CODEGEN--\":2372:2388   */\n      add\n        /* \"--CODEGEN--\":2365:2388   */\n      swap2\n      pop\n        /* \"--CODEGEN--\":2143:2393   */\n      pop\n      swap3\n      swap2\n      pop\n      pop\n      jump\t// out\n        /* \"--CODEGEN--\":2400:2513   */\n    tag_121:\n        /* \"--CODEGEN--\":2483:2507   */\n      tag_123\n        /* \"--CODEGEN--\":2501:2506   */\n      dup2\n        /* \"--CODEGEN--\":2483:2507   */\n      tag_124\n      jump\t// in\n    tag_123:\n        /* \"--CODEGEN--\":2478:2481   */\n      dup3\n        /* \"--CODEGEN--\":2471:2508   */\n      mstore\n        /* \"--CODEGEN--\":2465:2513   */\n      pop\n      pop\n      jump\t// out\n        /* \"--CODEGEN--\":2520:2956   */\n    tag_69:\n      0x00\n        /* \"--CODEGEN--\":2723:2818   */\n      tag_126\n        /* \"--CODEGEN--\":2814:2817   */\n      dup3\n        /* \"--CODEGEN--\":2805:2811   */\n      dup6\n        /* \"--CODEGEN--\":2723:2818   */\n      tag_115\n      jump\t// in\n    tag_126:\n        /* \"--CODEGEN--\":2716:2818   */\n      swap2\n      pop\n        /* \"--CODEGEN--\":2836:2931   */\n      tag_127\n        /* \"--CODEGEN--\":2927:2930   */\n      dup3\n        /* \"--CODEGEN--\":2918:2924   */\n      dup5\n        /* \"--CODEGEN--\":2836:2931   */\n      tag_115\n      jump\t// in\n    tag_127:\n        /* \"--CODEGEN--\":2829:2931   */\n      swap2\n      pop\n        /* \"--CODEGEN--\":2948:2951   */\n      dup2\n        /* \"--CODEGEN--\":2941:2951   */\n      swap1\n      pop\n        /* \"--CODEGEN--\":2704:2956   */\n      swap4\n      swap3\n      pop\n      pop\n      pop\n      jump\t// out\n        /* \"--CODEGEN--\":2963:3173   */\n    tag_31:\n      0x00\n        /* \"--CODEGEN--\":3084:3086   */\n      0x20\n        /* \"--CODEGEN--\":3073:3082   */\n      dup3\n        /* \"--CODEGEN--\":3069:3087   */\n      add\n        /* \"--CODEGEN--\":3061:3087   */\n      swap1\n      pop\n        /* \"--CODEGEN--\":3098:3163   */\n      tag_129\n        /* \"--CODEGEN--\":3160:3161   */\n      0x00\n        /* \"--CODEGEN--\":3149:3158   */\n      dup4\n        /* \"--CODEGEN--\":3145:3162   */\n      add\n        /* \"--CODEGEN--\":3136:3142   */\n      dup5\n        /* \"--CODEGEN--\":3098:3163   */\n      tag_101\n      jump\t// in\n    tag_129:\n        /* \"--CODEGEN--\":3055:3173   */\n      swap3\n      swap2\n      pop\n      pop\n      jump\t// out\n        /* \"--CODEGEN--\":3180:3490   */\n    tag_40:\n      0x00\n        /* \"--CODEGEN--\":3327:3329   */\n      0x20\n        /* \"--CODEGEN--\":3316:3325   */\n      dup3\n        /* \"--CODEGEN--\":3312:3330   */\n      add\n        /* \"--CODEGEN--\":3304:3330   */\n      swap1\n      pop\n        /* \"--CODEGEN--\":3377:3386   */\n      dup2\n        /* \"--CODEGEN--\":3371:3375   */\n      dup2\n        /* \"--CODEGEN--\":3367:3387   */\n      sub\n        /* \"--CODEGEN--\":3363:3364   */\n      0x00\n        /* \"--CODEGEN--\":3352:3361   */\n      dup4\n        /* \"--CODEGEN--\":3348:3365   */\n      add\n        /* \"--CODEGEN--\":3341:3388   */\n      mstore\n        /* \"--CODEGEN--\":3402:3480   */\n      tag_131\n        /* \"--CODEGEN--\":3475:3479   */\n      dup2\n        /* \"--CODEGEN--\":3466:3472   */\n      dup5\n        /* \"--CODEGEN--\":3402:3480   */\n      tag_105\n      jump\t// in\n    tag_131:\n        /* \"--CODEGEN--\":3394:3480   */\n      swap1\n      pop\n        /* \"--CODEGEN--\":3298:3490   */\n      swap3\n      swap2\n      pop\n      pop\n      jump\t// out\n        /* \"--CODEGEN--\":3497:3719   */\n    tag_20:\n      0x00\n        /* \"--CODEGEN--\":3624:3626   */\n      0x20\n        /* \"--CODEGEN--\":3613:3622   */\n      dup3\n        /* \"--CODEGEN--\":3609:3627   */\n      add\n        /* \"--CODEGEN--\":3601:3627   */\n      swap1\n      pop\n        /* \"--CODEGEN--\":3638:3709   */\n      tag_133\n        /* \"--CODEGEN--\":3706:3707   */\n      0x00\n        /* \"--CODEGEN--\":3695:3704   */\n      dup4\n        /* \"--CODEGEN--\":3691:3708   */\n      add\n        /* \"--CODEGEN--\":3682:3688   */\n      dup5\n        /* \"--CODEGEN--\":3638:3709   */\n      tag_121\n      jump\t// in\n    tag_133:\n        /* \"--CODEGEN--\":3595:3719   */\n      swap3\n      swap2\n      pop\n      pop\n      jump\t// out\n        /* \"--CODEGEN--\":3726:4158   */\n    tag_46:\n      0x00\n        /* \"--CODEGEN--\":3903:3905   */\n      0x60\n        /* \"--CODEGEN--\":3892:3901   */\n      dup3\n        /* \"--CODEGEN--\":3888:3906   */\n      add\n        /* \"--CODEGEN--\":3880:3906   */\n      swap1\n      pop\n        /* \"--CODEGEN--\":3917:3988   */\n      tag_135\n        /* \"--CODEGEN--\":3985:3986   */\n      0x00\n        /* \"--CODEGEN--\":3974:3983   */\n      dup4\n        /* \"--CODEGEN--\":3970:3987   */\n      add\n        /* \"--CODEGEN--\":3961:3967   */\n      dup7\n        /* \"--CODEGEN--\":3917:3988   */\n      tag_121\n      jump\t// in\n    tag_135:\n        /* \"--CODEGEN--\":3999:4071   */\n      tag_136\n        /* \"--CODEGEN--\":4067:4069   */\n      0x20\n        /* \"--CODEGEN--\":4056:4065   */\n      dup4\n        /* \"--CODEGEN--\":4052:4070   */\n      add\n        /* \"--CODEGEN--\":4043:4049   */\n      dup6\n        /* \"--CODEGEN--\":3999:4071   */\n      tag_121\n      jump\t// in\n    tag_136:\n        /* \"--CODEGEN--\":4082:4148   */\n      tag_137\n        /* \"--CODEGEN--\":4144:4146   */\n      0x40\n        /* \"--CODEGEN--\":4133:4142   */\n      dup4\n        /* \"--CODEGEN--\":4129:4147   */\n      add\n        /* \"--CODEGEN--\":4120:4126   */\n      dup5\n        /* \"--CODEGEN--\":4082:4148   */\n      tag_101\n      jump\t// in\n    tag_137:\n        /* \"--CODEGEN--\":3874:4158   */\n      swap5\n      swap4\n      pop\n      pop\n      pop\n      pop\n      jump\t// out\n        /* \"--CODEGEN--\":4165:4833   */\n    tag_24:\n      0x00\n        /* \"--CODEGEN--\":4404:4407   */\n      0xa0\n        /* \"--CODEGEN--\":4393:4402   */\n      dup3\n        /* \"--CODEGEN--\":4389:4408   */\n      add\n        /* \"--CODEGEN--\":4381:4408   */\n      swap1\n      pop\n        /* \"--CODEGEN--\":4419:4490   */\n      tag_139\n        /* \"--CODEGEN--\":4487:4488   */\n      0x00\n        /* \"--CODEGEN--\":4476:4485   */\n      dup4\n        /* \"--CODEGEN--\":4472:4489   */\n      add\n        /* \"--CODEGEN--\":4463:4469   */\n      dup9\n        /* \"--CODEGEN--\":4419:4490   */\n      tag_121\n      jump\t// in\n    tag_139:\n        /* \"--CODEGEN--\":4501:4573   */\n      tag_140\n        /* \"--CODEGEN--\":4569:4571   */\n      0x20\n        /* \"--CODEGEN--\":4558:4567   */\n      dup4\n        /* \"--CODEGEN--\":4554:4572   */\n      add\n        /* \"--CODEGEN--\":4545:4551   */\n      dup8\n        /* \"--CODEGEN--\":4501:4573   */\n      tag_121\n      jump\t// in\n    tag_140:\n        /* \"--CODEGEN--\":4584:4656   */\n      tag_141\n        /* \"--CODEGEN--\":4652:4654   */\n      0x40\n        /* \"--CODEGEN--\":4641:4650   */\n      dup4\n        /* \"--CODEGEN--\":4637:4655   */\n      add\n        /* \"--CODEGEN--\":4628:4634   */\n      dup7\n        /* \"--CODEGEN--\":4584:4656   */\n      tag_121\n      jump\t// in\n    tag_141:\n        /* \"--CODEGEN--\":4667:4739   */\n      tag_142\n        /* \"--CODEGEN--\":4735:4737   */\n      0x60\n        /* \"--CODEGEN--\":4724:4733   */\n      dup4\n        /* \"--CODEGEN--\":4720:4738   */\n      add\n        /* \"--CODEGEN--\":4711:4717   */\n      dup6\n        /* \"--CODEGEN--\":4667:4739   */\n      tag_121\n      jump\t// in\n    tag_142:\n        /* \"--CODEGEN--\":4750:4823   */\n      tag_143\n        /* \"--CODEGEN--\":4818:4821   */\n      0x80\n        /* \"--CODEGEN--\":4807:4816   */\n      dup4\n        /* \"--CODEGEN--\":4803:4822   */\n      add\n        /* \"--CODEGEN--\":4794:4800   */\n      dup5\n        /* \"--CODEGEN--\":4750:4823   */\n      tag_121\n      jump\t// in\n    tag_143:\n        /* \"--CODEGEN--\":4375:4833   */\n      swap7\n      swap6\n      pop\n      pop\n      pop\n      pop\n      pop\n      pop\n      jump\t// out\n        /* \"--CODEGEN--\":4840:5096   */\n    tag_82:\n      0x00\n        /* \"--CODEGEN--\":4902:4904   */\n      0x40\n        /* \"--CODEGEN--\":4896:4905   */\n      mload\n        /* \"--CODEGEN--\":4886:4905   */\n      swap1\n      pop\n        /* \"--CODEGEN--\":4940:4944   */\n      dup2\n        /* \"--CODEGEN--\":4932:4938   */\n      dup2\n        /* \"--CODEGEN--\":4928:4945   */\n      add\n        /* \"--CODEGEN--\":5039:5045   */\n      dup2\n        /* \"--CODEGEN--\":5027:5037   */\n      dup2\n        /* \"--CODEGEN--\":5024:5046   */\n      lt\n        /* \"--CODEGEN--\":5003:5021   */\n      0xffffffffffffffff\n        /* \"--CODEGEN--\":4991:5001   */\n      dup3\n        /* \"--CODEGEN--\":4988:5022   */\n      gt\n        /* \"--CODEGEN--\":4985:5047   */\n      or\n        /* \"--CODEGEN--\":4982:4984   */\n      iszero\n      tag_145\n      jumpi\n        /* \"--CODEGEN--\":5060:5061   */\n      0x00\n        /* \"--CODEGEN--\":5057:5058   */\n      dup1\n        /* \"--CODEGEN--\":5050:5062   */\n      revert\n        /* \"--CODEGEN--\":4982:4984   */\n    tag_145:\n        /* \"--CODEGEN--\":5080:5090   */\n      dup1\n        /* \"--CODEGEN--\":5076:5078   */\n      0x40\n        /* \"--CODEGEN--\":5069:5091   */\n      mstore\n        /* \"--CODEGEN--\":4880:5096   */\n      pop\n      swap2\n      swap1\n      pop\n      jump\t// out\n        /* \"--CODEGEN--\":5103:5425   */\n    tag_81:\n      0x00\n        /* \"--CODEGEN--\":5247:5265   */\n      0xffffffffffffffff\n        /* \"--CODEGEN--\":5239:5245   */\n      dup3\n        /* \"--CODEGEN--\":5236:5266   */\n      gt\n        /* \"--CODEGEN--\":5233:5235   */\n      iszero\n      tag_147\n      jumpi\n        /* \"--CODEGEN--\":5279:5280   */\n      0x00\n        /* \"--CODEGEN--\":5276:5277   */\n      dup1\n        /* \"--CODEGEN--\":5269:5281   */\n      revert\n        /* \"--CODEGEN--\":5233:5235   */\n    tag_147:\n        /* \"--CODEGEN--\":5346:5350   */\n      0x1f\n        /* \"--CODEGEN--\":5342:5351   */\n      not\n        /* \"--CODEGEN--\":5335:5339   */\n      0x1f\n        /* \"--CODEGEN--\":5327:5333   */\n      dup4\n        /* \"--CODEGEN--\":5323:5340   */\n      add\n        /* \"--CODEGEN--\":5319:5352   */\n      and\n        /* \"--CODEGEN--\":5311:5352   */\n      swap1\n      pop\n        /* \"--CODEGEN--\":5410:5414   */\n      0x20\n        /* \"--CODEGEN--\":5404:5408   */\n      dup2\n        /* \"--CODEGEN--\":5400:5415   */\n      add\n        /* \"--CODEGEN--\":5392:5415   */\n      swap1\n      pop\n        /* \"--CODEGEN--\":5170:5425   */\n      swap2\n      swap1\n      pop\n      jump\t// out\n        /* \"--CODEGEN--\":5432:5554   */\n    tag_108:\n      0x00\n        /* \"--CODEGEN--\":5526:5531   */\n      dup2\n        /* \"--CODEGEN--\":5520:5532   */\n      mload\n        /* \"--CODEGEN--\":5510:5532   */\n      swap1\n      pop\n        /* \"--CODEGEN--\":5491:5554   */\n      swap2\n      swap1\n      pop\n      jump\t// out\n        /* \"--CODEGEN--\":5562:5725   */\n    tag_110:\n      0x00\n        /* \"--CODEGEN--\":5677:5683   */\n      dup3\n        /* \"--CODEGEN--\":5672:5675   */\n      dup3\n        /* \"--CODEGEN--\":5665:5684   */\n      mstore\n        /* \"--CODEGEN--\":5714:5718   */\n      0x20\n        /* \"--CODEGEN--\":5709:5712   */\n      dup3\n        /* \"--CODEGEN--\":5705:5719   */\n      add\n        /* \"--CODEGEN--\":5690:5719   */\n      swap1\n      pop\n        /* \"--CODEGEN--\":5658:5725   */\n      swap3\n      swap2\n      pop\n      pop\n      jump\t// out\n        /* \"--CODEGEN--\":5734:5879   */\n    tag_119:\n      0x00\n        /* \"--CODEGEN--\":5870:5873   */\n      dup2\n        /* \"--CODEGEN--\":5855:5873   */\n      swap1\n      pop\n        /* \"--CODEGEN--\":5848:5879   */\n      swap3\n      swap2\n      pop\n      pop\n      jump\t// out\n        /* \"--CODEGEN--\":5887:5972   */\n    tag_104:\n      0x00\n        /* \"--CODEGEN--\":5960:5965   */\n      dup2\n        /* \"--CODEGEN--\":5953:5966   */\n      iszero\n        /* \"--CODEGEN--\":5946:5967   */\n      iszero\n        /* \"--CODEGEN--\":5935:5967   */\n      swap1\n      pop\n        /* \"--CODEGEN--\":5929:5972   */\n      swap2\n      swap1\n      pop\n      jump\t// out\n        /* \"--CODEGEN--\":5979:6051   */\n    tag_124:\n      0x00\n        /* \"--CODEGEN--\":6041:6046   */\n      dup2\n        /* \"--CODEGEN--\":6030:6046   */\n      swap1\n      pop\n        /* \"--CODEGEN--\":6024:6051   */\n      swap2\n      swap1\n      pop\n      jump\t// out\n        /* \"--CODEGEN--\":6059:6204   */\n    tag_85:\n        /* \"--CODEGEN--\":6140:6146   */\n      dup3\n        /* \"--CODEGEN--\":6135:6138   */\n      dup2\n        /* \"--CODEGEN--\":6130:6133   */\n      dup4\n        /* \"--CODEGEN--\":6117:6147   */\n      calldatacopy\n        /* \"--CODEGEN--\":6196:6197   */\n      0x00\n        /* \"--CODEGEN--\":6187:6193   */\n      dup4\n        /* \"--CODEGEN--\":6182:6185   */\n      dup4\n        /* \"--CODEGEN--\":6178:6194   */\n      add\n        /* \"--CODEGEN--\":6171:6198   */\n      mstore\n        /* \"--CODEGEN--\":6110:6204   */\n      pop\n      pop\n      pop\n      jump\t// out\n        /* \"--CODEGEN--\":6213:6481   */\n    tag_112:\n        /* \"--CODEGEN--\":6278:6279   */\n      0x00\n        /* \"--CODEGEN--\":6285:6386   */\n    tag_155:\n        /* \"--CODEGEN--\":6299:6305   */\n      dup4\n        /* \"--CODEGEN--\":6296:6297   */\n      dup2\n        /* \"--CODEGEN--\":6293:6306   */\n      lt\n        /* \"--CODEGEN--\":6285:6386   */\n      iszero\n      tag_157\n      jumpi\n        /* \"--CODEGEN--\":6375:6376   */\n      dup1\n        /* \"--CODEGEN--\":6370:6373   */\n      dup3\n        /* \"--CODEGEN--\":6366:6377   */\n      add\n        /* \"--CODEGEN--\":6360:6378   */\n      mload\n        /* \"--CODEGEN--\":6356:6357   */\n      dup2\n        /* \"--CODEGEN--\":6351:6354   */\n      dup5\n        /* \"--CODEGEN--\":6347:6358   */\n      add\n        /* \"--CODEGEN--\":6340:6379   */\n      mstore\n        /* \"--CODEGEN--\":6321:6323   */\n      0x20\n        /* \"--CODEGEN--\":6318:6319   */\n      dup2\n        /* \"--CODEGEN--\":6314:6324   */\n      add\n        /* \"--CODEGEN--\":6309:6324   */\n      swap1\n      pop\n        /* \"--CODEGEN--\":6285:6386   */\n      jump(tag_155)\n    tag_157:\n        /* \"--CODEGEN--\":6401:6407   */\n      dup4\n        /* \"--CODEGEN--\":6398:6399   */\n      dup2\n        /* \"--CODEGEN--\":6395:6408   */\n      gt\n        /* \"--CODEGEN--\":6392:6394   */\n      iszero\n      tag_158\n      jumpi\n        /* \"--CODEGEN--\":6466:6467   */\n      0x00\n        /* \"--CODEGEN--\":6457:6463   */\n      dup5\n        /* \"--CODEGEN--\":6452:6455   */\n      dup5\n        /* \"--CODEGEN--\":6448:6464   */\n      add\n        /* \"--CODEGEN--\":6441:6468   */\n      mstore\n        /* \"--CODEGEN--\":6392:6394   */\n    tag_158:\n        /* \"--CODEGEN--\":6262:6481   */\n      pop\n      pop\n      pop\n      pop\n      jump\t// out\n        /* \"--CODEGEN--\":6489:6586   */\n    tag_114:\n      0x00\n        /* \"--CODEGEN--\":6577:6579   */\n      0x1f\n        /* \"--CODEGEN--\":6573:6580   */\n      not\n        /* \"--CODEGEN--\":6568:6570   */\n      0x1f\n        /* \"--CODEGEN--\":6561:6566   */\n      dup4\n        /* \"--CODEGEN--\":6557:6571   */\n      add\n        /* \"--CODEGEN--\":6553:6581   */\n      and\n        /* \"--CODEGEN--\":6543:6581   */\n      swap1\n      pop\n        /* \"--CODEGEN--\":6537:6586   */\n      swap2\n      swap1\n      pop\n      jump\t// out\n        /* \"--CODEGEN--\":6594:6711   */\n    tag_89:\n        /* \"--CODEGEN--\":6663:6687   */\n      tag_161\n        /* \"--CODEGEN--\":6681:6686   */\n      dup2\n        /* \"--CODEGEN--\":6663:6687   */\n      tag_124\n      jump\t// in\n    tag_161:\n        /* \"--CODEGEN--\":6656:6661   */\n      dup2\n        /* \"--CODEGEN--\":6653:6688   */\n      eq\n        /* \"--CODEGEN--\":6643:6645   */\n      tag_162\n      jumpi\n        /* \"--CODEGEN--\":6702:6703   */\n      0x00\n        /* \"--CODEGEN--\":6699:6700   */\n      dup1\n        /* \"--CODEGEN--\":6692:6704   */\n      revert\n        /* \"--CODEGEN--\":6643:6645   */\n    tag_162:\n        /* \"--CODEGEN--\":6637:6711   */\n      pop\n      jump\t// out\n\n    auxdata: 0xa26469706673582212202e777e9bed2e6017dc0e6ea69794be9f3cf4e94956f8e42555ce7fd23d08691964736f6c634300060c0033\n}\n",
				"bytecode": {
					"linkReferences": {},
					"object": "608060405234801561001057600080fd5b506107f4806100206000396000f3fe608060405234801561001057600080fd5b50600436106100935760003560e01c8063c19af07c11610066578063c19af07c146100fe578063d2de9f681461012e578063d84855311461014c578063e00680521461017c578063fbf188a2146101ae57610093565b80631629af951461009857806338d94193146100a2578063703b3404146100d2578063ae11ce3f146100f4575b600080fd5b6100a06101de565b005b6100bc60048036038101906100b791906104cb565b610204565b6040516100c99190610619565b60405180910390f35b6100da610225565b6040516100eb95949392919061066b565b60405180910390f35b6100fc610248565b005b610118600480360381019061011391906104cb565b610340565b60405161012591906105dc565b60405180910390f35b610136610367565b6040516101439190610619565b60405180910390f35b6101666004803603810190610161919061048a565b61036d565b60405161017391906105f7565b60405180910390f35b610196600480360381019061019191906104f4565b6103d2565b6040516101a593929190610634565b60405180910390f35b6101c860048036038101906101c391906104f4565b610414565b6040516101d59190610619565b60405180910390f35b60006101e8610225565b9091929350909192509091509050809150508060018190555050565b6000818154811061021157fe5b906000526020600020016000915090505481565b600080600080600060016002600360046005945094509450945094509091929394565b6000806000806000610258610225565b8095508196508297508398508499505050505050600085908060018154018082558091505060019003906000526020600020016000909190919091505560008490806001815401808255809150506001900390600052602060002001600090919091909150556000839080600181540180825580915050600190039060005260206000200160009091909190915055600082908060018154018082558091505060019003906000526020600020016000909190919091505560008190806001815401808255809150506001900390600052602060002001600090919091909150555050505050565b6000806002838161034d57fe5b06141561035d5760019050610362565b600090505b919050565b60015481565b6060806040518060400160405280601681526020017f73616c75646f732079206269656e76656e69646f2c2000000000000000000000815250905080836040516020016103bb9291906105b8565b604051602081830303815290604052915050919050565b6000806000808486816103e157fe5b04905060008587816103ef57fe5b06905060008082141561040157600190505b8282829550955095505050509250925092565b6000818302905092915050565b600082601f83011261043257600080fd5b8135610445610440826106eb565b6106be565b9150808252602083016020830185838301111561046157600080fd5b61046c838284610754565b50505092915050565b600081359050610484816107a7565b92915050565b60006020828403121561049c57600080fd5b600082013567ffffffffffffffff8111156104b657600080fd5b6104c284828501610421565b91505092915050565b6000602082840312156104dd57600080fd5b60006104eb84828501610475565b91505092915050565b6000806040838503121561050757600080fd5b600061051585828601610475565b925050602061052685828601610475565b9150509250929050565b6105398161073e565b82525050565b600061054a82610717565b6105548185610722565b9350610564818560208601610763565b61056d81610796565b840191505092915050565b600061058382610717565b61058d8185610733565b935061059d818560208601610763565b80840191505092915050565b6105b28161074a565b82525050565b60006105c48285610578565b91506105d08284610578565b91508190509392505050565b60006020820190506105f16000830184610530565b92915050565b60006020820190508181036000830152610611818461053f565b905092915050565b600060208201905061062e60008301846105a9565b92915050565b600060608201905061064960008301866105a9565b61065660208301856105a9565b6106636040830184610530565b949350505050565b600060a08201905061068060008301886105a9565b61068d60208301876105a9565b61069a60408301866105a9565b6106a760608301856105a9565b6106b460808301846105a9565b9695505050505050565b6000604051905081810181811067ffffffffffffffff821117156106e157600080fd5b8060405250919050565b600067ffffffffffffffff82111561070257600080fd5b601f19601f8301169050602081019050919050565b600081519050919050565b600082825260208201905092915050565b600081905092915050565b60008115159050919050565b6000819050919050565b82818337600083830152505050565b60005b83811015610781578082015181840152602081019050610766565b83811115610790576000848401525b50505050565b6000601f19601f8301169050919050565b6107b08161074a565b81146107bb57600080fd5b5056fea26469706673582212202e777e9bed2e6017dc0e6ea69794be9f3cf4e94956f8e42555ce7fd23d08691964736f6c634300060c0033",
					"opcodes": "PUSH1 0x80 PUSH1 0x40 MSTORE CALLVALUE DUP1 ISZERO PUSH2 0x10 JUMPI PUSH1 0x0 DUP1 REVERT JUMPDEST POP PUSH2 0x7F4 DUP1 PUSH2 0x20 PUSH1 0x0 CODECOPY PUSH1 0x0 RETURN INVALID PUSH1 0x80 PUSH1 0x40 MSTORE CALLVALUE DUP1 ISZERO PUSH2 0x10 JUMPI PUSH1 0x0 DUP1 REVERT JUMPDEST POP PUSH1 0x4 CALLDATASIZE LT PUSH2 0x93 JUMPI PUSH1 0x0 CALLDATALOAD PUSH1 0xE0 SHR DUP1 PUSH4 0xC19AF07C GT PUSH2 0x66 JUMPI DUP1 PUSH4 0xC19AF07C EQ PUSH2 0xFE JUMPI DUP1 PUSH4 0xD2DE9F68 EQ PUSH2 0x12E JUMPI DUP1 PUSH4 0xD8485531 EQ PUSH2 0x14C JUMPI DUP1 PUSH4 0xE0068052 EQ PUSH2 0x17C JUMPI DUP1 PUSH4 0xFBF188A2 EQ PUSH2 0x1AE JUMPI PUSH2 0x93 JUMP JUMPDEST DUP1 PUSH4 0x1629AF95 EQ PUSH2 0x98 JUMPI DUP1 PUSH4 0x38D94193 EQ PUSH2 0xA2 JUMPI DUP1 PUSH4 0x703B3404 EQ PUSH2 0xD2 JUMPI DUP1 PUSH4 0xAE11CE3F EQ PUSH2 0xF4 JUMPI JUMPDEST PUSH1 0x0 DUP1 REVERT JUMPDEST PUSH2 0xA0 PUSH2 0x1DE JUMP JUMPDEST STOP JUMPDEST PUSH2 0xBC PUSH1 0x4 DUP1 CALLDATASIZE SUB DUP2 ADD SWAP1 PUSH2 0xB7 SWAP2 SWAP1 PUSH2 0x4CB JUMP JUMPDEST PUSH2 0x204 JUMP JUMPDEST PUSH1 0x40 MLOAD PUSH2 0xC9 SWAP2 SWAP1 PUSH2 0x619 JUMP JUMPDEST PUSH1 0x40 MLOAD DUP1 SWAP2 SUB SWAP1 RETURN JUMPDEST PUSH2 0xDA PUSH2 0x225 JUMP JUMPDEST PUSH1 0x40 MLOAD PUSH2 0xEB SWAP6 SWAP5 SWAP4 SWAP3 SWAP2 SWAP1 PUSH2 0x66B JUMP JUMPDEST PUSH1 0x40 MLOAD DUP1 SWAP2 SUB SWAP1 RETURN JUMPDEST PUSH2 0xFC PUSH2 0x248 JUMP JUMPDEST STOP JUMPDEST PUSH2 0x118 PUSH1 0x4 DUP1 CALLDATASIZE SUB DUP2 ADD SWAP1 PUSH2 0x113 SWAP2 SWAP1 PUSH2 0x4CB JUMP JUMPDEST PUSH2 0x340 JUMP JUMPDEST PUSH1 0x40 MLOAD PUSH2 0x125 SWAP2 SWAP1 PUSH2 0x5DC JUMP JUMPDEST PUSH1 0x40 MLOAD DUP1 SWAP2 SUB SWAP1 RETURN JUMPDEST PUSH2 0x136 PUSH2 0x367 JUMP JUMPDEST PUSH1 0x40 MLOAD PUSH2 0x143 SWAP2 SWAP1 PUSH2 0x619 JUMP JUMPDEST PUSH1 0x40 MLOAD DUP1 SWAP2 SUB SWAP1 RETURN JUMPDEST PUSH2 0x166 PUSH1 0x4 DUP1 CALLDATASIZE SUB DUP2 ADD SWAP1 PUSH2 0x161 SWAP2 SWAP1 PUSH2 0x48A JUMP JUMPDEST PUSH2 0x36D JUMP JUMPDEST PUSH1 0x40 MLOAD PUSH2 0x173 SWAP2 SWAP1 PUSH2 0x5F7 JUMP JUMPDEST PUSH1 0x40 MLOAD DUP1 SWAP2 SUB SWAP1 RETURN JUMPDEST PUSH2 0x196 PUSH1 0x4 DUP1 CALLDATASIZE SUB DUP2 ADD SWAP1 PUSH2 0x191 SWAP2 SWAP1 PUSH2 0x4F4 JUMP JUMPDEST PUSH2 0x3D2 JUMP JUMPDEST PUSH1 0x40 MLOAD PUSH2 0x1A5 SWAP4 SWAP3 SWAP2 SWAP1 PUSH2 0x634 JUMP JUMPDEST PUSH1 0x40 MLOAD DUP1 SWAP2 SUB SWAP1 RETURN JUMPDEST PUSH2 0x1C8 PUSH1 0x4 DUP1 CALLDATASIZE SUB DUP2 ADD SWAP1 PUSH2 0x1C3 SWAP2 SWAP1 PUSH2 0x4F4 JUMP JUMPDEST PUSH2 0x414 JUMP JUMPDEST PUSH1 0x40 MLOAD PUSH2 0x1D5 SWAP2 SWAP1 PUSH2 0x619 JUMP JUMPDEST PUSH1 0x40 MLOAD DUP1 SWAP2 SUB SWAP1 RETURN JUMPDEST PUSH1 0x0 PUSH2 0x1E8 PUSH2 0x225 JUMP JUMPDEST SWAP1 SWAP2 SWAP3 SWAP4 POP SWAP1 SWAP2 SWAP3 POP SWAP1 SWAP2 POP SWAP1 POP DUP1 SWAP2 POP POP DUP1 PUSH1 0x1 DUP2 SWAP1 SSTORE POP POP JUMP JUMPDEST PUSH1 0x0 DUP2 DUP2 SLOAD DUP2 LT PUSH2 0x211 JUMPI INVALID JUMPDEST SWAP1 PUSH1 0x0 MSTORE PUSH1 0x20 PUSH1 0x0 KECCAK256 ADD PUSH1 0x0 SWAP2 POP SWAP1 POP SLOAD DUP2 JUMP JUMPDEST PUSH1 0x0 DUP1 PUSH1 0x0 DUP1 PUSH1 0x0 PUSH1 0x1 PUSH1 0x2 PUSH1 0x3 PUSH1 0x4 PUSH1 0x5 SWAP5 POP SWAP5 POP SWAP5 POP SWAP5 POP SWAP5 POP SWAP1 SWAP2 SWAP3 SWAP4 SWAP5 JUMP JUMPDEST PUSH1 0x0 DUP1 PUSH1 0x0 DUP1 PUSH1 0x0 PUSH2 0x258 PUSH2 0x225 JUMP JUMPDEST DUP1 SWAP6 POP DUP2 SWAP7 POP DUP3 SWAP8 POP DUP4 SWAP9 POP DUP5 SWAP10 POP POP POP POP POP POP PUSH1 0x0 DUP6 SWAP1 DUP1 PUSH1 0x1 DUP2 SLOAD ADD DUP1 DUP3 SSTORE DUP1 SWAP2 POP POP PUSH1 0x1 SWAP1 SUB SWAP1 PUSH1 0x0 MSTORE PUSH1 0x20 PUSH1 0x0 KECCAK256 ADD PUSH1 0x0 SWAP1 SWAP2 SWAP1 SWAP2 SWAP1 SWAP2 POP SSTORE PUSH1 0x0 DUP5 SWAP1 DUP1 PUSH1 0x1 DUP2 SLOAD ADD DUP1 DUP3 SSTORE DUP1 SWAP2 POP POP PUSH1 0x1 SWAP1 SUB SWAP1 PUSH1 0x0 MSTORE PUSH1 0x20 PUSH1 0x0 KECCAK256 ADD PUSH1 0x0 SWAP1 SWAP2 SWAP1 SWAP2 SWAP1 SWAP2 POP SSTORE PUSH1 0x0 DUP4 SWAP1 DUP1 PUSH1 0x1 DUP2 SLOAD ADD DUP1 DUP3 SSTORE DUP1 SWAP2 POP POP PUSH1 0x1 SWAP1 SUB SWAP1 PUSH1 0x0 MSTORE PUSH1 0x20 PUSH1 0x0 KECCAK256 ADD PUSH1 0x0 SWAP1 SWAP2 SWAP1 SWAP2 SWAP1 SWAP2 POP SSTORE PUSH1 0x0 DUP3 SWAP1 DUP1 PUSH1 0x1 DUP2 SLOAD ADD DUP1 DUP3 SSTORE DUP1 SWAP2 POP POP PUSH1 0x1 SWAP1 SUB SWAP1 PUSH1 0x0 MSTORE PUSH1 0x20 PUSH1 0x0 KECCAK256 ADD PUSH1 0x0 SWAP1 SWAP2 SWAP1 SWAP2 SWAP1 SWAP2 POP SSTORE PUSH1 0x0 DUP2 SWAP1 DUP1 PUSH1 0x1 DUP2 SLOAD ADD DUP1 DUP3 SSTORE DUP1 SWAP2 POP POP PUSH1 0x1 SWAP1 SUB SWAP1 PUSH1 0x0 MSTORE PUSH1 0x20 PUSH1 0x0 KECCAK256 ADD PUSH1 0x0 SWAP1 SWAP2 SWAP1 SWAP2 SWAP1 SWAP2 POP SSTORE POP POP POP POP POP JUMP JUMPDEST PUSH1 0x0 DUP1 PUSH1 0x2 DUP4 DUP2 PUSH2 0x34D JUMPI INVALID JUMPDEST MOD EQ ISZERO PUSH2 0x35D JUMPI PUSH1 0x1 SWAP1 POP PUSH2 0x362 JUMP JUMPDEST PUSH1 0x0 SWAP1 POP JUMPDEST SWAP2 SWAP1 POP JUMP JUMPDEST PUSH1 0x1 SLOAD DUP2 JUMP JUMPDEST PUSH1 0x60 DUP1 PUSH1 0x40 MLOAD DUP1 PUSH1 0x40 ADD PUSH1 0x40 MSTORE DUP1 PUSH1 0x16 DUP2 MSTORE PUSH1 0x20 ADD PUSH32 0x73616C75646F732079206269656E76656E69646F2C2000000000000000000000 DUP2 MSTORE POP SWAP1 POP DUP1 DUP4 PUSH1 0x40 MLOAD PUSH1 0x20 ADD PUSH2 0x3BB SWAP3 SWAP2 SWAP1 PUSH2 0x5B8 JUMP JUMPDEST PUSH1 0x40 MLOAD PUSH1 0x20 DUP2 DUP4 SUB SUB DUP2 MSTORE SWAP1 PUSH1 0x40 MSTORE SWAP2 POP POP SWAP2 SWAP1 POP JUMP JUMPDEST PUSH1 0x0 DUP1 PUSH1 0x0 DUP1 DUP5 DUP7 DUP2 PUSH2 0x3E1 JUMPI INVALID JUMPDEST DIV SWAP1 POP PUSH1 0x0 DUP6 DUP8 DUP2 PUSH2 0x3EF JUMPI INVALID JUMPDEST MOD SWAP1 POP PUSH1 0x0 DUP1 DUP3 EQ ISZERO PUSH2 0x401 JUMPI PUSH1 0x1 SWAP1 POP JUMPDEST DUP3 DUP3 DUP3 SWAP6 POP SWAP6 POP SWAP6 POP POP POP POP SWAP3 POP SWAP3 POP SWAP3 JUMP JUMPDEST PUSH1 0x0 DUP2 DUP4 MUL SWAP1 POP SWAP3 SWAP2 POP POP JUMP JUMPDEST PUSH1 0x0 DUP3 PUSH1 0x1F DUP4 ADD SLT PUSH2 0x432 JUMPI PUSH1 0x0 DUP1 REVERT JUMPDEST DUP2 CALLDATALOAD PUSH2 0x445 PUSH2 0x440 DUP3 PUSH2 0x6EB JUMP JUMPDEST PUSH2 0x6BE JUMP JUMPDEST SWAP2 POP DUP1 DUP3 MSTORE PUSH1 0x20 DUP4 ADD PUSH1 0x20 DUP4 ADD DUP6 DUP4 DUP4 ADD GT ISZERO PUSH2 0x461 JUMPI PUSH1 0x0 DUP1 REVERT JUMPDEST PUSH2 0x46C DUP4 DUP3 DUP5 PUSH2 0x754 JUMP JUMPDEST POP POP POP SWAP3 SWAP2 POP POP JUMP JUMPDEST PUSH1 0x0 DUP2 CALLDATALOAD SWAP1 POP PUSH2 0x484 DUP2 PUSH2 0x7A7 JUMP JUMPDEST SWAP3 SWAP2 POP POP JUMP JUMPDEST PUSH1 0x0 PUSH1 0x20 DUP3 DUP5 SUB SLT ISZERO PUSH2 0x49C JUMPI PUSH1 0x0 DUP1 REVERT JUMPDEST PUSH1 0x0 DUP3 ADD CALLDATALOAD PUSH8 0xFFFFFFFFFFFFFFFF DUP2 GT ISZERO PUSH2 0x4B6 JUMPI PUSH1 0x0 DUP1 REVERT JUMPDEST PUSH2 0x4C2 DUP5 DUP3 DUP6 ADD PUSH2 0x421 JUMP JUMPDEST SWAP2 POP POP SWAP3 SWAP2 POP POP JUMP JUMPDEST PUSH1 0x0 PUSH1 0x20 DUP3 DUP5 SUB SLT ISZERO PUSH2 0x4DD JUMPI PUSH1 0x0 DUP1 REVERT JUMPDEST PUSH1 0x0 PUSH2 0x4EB DUP5 DUP3 DUP6 ADD PUSH2 0x475 JUMP JUMPDEST SWAP2 POP POP SWAP3 SWAP2 POP POP JUMP JUMPDEST PUSH1 0x0 DUP1 PUSH1 0x40 DUP4 DUP6 SUB SLT ISZERO PUSH2 0x507 JUMPI PUSH1 0x0 DUP1 REVERT JUMPDEST PUSH1 0x0 PUSH2 0x515 DUP6 DUP3 DUP7 ADD PUSH2 0x475 JUMP JUMPDEST SWAP3 POP POP PUSH1 0x20 PUSH2 0x526 DUP6 DUP3 DUP7 ADD PUSH2 0x475 JUMP JUMPDEST SWAP2 POP POP SWAP3 POP SWAP3 SWAP1 POP JUMP JUMPDEST PUSH2 0x539 DUP2 PUSH2 0x73E JUMP JUMPDEST DUP3 MSTORE POP POP JUMP JUMPDEST PUSH1 0x0 PUSH2 0x54A DUP3 PUSH2 0x717 JUMP JUMPDEST PUSH2 0x554 DUP2 DUP6 PUSH2 0x722 JUMP JUMPDEST SWAP4 POP PUSH2 0x564 DUP2 DUP6 PUSH1 0x20 DUP7 ADD PUSH2 0x763 JUMP JUMPDEST PUSH2 0x56D DUP2 PUSH2 0x796 JUMP JUMPDEST DUP5 ADD SWAP2 POP POP SWAP3 SWAP2 POP POP JUMP JUMPDEST PUSH1 0x0 PUSH2 0x583 DUP3 PUSH2 0x717 JUMP JUMPDEST PUSH2 0x58D DUP2 DUP6 PUSH2 0x733 JUMP JUMPDEST SWAP4 POP PUSH2 0x59D DUP2 DUP6 PUSH1 0x20 DUP7 ADD PUSH2 0x763 JUMP JUMPDEST DUP1 DUP5 ADD SWAP2 POP POP SWAP3 SWAP2 POP POP JUMP JUMPDEST PUSH2 0x5B2 DUP2 PUSH2 0x74A JUMP JUMPDEST DUP3 MSTORE POP POP JUMP JUMPDEST PUSH1 0x0 PUSH2 0x5C4 DUP3 DUP6 PUSH2 0x578 JUMP JUMPDEST SWAP2 POP PUSH2 0x5D0 DUP3 DUP5 PUSH2 0x578 JUMP JUMPDEST SWAP2 POP DUP2 SWAP1 POP SWAP4 SWAP3 POP POP POP JUMP JUMPDEST PUSH1 0x0 PUSH1 0x20 DUP3 ADD SWAP1 POP PUSH2 0x5F1 PUSH1 0x0 DUP4 ADD DUP5 PUSH2 0x530 JUMP JUMPDEST SWAP3 SWAP2 POP POP JUMP JUMPDEST PUSH1 0x0 PUSH1 0x20 DUP3 ADD SWAP1 POP DUP2 DUP2 SUB PUSH1 0x0 DUP4 ADD MSTORE PUSH2 0x611 DUP2 DUP5 PUSH2 0x53F JUMP JUMPDEST SWAP1 POP SWAP3 SWAP2 POP POP JUMP JUMPDEST PUSH1 0x0 PUSH1 0x20 DUP3 ADD SWAP1 POP PUSH2 0x62E PUSH1 0x0 DUP4 ADD DUP5 PUSH2 0x5A9 JUMP JUMPDEST SWAP3 SWAP2 POP POP JUMP JUMPDEST PUSH1 0x0 PUSH1 0x60 DUP3 ADD SWAP1 POP PUSH2 0x649 PUSH1 0x0 DUP4 ADD DUP7 PUSH2 0x5A9 JUMP JUMPDEST PUSH2 0x656 PUSH1 0x20 DUP4 ADD DUP6 PUSH2 0x5A9 JUMP JUMPDEST PUSH2 0x663 PUSH1 0x40 DUP4 ADD DUP5 PUSH2 0x530 JUMP JUMPDEST SWAP5 SWAP4 POP POP POP POP JUMP JUMPDEST PUSH1 0x0 PUSH1 0xA0 DUP3 ADD SWAP1 POP PUSH2 0x680 PUSH1 0x0 DUP4 ADD DUP9 PUSH2 0x5A9 JUMP JUMPDEST PUSH2 0x68D PUSH1 0x20 DUP4 ADD DUP8 PUSH2 0x5A9 JUMP JUMPDEST PUSH2 0x69A PUSH1 0x40 DUP4 ADD DUP7 PUSH2 0x5A9 JUMP JUMPDEST PUSH2 0x6A7 PUSH1 0x60 DUP4 ADD DUP6 PUSH2 0x5A9 JUMP JUMPDEST PUSH2 0x6B4 PUSH1 0x80 DUP4 ADD DUP5 PUSH2 0x5A9 JUMP JUMPDEST SWAP7 SWAP6 POP POP POP POP POP POP JUMP JUMPDEST PUSH1 0x0 PUSH1 0x40 MLOAD SWAP1 POP DUP2 DUP2 ADD DUP2 DUP2 LT PUSH8 0xFFFFFFFFFFFFFFFF DUP3 GT OR ISZERO PUSH2 0x6E1 JUMPI PUSH1 0x0 DUP1 REVERT JUMPDEST DUP1 PUSH1 0x40 MSTORE POP SWAP2 SWAP1 POP JUMP JUMPDEST PUSH1 0x0 PUSH8 0xFFFFFFFFFFFFFFFF DUP3 GT ISZERO PUSH2 0x702 JUMPI PUSH1 0x0 DUP1 REVERT JUMPDEST PUSH1 0x1F NOT PUSH1 0x1F DUP4 ADD AND SWAP1 POP PUSH1 0x20 DUP2 ADD SWAP1 POP SWAP2 SWAP1 POP JUMP JUMPDEST PUSH1 0x0 DUP2 MLOAD SWAP1 POP SWAP2 SWAP1 POP JUMP JUMPDEST PUSH1 0x0 DUP3 DUP3 MSTORE PUSH1 0x20 DUP3 ADD SWAP1 POP SWAP3 SWAP2 POP POP JUMP JUMPDEST PUSH1 0x0 DUP2 SWAP1 POP SWAP3 SWAP2 POP POP JUMP JUMPDEST PUSH1 0x0 DUP2 ISZERO ISZERO SWAP1 POP SWAP2 SWAP1 POP JUMP JUMPDEST PUSH1 0x0 DUP2 SWAP1 POP SWAP2 SWAP1 POP JUMP JUMPDEST DUP3 DUP2 DUP4 CALLDATACOPY PUSH1 0x0 DUP4 DUP4 ADD MSTORE POP POP POP JUMP JUMPDEST PUSH1 0x0 JUMPDEST DUP4 DUP2 LT ISZERO PUSH2 0x781 JUMPI DUP1 DUP3 ADD MLOAD DUP2 DUP5 ADD MSTORE PUSH1 0x20 DUP2 ADD SWAP1 POP PUSH2 0x766 JUMP JUMPDEST DUP4 DUP2 GT ISZERO PUSH2 0x790 JUMPI PUSH1 0x0 DUP5 DUP5 ADD MSTORE JUMPDEST POP POP POP POP JUMP JUMPDEST PUSH1 0x0 PUSH1 0x1F NOT PUSH1 0x1F DUP4 ADD AND SWAP1 POP SWAP2 SWAP1 POP JUMP JUMPDEST PUSH2 0x7B0 DUP2 PUSH2 0x74A JUMP JUMPDEST DUP2 EQ PUSH2 0x7BB JUMPI PUSH1 0x0 DUP1 REVERT JUMPDEST POP JUMP INVALID LOG2 PUSH5 0x6970667358 0x22 SLT KECCAK256 0x2E PUSH24 0x7E9BED2E6017DC0E6EA69794BE9F3CF4E94956F8E42555CE PUSH32 0xD23D08691964736F6C634300060C003300000000000000000000000000000000 "
				},
				"gasEstimates": {
					"creation": {
						"codeDepositCost": "407200",
						"executionCost": "443",
						"totalCost": "407643"
					},
					"external": {
						"array(uint256)": "infinite",
						"division(uint256,uint256)": "infinite",
						"guardar_valores()": "204995",
						"multiplicar(uint256,uint256)": "infinite",
						"numeros()": "infinite",
						"par_impar(uint256)": "670",
						"saludos(string)": "infinite",
						"ultimoValor()": "20306",
						"variable_ultimo()": "1151"
					}
				},
				"methodIdentifiers": {
					"array(uint256)": "38d94193",
					"division(uint256,uint256)": "e0068052",
					"guardar_valores()": "ae11ce3f",
					"multiplicar(uint256,uint256)": "fbf188a2",
					"numeros()": "703b3404",
					"par_impar(uint256)": "c19af07c",
					"saludos(string)": "d8485531",
					"ultimoValor()": "1629af95",
					"variable_ultimo()": "d2de9f68"
				}
			},
			"storageLayout": {
				"storage": [
					{
						"astId": 126,
						"contract": "Funciones/returns.sol:ValoresDeRetorno",
						"label": "array",
						"offset": 0,
						"slot": "0",
						"type": "t_array(t_uint256)dyn_storage"
					},
					{
						"astId": 128,
						"contract": "Funciones/returns.sol:ValoresDeRetorno",
						"label": "variable_ultimo",
						"offset": 0,
						"slot": "1",
						"type": "t_uint256"
					}
				],
				"types": {
					"t_array(t_uint256)dyn_storage": {
						"base": "t_uint256",
						"encoding": "dynamic_array",
						"label": "uint256[]",
						"numberOfBytes": "32"
					},
					"t_uint256": {
						"encoding": "inplace",
						"label": "uint256",
						"numberOfBytes": "32"
					}
				}
			},
			"userdoc": {
				"kind": "user",
				"methods": {},
				"version": 1
			}
		}
	}
}