{
	"Tipos de variables y operadores/modificadores.sol": {
		"public_private_internal": {
			"abi": [
				{
					"inputs": [],
					"stateMutability": "nonpayable",
					"type": "constructor"
				},
				{
					"inputs": [],
					"name": "owner",
					"outputs": [
						{
							"internalType": "address",
							"name": "",
							"type": "address"
						}
					],
					"stateMutability": "view",
					"type": "function"
				},
				{
					"inputs": [],
					"name": "str",
					"outputs": [
						{
							"internalType": "string",
							"name": "",
							"type": "string"
						}
					],
					"stateMutability": "view",
					"type": "function"
				},
				{
					"inputs": [
						{
							"internalType": "uint256",
							"name": "_k",
							"type": "uint256"
						}
					],
					"name": "test",
					"outputs": [],
					"stateMutability": "nonpayable",
					"type": "function"
				},
				{
					"inputs": [],
					"name": "variable",
					"outputs": [
						{
							"internalType": "uint256",
							"name": "",
							"type": "uint256"
						}
					],
					"stateMutability": "view",
					"type": "function"
				}
			],
			"devdoc": {
				"kind": "dev",
				"methods": {},
				"version": 1
			},
			"evm": {
				"assembly": "    /* \"Tipos de variables y operadores/modificadores.sol\":81:573  contract public_private_internal {\r... */\n  mstore(0x40, 0x80)\n    /* \"Tipos de variables y operadores/modificadores.sol\":170:172  10 */\n  0x0a\n    /* \"Tipos de variables y operadores/modificadores.sol\":147:172  uint public variable = 10 */\n  0x00\n  sstore\n    /* \"Tipos de variables y operadores/modificadores.sol\":179:210  string public str = \"hola pepe\" */\n  mload(0x40)\n  dup1\n  0x40\n  add\n  0x40\n  mstore\n  dup1\n  0x09\n  dup2\n  mstore\n  0x20\n  add\n  0x686f6c6120706570650000000000000000000000000000000000000000000000\n  dup2\n  mstore\n  pop\n  0x01\n  swap1\n  dup1\n  mload\n  swap1\n  0x20\n  add\n  swap1\n  tag_1\n  swap3\n  swap2\n  swap1\n  tag_2\n  jump\t// in\ntag_1:\n  pop\n    /* \"Tipos de variables y operadores/modificadores.sol\":363:365  10 */\n  0x0a\n    /* \"Tipos de variables y operadores/modificadores.sol\":341:365  uint private integer= 10 */\n  0x03\n  sstore\n    /* \"Tipos de variables y operadores/modificadores.sol\":392:396  true */\n  0x01\n    /* \"Tipos de variables y operadores/modificadores.sol\":372:396  bool private flag = true */\n  0x04\n  exp(0x0100, 0x00)\n  dup2\n  sload\n  dup2\n  0xff\n  mul\n  not\n  and\n  swap1\n  dup4\n  iszero\n  iszero\n  mul\n  or\n  swap1\n  sstore\n  pop\n    /* \"Tipos de variables y operadores/modificadores.sol\":538:562  abi.encodePacked(\"hola\") */\n  add(0x20, mload(0x40))\n  tag_3\n  swap1\n  tag_4\n  jump\t// in\ntag_3:\n  mload(0x40)\n  0x20\n  dup2\n  dup4\n  sub\n  sub\n  dup2\n  mstore\n  swap1\n  0x40\n  mstore\n    /* \"Tipos de variables y operadores/modificadores.sol\":528:563  keccak256(abi.encodePacked(\"hola\")) */\n  dup1\n  mload\n  swap1\n  0x20\n  add\n  keccak256\n    /* \"Tipos de variables y operadores/modificadores.sol\":504:563  bytes32 internal hash = keccak256(abi.encodePacked(\"hola\")) */\n  0x05\n  sstore\n    /* \"Tipos de variables y operadores/modificadores.sol\":246:304  constructor() public {\r... */\n  callvalue\n  dup1\n  iszero\n  tag_5\n  jumpi\n  0x00\n  dup1\n  revert\ntag_5:\n  pop\n    /* \"Tipos de variables y operadores/modificadores.sol\":286:296  msg.sender */\n  caller\n    /* \"Tipos de variables y operadores/modificadores.sol\":278:283  owner */\n  0x02\n  0x00\n    /* \"Tipos de variables y operadores/modificadores.sol\":278:296  owner = msg.sender */\n  0x0100\n  exp\n  dup2\n  sload\n  dup2\n  0xffffffffffffffffffffffffffffffffffffffff\n  mul\n  not\n  and\n  swap1\n  dup4\n  0xffffffffffffffffffffffffffffffffffffffff\n  and\n  mul\n  or\n  swap1\n  sstore\n  pop\n    /* \"Tipos de variables y operadores/modificadores.sol\":81:573  contract public_private_internal {\r... */\n  jump(tag_8)\ntag_2:\n  dup3\n  dup1\n  sload\n  0x01\n  dup2\n  0x01\n  and\n  iszero\n  0x0100\n  mul\n  sub\n  and\n  0x02\n  swap1\n  div\n  swap1\n  0x00\n  mstore\n  keccak256(0x00, 0x20)\n  swap1\n  0x1f\n  add\n  0x20\n  swap1\n  div\n  dup2\n  add\n  swap3\n  dup3\n  0x1f\n  lt\n  tag_10\n  jumpi\n  dup1\n  mload\n  not(0xff)\n  and\n  dup4\n  dup1\n  add\n  or\n  dup6\n  sstore\n  jump(tag_9)\ntag_10:\n  dup3\n  dup1\n  add\n  0x01\n  add\n  dup6\n  sstore\n  dup3\n  iszero\n  tag_9\n  jumpi\n  swap2\n  dup3\n  add\ntag_11:\n  dup3\n  dup2\n  gt\n  iszero\n  tag_12\n  jumpi\n  dup3\n  mload\n  dup3\n  sstore\n  swap2\n  0x20\n  add\n  swap2\n  swap1\n  0x01\n  add\n  swap1\n  jump(tag_11)\ntag_12:\ntag_9:\n  pop\n  swap1\n  pop\n  tag_13\n  swap2\n  swap1\n  tag_14\n  jump\t// in\ntag_13:\n  pop\n  swap1\n  jump\t// out\ntag_14:\ntag_15:\n  dup1\n  dup3\n  gt\n  iszero\n  tag_16\n  jumpi\n  0x00\n  dup2\n  0x00\n  swap1\n  sstore\n  pop\n  0x01\n  add\n  jump(tag_15)\ntag_16:\n  pop\n  swap1\n  jump\t// out\n    /* \"--CODEGEN--\":6:344   */\ntag_18:\n  0x00\n    /* \"--CODEGEN--\":184:268   */\n  tag_20\n    /* \"--CODEGEN--\":266:267   */\n  0x04\n    /* \"--CODEGEN--\":261:264   */\n  dup4\n    /* \"--CODEGEN--\":184:268   */\n  tag_21\n  jump\t// in\ntag_20:\n    /* \"--CODEGEN--\":177:268   */\n  swap2\n  pop\n    /* \"--CODEGEN--\":301:307   */\n  0x686f6c6100000000000000000000000000000000000000000000000000000000\n    /* \"--CODEGEN--\":297:298   */\n  0x00\n    /* \"--CODEGEN--\":292:295   */\n  dup4\n    /* \"--CODEGEN--\":288:299   */\n  add\n    /* \"--CODEGEN--\":281:308   */\n  mstore\n    /* \"--CODEGEN--\":336:337   */\n  0x04\n    /* \"--CODEGEN--\":331:334   */\n  dup3\n    /* \"--CODEGEN--\":327:338   */\n  add\n    /* \"--CODEGEN--\":320:338   */\n  swap1\n  pop\n    /* \"--CODEGEN--\":170:344   */\n  swap2\n  swap1\n  pop\n  jump\t// out\n    /* \"--CODEGEN--\":352:733   */\ntag_4:\n  0x00\n    /* \"--CODEGEN--\":560:708   */\n  tag_23\n    /* \"--CODEGEN--\":704:707   */\n  dup3\n    /* \"--CODEGEN--\":560:708   */\n  tag_18\n  jump\t// in\ntag_23:\n    /* \"--CODEGEN--\":553:708   */\n  swap2\n  pop\n    /* \"--CODEGEN--\":725:728   */\n  dup2\n    /* \"--CODEGEN--\":718:728   */\n  swap1\n  pop\n    /* \"--CODEGEN--\":541:733   */\n  swap2\n  swap1\n  pop\n  jump\t// out\n    /* \"--CODEGEN--\":741:886   */\ntag_21:\n  0x00\n    /* \"--CODEGEN--\":877:880   */\n  dup2\n    /* \"--CODEGEN--\":862:880   */\n  swap1\n  pop\n    /* \"--CODEGEN--\":855:886   */\n  swap3\n  swap2\n  pop\n  pop\n  jump\t// out\n    /* \"Tipos de variables y operadores/modificadores.sol\":81:573  contract public_private_internal {\r... */\ntag_8:\n  dataSize(sub_0)\n  dup1\n  dataOffset(sub_0)\n  0x00\n  codecopy\n  0x00\n  return\nstop\n\nsub_0: assembly {\n        /* \"Tipos de variables y operadores/modificadores.sol\":81:573  contract public_private_internal {\r... */\n      mstore(0x40, 0x80)\n      callvalue\n      dup1\n      iszero\n      tag_1\n      jumpi\n      0x00\n      dup1\n      revert\n    tag_1:\n      pop\n      jumpi(tag_2, lt(calldatasize, 0x04))\n      shr(0xe0, calldataload(0x00))\n      dup1\n      0x29e99f07\n      eq\n      tag_3\n      jumpi\n      dup1\n      0x8da5cb5b\n      eq\n      tag_4\n      jumpi\n      dup1\n      0xb6854a21\n      eq\n      tag_5\n      jumpi\n      dup1\n      0xc15bae84\n      eq\n      tag_6\n      jumpi\n    tag_2:\n      0x00\n      dup1\n      revert\n        /* \"Tipos de variables y operadores/modificadores.sol\":405:466  function test(uint _k) public {\r... */\n    tag_3:\n      tag_7\n      0x04\n      dup1\n      calldatasize\n      sub\n      dup2\n      add\n      swap1\n      tag_8\n      swap2\n      swap1\n      tag_9\n      jump\t// in\n    tag_8:\n      tag_10\n      jump\t// in\n    tag_7:\n      stop\n        /* \"Tipos de variables y operadores/modificadores.sol\":217:237  address public owner */\n    tag_4:\n      tag_11\n      tag_12\n      jump\t// in\n    tag_11:\n      mload(0x40)\n      tag_13\n      swap2\n      swap1\n      tag_14\n      jump\t// in\n    tag_13:\n      mload(0x40)\n      dup1\n      swap2\n      sub\n      swap1\n      return\n        /* \"Tipos de variables y operadores/modificadores.sol\":147:172  uint public variable = 10 */\n    tag_5:\n      tag_15\n      tag_16\n      jump\t// in\n    tag_15:\n      mload(0x40)\n      tag_17\n      swap2\n      swap1\n      tag_18\n      jump\t// in\n    tag_17:\n      mload(0x40)\n      dup1\n      swap2\n      sub\n      swap1\n      return\n        /* \"Tipos de variables y operadores/modificadores.sol\":179:210  string public str = \"hola pepe\" */\n    tag_6:\n      tag_19\n      tag_20\n      jump\t// in\n    tag_19:\n      mload(0x40)\n      tag_21\n      swap2\n      swap1\n      tag_22\n      jump\t// in\n    tag_21:\n      mload(0x40)\n      dup1\n      swap2\n      sub\n      swap1\n      return\n        /* \"Tipos de variables y operadores/modificadores.sol\":405:466  function test(uint _k) public {\r... */\n    tag_10:\n        /* \"Tipos de variables y operadores/modificadores.sol\":456:458  _k */\n      dup1\n        /* \"Tipos de variables y operadores/modificadores.sol\":446:453  integer */\n      0x03\n        /* \"Tipos de variables y operadores/modificadores.sol\":446:458  integer = _k */\n      dup2\n      swap1\n      sstore\n      pop\n        /* \"Tipos de variables y operadores/modificadores.sol\":405:466  function test(uint _k) public {\r... */\n      pop\n      jump\t// out\n        /* \"Tipos de variables y operadores/modificadores.sol\":217:237  address public owner */\n    tag_12:\n      0x02\n      0x00\n      swap1\n      sload\n      swap1\n      0x0100\n      exp\n      swap1\n      div\n      0xffffffffffffffffffffffffffffffffffffffff\n      and\n      dup2\n      jump\t// out\n        /* \"Tipos de variables y operadores/modificadores.sol\":147:172  uint public variable = 10 */\n    tag_16:\n      sload(0x00)\n      dup2\n      jump\t// out\n        /* \"Tipos de variables y operadores/modificadores.sol\":179:210  string public str = \"hola pepe\" */\n    tag_20:\n      0x01\n      dup1\n      sload\n      0x01\n      dup2\n      0x01\n      and\n      iszero\n      0x0100\n      mul\n      sub\n      and\n      0x02\n      swap1\n      div\n      dup1\n      0x1f\n      add\n      0x20\n      dup1\n      swap2\n      div\n      mul\n      0x20\n      add\n      mload(0x40)\n      swap1\n      dup2\n      add\n      0x40\n      mstore\n      dup1\n      swap3\n      swap2\n      swap1\n      dup2\n      dup2\n      mstore\n      0x20\n      add\n      dup3\n      dup1\n      sload\n      0x01\n      dup2\n      0x01\n      and\n      iszero\n      0x0100\n      mul\n      sub\n      and\n      0x02\n      swap1\n      div\n      dup1\n      iszero\n      tag_24\n      jumpi\n      dup1\n      0x1f\n      lt\n      tag_25\n      jumpi\n      0x0100\n      dup1\n      dup4\n      sload\n      div\n      mul\n      dup4\n      mstore\n      swap2\n      0x20\n      add\n      swap2\n      jump(tag_24)\n    tag_25:\n      dup3\n      add\n      swap2\n      swap1\n      0x00\n      mstore\n      keccak256(0x00, 0x20)\n      swap1\n    tag_26:\n      dup2\n      sload\n      dup2\n      mstore\n      swap1\n      0x01\n      add\n      swap1\n      0x20\n      add\n      dup1\n      dup4\n      gt\n      tag_26\n      jumpi\n      dup3\n      swap1\n      sub\n      0x1f\n      and\n      dup3\n      add\n      swap2\n    tag_24:\n      pop\n      pop\n      pop\n      pop\n      pop\n      dup2\n      jump\t// out\n        /* \"--CODEGEN--\":5:135   */\n    tag_28:\n      0x00\n        /* \"--CODEGEN--\":85:91   */\n      dup2\n        /* \"--CODEGEN--\":72:92   */\n      calldataload\n        /* \"--CODEGEN--\":63:92   */\n      swap1\n      pop\n        /* \"--CODEGEN--\":97:130   */\n      tag_30\n        /* \"--CODEGEN--\":124:129   */\n      dup2\n        /* \"--CODEGEN--\":97:130   */\n      tag_31\n      jump\t// in\n    tag_30:\n        /* \"--CODEGEN--\":57:135   */\n      swap3\n      swap2\n      pop\n      pop\n      jump\t// out\n        /* \"--CODEGEN--\":142:383   */\n    tag_9:\n      0x00\n        /* \"--CODEGEN--\":246:248   */\n      0x20\n        /* \"--CODEGEN--\":234:243   */\n      dup3\n        /* \"--CODEGEN--\":225:232   */\n      dup5\n        /* \"--CODEGEN--\":221:244   */\n      sub\n        /* \"--CODEGEN--\":217:249   */\n      slt\n        /* \"--CODEGEN--\":214:216   */\n      iszero\n      tag_33\n      jumpi\n        /* \"--CODEGEN--\":262:263   */\n      0x00\n        /* \"--CODEGEN--\":259:260   */\n      dup1\n        /* \"--CODEGEN--\":252:264   */\n      revert\n        /* \"--CODEGEN--\":214:216   */\n    tag_33:\n        /* \"--CODEGEN--\":297:298   */\n      0x00\n        /* \"--CODEGEN--\":314:367   */\n      tag_34\n        /* \"--CODEGEN--\":359:366   */\n      dup5\n        /* \"--CODEGEN--\":350:356   */\n      dup3\n        /* \"--CODEGEN--\":339:348   */\n      dup6\n        /* \"--CODEGEN--\":335:357   */\n      add\n        /* \"--CODEGEN--\":314:367   */\n      tag_28\n      jump\t// in\n    tag_34:\n        /* \"--CODEGEN--\":304:367   */\n      swap2\n      pop\n        /* \"--CODEGEN--\":276:373   */\n      pop\n        /* \"--CODEGEN--\":208:383   */\n      swap3\n      swap2\n      pop\n      pop\n      jump\t// out\n        /* \"--CODEGEN--\":390:503   */\n    tag_35:\n        /* \"--CODEGEN--\":473:497   */\n      tag_37\n        /* \"--CODEGEN--\":491:496   */\n      dup2\n        /* \"--CODEGEN--\":473:497   */\n      tag_38\n      jump\t// in\n    tag_37:\n        /* \"--CODEGEN--\":468:471   */\n      dup3\n        /* \"--CODEGEN--\":461:498   */\n      mstore\n        /* \"--CODEGEN--\":455:503   */\n      pop\n      pop\n      jump\t// out\n        /* \"--CODEGEN--\":510:857   */\n    tag_39:\n      0x00\n        /* \"--CODEGEN--\":622:661   */\n      tag_41\n        /* \"--CODEGEN--\":655:660   */\n      dup3\n        /* \"--CODEGEN--\":622:661   */\n      tag_42\n      jump\t// in\n    tag_41:\n        /* \"--CODEGEN--\":673:744   */\n      tag_43\n        /* \"--CODEGEN--\":737:743   */\n      dup2\n        /* \"--CODEGEN--\":732:735   */\n      dup6\n        /* \"--CODEGEN--\":673:744   */\n      tag_44\n      jump\t// in\n    tag_43:\n        /* \"--CODEGEN--\":666:744   */\n      swap4\n      pop\n        /* \"--CODEGEN--\":749:801   */\n      tag_45\n        /* \"--CODEGEN--\":794:800   */\n      dup2\n        /* \"--CODEGEN--\":789:792   */\n      dup6\n        /* \"--CODEGEN--\":782:786   */\n      0x20\n        /* \"--CODEGEN--\":775:780   */\n      dup7\n        /* \"--CODEGEN--\":771:787   */\n      add\n        /* \"--CODEGEN--\":749:801   */\n      tag_46\n      jump\t// in\n    tag_45:\n        /* \"--CODEGEN--\":822:851   */\n      tag_47\n        /* \"--CODEGEN--\":844:850   */\n      dup2\n        /* \"--CODEGEN--\":822:851   */\n      tag_48\n      jump\t// in\n    tag_47:\n        /* \"--CODEGEN--\":817:820   */\n      dup5\n        /* \"--CODEGEN--\":813:852   */\n      add\n        /* \"--CODEGEN--\":806:852   */\n      swap2\n      pop\n        /* \"--CODEGEN--\":602:857   */\n      pop\n      swap3\n      swap2\n      pop\n      pop\n      jump\t// out\n        /* \"--CODEGEN--\":864:977   */\n    tag_49:\n        /* \"--CODEGEN--\":947:971   */\n      tag_51\n        /* \"--CODEGEN--\":965:970   */\n      dup2\n        /* \"--CODEGEN--\":947:971   */\n      tag_52\n      jump\t// in\n    tag_51:\n        /* \"--CODEGEN--\":942:945   */\n      dup3\n        /* \"--CODEGEN--\":935:972   */\n      mstore\n        /* \"--CODEGEN--\":929:977   */\n      pop\n      pop\n      jump\t// out\n        /* \"--CODEGEN--\":984:1206   */\n    tag_14:\n      0x00\n        /* \"--CODEGEN--\":1111:1113   */\n      0x20\n        /* \"--CODEGEN--\":1100:1109   */\n      dup3\n        /* \"--CODEGEN--\":1096:1114   */\n      add\n        /* \"--CODEGEN--\":1088:1114   */\n      swap1\n      pop\n        /* \"--CODEGEN--\":1125:1196   */\n      tag_54\n        /* \"--CODEGEN--\":1193:1194   */\n      0x00\n        /* \"--CODEGEN--\":1182:1191   */\n      dup4\n        /* \"--CODEGEN--\":1178:1195   */\n      add\n        /* \"--CODEGEN--\":1169:1175   */\n      dup5\n        /* \"--CODEGEN--\":1125:1196   */\n      tag_35\n      jump\t// in\n    tag_54:\n        /* \"--CODEGEN--\":1082:1206   */\n      swap3\n      swap2\n      pop\n      pop\n      jump\t// out\n        /* \"--CODEGEN--\":1213:1523   */\n    tag_22:\n      0x00\n        /* \"--CODEGEN--\":1360:1362   */\n      0x20\n        /* \"--CODEGEN--\":1349:1358   */\n      dup3\n        /* \"--CODEGEN--\":1345:1363   */\n      add\n        /* \"--CODEGEN--\":1337:1363   */\n      swap1\n      pop\n        /* \"--CODEGEN--\":1410:1419   */\n      dup2\n        /* \"--CODEGEN--\":1404:1408   */\n      dup2\n        /* \"--CODEGEN--\":1400:1420   */\n      sub\n        /* \"--CODEGEN--\":1396:1397   */\n      0x00\n        /* \"--CODEGEN--\":1385:1394   */\n      dup4\n        /* \"--CODEGEN--\":1381:1398   */\n      add\n        /* \"--CODEGEN--\":1374:1421   */\n      mstore\n        /* \"--CODEGEN--\":1435:1513   */\n      tag_56\n        /* \"--CODEGEN--\":1508:1512   */\n      dup2\n        /* \"--CODEGEN--\":1499:1505   */\n      dup5\n        /* \"--CODEGEN--\":1435:1513   */\n      tag_39\n      jump\t// in\n    tag_56:\n        /* \"--CODEGEN--\":1427:1513   */\n      swap1\n      pop\n        /* \"--CODEGEN--\":1331:1523   */\n      swap3\n      swap2\n      pop\n      pop\n      jump\t// out\n        /* \"--CODEGEN--\":1530:1752   */\n    tag_18:\n      0x00\n        /* \"--CODEGEN--\":1657:1659   */\n      0x20\n        /* \"--CODEGEN--\":1646:1655   */\n      dup3\n        /* \"--CODEGEN--\":1642:1660   */\n      add\n        /* \"--CODEGEN--\":1634:1660   */\n      swap1\n      pop\n        /* \"--CODEGEN--\":1671:1742   */\n      tag_58\n        /* \"--CODEGEN--\":1739:1740   */\n      0x00\n        /* \"--CODEGEN--\":1728:1737   */\n      dup4\n        /* \"--CODEGEN--\":1724:1741   */\n      add\n        /* \"--CODEGEN--\":1715:1721   */\n      dup5\n        /* \"--CODEGEN--\":1671:1742   */\n      tag_49\n      jump\t// in\n    tag_58:\n        /* \"--CODEGEN--\":1628:1752   */\n      swap3\n      swap2\n      pop\n      pop\n      jump\t// out\n        /* \"--CODEGEN--\":1759:1881   */\n    tag_42:\n      0x00\n        /* \"--CODEGEN--\":1853:1858   */\n      dup2\n        /* \"--CODEGEN--\":1847:1859   */\n      mload\n        /* \"--CODEGEN--\":1837:1859   */\n      swap1\n      pop\n        /* \"--CODEGEN--\":1818:1881   */\n      swap2\n      swap1\n      pop\n      jump\t// out\n        /* \"--CODEGEN--\":1889:2052   */\n    tag_44:\n      0x00\n        /* \"--CODEGEN--\":2004:2010   */\n      dup3\n        /* \"--CODEGEN--\":1999:2002   */\n      dup3\n        /* \"--CODEGEN--\":1992:2011   */\n      mstore\n        /* \"--CODEGEN--\":2041:2045   */\n      0x20\n        /* \"--CODEGEN--\":2036:2039   */\n      dup3\n        /* \"--CODEGEN--\":2032:2046   */\n      add\n        /* \"--CODEGEN--\":2017:2046   */\n      swap1\n      pop\n        /* \"--CODEGEN--\":1985:2052   */\n      swap3\n      swap2\n      pop\n      pop\n      jump\t// out\n        /* \"--CODEGEN--\":2060:2151   */\n    tag_38:\n      0x00\n        /* \"--CODEGEN--\":2122:2146   */\n      tag_62\n        /* \"--CODEGEN--\":2140:2145   */\n      dup3\n        /* \"--CODEGEN--\":2122:2146   */\n      tag_63\n      jump\t// in\n    tag_62:\n        /* \"--CODEGEN--\":2111:2146   */\n      swap1\n      pop\n        /* \"--CODEGEN--\":2105:2151   */\n      swap2\n      swap1\n      pop\n      jump\t// out\n        /* \"--CODEGEN--\":2158:2279   */\n    tag_63:\n      0x00\n        /* \"--CODEGEN--\":2231:2273   */\n      0xffffffffffffffffffffffffffffffffffffffff\n        /* \"--CODEGEN--\":2224:2229   */\n      dup3\n        /* \"--CODEGEN--\":2220:2274   */\n      and\n        /* \"--CODEGEN--\":2209:2274   */\n      swap1\n      pop\n        /* \"--CODEGEN--\":2203:2279   */\n      swap2\n      swap1\n      pop\n      jump\t// out\n        /* \"--CODEGEN--\":2286:2358   */\n    tag_52:\n      0x00\n        /* \"--CODEGEN--\":2348:2353   */\n      dup2\n        /* \"--CODEGEN--\":2337:2353   */\n      swap1\n      pop\n        /* \"--CODEGEN--\":2331:2358   */\n      swap2\n      swap1\n      pop\n      jump\t// out\n        /* \"--CODEGEN--\":2366:2634   */\n    tag_46:\n        /* \"--CODEGEN--\":2431:2432   */\n      0x00\n        /* \"--CODEGEN--\":2438:2539   */\n    tag_67:\n        /* \"--CODEGEN--\":2452:2458   */\n      dup4\n        /* \"--CODEGEN--\":2449:2450   */\n      dup2\n        /* \"--CODEGEN--\":2446:2459   */\n      lt\n        /* \"--CODEGEN--\":2438:2539   */\n      iszero\n      tag_69\n      jumpi\n        /* \"--CODEGEN--\":2528:2529   */\n      dup1\n        /* \"--CODEGEN--\":2523:2526   */\n      dup3\n        /* \"--CODEGEN--\":2519:2530   */\n      add\n        /* \"--CODEGEN--\":2513:2531   */\n      mload\n        /* \"--CODEGEN--\":2509:2510   */\n      dup2\n        /* \"--CODEGEN--\":2504:2507   */\n      dup5\n        /* \"--CODEGEN--\":2500:2511   */\n      add\n        /* \"--CODEGEN--\":2493:2532   */\n      mstore\n        /* \"--CODEGEN--\":2474:2476   */\n      0x20\n        /* \"--CODEGEN--\":2471:2472   */\n      dup2\n        /* \"--CODEGEN--\":2467:2477   */\n      add\n        /* \"--CODEGEN--\":2462:2477   */\n      swap1\n      pop\n        /* \"--CODEGEN--\":2438:2539   */\n      jump(tag_67)\n    tag_69:\n        /* \"--CODEGEN--\":2554:2560   */\n      dup4\n        /* \"--CODEGEN--\":2551:2552   */\n      dup2\n        /* \"--CODEGEN--\":2548:2561   */\n      gt\n        /* \"--CODEGEN--\":2545:2547   */\n      iszero\n      tag_70\n      jumpi\n        /* \"--CODEGEN--\":2619:2620   */\n      0x00\n        /* \"--CODEGEN--\":2610:2616   */\n      dup5\n        /* \"--CODEGEN--\":2605:2608   */\n      dup5\n        /* \"--CODEGEN--\":2601:2617   */\n      add\n        /* \"--CODEGEN--\":2594:2621   */\n      mstore\n        /* \"--CODEGEN--\":2545:2547   */\n    tag_70:\n        /* \"--CODEGEN--\":2415:2634   */\n      pop\n      pop\n      pop\n      pop\n      jump\t// out\n        /* \"--CODEGEN--\":2642:2739   */\n    tag_48:\n      0x00\n        /* \"--CODEGEN--\":2730:2732   */\n      0x1f\n        /* \"--CODEGEN--\":2726:2733   */\n      not\n        /* \"--CODEGEN--\":2721:2723   */\n      0x1f\n        /* \"--CODEGEN--\":2714:2719   */\n      dup4\n        /* \"--CODEGEN--\":2710:2724   */\n      add\n        /* \"--CODEGEN--\":2706:2734   */\n      and\n        /* \"--CODEGEN--\":2696:2734   */\n      swap1\n      pop\n        /* \"--CODEGEN--\":2690:2739   */\n      swap2\n      swap1\n      pop\n      jump\t// out\n        /* \"--CODEGEN--\":2747:2864   */\n    tag_31:\n        /* \"--CODEGEN--\":2816:2840   */\n      tag_73\n        /* \"--CODEGEN--\":2834:2839   */\n      dup2\n        /* \"--CODEGEN--\":2816:2840   */\n      tag_52\n      jump\t// in\n    tag_73:\n        /* \"--CODEGEN--\":2809:2814   */\n      dup2\n        /* \"--CODEGEN--\":2806:2841   */\n      eq\n        /* \"--CODEGEN--\":2796:2798   */\n      tag_74\n      jumpi\n        /* \"--CODEGEN--\":2855:2856   */\n      0x00\n        /* \"--CODEGEN--\":2852:2853   */\n      dup1\n        /* \"--CODEGEN--\":2845:2857   */\n      revert\n        /* \"--CODEGEN--\":2796:2798   */\n    tag_74:\n        /* \"--CODEGEN--\":2790:2864   */\n      pop\n      jump\t// out\n\n    auxdata: 0xa26469706673582212206a27057283135c2d89f4bbb2027f47536977cfd76bdf3604b998947edf762a7864736f6c634300060c0033\n}\n",
				"bytecode": {
					"linkReferences": {},
					"object": "6080604052600a6000556040518060400160405280600981526020017f686f6c6120706570650000000000000000000000000000000000000000000000815250600190805190602001906100549291906100f0565b50600a6003556001600460006101000a81548160ff021916908315150217905550604051602001610084906101cd565b604051602081830303815290604052805190602001206005553480156100a957600080fd5b5033600260006101000a81548173ffffffffffffffffffffffffffffffffffffffff021916908373ffffffffffffffffffffffffffffffffffffffff1602179055506101ed565b828054600181600116156101000203166002900490600052602060002090601f016020900481019282601f1061013157805160ff191683800117855561015f565b8280016001018555821561015f579182015b8281111561015e578251825591602001919060010190610143565b5b50905061016c9190610170565b5090565b5b80821115610189576000816000905550600101610171565b5090565b600061019a6004836101e2565b91507f686f6c61000000000000000000000000000000000000000000000000000000006000830152600482019050919050565b60006101d88261018d565b9150819050919050565b600081905092915050565b610371806101fc6000396000f3fe608060405234801561001057600080fd5b506004361061004c5760003560e01c806329e99f07146100515780638da5cb5b1461006d578063b6854a211461008b578063c15bae84146100a9575b600080fd5b61006b600480360381019061006691906101b0565b6100c7565b005b6100756100d1565b6040516100829190610230565b60405180910390f35b6100936100f7565b6040516100a0919061026d565b60405180910390f35b6100b16100fd565b6040516100be919061024b565b60405180910390f35b8060038190555050565b600260009054906101000a900473ffffffffffffffffffffffffffffffffffffffff1681565b60005481565b60018054600181600116156101000203166002900480601f0160208091040260200160405190810160405280929190818152602001828054600181600116156101000203166002900480156101935780601f1061016857610100808354040283529160200191610193565b820191906000526020600020905b81548152906001019060200180831161017657829003601f168201915b505050505081565b6000813590506101aa81610324565b92915050565b6000602082840312156101c257600080fd5b60006101d08482850161019b565b91505092915050565b6101e2816102a4565b82525050565b60006101f382610288565b6101fd8185610293565b935061020d8185602086016102e0565b61021681610313565b840191505092915050565b61022a816102d6565b82525050565b600060208201905061024560008301846101d9565b92915050565b6000602082019050818103600083015261026581846101e8565b905092915050565b60006020820190506102826000830184610221565b92915050565b600081519050919050565b600082825260208201905092915050565b60006102af826102b6565b9050919050565b600073ffffffffffffffffffffffffffffffffffffffff82169050919050565b6000819050919050565b60005b838110156102fe5780820151818401526020810190506102e3565b8381111561030d576000848401525b50505050565b6000601f19601f8301169050919050565b61032d816102d6565b811461033857600080fd5b5056fea26469706673582212206a27057283135c2d89f4bbb2027f47536977cfd76bdf3604b998947edf762a7864736f6c634300060c0033",
					"opcodes": "PUSH1 0x80 PUSH1 0x40 MSTORE PUSH1 0xA PUSH1 0x0 SSTORE PUSH1 0x40 MLOAD DUP1 PUSH1 0x40 ADD PUSH1 0x40 MSTORE DUP1 PUSH1 0x9 DUP2 MSTORE PUSH1 0x20 ADD PUSH32 0x686F6C6120706570650000000000000000000000000000000000000000000000 DUP2 MSTORE POP PUSH1 0x1 SWAP1 DUP1 MLOAD SWAP1 PUSH1 0x20 ADD SWAP1 PUSH2 0x54 SWAP3 SWAP2 SWAP1 PUSH2 0xF0 JUMP JUMPDEST POP PUSH1 0xA PUSH1 0x3 SSTORE PUSH1 0x1 PUSH1 0x4 PUSH1 0x0 PUSH2 0x100 EXP DUP2 SLOAD DUP2 PUSH1 0xFF MUL NOT AND SWAP1 DUP4 ISZERO ISZERO MUL OR SWAP1 SSTORE POP PUSH1 0x40 MLOAD PUSH1 0x20 ADD PUSH2 0x84 SWAP1 PUSH2 0x1CD JUMP JUMPDEST PUSH1 0x40 MLOAD PUSH1 0x20 DUP2 DUP4 SUB SUB DUP2 MSTORE SWAP1 PUSH1 0x40 MSTORE DUP1 MLOAD SWAP1 PUSH1 0x20 ADD KECCAK256 PUSH1 0x5 SSTORE CALLVALUE DUP1 ISZERO PUSH2 0xA9 JUMPI PUSH1 0x0 DUP1 REVERT JUMPDEST POP CALLER PUSH1 0x2 PUSH1 0x0 PUSH2 0x100 EXP DUP2 SLOAD DUP2 PUSH20 0xFFFFFFFFFFFFFFFFFFFFFFFFFFFFFFFFFFFFFFFF MUL NOT AND SWAP1 DUP4 PUSH20 0xFFFFFFFFFFFFFFFFFFFFFFFFFFFFFFFFFFFFFFFF AND MUL OR SWAP1 SSTORE POP PUSH2 0x1ED JUMP JUMPDEST DUP3 DUP1 SLOAD PUSH1 0x1 DUP2 PUSH1 0x1 AND ISZERO PUSH2 0x100 MUL SUB AND PUSH1 0x2 SWAP1 DIV SWAP1 PUSH1 0x0 MSTORE PUSH1 0x20 PUSH1 0x0 KECCAK256 SWAP1 PUSH1 0x1F ADD PUSH1 0x20 SWAP1 DIV DUP2 ADD SWAP3 DUP3 PUSH1 0x1F LT PUSH2 0x131 JUMPI DUP1 MLOAD PUSH1 0xFF NOT AND DUP4 DUP1 ADD OR DUP6 SSTORE PUSH2 0x15F JUMP JUMPDEST DUP3 DUP1 ADD PUSH1 0x1 ADD DUP6 SSTORE DUP3 ISZERO PUSH2 0x15F JUMPI SWAP2 DUP3 ADD JUMPDEST DUP3 DUP2 GT ISZERO PUSH2 0x15E JUMPI DUP3 MLOAD DUP3 SSTORE SWAP2 PUSH1 0x20 ADD SWAP2 SWAP1 PUSH1 0x1 ADD SWAP1 PUSH2 0x143 JUMP JUMPDEST JUMPDEST POP SWAP1 POP PUSH2 0x16C SWAP2 SWAP1 PUSH2 0x170 JUMP JUMPDEST POP SWAP1 JUMP JUMPDEST JUMPDEST DUP1 DUP3 GT ISZERO PUSH2 0x189 JUMPI PUSH1 0x0 DUP2 PUSH1 0x0 SWAP1 SSTORE POP PUSH1 0x1 ADD PUSH2 0x171 JUMP JUMPDEST POP SWAP1 JUMP JUMPDEST PUSH1 0x0 PUSH2 0x19A PUSH1 0x4 DUP4 PUSH2 0x1E2 JUMP JUMPDEST SWAP2 POP PUSH32 0x686F6C6100000000000000000000000000000000000000000000000000000000 PUSH1 0x0 DUP4 ADD MSTORE PUSH1 0x4 DUP3 ADD SWAP1 POP SWAP2 SWAP1 POP JUMP JUMPDEST PUSH1 0x0 PUSH2 0x1D8 DUP3 PUSH2 0x18D JUMP JUMPDEST SWAP2 POP DUP2 SWAP1 POP SWAP2 SWAP1 POP JUMP JUMPDEST PUSH1 0x0 DUP2 SWAP1 POP SWAP3 SWAP2 POP POP JUMP JUMPDEST PUSH2 0x371 DUP1 PUSH2 0x1FC PUSH1 0x0 CODECOPY PUSH1 0x0 RETURN INVALID PUSH1 0x80 PUSH1 0x40 MSTORE CALLVALUE DUP1 ISZERO PUSH2 0x10 JUMPI PUSH1 0x0 DUP1 REVERT JUMPDEST POP PUSH1 0x4 CALLDATASIZE LT PUSH2 0x4C JUMPI PUSH1 0x0 CALLDATALOAD PUSH1 0xE0 SHR DUP1 PUSH4 0x29E99F07 EQ PUSH2 0x51 JUMPI DUP1 PUSH4 0x8DA5CB5B EQ PUSH2 0x6D JUMPI DUP1 PUSH4 0xB6854A21 EQ PUSH2 0x8B JUMPI DUP1 PUSH4 0xC15BAE84 EQ PUSH2 0xA9 JUMPI JUMPDEST PUSH1 0x0 DUP1 REVERT JUMPDEST PUSH2 0x6B PUSH1 0x4 DUP1 CALLDATASIZE SUB DUP2 ADD SWAP1 PUSH2 0x66 SWAP2 SWAP1 PUSH2 0x1B0 JUMP JUMPDEST PUSH2 0xC7 JUMP JUMPDEST STOP JUMPDEST PUSH2 0x75 PUSH2 0xD1 JUMP JUMPDEST PUSH1 0x40 MLOAD PUSH2 0x82 SWAP2 SWAP1 PUSH2 0x230 JUMP JUMPDEST PUSH1 0x40 MLOAD DUP1 SWAP2 SUB SWAP1 RETURN JUMPDEST PUSH2 0x93 PUSH2 0xF7 JUMP JUMPDEST PUSH1 0x40 MLOAD PUSH2 0xA0 SWAP2 SWAP1 PUSH2 0x26D JUMP JUMPDEST PUSH1 0x40 MLOAD DUP1 SWAP2 SUB SWAP1 RETURN JUMPDEST PUSH2 0xB1 PUSH2 0xFD JUMP JUMPDEST PUSH1 0x40 MLOAD PUSH2 0xBE SWAP2 SWAP1 PUSH2 0x24B JUMP JUMPDEST PUSH1 0x40 MLOAD DUP1 SWAP2 SUB SWAP1 RETURN JUMPDEST DUP1 PUSH1 0x3 DUP2 SWAP1 SSTORE POP POP JUMP JUMPDEST PUSH1 0x2 PUSH1 0x0 SWAP1 SLOAD SWAP1 PUSH2 0x100 EXP SWAP1 DIV PUSH20 0xFFFFFFFFFFFFFFFFFFFFFFFFFFFFFFFFFFFFFFFF AND DUP2 JUMP JUMPDEST PUSH1 0x0 SLOAD DUP2 JUMP JUMPDEST PUSH1 0x1 DUP1 SLOAD PUSH1 0x1 DUP2 PUSH1 0x1 AND ISZERO PUSH2 0x100 MUL SUB AND PUSH1 0x2 SWAP1 DIV DUP1 PUSH1 0x1F ADD PUSH1 0x20 DUP1 SWAP2 DIV MUL PUSH1 0x20 ADD PUSH1 0x40 MLOAD SWAP1 DUP2 ADD PUSH1 0x40 MSTORE DUP1 SWAP3 SWAP2 SWAP1 DUP2 DUP2 MSTORE PUSH1 0x20 ADD DUP3 DUP1 SLOAD PUSH1 0x1 DUP2 PUSH1 0x1 AND ISZERO PUSH2 0x100 MUL SUB AND PUSH1 0x2 SWAP1 DIV DUP1 ISZERO PUSH2 0x193 JUMPI DUP1 PUSH1 0x1F LT PUSH2 0x168 JUMPI PUSH2 0x100 DUP1 DUP4 SLOAD DIV MUL DUP4 MSTORE SWAP2 PUSH1 0x20 ADD SWAP2 PUSH2 0x193 JUMP JUMPDEST DUP3 ADD SWAP2 SWAP1 PUSH1 0x0 MSTORE PUSH1 0x20 PUSH1 0x0 KECCAK256 SWAP1 JUMPDEST DUP2 SLOAD DUP2 MSTORE SWAP1 PUSH1 0x1 ADD SWAP1 PUSH1 0x20 ADD DUP1 DUP4 GT PUSH2 0x176 JUMPI DUP3 SWAP1 SUB PUSH1 0x1F AND DUP3 ADD SWAP2 JUMPDEST POP POP POP POP POP DUP2 JUMP JUMPDEST PUSH1 0x0 DUP2 CALLDATALOAD SWAP1 POP PUSH2 0x1AA DUP2 PUSH2 0x324 JUMP JUMPDEST SWAP3 SWAP2 POP POP JUMP JUMPDEST PUSH1 0x0 PUSH1 0x20 DUP3 DUP5 SUB SLT ISZERO PUSH2 0x1C2 JUMPI PUSH1 0x0 DUP1 REVERT JUMPDEST PUSH1 0x0 PUSH2 0x1D0 DUP5 DUP3 DUP6 ADD PUSH2 0x19B JUMP JUMPDEST SWAP2 POP POP SWAP3 SWAP2 POP POP JUMP JUMPDEST PUSH2 0x1E2 DUP2 PUSH2 0x2A4 JUMP JUMPDEST DUP3 MSTORE POP POP JUMP JUMPDEST PUSH1 0x0 PUSH2 0x1F3 DUP3 PUSH2 0x288 JUMP JUMPDEST PUSH2 0x1FD DUP2 DUP6 PUSH2 0x293 JUMP JUMPDEST SWAP4 POP PUSH2 0x20D DUP2 DUP6 PUSH1 0x20 DUP7 ADD PUSH2 0x2E0 JUMP JUMPDEST PUSH2 0x216 DUP2 PUSH2 0x313 JUMP JUMPDEST DUP5 ADD SWAP2 POP POP SWAP3 SWAP2 POP POP JUMP JUMPDEST PUSH2 0x22A DUP2 PUSH2 0x2D6 JUMP JUMPDEST DUP3 MSTORE POP POP JUMP JUMPDEST PUSH1 0x0 PUSH1 0x20 DUP3 ADD SWAP1 POP PUSH2 0x245 PUSH1 0x0 DUP4 ADD DUP5 PUSH2 0x1D9 JUMP JUMPDEST SWAP3 SWAP2 POP POP JUMP JUMPDEST PUSH1 0x0 PUSH1 0x20 DUP3 ADD SWAP1 POP DUP2 DUP2 SUB PUSH1 0x0 DUP4 ADD MSTORE PUSH2 0x265 DUP2 DUP5 PUSH2 0x1E8 JUMP JUMPDEST SWAP1 POP SWAP3 SWAP2 POP POP JUMP JUMPDEST PUSH1 0x0 PUSH1 0x20 DUP3 ADD SWAP1 POP PUSH2 0x282 PUSH1 0x0 DUP4 ADD DUP5 PUSH2 0x221 JUMP JUMPDEST SWAP3 SWAP2 POP POP JUMP JUMPDEST PUSH1 0x0 DUP2 MLOAD SWAP1 POP SWAP2 SWAP1 POP JUMP JUMPDEST PUSH1 0x0 DUP3 DUP3 MSTORE PUSH1 0x20 DUP3 ADD SWAP1 POP SWAP3 SWAP2 POP POP JUMP JUMPDEST PUSH1 0x0 PUSH2 0x2AF DUP3 PUSH2 0x2B6 JUMP JUMPDEST SWAP1 POP SWAP2 SWAP1 POP JUMP JUMPDEST PUSH1 0x0 PUSH20 0xFFFFFFFFFFFFFFFFFFFFFFFFFFFFFFFFFFFFFFFF DUP3 AND SWAP1 POP SWAP2 SWAP1 POP JUMP JUMPDEST PUSH1 0x0 DUP2 SWAP1 POP SWAP2 SWAP1 POP JUMP JUMPDEST PUSH1 0x0 JUMPDEST DUP4 DUP2 LT ISZERO PUSH2 0x2FE JUMPI DUP1 DUP3 ADD MLOAD DUP2 DUP5 ADD MSTORE PUSH1 0x20 DUP2 ADD SWAP1 POP PUSH2 0x2E3 JUMP JUMPDEST DUP4 DUP2 GT ISZERO PUSH2 0x30D JUMPI PUSH1 0x0 DUP5 DUP5 ADD MSTORE JUMPDEST POP POP POP POP JUMP JUMPDEST PUSH1 0x0 PUSH1 0x1F NOT PUSH1 0x1F DUP4 ADD AND SWAP1 POP SWAP2 SWAP1 POP JUMP JUMPDEST PUSH2 0x32D DUP2 PUSH2 0x2D6 JUMP JUMPDEST DUP2 EQ PUSH2 0x338 JUMPI PUSH1 0x0 DUP1 REVERT JUMPDEST POP JUMP INVALID LOG2 PUSH5 0x6970667358 0x22 SLT KECCAK256 PUSH11 0x27057283135C2D89F4BBB2 MUL PUSH32 0x47536977CFD76BDF3604B998947EDF762A7864736F6C634300060C0033000000 "
				},
				"gasEstimates": {
					"creation": {
						"codeDepositCost": "176200",
						"executionCost": "infinite",
						"totalCost": "infinite"
					},
					"external": {
						"owner()": "1214",
						"str()": "infinite",
						"test(uint256)": "20398",
						"variable()": "1151"
					}
				},
				"methodIdentifiers": {
					"owner()": "8da5cb5b",
					"str()": "c15bae84",
					"test(uint256)": "29e99f07",
					"variable()": "b6854a21"
				}
			},
			"storageLayout": {
				"storage": [
					{
						"astId": 5,
						"contract": "Tipos de variables y operadores/modificadores.sol:public_private_internal",
						"label": "variable",
						"offset": 0,
						"slot": "0",
						"type": "t_uint256"
					},
					{
						"astId": 8,
						"contract": "Tipos de variables y operadores/modificadores.sol:public_private_internal",
						"label": "str",
						"offset": 0,
						"slot": "1",
						"type": "t_string_storage"
					},
					{
						"astId": 10,
						"contract": "Tipos de variables y operadores/modificadores.sol:public_private_internal",
						"label": "owner",
						"offset": 0,
						"slot": "2",
						"type": "t_address"
					},
					{
						"astId": 22,
						"contract": "Tipos de variables y operadores/modificadores.sol:public_private_internal",
						"label": "integer",
						"offset": 0,
						"slot": "3",
						"type": "t_uint256"
					},
					{
						"astId": 25,
						"contract": "Tipos de variables y operadores/modificadores.sol:public_private_internal",
						"label": "flag",
						"offset": 0,
						"slot": "4",
						"type": "t_bool"
					},
					{
						"astId": 43,
						"contract": "Tipos de variables y operadores/modificadores.sol:public_private_internal",
						"label": "hash",
						"offset": 0,
						"slot": "5",
						"type": "t_bytes32"
					}
				],
				"types": {
					"t_address": {
						"encoding": "inplace",
						"label": "address",
						"numberOfBytes": "20"
					},
					"t_bool": {
						"encoding": "inplace",
						"label": "bool",
						"numberOfBytes": "1"
					},
					"t_bytes32": {
						"encoding": "inplace",
						"label": "bytes32",
						"numberOfBytes": "32"
					},
					"t_string_storage": {
						"encoding": "bytes",
						"label": "string",
						"numberOfBytes": "32"
					},
					"t_uint256": {
						"encoding": "inplace",
						"label": "uint256",
						"numberOfBytes": "32"
					}
				}
			},
			"userdoc": {
				"kind": "user",
				"methods": {},
				"version": 1
			}
		}
	}
}