{
	"Tipos de variables y operadores/unidades_tiempo.sol": {
		"tiempo": {
			"abi": [
				{
					"inputs": [],
					"name": "MasHoras",
					"outputs": [
						{
							"internalType": "uint256",
							"name": "",
							"type": "uint256"
						}
					],
					"stateMutability": "view",
					"type": "function"
				},
				{
					"inputs": [],
					"name": "MasSegundos",
					"outputs": [
						{
							"internalType": "uint256",
							"name": "",
							"type": "uint256"
						}
					],
					"stateMutability": "view",
					"type": "function"
				},
				{
					"inputs": [],
					"name": "dias",
					"outputs": [
						{
							"internalType": "uint256",
							"name": "",
							"type": "uint256"
						}
					],
					"stateMutability": "view",
					"type": "function"
				},
				{
					"inputs": [],
					"name": "minute",
					"outputs": [
						{
							"internalType": "uint256",
							"name": "",
							"type": "uint256"
						}
					],
					"stateMutability": "view",
					"type": "function"
				},
				{
					"inputs": [],
					"name": "retornarNow",
					"outputs": [
						{
							"internalType": "uint256",
							"name": "",
							"type": "uint256"
						}
					],
					"stateMutability": "view",
					"type": "function"
				},
				{
					"inputs": [],
					"name": "tiempo_actual",
					"outputs": [
						{
							"internalType": "uint256",
							"name": "",
							"type": "uint256"
						}
					],
					"stateMutability": "view",
					"type": "function"
				},
				{
					"inputs": [],
					"name": "two_hours",
					"outputs": [
						{
							"internalType": "uint256",
							"name": "",
							"type": "uint256"
						}
					],
					"stateMutability": "view",
					"type": "function"
				},
				{
					"inputs": [],
					"name": "week",
					"outputs": [
						{
							"internalType": "uint256",
							"name": "",
							"type": "uint256"
						}
					],
					"stateMutability": "view",
					"type": "function"
				}
			],
			"devdoc": {
				"kind": "dev",
				"methods": {},
				"version": 1
			},
			"evm": {
				"assembly": "    /* \"Tipos de variables y operadores/unidades_tiempo.sol\":53:554  contract tiempo {\r... */\n  mstore(0x40, 0x80)\n    /* \"Tipos de variables y operadores/unidades_tiempo.sol\":99:108  1 minutes */\n  0x3c\n    /* \"Tipos de variables y operadores/unidades_tiempo.sol\":78:108  uint public minute = 1 minutes */\n  0x00\n  sstore\n    /* \"Tipos de variables y operadores/unidades_tiempo.sol\":164:167  now */\n  timestamp\n    /* \"Tipos de variables y operadores/unidades_tiempo.sol\":136:167  uint public tiempo_actual = now */\n  0x01\n  sstore\n    /* \"Tipos de variables y operadores/unidades_tiempo.sol\":198:205  2 hours */\n  0x1c20\n    /* \"Tipos de variables y operadores/unidades_tiempo.sol\":174:205  uint public two_hours = 2 hours */\n  0x02\n  sstore\n    /* \"Tipos de variables y operadores/unidades_tiempo.sol\":231:238  50 days */\n  0x41eb00\n    /* \"Tipos de variables y operadores/unidades_tiempo.sol\":212:238  uint public dias = 50 days */\n  0x03\n  sstore\n    /* \"Tipos de variables y operadores/unidades_tiempo.sol\":264:271  1 weeks */\n  0x093a80\n    /* \"Tipos de variables y operadores/unidades_tiempo.sol\":245:271  uint public week = 1 weeks */\n  0x04\n  sstore\n    /* \"Tipos de variables y operadores/unidades_tiempo.sol\":53:554  contract tiempo {\r... */\n  callvalue\n  dup1\n  iszero\n  tag_1\n  jumpi\n  0x00\n  dup1\n  revert\ntag_1:\n  pop\n  dataSize(sub_0)\n  dup1\n  dataOffset(sub_0)\n  0x00\n  codecopy\n  0x00\n  return\nstop\n\nsub_0: assembly {\n        /* \"Tipos de variables y operadores/unidades_tiempo.sol\":53:554  contract tiempo {\r... */\n      mstore(0x40, 0x80)\n      callvalue\n      dup1\n      iszero\n      tag_1\n      jumpi\n      0x00\n      dup1\n      revert\n    tag_1:\n      pop\n      jumpi(tag_2, lt(calldatasize, 0x04))\n      shr(0xe0, calldataload(0x00))\n      dup1\n      0x825eba4f\n      gt\n      tag_11\n      jumpi\n      dup1\n      0x825eba4f\n      eq\n      tag_7\n      jumpi\n      dup1\n      0xab6db199\n      eq\n      tag_8\n      jumpi\n      dup1\n      0xe74e5986\n      eq\n      tag_9\n      jumpi\n      dup1\n      0xe89b7222\n      eq\n      tag_10\n      jumpi\n      jump(tag_2)\n    tag_11:\n      dup1\n      0x01a34875\n      eq\n      tag_3\n      jumpi\n      dup1\n      0x108c4abb\n      eq\n      tag_4\n      jumpi\n      dup1\n      0x4995b458\n      eq\n      tag_5\n      jumpi\n      dup1\n      0x5a9606a4\n      eq\n      tag_6\n      jumpi\n    tag_2:\n      0x00\n      dup1\n      revert\n        /* \"Tipos de variables y operadores/unidades_tiempo.sol\":284:374  function MasSegundos() public view returns(uint){\r... */\n    tag_3:\n      tag_12\n      tag_13\n      jump\t// in\n    tag_12:\n      mload(0x40)\n      dup1\n      dup3\n      dup2\n      mstore\n      0x20\n      add\n      swap2\n      pop\n      pop\n      mload(0x40)\n      dup1\n      swap2\n      sub\n      swap1\n      return\n        /* \"Tipos de variables y operadores/unidades_tiempo.sol\":382:466  function MasHoras() public view returns(uint){\r... */\n    tag_4:\n      tag_14\n      tag_15\n      jump\t// in\n    tag_14:\n      mload(0x40)\n      dup1\n      dup3\n      dup2\n      mstore\n      0x20\n      add\n      swap2\n      pop\n      pop\n      mload(0x40)\n      dup1\n      swap2\n      sub\n      swap1\n      return\n        /* \"Tipos de variables y operadores/unidades_tiempo.sol\":245:271  uint public week = 1 weeks */\n    tag_5:\n      tag_16\n      tag_17\n      jump\t// in\n    tag_16:\n      mload(0x40)\n      dup1\n      dup3\n      dup2\n      mstore\n      0x20\n      add\n      swap2\n      pop\n      pop\n      mload(0x40)\n      dup1\n      swap2\n      sub\n      swap1\n      return\n        /* \"Tipos de variables y operadores/unidades_tiempo.sol\":136:167  uint public tiempo_actual = now */\n    tag_6:\n      tag_18\n      tag_19\n      jump\t// in\n    tag_18:\n      mload(0x40)\n      dup1\n      dup3\n      dup2\n      mstore\n      0x20\n      add\n      swap2\n      pop\n      pop\n      mload(0x40)\n      dup1\n      swap2\n      sub\n      swap1\n      return\n        /* \"Tipos de variables y operadores/unidades_tiempo.sol\":474:551  function retornarNow() public view returns(uint){\r... */\n    tag_7:\n      tag_20\n      tag_21\n      jump\t// in\n    tag_20:\n      mload(0x40)\n      dup1\n      dup3\n      dup2\n      mstore\n      0x20\n      add\n      swap2\n      pop\n      pop\n      mload(0x40)\n      dup1\n      swap2\n      sub\n      swap1\n      return\n        /* \"Tipos de variables y operadores/unidades_tiempo.sol\":212:238  uint public dias = 50 days */\n    tag_8:\n      tag_22\n      tag_23\n      jump\t// in\n    tag_22:\n      mload(0x40)\n      dup1\n      dup3\n      dup2\n      mstore\n      0x20\n      add\n      swap2\n      pop\n      pop\n      mload(0x40)\n      dup1\n      swap2\n      sub\n      swap1\n      return\n        /* \"Tipos de variables y operadores/unidades_tiempo.sol\":174:205  uint public two_hours = 2 hours */\n    tag_9:\n      tag_24\n      tag_25\n      jump\t// in\n    tag_24:\n      mload(0x40)\n      dup1\n      dup3\n      dup2\n      mstore\n      0x20\n      add\n      swap2\n      pop\n      pop\n      mload(0x40)\n      dup1\n      swap2\n      sub\n      swap1\n      return\n        /* \"Tipos de variables y operadores/unidades_tiempo.sol\":78:108  uint public minute = 1 minutes */\n    tag_10:\n      tag_26\n      tag_27\n      jump\t// in\n    tag_26:\n      mload(0x40)\n      dup1\n      dup3\n      dup2\n      mstore\n      0x20\n      add\n      swap2\n      pop\n      pop\n      mload(0x40)\n      dup1\n      swap2\n      sub\n      swap1\n      return\n        /* \"Tipos de variables y operadores/unidades_tiempo.sol\":284:374  function MasSegundos() public view returns(uint){\r... */\n    tag_13:\n        /* \"Tipos de variables y operadores/unidades_tiempo.sol\":327:331  uint */\n      0x00\n        /* \"Tipos de variables y operadores/unidades_tiempo.sol\":356:366  50 seconds */\n      0x32\n        /* \"Tipos de variables y operadores/unidades_tiempo.sol\":350:353  now */\n      timestamp\n        /* \"Tipos de variables y operadores/unidades_tiempo.sol\":350:366  now + 50 seconds */\n      add\n        /* \"Tipos de variables y operadores/unidades_tiempo.sol\":343:366  return now + 50 seconds */\n      swap1\n      pop\n        /* \"Tipos de variables y operadores/unidades_tiempo.sol\":284:374  function MasSegundos() public view returns(uint){\r... */\n      swap1\n      jump\t// out\n        /* \"Tipos de variables y operadores/unidades_tiempo.sol\":382:466  function MasHoras() public view returns(uint){\r... */\n    tag_15:\n        /* \"Tipos de variables y operadores/unidades_tiempo.sol\":422:426  uint */\n      0x00\n        /* \"Tipos de variables y operadores/unidades_tiempo.sol\":451:458  1 hours */\n      0x0e10\n        /* \"Tipos de variables y operadores/unidades_tiempo.sol\":445:448  now */\n      timestamp\n        /* \"Tipos de variables y operadores/unidades_tiempo.sol\":445:458  now + 1 hours */\n      add\n        /* \"Tipos de variables y operadores/unidades_tiempo.sol\":438:458  return now + 1 hours */\n      swap1\n      pop\n        /* \"Tipos de variables y operadores/unidades_tiempo.sol\":382:466  function MasHoras() public view returns(uint){\r... */\n      swap1\n      jump\t// out\n        /* \"Tipos de variables y operadores/unidades_tiempo.sol\":245:271  uint public week = 1 weeks */\n    tag_17:\n      sload(0x04)\n      dup2\n      jump\t// out\n        /* \"Tipos de variables y operadores/unidades_tiempo.sol\":136:167  uint public tiempo_actual = now */\n    tag_19:\n      sload(0x01)\n      dup2\n      jump\t// out\n        /* \"Tipos de variables y operadores/unidades_tiempo.sol\":474:551  function retornarNow() public view returns(uint){\r... */\n    tag_21:\n        /* \"Tipos de variables y operadores/unidades_tiempo.sol\":517:521  uint */\n      0x00\n        /* \"Tipos de variables y operadores/unidades_tiempo.sol\":540:543  now */\n      timestamp\n        /* \"Tipos de variables y operadores/unidades_tiempo.sol\":533:543  return now */\n      swap1\n      pop\n        /* \"Tipos de variables y operadores/unidades_tiempo.sol\":474:551  function retornarNow() public view returns(uint){\r... */\n      swap1\n      jump\t// out\n        /* \"Tipos de variables y operadores/unidades_tiempo.sol\":212:238  uint public dias = 50 days */\n    tag_23:\n      sload(0x03)\n      dup2\n      jump\t// out\n        /* \"Tipos de variables y operadores/unidades_tiempo.sol\":174:205  uint public two_hours = 2 hours */\n    tag_25:\n      sload(0x02)\n      dup2\n      jump\t// out\n        /* \"Tipos de variables y operadores/unidades_tiempo.sol\":78:108  uint public minute = 1 minutes */\n    tag_27:\n      sload(0x00)\n      dup2\n      jump\t// out\n\n    auxdata: 0xa264697066735822122003be5586ccda7c9dc0d40453306c7f14176a3aad25751b790ecd0d239405914364736f6c634300060c0033\n}\n",
				"bytecode": {
					"linkReferences": {},
					"object": "6080604052603c60005542600155611c206002556241eb0060035562093a8060045534801561002d57600080fd5b506101f08061003d6000396000f3fe608060405234801561001057600080fd5b50600436106100885760003560e01c8063825eba4f1161005b578063825eba4f14610105578063ab6db19914610123578063e74e598614610141578063e89b72221461015f57610088565b806301a348751461008d578063108c4abb146100ab5780634995b458146100c95780635a9606a4146100e7575b600080fd5b61009561017d565b6040518082815260200191505060405180910390f35b6100b3610188565b6040518082815260200191505060405180910390f35b6100d1610194565b6040518082815260200191505060405180910390f35b6100ef61019a565b6040518082815260200191505060405180910390f35b61010d6101a0565b6040518082815260200191505060405180910390f35b61012b6101a8565b6040518082815260200191505060405180910390f35b6101496101ae565b6040518082815260200191505060405180910390f35b6101676101b4565b6040518082815260200191505060405180910390f35b600060324201905090565b6000610e104201905090565b60045481565b60015481565b600042905090565b60035481565b60025481565b6000548156fea264697066735822122003be5586ccda7c9dc0d40453306c7f14176a3aad25751b790ecd0d239405914364736f6c634300060c0033",
					"opcodes": "PUSH1 0x80 PUSH1 0x40 MSTORE PUSH1 0x3C PUSH1 0x0 SSTORE TIMESTAMP PUSH1 0x1 SSTORE PUSH2 0x1C20 PUSH1 0x2 SSTORE PUSH3 0x41EB00 PUSH1 0x3 SSTORE PUSH3 0x93A80 PUSH1 0x4 SSTORE CALLVALUE DUP1 ISZERO PUSH2 0x2D JUMPI PUSH1 0x0 DUP1 REVERT JUMPDEST POP PUSH2 0x1F0 DUP1 PUSH2 0x3D PUSH1 0x0 CODECOPY PUSH1 0x0 RETURN INVALID PUSH1 0x80 PUSH1 0x40 MSTORE CALLVALUE DUP1 ISZERO PUSH2 0x10 JUMPI PUSH1 0x0 DUP1 REVERT JUMPDEST POP PUSH1 0x4 CALLDATASIZE LT PUSH2 0x88 JUMPI PUSH1 0x0 CALLDATALOAD PUSH1 0xE0 SHR DUP1 PUSH4 0x825EBA4F GT PUSH2 0x5B JUMPI DUP1 PUSH4 0x825EBA4F EQ PUSH2 0x105 JUMPI DUP1 PUSH4 0xAB6DB199 EQ PUSH2 0x123 JUMPI DUP1 PUSH4 0xE74E5986 EQ PUSH2 0x141 JUMPI DUP1 PUSH4 0xE89B7222 EQ PUSH2 0x15F JUMPI PUSH2 0x88 JUMP JUMPDEST DUP1 PUSH4 0x1A34875 EQ PUSH2 0x8D JUMPI DUP1 PUSH4 0x108C4ABB EQ PUSH2 0xAB JUMPI DUP1 PUSH4 0x4995B458 EQ PUSH2 0xC9 JUMPI DUP1 PUSH4 0x5A9606A4 EQ PUSH2 0xE7 JUMPI JUMPDEST PUSH1 0x0 DUP1 REVERT JUMPDEST PUSH2 0x95 PUSH2 0x17D JUMP JUMPDEST PUSH1 0x40 MLOAD DUP1 DUP3 DUP2 MSTORE PUSH1 0x20 ADD SWAP2 POP POP PUSH1 0x40 MLOAD DUP1 SWAP2 SUB SWAP1 RETURN JUMPDEST PUSH2 0xB3 PUSH2 0x188 JUMP JUMPDEST PUSH1 0x40 MLOAD DUP1 DUP3 DUP2 MSTORE PUSH1 0x20 ADD SWAP2 POP POP PUSH1 0x40 MLOAD DUP1 SWAP2 SUB SWAP1 RETURN JUMPDEST PUSH2 0xD1 PUSH2 0x194 JUMP JUMPDEST PUSH1 0x40 MLOAD DUP1 DUP3 DUP2 MSTORE PUSH1 0x20 ADD SWAP2 POP POP PUSH1 0x40 MLOAD DUP1 SWAP2 SUB SWAP1 RETURN JUMPDEST PUSH2 0xEF PUSH2 0x19A JUMP JUMPDEST PUSH1 0x40 MLOAD DUP1 DUP3 DUP2 MSTORE PUSH1 0x20 ADD SWAP2 POP POP PUSH1 0x40 MLOAD DUP1 SWAP2 SUB SWAP1 RETURN JUMPDEST PUSH2 0x10D PUSH2 0x1A0 JUMP JUMPDEST PUSH1 0x40 MLOAD DUP1 DUP3 DUP2 MSTORE PUSH1 0x20 ADD SWAP2 POP POP PUSH1 0x40 MLOAD DUP1 SWAP2 SUB SWAP1 RETURN JUMPDEST PUSH2 0x12B PUSH2 0x1A8 JUMP JUMPDEST PUSH1 0x40 MLOAD DUP1 DUP3 DUP2 MSTORE PUSH1 0x20 ADD SWAP2 POP POP PUSH1 0x40 MLOAD DUP1 SWAP2 SUB SWAP1 RETURN JUMPDEST PUSH2 0x149 PUSH2 0x1AE JUMP JUMPDEST PUSH1 0x40 MLOAD DUP1 DUP3 DUP2 MSTORE PUSH1 0x20 ADD SWAP2 POP POP PUSH1 0x40 MLOAD DUP1 SWAP2 SUB SWAP1 RETURN JUMPDEST PUSH2 0x167 PUSH2 0x1B4 JUMP JUMPDEST PUSH1 0x40 MLOAD DUP1 DUP3 DUP2 MSTORE PUSH1 0x20 ADD SWAP2 POP POP PUSH1 0x40 MLOAD DUP1 SWAP2 SUB SWAP1 RETURN JUMPDEST PUSH1 0x0 PUSH1 0x32 TIMESTAMP ADD SWAP1 POP SWAP1 JUMP JUMPDEST PUSH1 0x0 PUSH2 0xE10 TIMESTAMP ADD SWAP1 POP SWAP1 JUMP JUMPDEST PUSH1 0x4 SLOAD DUP2 JUMP JUMPDEST PUSH1 0x1 SLOAD DUP2 JUMP JUMPDEST PUSH1 0x0 TIMESTAMP SWAP1 POP SWAP1 JUMP JUMPDEST PUSH1 0x3 SLOAD DUP2 JUMP JUMPDEST PUSH1 0x2 SLOAD DUP2 JUMP JUMPDEST PUSH1 0x0 SLOAD DUP2 JUMP INVALID LOG2 PUSH5 0x6970667358 0x22 SLT KECCAK256 SUB 0xBE SSTORE DUP7 0xCC 0xDA PUSH29 0x9DC0D40453306C7F14176A3AAD25751B790ECD0D239405914364736F6C PUSH4 0x4300060C STOP CALLER "
				},
				"gasEstimates": {
					"creation": {
						"codeDepositCost": "99200",
						"executionCost": "100176",
						"totalCost": "199376"
					},
					"external": {
						"MasHoras()": "241",
						"MasSegundos()": "219",
						"dias()": "1027",
						"minute()": "1071",
						"retornarNow()": "212",
						"tiempo_actual()": "1072",
						"two_hours()": "1049",
						"week()": "1050"
					}
				},
				"methodIdentifiers": {
					"MasHoras()": "108c4abb",
					"MasSegundos()": "01a34875",
					"dias()": "ab6db199",
					"minute()": "e89b7222",
					"retornarNow()": "825eba4f",
					"tiempo_actual()": "5a9606a4",
					"two_hours()": "e74e5986",
					"week()": "4995b458"
				}
			},
			"storageLayout": {
				"storage": [
					{
						"astId": 4,
						"contract": "Tipos de variables y operadores/unidades_tiempo.sol:tiempo",
						"label": "minute",
						"offset": 0,
						"slot": "0",
						"type": "t_uint256"
					},
					{
						"astId": 7,
						"contract": "Tipos de variables y operadores/unidades_tiempo.sol:tiempo",
						"label": "tiempo_actual",
						"offset": 0,
						"slot": "1",
						"type": "t_uint256"
					},
					{
						"astId": 10,
						"contract": "Tipos de variables y operadores/unidades_tiempo.sol:tiempo",
						"label": "two_hours",
						"offset": 0,
						"slot": "2",
						"type": "t_uint256"
					},
					{
						"astId": 13,
						"contract": "Tipos de variables y operadores/unidades_tiempo.sol:tiempo",
						"label": "dias",
						"offset": 0,
						"slot": "3",
						"type": "t_uint256"
					},
					{
						"astId": 16,
						"contract": "Tipos de variables y operadores/unidades_tiempo.sol:tiempo",
						"label": "week",
						"offset": 0,
						"slot": "4",
						"type": "t_uint256"
					}
				],
				"types": {
					"t_uint256": {
						"encoding": "inplace",
						"label": "uint256",
						"numberOfBytes": "32"
					}
				}
			},
			"userdoc": {
				"kind": "user",
				"methods": {},
				"version": 1
			}
		}
	}
}