{
	"Tipos de variables y operadores/enums.sol": {
		"EjemploDeEnumeraciones": {
			"abi": [
				{
					"inputs": [],
					"name": "EstadoActual",
					"outputs": [
						{
							"internalType": "enum EjemploDeEnumeraciones.estado",
							"name": "",
							"type": "uint8"
						}
					],
					"stateMutability": "view",
					"type": "function"
				},
				{
					"inputs": [],
					"name": "EstadoDireccion",
					"outputs": [
						{
							"internalType": "enum EjemploDeEnumeraciones.direcciones",
							"name": "",
							"type": "uint8"
						}
					],
					"stateMutability": "view",
					"type": "function"
				},
				{
					"inputs": [],
					"name": "apagar",
					"outputs": [],
					"stateMutability": "nonpayable",
					"type": "function"
				},
				{
					"inputs": [],
					"name": "down",
					"outputs": [],
					"stateMutability": "nonpayable",
					"type": "function"
				},
				{
					"inputs": [],
					"name": "encender",
					"outputs": [],
					"stateMutability": "nonpayable",
					"type": "function"
				},
				{
					"inputs": [
						{
							"internalType": "uint256",
							"name": "_k",
							"type": "uint256"
						}
					],
					"name": "fijarEstado",
					"outputs": [],
					"stateMutability": "nonpayable",
					"type": "function"
				},
				{
					"inputs": [],
					"name": "left",
					"outputs": [],
					"stateMutability": "nonpayable",
					"type": "function"
				},
				{
					"inputs": [],
					"name": "right",
					"outputs": [],
					"stateMutability": "nonpayable",
					"type": "function"
				},
				{
					"inputs": [],
					"name": "state",
					"outputs": [
						{
							"internalType": "enum EjemploDeEnumeraciones.estado",
							"name": "",
							"type": "uint8"
						}
					],
					"stateMutability": "view",
					"type": "function"
				},
				{
					"inputs": [],
					"name": "up",
					"outputs": [],
					"stateMutability": "nonpayable",
					"type": "function"
				}
			],
			"devdoc": {
				"kind": "dev",
				"methods": {},
				"version": 1
			},
			"evm": {
				"assembly": "    /* \"Tipos de variables y operadores/enums.sol\":57:1124  contract EjemploDeEnumeraciones {\r... */\n  mstore(0x40, 0x80)\n  callvalue\n  dup1\n  iszero\n  tag_1\n  jumpi\n  0x00\n  dup1\n  revert\ntag_1:\n  pop\n  dataSize(sub_0)\n  dup1\n  dataOffset(sub_0)\n  0x00\n  codecopy\n  0x00\n  return\nstop\n\nsub_0: assembly {\n        /* \"Tipos de variables y operadores/enums.sol\":57:1124  contract EjemploDeEnumeraciones {\r... */\n      mstore(0x40, 0x80)\n      callvalue\n      dup1\n      iszero\n      tag_1\n      jumpi\n      0x00\n      dup1\n      revert\n    tag_1:\n      pop\n      jumpi(tag_2, lt(calldatasize, 0x04))\n      shr(0xe0, calldataload(0x00))\n      dup1\n      0xd5a49e01\n      gt\n      tag_13\n      jumpi\n      dup1\n      0xd5a49e01\n      eq\n      tag_8\n      jumpi\n      dup1\n      0xd8337928\n      eq\n      tag_9\n      jumpi\n      dup1\n      0xe0be4a2e\n      eq\n      tag_10\n      jumpi\n      dup1\n      0xe9073c33\n      eq\n      tag_11\n      jumpi\n      dup1\n      0xf15f91c1\n      eq\n      tag_12\n      jumpi\n      jump(tag_2)\n    tag_13:\n      dup1\n      0x16e64048\n      eq\n      tag_3\n      jumpi\n      dup1\n      0x1f2a63c0\n      eq\n      tag_4\n      jumpi\n      dup1\n      0x4b09aa72\n      eq\n      tag_5\n      jumpi\n      dup1\n      0x862b7129\n      eq\n      tag_6\n      jumpi\n      dup1\n      0xc19d93fb\n      eq\n      tag_7\n      jumpi\n    tag_2:\n      0x00\n      dup1\n      revert\n        /* \"Tipos de variables y operadores/enums.sol\":943:1018  function left() public {\r... */\n    tag_3:\n      tag_14\n      tag_15\n      jump\t// in\n    tag_14:\n      stop\n        /* \"Tipos de variables y operadores/enums.sol\":863:935  function right() public {\r... */\n    tag_4:\n      tag_16\n      tag_17\n      jump\t// in\n    tag_16:\n      stop\n        /* \"Tipos de variables y operadores/enums.sol\":444:526  function EstadoActual() public view returns(estado){\r... */\n    tag_5:\n      tag_18\n      tag_19\n      jump\t// in\n    tag_18:\n      mload(0x40)\n      dup1\n      dup3\n      0x01\n      dup2\n      gt\n      iszero\n      tag_20\n      jumpi\n      invalid\n    tag_20:\n      dup2\n      mstore\n      0x20\n      add\n      swap2\n      pop\n      pop\n      mload(0x40)\n      dup1\n      swap2\n      sub\n      swap1\n      return\n        /* \"Tipos de variables y operadores/enums.sol\":292:354  function apagar() public {\r... */\n    tag_6:\n      tag_21\n      tag_22\n      jump\t// in\n    tag_21:\n      stop\n        /* \"Tipos de variables y operadores/enums.sol\":193:212  estado public state */\n    tag_7:\n      tag_23\n      tag_24\n      jump\t// in\n    tag_23:\n      mload(0x40)\n      dup1\n      dup3\n      0x01\n      dup2\n      gt\n      iszero\n      tag_25\n      jumpi\n      invalid\n    tag_25:\n      dup2\n      mstore\n      0x20\n      add\n      swap2\n      pop\n      pop\n      mload(0x40)\n      dup1\n      swap2\n      sub\n      swap1\n      return\n        /* \"Tipos de variables y operadores/enums.sol\":711:777  function up() public {\r... */\n    tag_8:\n      tag_26\n      tag_27\n      jump\t// in\n    tag_26:\n      stop\n        /* \"Tipos de variables y operadores/enums.sol\":785:855  function down() public {\r... */\n    tag_9:\n      tag_28\n      tag_29\n      jump\t// in\n    tag_28:\n      stop\n        /* \"Tipos de variables y operadores/enums.sol\":362:436  function fijarEstado(uint _k) public {\r... */\n    tag_10:\n      tag_30\n      0x04\n      dup1\n      calldatasize\n      sub\n      0x20\n      dup2\n      lt\n      iszero\n      tag_31\n      jumpi\n      0x00\n      dup1\n      revert\n    tag_31:\n      dup2\n      add\n      swap1\n      dup1\n      dup1\n      calldataload\n      swap1\n      0x20\n      add\n      swap1\n      swap3\n      swap2\n      swap1\n      pop\n      pop\n      pop\n      tag_32\n      jump\t// in\n    tag_30:\n      stop\n        /* \"Tipos de variables y operadores/enums.sol\":221:284  function encender() public {\r... */\n    tag_11:\n      tag_33\n      tag_34\n      jump\t// in\n    tag_33:\n      stop\n        /* \"Tipos de variables y operadores/enums.sol\":1027:1121  function EstadoDireccion() public view returns(direcciones){\r... */\n    tag_12:\n      tag_35\n      tag_36\n      jump\t// in\n    tag_35:\n      mload(0x40)\n      dup1\n      dup3\n      0x03\n      dup2\n      gt\n      iszero\n      tag_37\n      jumpi\n      invalid\n    tag_37:\n      dup2\n      mstore\n      0x20\n      add\n      swap2\n      pop\n      pop\n      mload(0x40)\n      dup1\n      swap2\n      sub\n      swap1\n      return\n        /* \"Tipos de variables y operadores/enums.sol\":943:1018  function left() public {\r... */\n    tag_15:\n        /* \"Tipos de variables y operadores/enums.sol\":989:1010  direcciones.LEFT_puaj */\n      0x03\n        /* \"Tipos de variables y operadores/enums.sol\":977:986  direccion */\n      0x00\n      0x01\n        /* \"Tipos de variables y operadores/enums.sol\":977:1010  direccion = direcciones.LEFT_puaj */\n      0x0100\n      exp\n      dup2\n      sload\n      dup2\n      0xff\n      mul\n      not\n      and\n      swap1\n      dup4\n      0x03\n      dup2\n      gt\n      iszero\n      tag_39\n      jumpi\n      invalid\n    tag_39:\n      mul\n      or\n      swap1\n      sstore\n      pop\n        /* \"Tipos de variables y operadores/enums.sol\":943:1018  function left() public {\r... */\n      jump\t// out\n        /* \"Tipos de variables y operadores/enums.sol\":863:935  function right() public {\r... */\n    tag_17:\n        /* \"Tipos de variables y operadores/enums.sol\":910:927  direcciones.RIGHT */\n      0x02\n        /* \"Tipos de variables y operadores/enums.sol\":898:907  direccion */\n      0x00\n      0x01\n        /* \"Tipos de variables y operadores/enums.sol\":898:927  direccion = direcciones.RIGHT */\n      0x0100\n      exp\n      dup2\n      sload\n      dup2\n      0xff\n      mul\n      not\n      and\n      swap1\n      dup4\n      0x03\n      dup2\n      gt\n      iszero\n      tag_41\n      jumpi\n      invalid\n    tag_41:\n      mul\n      or\n      swap1\n      sstore\n      pop\n        /* \"Tipos de variables y operadores/enums.sol\":863:935  function right() public {\r... */\n      jump\t// out\n        /* \"Tipos de variables y operadores/enums.sol\":444:526  function EstadoActual() public view returns(estado){\r... */\n    tag_19:\n        /* \"Tipos de variables y operadores/enums.sol\":488:494  estado */\n      0x00\n        /* \"Tipos de variables y operadores/enums.sol\":513:518  state */\n      dup1\n      0x00\n      swap1\n      sload\n      swap1\n      0x0100\n      exp\n      swap1\n      div\n      0xff\n      and\n        /* \"Tipos de variables y operadores/enums.sol\":506:518  return state */\n      swap1\n      pop\n        /* \"Tipos de variables y operadores/enums.sol\":444:526  function EstadoActual() public view returns(estado){\r... */\n      swap1\n      jump\t// out\n        /* \"Tipos de variables y operadores/enums.sol\":292:354  function apagar() public {\r... */\n    tag_22:\n        /* \"Tipos de variables y operadores/enums.sol\":336:346  estado.OFF */\n      0x00\n        /* \"Tipos de variables y operadores/enums.sol\":328:333  state */\n      dup1\n      0x00\n        /* \"Tipos de variables y operadores/enums.sol\":328:346  state = estado.OFF */\n      0x0100\n      exp\n      dup2\n      sload\n      dup2\n      0xff\n      mul\n      not\n      and\n      swap1\n      dup4\n      0x01\n      dup2\n      gt\n      iszero\n      tag_44\n      jumpi\n      invalid\n    tag_44:\n      mul\n      or\n      swap1\n      sstore\n      pop\n        /* \"Tipos de variables y operadores/enums.sol\":292:354  function apagar() public {\r... */\n      jump\t// out\n        /* \"Tipos de variables y operadores/enums.sol\":193:212  estado public state */\n    tag_24:\n      0x00\n      dup1\n      sload\n      swap1\n      0x0100\n      exp\n      swap1\n      div\n      0xff\n      and\n      dup2\n      jump\t// out\n        /* \"Tipos de variables y operadores/enums.sol\":711:777  function up() public {\r... */\n    tag_27:\n        /* \"Tipos de variables y operadores/enums.sol\":755:769  direcciones.UP */\n      0x00\n        /* \"Tipos de variables y operadores/enums.sol\":743:752  direccion */\n      dup1\n      0x01\n        /* \"Tipos de variables y operadores/enums.sol\":743:769  direccion = direcciones.UP */\n      0x0100\n      exp\n      dup2\n      sload\n      dup2\n      0xff\n      mul\n      not\n      and\n      swap1\n      dup4\n      0x03\n      dup2\n      gt\n      iszero\n      tag_46\n      jumpi\n      invalid\n    tag_46:\n      mul\n      or\n      swap1\n      sstore\n      pop\n        /* \"Tipos de variables y operadores/enums.sol\":711:777  function up() public {\r... */\n      jump\t// out\n        /* \"Tipos de variables y operadores/enums.sol\":785:855  function down() public {\r... */\n    tag_29:\n        /* \"Tipos de variables y operadores/enums.sol\":831:847  direcciones.DOWN */\n      0x01\n        /* \"Tipos de variables y operadores/enums.sol\":819:828  direccion */\n      0x00\n      0x01\n        /* \"Tipos de variables y operadores/enums.sol\":819:847  direccion = direcciones.DOWN */\n      0x0100\n      exp\n      dup2\n      sload\n      dup2\n      0xff\n      mul\n      not\n      and\n      swap1\n      dup4\n      0x03\n      dup2\n      gt\n      iszero\n      tag_48\n      jumpi\n      invalid\n    tag_48:\n      mul\n      or\n      swap1\n      sstore\n      pop\n        /* \"Tipos de variables y operadores/enums.sol\":785:855  function down() public {\r... */\n      jump\t// out\n        /* \"Tipos de variables y operadores/enums.sol\":362:436  function fijarEstado(uint _k) public {\r... */\n    tag_32:\n        /* \"Tipos de variables y operadores/enums.sol\":425:427  _k */\n      dup1\n        /* \"Tipos de variables y operadores/enums.sol\":418:428  estado(_k) */\n      0x01\n      dup2\n      gt\n      iszero\n      tag_50\n      jumpi\n      invalid\n    tag_50:\n        /* \"Tipos de variables y operadores/enums.sol\":410:415  state */\n      0x00\n      dup1\n        /* \"Tipos de variables y operadores/enums.sol\":410:428  state = estado(_k) */\n      0x0100\n      exp\n      dup2\n      sload\n      dup2\n      0xff\n      mul\n      not\n      and\n      swap1\n      dup4\n      0x01\n      dup2\n      gt\n      iszero\n      tag_51\n      jumpi\n      invalid\n    tag_51:\n      mul\n      or\n      swap1\n      sstore\n      pop\n        /* \"Tipos de variables y operadores/enums.sol\":362:436  function fijarEstado(uint _k) public {\r... */\n      pop\n      jump\t// out\n        /* \"Tipos de variables y operadores/enums.sol\":221:284  function encender() public {\r... */\n    tag_34:\n        /* \"Tipos de variables y operadores/enums.sol\":267:276  estado.ON */\n      0x01\n        /* \"Tipos de variables y operadores/enums.sol\":259:264  state */\n      0x00\n      dup1\n        /* \"Tipos de variables y operadores/enums.sol\":259:276  state = estado.ON */\n      0x0100\n      exp\n      dup2\n      sload\n      dup2\n      0xff\n      mul\n      not\n      and\n      swap1\n      dup4\n      0x01\n      dup2\n      gt\n      iszero\n      tag_53\n      jumpi\n      invalid\n    tag_53:\n      mul\n      or\n      swap1\n      sstore\n      pop\n        /* \"Tipos de variables y operadores/enums.sol\":221:284  function encender() public {\r... */\n      jump\t// out\n        /* \"Tipos de variables y operadores/enums.sol\":1027:1121  function EstadoDireccion() public view returns(direcciones){\r... */\n    tag_36:\n        /* \"Tipos de variables y operadores/enums.sol\":1074:1085  direcciones */\n      0x00\n        /* \"Tipos de variables y operadores/enums.sol\":1104:1113  direccion */\n      dup1\n      0x01\n      swap1\n      sload\n      swap1\n      0x0100\n      exp\n      swap1\n      div\n      0xff\n      and\n        /* \"Tipos de variables y operadores/enums.sol\":1097:1113  return direccion */\n      swap1\n      pop\n        /* \"Tipos de variables y operadores/enums.sol\":1027:1121  function EstadoDireccion() public view returns(direcciones){\r... */\n      swap1\n      jump\t// out\n\n    auxdata: 0xa2646970667358221220897ff38090db89b084f219e3ae94e2705930b2b31d1c212640b936b9af5a68d764736f6c634300060c0033\n}\n",
				"bytecode": {
					"linkReferences": {},
					"object": "608060405234801561001057600080fd5b5061030c806100206000396000f3fe608060405234801561001057600080fd5b506004361061009e5760003560e01c8063d5a49e0111610066578063d5a49e0114610113578063d83379281461011d578063e0be4a2e14610127578063e9073c3314610155578063f15f91c11461015f5761009e565b806316e64048146100a35780631f2a63c0146100ad5780634b09aa72146100b7578063862b7129146100e0578063c19d93fb146100ea575b600080fd5b6100ab610188565b005b6100b56101ae565b005b6100bf6101d4565b604051808260018111156100cf57fe5b815260200191505060405180910390f35b6100e86101ea565b005b6100f261020f565b6040518082600181111561010257fe5b815260200191505060405180910390f35b61011b610220565b005b610125610245565b005b6101536004803603602081101561013d57600080fd5b810190808035906020019092919050505061026b565b005b61015d61029b565b005b6101676102c0565b6040518082600381111561017757fe5b815260200191505060405180910390f35b6003600060016101000a81548160ff021916908360038111156101a757fe5b0217905550565b6002600060016101000a81548160ff021916908360038111156101cd57fe5b0217905550565b60008060009054906101000a900460ff16905090565b60008060006101000a81548160ff0219169083600181111561020857fe5b0217905550565b60008054906101000a900460ff1681565b60008060016101000a81548160ff0219169083600381111561023e57fe5b0217905550565b6001600060016101000a81548160ff0219169083600381111561026457fe5b0217905550565b80600181111561027757fe5b6000806101000a81548160ff0219169083600181111561029357fe5b021790555050565b60016000806101000a81548160ff021916908360018111156102b957fe5b0217905550565b60008060019054906101000a900460ff1690509056fea2646970667358221220897ff38090db89b084f219e3ae94e2705930b2b31d1c212640b936b9af5a68d764736f6c634300060c0033",
					"opcodes": "PUSH1 0x80 PUSH1 0x40 MSTORE CALLVALUE DUP1 ISZERO PUSH2 0x10 JUMPI PUSH1 0x0 DUP1 REVERT JUMPDEST POP PUSH2 0x30C DUP1 PUSH2 0x20 PUSH1 0x0 CODECOPY PUSH1 0x0 RETURN INVALID PUSH1 0x80 PUSH1 0x40 MSTORE CALLVALUE DUP1 ISZERO PUSH2 0x10 JUMPI PUSH1 0x0 DUP1 REVERT JUMPDEST POP PUSH1 0x4 CALLDATASIZE LT PUSH2 0x9E JUMPI PUSH1 0x0 CALLDATALOAD PUSH1 0xE0 SHR DUP1 PUSH4 0xD5A49E01 GT PUSH2 0x66 JUMPI DUP1 PUSH4 0xD5A49E01 EQ PUSH2 0x113 JUMPI DUP1 PUSH4 0xD8337928 EQ PUSH2 0x11D JUMPI DUP1 PUSH4 0xE0BE4A2E EQ PUSH2 0x127 JUMPI DUP1 PUSH4 0xE9073C33 EQ PUSH2 0x155 JUMPI DUP1 PUSH4 0xF15F91C1 EQ PUSH2 0x15F JUMPI PUSH2 0x9E JUMP JUMPDEST DUP1 PUSH4 0x16E64048 EQ PUSH2 0xA3 JUMPI DUP1 PUSH4 0x1F2A63C0 EQ PUSH2 0xAD JUMPI DUP1 PUSH4 0x4B09AA72 EQ PUSH2 0xB7 JUMPI DUP1 PUSH4 0x862B7129 EQ PUSH2 0xE0 JUMPI DUP1 PUSH4 0xC19D93FB EQ PUSH2 0xEA JUMPI JUMPDEST PUSH1 0x0 DUP1 REVERT JUMPDEST PUSH2 0xAB PUSH2 0x188 JUMP JUMPDEST STOP JUMPDEST PUSH2 0xB5 PUSH2 0x1AE JUMP JUMPDEST STOP JUMPDEST PUSH2 0xBF PUSH2 0x1D4 JUMP JUMPDEST PUSH1 0x40 MLOAD DUP1 DUP3 PUSH1 0x1 DUP2 GT ISZERO PUSH2 0xCF JUMPI INVALID JUMPDEST DUP2 MSTORE PUSH1 0x20 ADD SWAP2 POP POP PUSH1 0x40 MLOAD DUP1 SWAP2 SUB SWAP1 RETURN JUMPDEST PUSH2 0xE8 PUSH2 0x1EA JUMP JUMPDEST STOP JUMPDEST PUSH2 0xF2 PUSH2 0x20F JUMP JUMPDEST PUSH1 0x40 MLOAD DUP1 DUP3 PUSH1 0x1 DUP2 GT ISZERO PUSH2 0x102 JUMPI INVALID JUMPDEST DUP2 MSTORE PUSH1 0x20 ADD SWAP2 POP POP PUSH1 0x40 MLOAD DUP1 SWAP2 SUB SWAP1 RETURN JUMPDEST PUSH2 0x11B PUSH2 0x220 JUMP JUMPDEST STOP JUMPDEST PUSH2 0x125 PUSH2 0x245 JUMP JUMPDEST STOP JUMPDEST PUSH2 0x153 PUSH1 0x4 DUP1 CALLDATASIZE SUB PUSH1 0x20 DUP2 LT ISZERO PUSH2 0x13D JUMPI PUSH1 0x0 DUP1 REVERT JUMPDEST DUP2 ADD SWAP1 DUP1 DUP1 CALLDATALOAD SWAP1 PUSH1 0x20 ADD SWAP1 SWAP3 SWAP2 SWAP1 POP POP POP PUSH2 0x26B JUMP JUMPDEST STOP JUMPDEST PUSH2 0x15D PUSH2 0x29B JUMP JUMPDEST STOP JUMPDEST PUSH2 0x167 PUSH2 0x2C0 JUMP JUMPDEST PUSH1 0x40 MLOAD DUP1 DUP3 PUSH1 0x3 DUP2 GT ISZERO PUSH2 0x177 JUMPI INVALID JUMPDEST DUP2 MSTORE PUSH1 0x20 ADD SWAP2 POP POP PUSH1 0x40 MLOAD DUP1 SWAP2 SUB SWAP1 RETURN JUMPDEST PUSH1 0x3 PUSH1 0x0 PUSH1 0x1 PUSH2 0x100 EXP DUP2 SLOAD DUP2 PUSH1 0xFF MUL NOT AND SWAP1 DUP4 PUSH1 0x3 DUP2 GT ISZERO PUSH2 0x1A7 JUMPI INVALID JUMPDEST MUL OR SWAP1 SSTORE POP JUMP JUMPDEST PUSH1 0x2 PUSH1 0x0 PUSH1 0x1 PUSH2 0x100 EXP DUP2 SLOAD DUP2 PUSH1 0xFF MUL NOT AND SWAP1 DUP4 PUSH1 0x3 DUP2 GT ISZERO PUSH2 0x1CD JUMPI INVALID JUMPDEST MUL OR SWAP1 SSTORE POP JUMP JUMPDEST PUSH1 0x0 DUP1 PUSH1 0x0 SWAP1 SLOAD SWAP1 PUSH2 0x100 EXP SWAP1 DIV PUSH1 0xFF AND SWAP1 POP SWAP1 JUMP JUMPDEST PUSH1 0x0 DUP1 PUSH1 0x0 PUSH2 0x100 EXP DUP2 SLOAD DUP2 PUSH1 0xFF MUL NOT AND SWAP1 DUP4 PUSH1 0x1 DUP2 GT ISZERO PUSH2 0x208 JUMPI INVALID JUMPDEST MUL OR SWAP1 SSTORE POP JUMP JUMPDEST PUSH1 0x0 DUP1 SLOAD SWAP1 PUSH2 0x100 EXP SWAP1 DIV PUSH1 0xFF AND DUP2 JUMP JUMPDEST PUSH1 0x0 DUP1 PUSH1 0x1 PUSH2 0x100 EXP DUP2 SLOAD DUP2 PUSH1 0xFF MUL NOT AND SWAP1 DUP4 PUSH1 0x3 DUP2 GT ISZERO PUSH2 0x23E JUMPI INVALID JUMPDEST MUL OR SWAP1 SSTORE POP JUMP JUMPDEST PUSH1 0x1 PUSH1 0x0 PUSH1 0x1 PUSH2 0x100 EXP DUP2 SLOAD DUP2 PUSH1 0xFF MUL NOT AND SWAP1 DUP4 PUSH1 0x3 DUP2 GT ISZERO PUSH2 0x264 JUMPI INVALID JUMPDEST MUL OR SWAP1 SSTORE POP JUMP JUMPDEST DUP1 PUSH1 0x1 DUP2 GT ISZERO PUSH2 0x277 JUMPI INVALID JUMPDEST PUSH1 0x0 DUP1 PUSH2 0x100 EXP DUP2 SLOAD DUP2 PUSH1 0xFF MUL NOT AND SWAP1 DUP4 PUSH1 0x1 DUP2 GT ISZERO PUSH2 0x293 JUMPI INVALID JUMPDEST MUL OR SWAP1 SSTORE POP POP JUMP JUMPDEST PUSH1 0x1 PUSH1 0x0 DUP1 PUSH2 0x100 EXP DUP2 SLOAD DUP2 PUSH1 0xFF MUL NOT AND SWAP1 DUP4 PUSH1 0x1 DUP2 GT ISZERO PUSH2 0x2B9 JUMPI INVALID JUMPDEST MUL OR SWAP1 SSTORE POP JUMP JUMPDEST PUSH1 0x0 DUP1 PUSH1 0x1 SWAP1 SLOAD SWAP1 PUSH2 0x100 EXP SWAP1 DIV PUSH1 0xFF AND SWAP1 POP SWAP1 JUMP INVALID LOG2 PUSH5 0x6970667358 0x22 SLT KECCAK256 DUP10 PUSH32 0xF38090DB89B084F219E3AE94E2705930B2B31D1C212640B936B9AF5A68D76473 PUSH16 0x6C634300060C00330000000000000000 "
				},
				"gasEstimates": {
					"creation": {
						"codeDepositCost": "156000",
						"executionCost": "202",
						"totalCost": "156202"
					},
					"external": {
						"EstadoActual()": "1120",
						"EstadoDireccion()": "1213",
						"apagar()": "21098",
						"down()": "21103",
						"encender()": "21097",
						"fijarEstado(uint256)": "21185",
						"left()": "21082",
						"right()": "21104",
						"state()": "1153",
						"up()": "21081"
					}
				},
				"methodIdentifiers": {
					"EstadoActual()": "4b09aa72",
					"EstadoDireccion()": "f15f91c1",
					"apagar()": "862b7129",
					"down()": "d8337928",
					"encender()": "e9073c33",
					"fijarEstado(uint256)": "e0be4a2e",
					"left()": "16e64048",
					"right()": "1f2a63c0",
					"state()": "c19d93fb",
					"up()": "d5a49e01"
				}
			},
			"storageLayout": {
				"storage": [
					{
						"astId": 6,
						"contract": "Tipos de variables y operadores/enums.sol:EjemploDeEnumeraciones",
						"label": "state",
						"offset": 0,
						"slot": "0",
						"type": "t_enum(estado)4"
					},
					{
						"astId": 51,
						"contract": "Tipos de variables y operadores/enums.sol:EjemploDeEnumeraciones",
						"label": "direccion",
						"offset": 1,
						"slot": "0",
						"type": "t_enum(direcciones)49"
					}
				],
				"types": {
					"t_enum(direcciones)49": {
						"encoding": "inplace",
						"label": "enum EjemploDeEnumeraciones.direcciones",
						"numberOfBytes": "1"
					},
					"t_enum(estado)4": {
						"encoding": "inplace",
						"label": "enum EjemploDeEnumeraciones.estado",
						"numberOfBytes": "1"
					}
				}
			},
			"userdoc": {
				"kind": "user",
				"methods": {},
				"version": 1
			}
		}
	}
}