{
	"Tipos de variables y operadores/comparar_strs.sol": {
		"compararStrings": {
			"abi": [
				{
					"inputs": [
						{
							"internalType": "string",
							"name": "_i",
							"type": "string"
						},
						{
							"internalType": "string",
							"name": "_j",
							"type": "string"
						}
					],
					"name": "Comparar",
					"outputs": [
						{
							"internalType": "bool",
							"name": "",
							"type": "bool"
						}
					],
					"stateMutability": "pure",
					"type": "function"
				},
				{
					"inputs": [
						{
							"internalType": "string",
							"name": "_i",
							"type": "string"
						},
						{
							"internalType": "string",
							"name": "_j",
							"type": "string"
						}
					],
					"name": "CompararDos",
					"outputs": [
						{
							"internalType": "bool",
							"name": "",
							"type": "bool"
						}
					],
					"stateMutability": "pure",
					"type": "function"
				}
			],
			"devdoc": {
				"kind": "dev",
				"methods": {},
				"version": 1
			},
			"evm": {
				"assembly": "    /* \"Tipos de variables y operadores/comparar_strs.sol\":81:744  contract compararStrings {\r... */\n  mstore(0x40, 0x80)\n  callvalue\n  dup1\n  iszero\n  tag_1\n  jumpi\n  0x00\n  dup1\n  revert\ntag_1:\n  pop\n  dataSize(sub_0)\n  dup1\n  dataOffset(sub_0)\n  0x00\n  codecopy\n  0x00\n  return\nstop\n\nsub_0: assembly {\n        /* \"Tipos de variables y operadores/comparar_strs.sol\":81:744  contract compararStrings {\r... */\n      mstore(0x40, 0x80)\n      callvalue\n      dup1\n      iszero\n      tag_1\n      jumpi\n      0x00\n      dup1\n      revert\n    tag_1:\n      pop\n      jumpi(tag_2, lt(calldatasize, 0x04))\n      shr(0xe0, calldataload(0x00))\n      dup1\n      0x1fa48a38\n      eq\n      tag_3\n      jumpi\n      dup1\n      0xdd8f5272\n      eq\n      tag_4\n      jumpi\n    tag_2:\n      0x00\n      dup1\n      revert\n        /* \"Tipos de variables y operadores/comparar_strs.sol\":470:741  function CompararDos(\r... */\n    tag_3:\n      tag_5\n      0x04\n      dup1\n      calldatasize\n      sub\n      dup2\n      add\n      swap1\n      tag_6\n      swap2\n      swap1\n      tag_7\n      jump\t// in\n    tag_6:\n      tag_8\n      jump\t// in\n    tag_5:\n      mload(0x40)\n      tag_9\n      swap2\n      swap1\n      tag_10\n      jump\t// in\n    tag_9:\n      mload(0x40)\n      dup1\n      swap2\n      sub\n      swap1\n      return\n        /* \"Tipos de variables y operadores/comparar_strs.sol\":113:462  function Comparar(\r... */\n    tag_4:\n      tag_11\n      0x04\n      dup1\n      calldatasize\n      sub\n      dup2\n      add\n      swap1\n      tag_12\n      swap2\n      swap1\n      tag_7\n      jump\t// in\n    tag_12:\n      tag_13\n      jump\t// in\n    tag_11:\n      mload(0x40)\n      tag_14\n      swap2\n      swap1\n      tag_10\n      jump\t// in\n    tag_14:\n      mload(0x40)\n      dup1\n      swap2\n      sub\n      swap1\n      return\n        /* \"Tipos de variables y operadores/comparar_strs.sol\":470:741  function CompararDos(\r... */\n    tag_8:\n        /* \"Tipos de variables y operadores/comparar_strs.sol\":573:577  bool */\n      0x00\n        /* \"Tipos de variables y operadores/comparar_strs.sol\":590:604  bytes32 hash_i */\n      dup1\n        /* \"Tipos de variables y operadores/comparar_strs.sol\":634:636  _i */\n      dup4\n        /* \"Tipos de variables y operadores/comparar_strs.sol\":617:637  abi.encodePacked(_i) */\n      add(0x20, mload(0x40))\n      tag_16\n      swap2\n      swap1\n      tag_17\n      jump\t// in\n    tag_16:\n      mload(0x40)\n      0x20\n      dup2\n      dup4\n      sub\n      sub\n      dup2\n      mstore\n      swap1\n      0x40\n      mstore\n        /* \"Tipos de variables y operadores/comparar_strs.sol\":607:638  keccak256(abi.encodePacked(_i)) */\n      dup1\n      mload\n      swap1\n      0x20\n      add\n      keccak256\n        /* \"Tipos de variables y operadores/comparar_strs.sol\":590:638  bytes32 hash_i = keccak256(abi.encodePacked(_i)) */\n      swap1\n      pop\n        /* \"Tipos de variables y operadores/comparar_strs.sol\":649:663  bytes32 hash_j */\n      0x00\n        /* \"Tipos de variables y operadores/comparar_strs.sol\":693:695  _j */\n      dup4\n        /* \"Tipos de variables y operadores/comparar_strs.sol\":676:696  abi.encodePacked(_j) */\n      add(0x20, mload(0x40))\n      tag_18\n      swap2\n      swap1\n      tag_17\n      jump\t// in\n    tag_18:\n      mload(0x40)\n      0x20\n      dup2\n      dup4\n      sub\n      sub\n      dup2\n      mstore\n      swap1\n      0x40\n      mstore\n        /* \"Tipos de variables y operadores/comparar_strs.sol\":666:697  keccak256(abi.encodePacked(_j)) */\n      dup1\n      mload\n      swap1\n      0x20\n      add\n      keccak256\n        /* \"Tipos de variables y operadores/comparar_strs.sol\":649:697  bytes32 hash_j = keccak256(abi.encodePacked(_j)) */\n      swap1\n      pop\n        /* \"Tipos de variables y operadores/comparar_strs.sol\":727:733  hash_j */\n      dup1\n        /* \"Tipos de variables y operadores/comparar_strs.sol\":717:723  hash_i */\n      dup3\n        /* \"Tipos de variables y operadores/comparar_strs.sol\":717:733  hash_i == hash_j */\n      eq\n        /* \"Tipos de variables y operadores/comparar_strs.sol\":710:733  return hash_i == hash_j */\n      swap3\n      pop\n      pop\n      pop\n        /* \"Tipos de variables y operadores/comparar_strs.sol\":470:741  function CompararDos(\r... */\n      swap3\n      swap2\n      pop\n      pop\n      jump\t// out\n        /* \"Tipos de variables y operadores/comparar_strs.sol\":113:462  function Comparar(\r... */\n    tag_13:\n        /* \"Tipos de variables y operadores/comparar_strs.sol\":213:217  bool */\n      0x00\n        /* \"Tipos de variables y operadores/comparar_strs.sol\":230:244  bytes32 hash_i */\n      dup1\n        /* \"Tipos de variables y operadores/comparar_strs.sol\":274:276  _i */\n      dup4\n        /* \"Tipos de variables y operadores/comparar_strs.sol\":257:277  abi.encodePacked(_i) */\n      add(0x20, mload(0x40))\n      tag_20\n      swap2\n      swap1\n      tag_17\n      jump\t// in\n    tag_20:\n      mload(0x40)\n      0x20\n      dup2\n      dup4\n      sub\n      sub\n      dup2\n      mstore\n      swap1\n      0x40\n      mstore\n        /* \"Tipos de variables y operadores/comparar_strs.sol\":247:278  keccak256(abi.encodePacked(_i)) */\n      dup1\n      mload\n      swap1\n      0x20\n      add\n      keccak256\n        /* \"Tipos de variables y operadores/comparar_strs.sol\":230:278  bytes32 hash_i = keccak256(abi.encodePacked(_i)) */\n      swap1\n      pop\n        /* \"Tipos de variables y operadores/comparar_strs.sol\":289:303  bytes32 hash_j */\n      0x00\n        /* \"Tipos de variables y operadores/comparar_strs.sol\":333:335  _j */\n      dup4\n        /* \"Tipos de variables y operadores/comparar_strs.sol\":316:336  abi.encodePacked(_j) */\n      add(0x20, mload(0x40))\n      tag_21\n      swap2\n      swap1\n      tag_17\n      jump\t// in\n    tag_21:\n      mload(0x40)\n      0x20\n      dup2\n      dup4\n      sub\n      sub\n      dup2\n      mstore\n      swap1\n      0x40\n      mstore\n        /* \"Tipos de variables y operadores/comparar_strs.sol\":306:337  keccak256(abi.encodePacked(_j)) */\n      dup1\n      mload\n      swap1\n      0x20\n      add\n      keccak256\n        /* \"Tipos de variables y operadores/comparar_strs.sol\":289:337  bytes32 hash_j = keccak256(abi.encodePacked(_j)) */\n      swap1\n      pop\n        /* \"Tipos de variables y operadores/comparar_strs.sol\":364:370  hash_j */\n      dup1\n        /* \"Tipos de variables y operadores/comparar_strs.sol\":354:360  hash_i */\n      dup3\n        /* \"Tipos de variables y operadores/comparar_strs.sol\":354:370  hash_i == hash_j */\n      eq\n        /* \"Tipos de variables y operadores/comparar_strs.sol\":350:455  if (hash_i == hash_j) {\r... */\n      iszero\n      tag_22\n      jumpi\n        /* \"Tipos de variables y operadores/comparar_strs.sol\":394:398  true */\n      0x01\n        /* \"Tipos de variables y operadores/comparar_strs.sol\":387:398  return true */\n      swap3\n      pop\n      pop\n      pop\n      jump(tag_19)\n        /* \"Tipos de variables y operadores/comparar_strs.sol\":350:455  if (hash_i == hash_j) {\r... */\n    tag_22:\n        /* \"Tipos de variables y operadores/comparar_strs.sol\":438:443  false */\n      0x00\n        /* \"Tipos de variables y operadores/comparar_strs.sol\":431:443  return false */\n      swap3\n      pop\n      pop\n      pop\n        /* \"Tipos de variables y operadores/comparar_strs.sol\":113:462  function Comparar(\r... */\n    tag_19:\n      swap3\n      swap2\n      pop\n      pop\n      jump\t// out\n        /* \"--CODEGEN--\":6:448   */\n    tag_25:\n      0x00\n        /* \"--CODEGEN--\":108:111   */\n      dup3\n        /* \"--CODEGEN--\":101:105   */\n      0x1f\n        /* \"--CODEGEN--\":93:99   */\n      dup4\n        /* \"--CODEGEN--\":89:106   */\n      add\n        /* \"--CODEGEN--\":85:112   */\n      slt\n        /* \"--CODEGEN--\":75:77   */\n      tag_27\n      jumpi\n        /* \"--CODEGEN--\":126:127   */\n      0x00\n        /* \"--CODEGEN--\":123:124   */\n      dup1\n        /* \"--CODEGEN--\":116:128   */\n      revert\n        /* \"--CODEGEN--\":75:77   */\n    tag_27:\n        /* \"--CODEGEN--\":163:169   */\n      dup2\n        /* \"--CODEGEN--\":150:170   */\n      calldataload\n        /* \"--CODEGEN--\":185:250   */\n      tag_28\n        /* \"--CODEGEN--\":200:249   */\n      tag_29\n        /* \"--CODEGEN--\":242:248   */\n      dup3\n        /* \"--CODEGEN--\":200:249   */\n      tag_30\n      jump\t// in\n    tag_29:\n        /* \"--CODEGEN--\":185:250   */\n      tag_31\n      jump\t// in\n    tag_28:\n        /* \"--CODEGEN--\":176:250   */\n      swap2\n      pop\n        /* \"--CODEGEN--\":270:276   */\n      dup1\n        /* \"--CODEGEN--\":263:268   */\n      dup3\n        /* \"--CODEGEN--\":256:277   */\n      mstore\n        /* \"--CODEGEN--\":306:310   */\n      0x20\n        /* \"--CODEGEN--\":298:304   */\n      dup4\n        /* \"--CODEGEN--\":294:311   */\n      add\n        /* \"--CODEGEN--\":339:343   */\n      0x20\n        /* \"--CODEGEN--\":332:337   */\n      dup4\n        /* \"--CODEGEN--\":328:344   */\n      add\n        /* \"--CODEGEN--\":374:377   */\n      dup6\n        /* \"--CODEGEN--\":365:371   */\n      dup4\n        /* \"--CODEGEN--\":360:363   */\n      dup4\n        /* \"--CODEGEN--\":356:372   */\n      add\n        /* \"--CODEGEN--\":353:378   */\n      gt\n        /* \"--CODEGEN--\":350:352   */\n      iszero\n      tag_32\n      jumpi\n        /* \"--CODEGEN--\":391:392   */\n      0x00\n        /* \"--CODEGEN--\":388:389   */\n      dup1\n        /* \"--CODEGEN--\":381:393   */\n      revert\n        /* \"--CODEGEN--\":350:352   */\n    tag_32:\n        /* \"--CODEGEN--\":401:442   */\n      tag_33\n        /* \"--CODEGEN--\":435:441   */\n      dup4\n        /* \"--CODEGEN--\":430:433   */\n      dup3\n        /* \"--CODEGEN--\":425:428   */\n      dup5\n        /* \"--CODEGEN--\":401:442   */\n      tag_34\n      jump\t// in\n    tag_33:\n        /* \"--CODEGEN--\":68:448   */\n      pop\n      pop\n      pop\n      swap3\n      swap2\n      pop\n      pop\n      jump\t// out\n        /* \"--CODEGEN--\":456:1034   */\n    tag_7:\n      0x00\n      dup1\n        /* \"--CODEGEN--\":597:599   */\n      0x40\n        /* \"--CODEGEN--\":585:594   */\n      dup4\n        /* \"--CODEGEN--\":576:583   */\n      dup6\n        /* \"--CODEGEN--\":572:595   */\n      sub\n        /* \"--CODEGEN--\":568:600   */\n      slt\n        /* \"--CODEGEN--\":565:567   */\n      iszero\n      tag_36\n      jumpi\n        /* \"--CODEGEN--\":613:614   */\n      0x00\n        /* \"--CODEGEN--\":610:611   */\n      dup1\n        /* \"--CODEGEN--\":603:615   */\n      revert\n        /* \"--CODEGEN--\":565:567   */\n    tag_36:\n        /* \"--CODEGEN--\":676:677   */\n      0x00\n        /* \"--CODEGEN--\":665:674   */\n      dup4\n        /* \"--CODEGEN--\":661:678   */\n      add\n        /* \"--CODEGEN--\":648:679   */\n      calldataload\n        /* \"--CODEGEN--\":699:717   */\n      0xffffffffffffffff\n        /* \"--CODEGEN--\":691:697   */\n      dup2\n        /* \"--CODEGEN--\":688:718   */\n      gt\n        /* \"--CODEGEN--\":685:687   */\n      iszero\n      tag_37\n      jumpi\n        /* \"--CODEGEN--\":731:732   */\n      0x00\n        /* \"--CODEGEN--\":728:729   */\n      dup1\n        /* \"--CODEGEN--\":721:733   */\n      revert\n        /* \"--CODEGEN--\":685:687   */\n    tag_37:\n        /* \"--CODEGEN--\":751:814   */\n      tag_38\n        /* \"--CODEGEN--\":806:813   */\n      dup6\n        /* \"--CODEGEN--\":797:803   */\n      dup3\n        /* \"--CODEGEN--\":786:795   */\n      dup7\n        /* \"--CODEGEN--\":782:804   */\n      add\n        /* \"--CODEGEN--\":751:814   */\n      tag_25\n      jump\t// in\n    tag_38:\n        /* \"--CODEGEN--\":741:814   */\n      swap3\n      pop\n        /* \"--CODEGEN--\":627:820   */\n      pop\n        /* \"--CODEGEN--\":879:881   */\n      0x20\n        /* \"--CODEGEN--\":868:877   */\n      dup4\n        /* \"--CODEGEN--\":864:882   */\n      add\n        /* \"--CODEGEN--\":851:883   */\n      calldataload\n        /* \"--CODEGEN--\":903:921   */\n      0xffffffffffffffff\n        /* \"--CODEGEN--\":895:901   */\n      dup2\n        /* \"--CODEGEN--\":892:922   */\n      gt\n        /* \"--CODEGEN--\":889:891   */\n      iszero\n      tag_39\n      jumpi\n        /* \"--CODEGEN--\":935:936   */\n      0x00\n        /* \"--CODEGEN--\":932:933   */\n      dup1\n        /* \"--CODEGEN--\":925:937   */\n      revert\n        /* \"--CODEGEN--\":889:891   */\n    tag_39:\n        /* \"--CODEGEN--\":955:1018   */\n      tag_40\n        /* \"--CODEGEN--\":1010:1017   */\n      dup6\n        /* \"--CODEGEN--\":1001:1007   */\n      dup3\n        /* \"--CODEGEN--\":990:999   */\n      dup7\n        /* \"--CODEGEN--\":986:1008   */\n      add\n        /* \"--CODEGEN--\":955:1018   */\n      tag_25\n      jump\t// in\n    tag_40:\n        /* \"--CODEGEN--\":945:1018   */\n      swap2\n      pop\n        /* \"--CODEGEN--\":830:1024   */\n      pop\n        /* \"--CODEGEN--\":559:1034   */\n      swap3\n      pop\n      swap3\n      swap1\n      pop\n      jump\t// out\n        /* \"--CODEGEN--\":1041:1145   */\n    tag_41:\n        /* \"--CODEGEN--\":1118:1139   */\n      tag_43\n        /* \"--CODEGEN--\":1133:1138   */\n      dup2\n        /* \"--CODEGEN--\":1118:1139   */\n      tag_44\n      jump\t// in\n    tag_43:\n        /* \"--CODEGEN--\":1113:1116   */\n      dup3\n        /* \"--CODEGEN--\":1106:1140   */\n      mstore\n        /* \"--CODEGEN--\":1100:1145   */\n      pop\n      pop\n      jump\t// out\n        /* \"--CODEGEN--\":1152:1512   */\n    tag_45:\n      0x00\n        /* \"--CODEGEN--\":1282:1321   */\n      tag_47\n        /* \"--CODEGEN--\":1315:1320   */\n      dup3\n        /* \"--CODEGEN--\":1282:1321   */\n      tag_48\n      jump\t// in\n    tag_47:\n        /* \"--CODEGEN--\":1333:1422   */\n      tag_49\n        /* \"--CODEGEN--\":1415:1421   */\n      dup2\n        /* \"--CODEGEN--\":1410:1413   */\n      dup6\n        /* \"--CODEGEN--\":1333:1422   */\n      tag_50\n      jump\t// in\n    tag_49:\n        /* \"--CODEGEN--\":1326:1422   */\n      swap4\n      pop\n        /* \"--CODEGEN--\":1427:1479   */\n      tag_51\n        /* \"--CODEGEN--\":1472:1478   */\n      dup2\n        /* \"--CODEGEN--\":1467:1470   */\n      dup6\n        /* \"--CODEGEN--\":1460:1464   */\n      0x20\n        /* \"--CODEGEN--\":1453:1458   */\n      dup7\n        /* \"--CODEGEN--\":1449:1465   */\n      add\n        /* \"--CODEGEN--\":1427:1479   */\n      tag_52\n      jump\t// in\n    tag_51:\n        /* \"--CODEGEN--\":1500:1506   */\n      dup1\n        /* \"--CODEGEN--\":1495:1498   */\n      dup5\n        /* \"--CODEGEN--\":1491:1507   */\n      add\n        /* \"--CODEGEN--\":1484:1507   */\n      swap2\n      pop\n        /* \"--CODEGEN--\":1262:1512   */\n      pop\n      swap3\n      swap2\n      pop\n      pop\n      jump\t// out\n        /* \"--CODEGEN--\":1519:1794   */\n    tag_17:\n      0x00\n        /* \"--CODEGEN--\":1674:1769   */\n      tag_54\n        /* \"--CODEGEN--\":1765:1768   */\n      dup3\n        /* \"--CODEGEN--\":1756:1762   */\n      dup5\n        /* \"--CODEGEN--\":1674:1769   */\n      tag_45\n      jump\t// in\n    tag_54:\n        /* \"--CODEGEN--\":1667:1769   */\n      swap2\n      pop\n        /* \"--CODEGEN--\":1786:1789   */\n      dup2\n        /* \"--CODEGEN--\":1779:1789   */\n      swap1\n      pop\n        /* \"--CODEGEN--\":1655:1794   */\n      swap3\n      swap2\n      pop\n      pop\n      jump\t// out\n        /* \"--CODEGEN--\":1801:2011   */\n    tag_10:\n      0x00\n        /* \"--CODEGEN--\":1922:1924   */\n      0x20\n        /* \"--CODEGEN--\":1911:1920   */\n      dup3\n        /* \"--CODEGEN--\":1907:1925   */\n      add\n        /* \"--CODEGEN--\":1899:1925   */\n      swap1\n      pop\n        /* \"--CODEGEN--\":1936:2001   */\n      tag_56\n        /* \"--CODEGEN--\":1998:1999   */\n      0x00\n        /* \"--CODEGEN--\":1987:1996   */\n      dup4\n        /* \"--CODEGEN--\":1983:2000   */\n      add\n        /* \"--CODEGEN--\":1974:1980   */\n      dup5\n        /* \"--CODEGEN--\":1936:2001   */\n      tag_41\n      jump\t// in\n    tag_56:\n        /* \"--CODEGEN--\":1893:2011   */\n      swap3\n      swap2\n      pop\n      pop\n      jump\t// out\n        /* \"--CODEGEN--\":2018:2274   */\n    tag_31:\n      0x00\n        /* \"--CODEGEN--\":2080:2082   */\n      0x40\n        /* \"--CODEGEN--\":2074:2083   */\n      mload\n        /* \"--CODEGEN--\":2064:2083   */\n      swap1\n      pop\n        /* \"--CODEGEN--\":2118:2122   */\n      dup2\n        /* \"--CODEGEN--\":2110:2116   */\n      dup2\n        /* \"--CODEGEN--\":2106:2123   */\n      add\n        /* \"--CODEGEN--\":2217:2223   */\n      dup2\n        /* \"--CODEGEN--\":2205:2215   */\n      dup2\n        /* \"--CODEGEN--\":2202:2224   */\n      lt\n        /* \"--CODEGEN--\":2181:2199   */\n      0xffffffffffffffff\n        /* \"--CODEGEN--\":2169:2179   */\n      dup3\n        /* \"--CODEGEN--\":2166:2200   */\n      gt\n        /* \"--CODEGEN--\":2163:2225   */\n      or\n        /* \"--CODEGEN--\":2160:2162   */\n      iszero\n      tag_58\n      jumpi\n        /* \"--CODEGEN--\":2238:2239   */\n      0x00\n        /* \"--CODEGEN--\":2235:2236   */\n      dup1\n        /* \"--CODEGEN--\":2228:2240   */\n      revert\n        /* \"--CODEGEN--\":2160:2162   */\n    tag_58:\n        /* \"--CODEGEN--\":2258:2268   */\n      dup1\n        /* \"--CODEGEN--\":2254:2256   */\n      0x40\n        /* \"--CODEGEN--\":2247:2269   */\n      mstore\n        /* \"--CODEGEN--\":2058:2274   */\n      pop\n      swap2\n      swap1\n      pop\n      jump\t// out\n        /* \"--CODEGEN--\":2281:2603   */\n    tag_30:\n      0x00\n        /* \"--CODEGEN--\":2425:2443   */\n      0xffffffffffffffff\n        /* \"--CODEGEN--\":2417:2423   */\n      dup3\n        /* \"--CODEGEN--\":2414:2444   */\n      gt\n        /* \"--CODEGEN--\":2411:2413   */\n      iszero\n      tag_60\n      jumpi\n        /* \"--CODEGEN--\":2457:2458   */\n      0x00\n        /* \"--CODEGEN--\":2454:2455   */\n      dup1\n        /* \"--CODEGEN--\":2447:2459   */\n      revert\n        /* \"--CODEGEN--\":2411:2413   */\n    tag_60:\n        /* \"--CODEGEN--\":2524:2528   */\n      0x1f\n        /* \"--CODEGEN--\":2520:2529   */\n      not\n        /* \"--CODEGEN--\":2513:2517   */\n      0x1f\n        /* \"--CODEGEN--\":2505:2511   */\n      dup4\n        /* \"--CODEGEN--\":2501:2518   */\n      add\n        /* \"--CODEGEN--\":2497:2530   */\n      and\n        /* \"--CODEGEN--\":2489:2530   */\n      swap1\n      pop\n        /* \"--CODEGEN--\":2588:2592   */\n      0x20\n        /* \"--CODEGEN--\":2582:2586   */\n      dup2\n        /* \"--CODEGEN--\":2578:2593   */\n      add\n        /* \"--CODEGEN--\":2570:2593   */\n      swap1\n      pop\n        /* \"--CODEGEN--\":2348:2603   */\n      swap2\n      swap1\n      pop\n      jump\t// out\n        /* \"--CODEGEN--\":2610:2732   */\n    tag_48:\n      0x00\n        /* \"--CODEGEN--\":2704:2709   */\n      dup2\n        /* \"--CODEGEN--\":2698:2710   */\n      mload\n        /* \"--CODEGEN--\":2688:2710   */\n      swap1\n      pop\n        /* \"--CODEGEN--\":2669:2732   */\n      swap2\n      swap1\n      pop\n      jump\t// out\n        /* \"--CODEGEN--\":2740:2885   */\n    tag_50:\n      0x00\n        /* \"--CODEGEN--\":2876:2879   */\n      dup2\n        /* \"--CODEGEN--\":2861:2879   */\n      swap1\n      pop\n        /* \"--CODEGEN--\":2854:2885   */\n      swap3\n      swap2\n      pop\n      pop\n      jump\t// out\n        /* \"--CODEGEN--\":2893:2978   */\n    tag_44:\n      0x00\n        /* \"--CODEGEN--\":2966:2971   */\n      dup2\n        /* \"--CODEGEN--\":2959:2972   */\n      iszero\n        /* \"--CODEGEN--\":2952:2973   */\n      iszero\n        /* \"--CODEGEN--\":2941:2973   */\n      swap1\n      pop\n        /* \"--CODEGEN--\":2935:2978   */\n      swap2\n      swap1\n      pop\n      jump\t// out\n        /* \"--CODEGEN--\":2986:3131   */\n    tag_34:\n        /* \"--CODEGEN--\":3067:3073   */\n      dup3\n        /* \"--CODEGEN--\":3062:3065   */\n      dup2\n        /* \"--CODEGEN--\":3057:3060   */\n      dup4\n        /* \"--CODEGEN--\":3044:3074   */\n      calldatacopy\n        /* \"--CODEGEN--\":3123:3124   */\n      0x00\n        /* \"--CODEGEN--\":3114:3120   */\n      dup4\n        /* \"--CODEGEN--\":3109:3112   */\n      dup4\n        /* \"--CODEGEN--\":3105:3121   */\n      add\n        /* \"--CODEGEN--\":3098:3125   */\n      mstore\n        /* \"--CODEGEN--\":3037:3131   */\n      pop\n      pop\n      pop\n      jump\t// out\n        /* \"--CODEGEN--\":3140:3408   */\n    tag_52:\n        /* \"--CODEGEN--\":3205:3206   */\n      0x00\n        /* \"--CODEGEN--\":3212:3313   */\n    tag_66:\n        /* \"--CODEGEN--\":3226:3232   */\n      dup4\n        /* \"--CODEGEN--\":3223:3224   */\n      dup2\n        /* \"--CODEGEN--\":3220:3233   */\n      lt\n        /* \"--CODEGEN--\":3212:3313   */\n      iszero\n      tag_68\n      jumpi\n        /* \"--CODEGEN--\":3302:3303   */\n      dup1\n        /* \"--CODEGEN--\":3297:3300   */\n      dup3\n        /* \"--CODEGEN--\":3293:3304   */\n      add\n        /* \"--CODEGEN--\":3287:3305   */\n      mload\n        /* \"--CODEGEN--\":3283:3284   */\n      dup2\n        /* \"--CODEGEN--\":3278:3281   */\n      dup5\n        /* \"--CODEGEN--\":3274:3285   */\n      add\n        /* \"--CODEGEN--\":3267:3306   */\n      mstore\n        /* \"--CODEGEN--\":3248:3250   */\n      0x20\n        /* \"--CODEGEN--\":3245:3246   */\n      dup2\n        /* \"--CODEGEN--\":3241:3251   */\n      add\n        /* \"--CODEGEN--\":3236:3251   */\n      swap1\n      pop\n        /* \"--CODEGEN--\":3212:3313   */\n      jump(tag_66)\n    tag_68:\n        /* \"--CODEGEN--\":3328:3334   */\n      dup4\n        /* \"--CODEGEN--\":3325:3326   */\n      dup2\n        /* \"--CODEGEN--\":3322:3335   */\n      gt\n        /* \"--CODEGEN--\":3319:3321   */\n      iszero\n      tag_69\n      jumpi\n        /* \"--CODEGEN--\":3393:3394   */\n      0x00\n        /* \"--CODEGEN--\":3384:3390   */\n      dup5\n        /* \"--CODEGEN--\":3379:3382   */\n      dup5\n        /* \"--CODEGEN--\":3375:3391   */\n      add\n        /* \"--CODEGEN--\":3368:3395   */\n      mstore\n        /* \"--CODEGEN--\":3319:3321   */\n    tag_69:\n        /* \"--CODEGEN--\":3189:3408   */\n      pop\n      pop\n      pop\n      pop\n      jump\t// out\n\n    auxdata: 0xa26469706673582212203064a9a8eea5a4eaf8174c3742958899b815820f46c943acf1efef19abe2fd1664736f6c634300060c0033\n}\n",
				"bytecode": {
					"linkReferences": {},
					"object": "608060405234801561001057600080fd5b5061039b806100206000396000f3fe608060405234801561001057600080fd5b50600436106100365760003560e01c80631fa48a381461003b578063dd8f52721461006b575b600080fd5b610055600480360381019061005091906101ca565b61009b565b604051610062919061028d565b60405180910390f35b610085600480360381019061008091906101ca565b6100ff565b604051610092919061028d565b60405180910390f35b600080836040516020016100af9190610276565b6040516020818303038152906040528051906020012090506000836040516020016100da9190610276565b6040516020818303038152906040528051906020012090508082149250505092915050565b600080836040516020016101139190610276565b60405160208183030381529060405280519060200120905060008360405160200161013e9190610276565b6040516020818303038152906040528051906020012090508082141561016957600192505050610170565b6000925050505b92915050565b600082601f83011261018757600080fd5b813561019a610195826102d5565b6102a8565b915080825260208301602083018583830111156101b657600080fd5b6101c1838284610323565b50505092915050565b600080604083850312156101dd57600080fd5b600083013567ffffffffffffffff8111156101f757600080fd5b61020385828601610176565b925050602083013567ffffffffffffffff81111561022057600080fd5b61022c85828601610176565b9150509250929050565b61023f81610317565b82525050565b600061025082610301565b61025a818561030c565b935061026a818560208601610332565b80840191505092915050565b60006102828284610245565b915081905092915050565b60006020820190506102a26000830184610236565b92915050565b6000604051905081810181811067ffffffffffffffff821117156102cb57600080fd5b8060405250919050565b600067ffffffffffffffff8211156102ec57600080fd5b601f19601f8301169050602081019050919050565b600081519050919050565b600081905092915050565b60008115159050919050565b82818337600083830152505050565b60005b83811015610350578082015181840152602081019050610335565b8381111561035f576000848401525b5050505056fea26469706673582212203064a9a8eea5a4eaf8174c3742958899b815820f46c943acf1efef19abe2fd1664736f6c634300060c0033",
					"opcodes": "PUSH1 0x80 PUSH1 0x40 MSTORE CALLVALUE DUP1 ISZERO PUSH2 0x10 JUMPI PUSH1 0x0 DUP1 REVERT JUMPDEST POP PUSH2 0x39B DUP1 PUSH2 0x20 PUSH1 0x0 CODECOPY PUSH1 0x0 RETURN INVALID PUSH1 0x80 PUSH1 0x40 MSTORE CALLVALUE DUP1 ISZERO PUSH2 0x10 JUMPI PUSH1 0x0 DUP1 REVERT JUMPDEST POP PUSH1 0x4 CALLDATASIZE LT PUSH2 0x36 JUMPI PUSH1 0x0 CALLDATALOAD PUSH1 0xE0 SHR DUP1 PUSH4 0x1FA48A38 EQ PUSH2 0x3B JUMPI DUP1 PUSH4 0xDD8F5272 EQ PUSH2 0x6B JUMPI JUMPDEST PUSH1 0x0 DUP1 REVERT JUMPDEST PUSH2 0x55 PUSH1 0x4 DUP1 CALLDATASIZE SUB DUP2 ADD SWAP1 PUSH2 0x50 SWAP2 SWAP1 PUSH2 0x1CA JUMP JUMPDEST PUSH2 0x9B JUMP JUMPDEST PUSH1 0x40 MLOAD PUSH2 0x62 SWAP2 SWAP1 PUSH2 0x28D JUMP JUMPDEST PUSH1 0x40 MLOAD DUP1 SWAP2 SUB SWAP1 RETURN JUMPDEST PUSH2 0x85 PUSH1 0x4 DUP1 CALLDATASIZE SUB DUP2 ADD SWAP1 PUSH2 0x80 SWAP2 SWAP1 PUSH2 0x1CA JUMP JUMPDEST PUSH2 0xFF JUMP JUMPDEST PUSH1 0x40 MLOAD PUSH2 0x92 SWAP2 SWAP1 PUSH2 0x28D JUMP JUMPDEST PUSH1 0x40 MLOAD DUP1 SWAP2 SUB SWAP1 RETURN JUMPDEST PUSH1 0x0 DUP1 DUP4 PUSH1 0x40 MLOAD PUSH1 0x20 ADD PUSH2 0xAF SWAP2 SWAP1 PUSH2 0x276 JUMP JUMPDEST PUSH1 0x40 MLOAD PUSH1 0x20 DUP2 DUP4 SUB SUB DUP2 MSTORE SWAP1 PUSH1 0x40 MSTORE DUP1 MLOAD SWAP1 PUSH1 0x20 ADD KECCAK256 SWAP1 POP PUSH1 0x0 DUP4 PUSH1 0x40 MLOAD PUSH1 0x20 ADD PUSH2 0xDA SWAP2 SWAP1 PUSH2 0x276 JUMP JUMPDEST PUSH1 0x40 MLOAD PUSH1 0x20 DUP2 DUP4 SUB SUB DUP2 MSTORE SWAP1 PUSH1 0x40 MSTORE DUP1 MLOAD SWAP1 PUSH1 0x20 ADD KECCAK256 SWAP1 POP DUP1 DUP3 EQ SWAP3 POP POP POP SWAP3 SWAP2 POP POP JUMP JUMPDEST PUSH1 0x0 DUP1 DUP4 PUSH1 0x40 MLOAD PUSH1 0x20 ADD PUSH2 0x113 SWAP2 SWAP1 PUSH2 0x276 JUMP JUMPDEST PUSH1 0x40 MLOAD PUSH1 0x20 DUP2 DUP4 SUB SUB DUP2 MSTORE SWAP1 PUSH1 0x40 MSTORE DUP1 MLOAD SWAP1 PUSH1 0x20 ADD KECCAK256 SWAP1 POP PUSH1 0x0 DUP4 PUSH1 0x40 MLOAD PUSH1 0x20 ADD PUSH2 0x13E SWAP2 SWAP1 PUSH2 0x276 JUMP JUMPDEST PUSH1 0x40 MLOAD PUSH1 0x20 DUP2 DUP4 SUB SUB DUP2 MSTORE SWAP1 PUSH1 0x40 MSTORE DUP1 MLOAD SWAP1 PUSH1 0x20 ADD KECCAK256 SWAP1 POP DUP1 DUP3 EQ ISZERO PUSH2 0x169 JUMPI PUSH1 0x1 SWAP3 POP POP POP PUSH2 0x170 JUMP JUMPDEST PUSH1 0x0 SWAP3 POP POP POP JUMPDEST SWAP3 SWAP2 POP POP JUMP JUMPDEST PUSH1 0x0 DUP3 PUSH1 0x1F DUP4 ADD SLT PUSH2 0x187 JUMPI PUSH1 0x0 DUP1 REVERT JUMPDEST DUP2 CALLDATALOAD PUSH2 0x19A PUSH2 0x195 DUP3 PUSH2 0x2D5 JUMP JUMPDEST PUSH2 0x2A8 JUMP JUMPDEST SWAP2 POP DUP1 DUP3 MSTORE PUSH1 0x20 DUP4 ADD PUSH1 0x20 DUP4 ADD DUP6 DUP4 DUP4 ADD GT ISZERO PUSH2 0x1B6 JUMPI PUSH1 0x0 DUP1 REVERT JUMPDEST PUSH2 0x1C1 DUP4 DUP3 DUP5 PUSH2 0x323 JUMP JUMPDEST POP POP POP SWAP3 SWAP2 POP POP JUMP JUMPDEST PUSH1 0x0 DUP1 PUSH1 0x40 DUP4 DUP6 SUB SLT ISZERO PUSH2 0x1DD JUMPI PUSH1 0x0 DUP1 REVERT JUMPDEST PUSH1 0x0 DUP4 ADD CALLDATALOAD PUSH8 0xFFFFFFFFFFFFFFFF DUP2 GT ISZERO PUSH2 0x1F7 JUMPI PUSH1 0x0 DUP1 REVERT JUMPDEST PUSH2 0x203 DUP6 DUP3 DUP7 ADD PUSH2 0x176 JUMP JUMPDEST SWAP3 POP POP PUSH1 0x20 DUP4 ADD CALLDATALOAD PUSH8 0xFFFFFFFFFFFFFFFF DUP2 GT ISZERO PUSH2 0x220 JUMPI PUSH1 0x0 DUP1 REVERT JUMPDEST PUSH2 0x22C DUP6 DUP3 DUP7 ADD PUSH2 0x176 JUMP JUMPDEST SWAP2 POP POP SWAP3 POP SWAP3 SWAP1 POP JUMP JUMPDEST PUSH2 0x23F DUP2 PUSH2 0x317 JUMP JUMPDEST DUP3 MSTORE POP POP JUMP JUMPDEST PUSH1 0x0 PUSH2 0x250 DUP3 PUSH2 0x301 JUMP JUMPDEST PUSH2 0x25A DUP2 DUP6 PUSH2 0x30C JUMP JUMPDEST SWAP4 POP PUSH2 0x26A DUP2 DUP6 PUSH1 0x20 DUP7 ADD PUSH2 0x332 JUMP JUMPDEST DUP1 DUP5 ADD SWAP2 POP POP SWAP3 SWAP2 POP POP JUMP JUMPDEST PUSH1 0x0 PUSH2 0x282 DUP3 DUP5 PUSH2 0x245 JUMP JUMPDEST SWAP2 POP DUP2 SWAP1 POP SWAP3 SWAP2 POP POP JUMP JUMPDEST PUSH1 0x0 PUSH1 0x20 DUP3 ADD SWAP1 POP PUSH2 0x2A2 PUSH1 0x0 DUP4 ADD DUP5 PUSH2 0x236 JUMP JUMPDEST SWAP3 SWAP2 POP POP JUMP JUMPDEST PUSH1 0x0 PUSH1 0x40 MLOAD SWAP1 POP DUP2 DUP2 ADD DUP2 DUP2 LT PUSH8 0xFFFFFFFFFFFFFFFF DUP3 GT OR ISZERO PUSH2 0x2CB JUMPI PUSH1 0x0 DUP1 REVERT JUMPDEST DUP1 PUSH1 0x40 MSTORE POP SWAP2 SWAP1 POP JUMP JUMPDEST PUSH1 0x0 PUSH8 0xFFFFFFFFFFFFFFFF DUP3 GT ISZERO PUSH2 0x2EC JUMPI PUSH1 0x0 DUP1 REVERT JUMPDEST PUSH1 0x1F NOT PUSH1 0x1F DUP4 ADD AND SWAP1 POP PUSH1 0x20 DUP2 ADD SWAP1 POP SWAP2 SWAP1 POP JUMP JUMPDEST PUSH1 0x0 DUP2 MLOAD SWAP1 POP SWAP2 SWAP1 POP JUMP JUMPDEST PUSH1 0x0 DUP2 SWAP1 POP SWAP3 SWAP2 POP POP JUMP JUMPDEST PUSH1 0x0 DUP2 ISZERO ISZERO SWAP1 POP SWAP2 SWAP1 POP JUMP JUMPDEST DUP3 DUP2 DUP4 CALLDATACOPY PUSH1 0x0 DUP4 DUP4 ADD MSTORE POP POP POP JUMP JUMPDEST PUSH1 0x0 JUMPDEST DUP4 DUP2 LT ISZERO PUSH2 0x350 JUMPI DUP1 DUP3 ADD MLOAD DUP2 DUP5 ADD MSTORE PUSH1 0x20 DUP2 ADD SWAP1 POP PUSH2 0x335 JUMP JUMPDEST DUP4 DUP2 GT ISZERO PUSH2 0x35F JUMPI PUSH1 0x0 DUP5 DUP5 ADD MSTORE JUMPDEST POP POP POP POP JUMP INVALID LOG2 PUSH5 0x6970667358 0x22 SLT KECCAK256 ADDRESS PUSH5 0xA9A8EEA5A4 0xEA 0xF8 OR 0x4C CALLDATACOPY TIMESTAMP SWAP6 DUP9 SWAP10 0xB8 ISZERO DUP3 0xF CHAINID 0xC9 NUMBER 0xAC CALL 0xEF 0xEF NOT 0xAB 0xE2 REVERT AND PUSH5 0x736F6C6343 STOP MOD 0xC STOP CALLER "
				},
				"gasEstimates": {
					"creation": {
						"codeDepositCost": "184600",
						"executionCost": "226",
						"totalCost": "184826"
					},
					"external": {
						"Comparar(string,string)": "infinite",
						"CompararDos(string,string)": "infinite"
					}
				},
				"methodIdentifiers": {
					"Comparar(string,string)": "dd8f5272",
					"CompararDos(string,string)": "1fa48a38"
				}
			},
			"storageLayout": {
				"storage": [],
				"types": null
			},
			"userdoc": {
				"kind": "user",
				"methods": {},
				"version": 1
			}
		}
	}
}