{
	"Tipos de variables y operadores/mas_variables.sol": {
		"mas_variables": {
			"abi": [
				{
					"inputs": [],
					"name": "boolean_inicialized",
					"outputs": [
						{
							"internalType": "bool",
							"name": "",
							"type": "bool"
						}
					],
					"stateMutability": "view",
					"type": "function"
				},
				{
					"inputs": [],
					"name": "direccion_local",
					"outputs": [
						{
							"internalType": "address",
							"name": "",
							"type": "address"
						}
					],
					"stateMutability": "view",
					"type": "function"
				},
				{
					"inputs": [],
					"name": "ejemploBytes4",
					"outputs": [],
					"stateMutability": "nonpayable",
					"type": "function"
				},
				{
					"inputs": [],
					"name": "flag_false",
					"outputs": [
						{
							"internalType": "bool",
							"name": "",
							"type": "bool"
						}
					],
					"stateMutability": "view",
					"type": "function"
				},
				{
					"inputs": [],
					"name": "hash",
					"outputs": [
						{
							"internalType": "bytes32",
							"name": "",
							"type": "bytes32"
						}
					],
					"stateMutability": "view",
					"type": "function"
				},
				{
					"inputs": [],
					"name": "nombre",
					"outputs": [
						{
							"internalType": "string",
							"name": "",
							"type": "string"
						}
					],
					"stateMutability": "view",
					"type": "function"
				},
				{
					"inputs": [],
					"name": "saludo",
					"outputs": [
						{
							"internalType": "string",
							"name": "",
							"type": "string"
						}
					],
					"stateMutability": "view",
					"type": "function"
				},
				{
					"inputs": [],
					"name": "string_vacio",
					"outputs": [
						{
							"internalType": "string",
							"name": "",
							"type": "string"
						}
					],
					"stateMutability": "view",
					"type": "function"
				}
			],
			"devdoc": {
				"kind": "dev",
				"methods": {},
				"version": 1
			},
			"evm": {
				"assembly": "    /* \"Tipos de variables y operadores/mas_variables.sol\":92:838  contract mas_variables{\r... */\n  mstore(0x40, 0x80)\n    /* \"Tipos de variables y operadores/mas_variables.sol\":185:223  string public saludo = \"Hola como va?\" */\n  mload(0x40)\n  dup1\n  0x40\n  add\n  0x40\n  mstore\n  dup1\n  0x0d\n  dup2\n  mstore\n  0x20\n  add\n  0x486f6c6120636f6d6f2076613f00000000000000000000000000000000000000\n  dup2\n  mstore\n  pop\n  0x01\n  swap1\n  dup1\n  mload\n  swap1\n  0x20\n  add\n  swap1\n  tag_1\n  swap3\n  swap2\n  swap1\n  tag_2\n  jump\t// in\ntag_1:\n  pop\n    /* \"Tipos de variables y operadores/mas_variables.sol\":230:261  string public string_vacio = \"\" */\n  mload(0x40)\n  dup1\n  0x20\n  add\n  0x40\n  mstore\n  dup1\n  0x00\n  dup2\n  mstore\n  pop\n  0x02\n  swap1\n  dup1\n  mload\n  swap1\n  0x20\n  add\n  swap1\n  tag_3\n  swap3\n  swap2\n  swap1\n  tag_2\n  jump\t// in\ntag_3:\n  pop\n    /* \"Tipos de variables y operadores/mas_variables.sol\":351:355  true */\n  0x01\n    /* \"Tipos de variables y operadores/mas_variables.sol\":317:355  bool public boolean_inicialized = true */\n  0x03\n  exp(0x0100, 0x01)\n  dup2\n  sload\n  dup2\n  0xff\n  mul\n  not\n  and\n  swap1\n  dup4\n  iszero\n  iszero\n  mul\n  or\n  swap1\n  sstore\n  pop\n    /* \"Tipos de variables y operadores/mas_variables.sol\":387:392  false */\n  0x00\n    /* \"Tipos de variables y operadores/mas_variables.sol\":362:392  bool public flag_false = false */\n  0x03\n  exp(0x0100, 0x02)\n  dup2\n  sload\n  dup2\n  0xff\n  mul\n  not\n  and\n  swap1\n  dup4\n  iszero\n  iszero\n  mul\n  or\n  swap1\n  sstore\n  pop\n    /* \"Tipos de variables y operadores/mas_variables.sol\":482:514  string public nombre = \"facundo\" */\n  mload(0x40)\n  dup1\n  0x40\n  add\n  0x40\n  mstore\n  dup1\n  0x07\n  dup2\n  mstore\n  0x20\n  add\n  0x666163756e646f00000000000000000000000000000000000000000000000000\n  dup2\n  mstore\n  pop\n  0x06\n  swap1\n  dup1\n  mload\n  swap1\n  0x20\n  add\n  swap1\n  tag_4\n  swap3\n  swap2\n  swap1\n  tag_2\n  jump\t// in\ntag_4:\n  pop\n    /* \"Tipos de variables y operadores/mas_variables.sol\":570:576  nombre */\n  0x06\n    /* \"Tipos de variables y operadores/mas_variables.sol\":553:577  abi.encodePacked(nombre) */\n  add(0x20, mload(0x40))\n  tag_5\n  swap2\n  swap1\n  tag_6\n  jump\t// in\ntag_5:\n  mload(0x40)\n  0x20\n  dup2\n  dup4\n  sub\n  sub\n  dup2\n  mstore\n  swap1\n  0x40\n  mstore\n    /* \"Tipos de variables y operadores/mas_variables.sol\":543:578  keccak256(abi.encodePacked(nombre)) */\n  dup1\n  mload\n  swap1\n  0x20\n  add\n  keccak256\n    /* \"Tipos de variables y operadores/mas_variables.sol\":521:578  bytes32 public hash = keccak256(abi.encodePacked(nombre)) */\n  0x07\n  sstore\n    /* \"Tipos de variables y operadores/mas_variables.sol\":792:834  0x5B38Da6a701c568545dCfcB03FcB875f56beddC4 */\n  0x5b38da6a701c568545dcfcb03fcb875f56beddc4\n    /* \"Tipos de variables y operadores/mas_variables.sol\":759:834  address public direccion_local = 0x5B38Da6a701c568545dCfcB03FcB875f56beddC4 */\n  0x09\n  exp(0x0100, 0x00)\n  dup2\n  sload\n  dup2\n  0xffffffffffffffffffffffffffffffffffffffff\n  mul\n  not\n  and\n  swap1\n  dup4\n  0xffffffffffffffffffffffffffffffffffffffff\n  and\n  mul\n  or\n  swap1\n  sstore\n  pop\n    /* \"Tipos de variables y operadores/mas_variables.sol\":92:838  contract mas_variables{\r... */\n  callvalue\n  dup1\n  iszero\n  tag_7\n  jumpi\n  0x00\n  dup1\n  revert\ntag_7:\n  pop\n  jump(tag_8)\ntag_2:\n  dup3\n  dup1\n  sload\n  0x01\n  dup2\n  0x01\n  and\n  iszero\n  0x0100\n  mul\n  sub\n  and\n  0x02\n  swap1\n  div\n  swap1\n  0x00\n  mstore\n  keccak256(0x00, 0x20)\n  swap1\n  0x1f\n  add\n  0x20\n  swap1\n  div\n  dup2\n  add\n  swap3\n  dup3\n  0x1f\n  lt\n  tag_10\n  jumpi\n  dup1\n  mload\n  not(0xff)\n  and\n  dup4\n  dup1\n  add\n  or\n  dup6\n  sstore\n  jump(tag_9)\ntag_10:\n  dup3\n  dup1\n  add\n  0x01\n  add\n  dup6\n  sstore\n  dup3\n  iszero\n  tag_9\n  jumpi\n  swap2\n  dup3\n  add\ntag_11:\n  dup3\n  dup2\n  gt\n  iszero\n  tag_12\n  jumpi\n  dup3\n  mload\n  dup3\n  sstore\n  swap2\n  0x20\n  add\n  swap2\n  swap1\n  0x01\n  add\n  swap1\n  jump(tag_11)\ntag_12:\ntag_9:\n  pop\n  swap1\n  pop\n  tag_13\n  swap2\n  swap1\n  tag_14\n  jump\t// in\ntag_13:\n  pop\n  swap1\n  jump\t// out\ntag_14:\ntag_15:\n  dup1\n  dup3\n  gt\n  iszero\n  tag_16\n  jumpi\n  0x00\n  dup2\n  0x00\n  swap1\n  sstore\n  pop\n  0x01\n  add\n  jump(tag_15)\ntag_16:\n  pop\n  swap1\n  jump\t// out\n    /* \"--CODEGEN--\":30:914   */\ntag_18:\n  0x00\n    /* \"--CODEGEN--\":167:172   */\n  dup2\n    /* \"--CODEGEN--\":161:173   */\n  sload\n    /* \"--CODEGEN--\":201:202   */\n  0x01\n    /* \"--CODEGEN--\":190:199   */\n  dup2\n    /* \"--CODEGEN--\":186:203   */\n  and\n    /* \"--CODEGEN--\":214:215   */\n  0x00\n    /* \"--CODEGEN--\":209:477   */\n  dup2\n  eq\n  tag_21\n  jumpi\n    /* \"--CODEGEN--\":488:489   */\n  0x01\n    /* \"--CODEGEN--\":483:908   */\n  dup2\n  eq\n  tag_22\n  jumpi\n    /* \"--CODEGEN--\":179:908   */\n  jump(tag_20)\n    /* \"--CODEGEN--\":209:477   */\ntag_21:\n    /* \"--CODEGEN--\":287:291   */\n  0x7f\n    /* \"--CODEGEN--\":283:284   */\n  0x02\n    /* \"--CODEGEN--\":272:281   */\n  dup4\n    /* \"--CODEGEN--\":268:285   */\n  div\n    /* \"--CODEGEN--\":264:292   */\n  and\n    /* \"--CODEGEN--\":306:395   */\n  tag_23\n    /* \"--CODEGEN--\":388:394   */\n  dup2\n    /* \"--CODEGEN--\":383:386   */\n  dup8\n    /* \"--CODEGEN--\":306:395   */\n  tag_24\n  jump\t// in\ntag_23:\n    /* \"--CODEGEN--\":299:395   */\n  swap6\n  pop\n    /* \"--CODEGEN--\":433:437   */\n  0xff\n    /* \"--CODEGEN--\":429:438   */\n  not\n    /* \"--CODEGEN--\":418:427   */\n  dup4\n    /* \"--CODEGEN--\":414:439   */\n  and\n    /* \"--CODEGEN--\":409:412   */\n  dup7\n    /* \"--CODEGEN--\":402:440   */\n  mstore\n    /* \"--CODEGEN--\":463:469   */\n  dup1\n    /* \"--CODEGEN--\":458:461   */\n  dup7\n    /* \"--CODEGEN--\":454:470   */\n  add\n    /* \"--CODEGEN--\":447:470   */\n  swap4\n  pop\n    /* \"--CODEGEN--\":216:477   */\n  pop\n    /* \"--CODEGEN--\":209:477   */\n  jump(tag_20)\n    /* \"--CODEGEN--\":483:908   */\ntag_22:\n    /* \"--CODEGEN--\":552:553   */\n  0x02\n    /* \"--CODEGEN--\":541:550   */\n  dup3\n    /* \"--CODEGEN--\":537:554   */\n  div\n    /* \"--CODEGEN--\":568:657   */\n  tag_25\n    /* \"--CODEGEN--\":650:656   */\n  dup2\n    /* \"--CODEGEN--\":645:648   */\n  dup8\n    /* \"--CODEGEN--\":568:657   */\n  tag_24\n  jump\t// in\ntag_25:\n    /* \"--CODEGEN--\":561:657   */\n  swap6\n  pop\n    /* \"--CODEGEN--\":679:717   */\n  tag_26\n    /* \"--CODEGEN--\":711:716   */\n  dup6\n    /* \"--CODEGEN--\":679:717   */\n  tag_27\n  jump\t// in\ntag_26:\n    /* \"--CODEGEN--\":733:734   */\n  0x00\n    /* \"--CODEGEN--\":741:871   */\ntag_28:\n    /* \"--CODEGEN--\":755:761   */\n  dup3\n    /* \"--CODEGEN--\":752:753   */\n  dup2\n    /* \"--CODEGEN--\":749:762   */\n  lt\n    /* \"--CODEGEN--\":741:871   */\n  iszero\n  tag_30\n  jumpi\n    /* \"--CODEGEN--\":820:827   */\n  dup2\n    /* \"--CODEGEN--\":814:828   */\n  sload\n    /* \"--CODEGEN--\":810:811   */\n  dup2\n    /* \"--CODEGEN--\":805:808   */\n  dup10\n    /* \"--CODEGEN--\":801:812   */\n  add\n    /* \"--CODEGEN--\":794:829   */\n  mstore\n    /* \"--CODEGEN--\":861:862   */\n  0x01\n    /* \"--CODEGEN--\":852:859   */\n  dup3\n    /* \"--CODEGEN--\":848:863   */\n  add\n    /* \"--CODEGEN--\":837:863   */\n  swap2\n  pop\n    /* \"--CODEGEN--\":777:781   */\n  0x20\n    /* \"--CODEGEN--\":774:775   */\n  dup2\n    /* \"--CODEGEN--\":770:782   */\n  add\n    /* \"--CODEGEN--\":765:782   */\n  swap1\n  pop\n    /* \"--CODEGEN--\":741:871   */\n  jump(tag_28)\ntag_30:\n    /* \"--CODEGEN--\":894:900   */\n  dup3\n    /* \"--CODEGEN--\":889:892   */\n  dup9\n    /* \"--CODEGEN--\":885:901   */\n  add\n    /* \"--CODEGEN--\":878:901   */\n  swap6\n  pop\n    /* \"--CODEGEN--\":490:908   */\n  pop\n  pop\n  pop\n    /* \"--CODEGEN--\":179:908   */\ntag_20:\n  pop\n    /* \"--CODEGEN--\":137:914   */\n  pop\n  swap3\n  swap2\n  pop\n  pop\n  jump\t// out\n    /* \"--CODEGEN--\":922:1191   */\ntag_6:\n  0x00\n    /* \"--CODEGEN--\":1074:1166   */\n  tag_32\n    /* \"--CODEGEN--\":1162:1165   */\n  dup3\n    /* \"--CODEGEN--\":1153:1159   */\n  dup5\n    /* \"--CODEGEN--\":1074:1166   */\n  tag_18\n  jump\t// in\ntag_32:\n    /* \"--CODEGEN--\":1067:1166   */\n  swap2\n  pop\n    /* \"--CODEGEN--\":1183:1186   */\n  dup2\n    /* \"--CODEGEN--\":1176:1186   */\n  swap1\n  pop\n    /* \"--CODEGEN--\":1055:1191   */\n  swap3\n  swap2\n  pop\n  pop\n  jump\t// out\n    /* \"--CODEGEN--\":1198:1356   */\ntag_27:\n  0x00\n    /* \"--CODEGEN--\":1266:1269   */\n  dup2\n    /* \"--CODEGEN--\":1258:1269   */\n  swap1\n  pop\n    /* \"--CODEGEN--\":1303:1306   */\n  dup2\n    /* \"--CODEGEN--\":1300:1301   */\n  0x00\n    /* \"--CODEGEN--\":1293:1307   */\n  mstore\n    /* \"--CODEGEN--\":1335:1339   */\n  0x20\n    /* \"--CODEGEN--\":1332:1333   */\n  0x00\n    /* \"--CODEGEN--\":1322:1340   */\n  keccak256\n    /* \"--CODEGEN--\":1314:1340   */\n  swap1\n  pop\n    /* \"--CODEGEN--\":1252:1356   */\n  swap2\n  swap1\n  pop\n  jump\t// out\n    /* \"--CODEGEN--\":1364:1509   */\ntag_24:\n  0x00\n    /* \"--CODEGEN--\":1500:1503   */\n  dup2\n    /* \"--CODEGEN--\":1485:1503   */\n  swap1\n  pop\n    /* \"--CODEGEN--\":1478:1509   */\n  swap3\n  swap2\n  pop\n  pop\n  jump\t// out\n    /* \"Tipos de variables y operadores/mas_variables.sol\":92:838  contract mas_variables{\r... */\ntag_8:\n  dataSize(sub_0)\n  dup1\n  dataOffset(sub_0)\n  0x00\n  codecopy\n  0x00\n  return\nstop\n\nsub_0: assembly {\n        /* \"Tipos de variables y operadores/mas_variables.sol\":92:838  contract mas_variables{\r... */\n      mstore(0x40, 0x80)\n      callvalue\n      dup1\n      iszero\n      tag_1\n      jumpi\n      0x00\n      dup1\n      revert\n    tag_1:\n      pop\n      jumpi(tag_2, lt(calldatasize, 0x04))\n      shr(0xe0, calldataload(0x00))\n      dup1\n      0x8320422e\n      gt\n      tag_11\n      jumpi\n      dup1\n      0x8320422e\n      eq\n      tag_7\n      jumpi\n      dup1\n      0x9ef934e7\n      eq\n      tag_8\n      jumpi\n      dup1\n      0xbc7b35b2\n      eq\n      tag_9\n      jumpi\n      dup1\n      0xe83ec4d2\n      eq\n      tag_10\n      jumpi\n      jump(tag_2)\n    tag_11:\n      dup1\n      0x09bd5a60\n      eq\n      tag_3\n      jumpi\n      dup1\n      0x0a3a9d63\n      eq\n      tag_4\n      jumpi\n      dup1\n      0x519a2c1f\n      eq\n      tag_5\n      jumpi\n      dup1\n      0x5fe4c677\n      eq\n      tag_6\n      jumpi\n    tag_2:\n      0x00\n      dup1\n      revert\n        /* \"Tipos de variables y operadores/mas_variables.sol\":521:578  bytes32 public hash = keccak256(abi.encodePacked(nombre)) */\n    tag_3:\n      tag_12\n      tag_13\n      jump\t// in\n    tag_12:\n      mload(0x40)\n      tag_14\n      swap2\n      swap1\n      tag_15\n      jump\t// in\n    tag_14:\n      mload(0x40)\n      dup1\n      swap2\n      sub\n      swap1\n      return\n        /* \"Tipos de variables y operadores/mas_variables.sol\":185:223  string public saludo = \"Hola como va?\" */\n    tag_4:\n      tag_16\n      tag_17\n      jump\t// in\n    tag_16:\n      mload(0x40)\n      tag_18\n      swap2\n      swap1\n      tag_19\n      jump\t// in\n    tag_18:\n      mload(0x40)\n      dup1\n      swap2\n      sub\n      swap1\n      return\n        /* \"Tipos de variables y operadores/mas_variables.sol\":759:834  address public direccion_local = 0x5B38Da6a701c568545dCfcB03FcB875f56beddC4 */\n    tag_5:\n      tag_20\n      tag_21\n      jump\t// in\n    tag_20:\n      mload(0x40)\n      tag_22\n      swap2\n      swap1\n      tag_23\n      jump\t// in\n    tag_22:\n      mload(0x40)\n      dup1\n      swap2\n      sub\n      swap1\n      return\n        /* \"Tipos de variables y operadores/mas_variables.sol\":362:392  bool public flag_false = false */\n    tag_6:\n      tag_24\n      tag_25\n      jump\t// in\n    tag_24:\n      mload(0x40)\n      tag_26\n      swap2\n      swap1\n      tag_27\n      jump\t// in\n    tag_26:\n      mload(0x40)\n      dup1\n      swap2\n      sub\n      swap1\n      return\n        /* \"Tipos de variables y operadores/mas_variables.sol\":618:691  function ejemploBytes4() public{\r... */\n    tag_7:\n      tag_28\n      tag_29\n      jump\t// in\n    tag_28:\n      stop\n        /* \"Tipos de variables y operadores/mas_variables.sol\":317:355  bool public boolean_inicialized = true */\n    tag_8:\n      tag_30\n      tag_31\n      jump\t// in\n    tag_30:\n      mload(0x40)\n      tag_32\n      swap2\n      swap1\n      tag_27\n      jump\t// in\n    tag_32:\n      mload(0x40)\n      dup1\n      swap2\n      sub\n      swap1\n      return\n        /* \"Tipos de variables y operadores/mas_variables.sol\":482:514  string public nombre = \"facundo\" */\n    tag_9:\n      tag_33\n      tag_34\n      jump\t// in\n    tag_33:\n      mload(0x40)\n      tag_35\n      swap2\n      swap1\n      tag_19\n      jump\t// in\n    tag_35:\n      mload(0x40)\n      dup1\n      swap2\n      sub\n      swap1\n      return\n        /* \"Tipos de variables y operadores/mas_variables.sol\":230:261  string public string_vacio = \"\" */\n    tag_10:\n      tag_36\n      tag_37\n      jump\t// in\n    tag_36:\n      mload(0x40)\n      tag_38\n      swap2\n      swap1\n      tag_19\n      jump\t// in\n    tag_38:\n      mload(0x40)\n      dup1\n      swap2\n      sub\n      swap1\n      return\n        /* \"Tipos de variables y operadores/mas_variables.sol\":521:578  bytes32 public hash = keccak256(abi.encodePacked(nombre)) */\n    tag_13:\n      sload(0x07)\n      dup2\n      jump\t// out\n        /* \"Tipos de variables y operadores/mas_variables.sol\":185:223  string public saludo = \"Hola como va?\" */\n    tag_17:\n      0x01\n      dup1\n      sload\n      0x01\n      dup2\n      0x01\n      and\n      iszero\n      0x0100\n      mul\n      sub\n      and\n      0x02\n      swap1\n      div\n      dup1\n      0x1f\n      add\n      0x20\n      dup1\n      swap2\n      div\n      mul\n      0x20\n      add\n      mload(0x40)\n      swap1\n      dup2\n      add\n      0x40\n      mstore\n      dup1\n      swap3\n      swap2\n      swap1\n      dup2\n      dup2\n      mstore\n      0x20\n      add\n      dup3\n      dup1\n      sload\n      0x01\n      dup2\n      0x01\n      and\n      iszero\n      0x0100\n      mul\n      sub\n      and\n      0x02\n      swap1\n      div\n      dup1\n      iszero\n      tag_39\n      jumpi\n      dup1\n      0x1f\n      lt\n      tag_40\n      jumpi\n      0x0100\n      dup1\n      dup4\n      sload\n      div\n      mul\n      dup4\n      mstore\n      swap2\n      0x20\n      add\n      swap2\n      jump(tag_39)\n    tag_40:\n      dup3\n      add\n      swap2\n      swap1\n      0x00\n      mstore\n      keccak256(0x00, 0x20)\n      swap1\n    tag_41:\n      dup2\n      sload\n      dup2\n      mstore\n      swap1\n      0x01\n      add\n      swap1\n      0x20\n      add\n      dup1\n      dup4\n      gt\n      tag_41\n      jumpi\n      dup3\n      swap1\n      sub\n      0x1f\n      and\n      dup3\n      add\n      swap2\n    tag_39:\n      pop\n      pop\n      pop\n      pop\n      pop\n      dup2\n      jump\t// out\n        /* \"Tipos de variables y operadores/mas_variables.sol\":759:834  address public direccion_local = 0x5B38Da6a701c568545dCfcB03FcB875f56beddC4 */\n    tag_21:\n      0x09\n      0x00\n      swap1\n      sload\n      swap1\n      0x0100\n      exp\n      swap1\n      div\n      0xffffffffffffffffffffffffffffffffffffffff\n      and\n      dup2\n      jump\t// out\n        /* \"Tipos de variables y operadores/mas_variables.sol\":362:392  bool public flag_false = false */\n    tag_25:\n      0x03\n      0x02\n      swap1\n      sload\n      swap1\n      0x0100\n      exp\n      swap1\n      div\n      0xff\n      and\n      dup2\n      jump\t// out\n        /* \"Tipos de variables y operadores/mas_variables.sol\":618:691  function ejemploBytes4() public{\r... */\n    tag_29:\n        /* \"Tipos de variables y operadores/mas_variables.sol\":676:683  msg.sig */\n      and(0xffffffff00000000000000000000000000000000000000000000000000000000, calldataload(0x00))\n        /* \"Tipos de variables y operadores/mas_variables.sol\":660:673  identificador */\n      0x08\n      0x00\n        /* \"Tipos de variables y operadores/mas_variables.sol\":660:683  identificador = msg.sig */\n      0x0100\n      exp\n      dup2\n      sload\n      dup2\n      0xffffffff\n      mul\n      not\n      and\n      swap1\n      dup4\n      0xe0\n      shr\n      mul\n      or\n      swap1\n      sstore\n      pop\n        /* \"Tipos de variables y operadores/mas_variables.sol\":618:691  function ejemploBytes4() public{\r... */\n      jump\t// out\n        /* \"Tipos de variables y operadores/mas_variables.sol\":317:355  bool public boolean_inicialized = true */\n    tag_31:\n      0x03\n      0x01\n      swap1\n      sload\n      swap1\n      0x0100\n      exp\n      swap1\n      div\n      0xff\n      and\n      dup2\n      jump\t// out\n        /* \"Tipos de variables y operadores/mas_variables.sol\":482:514  string public nombre = \"facundo\" */\n    tag_34:\n      0x06\n      dup1\n      sload\n      0x01\n      dup2\n      0x01\n      and\n      iszero\n      0x0100\n      mul\n      sub\n      and\n      0x02\n      swap1\n      div\n      dup1\n      0x1f\n      add\n      0x20\n      dup1\n      swap2\n      div\n      mul\n      0x20\n      add\n      mload(0x40)\n      swap1\n      dup2\n      add\n      0x40\n      mstore\n      dup1\n      swap3\n      swap2\n      swap1\n      dup2\n      dup2\n      mstore\n      0x20\n      add\n      dup3\n      dup1\n      sload\n      0x01\n      dup2\n      0x01\n      and\n      iszero\n      0x0100\n      mul\n      sub\n      and\n      0x02\n      swap1\n      div\n      dup1\n      iszero\n      tag_43\n      jumpi\n      dup1\n      0x1f\n      lt\n      tag_44\n      jumpi\n      0x0100\n      dup1\n      dup4\n      sload\n      div\n      mul\n      dup4\n      mstore\n      swap2\n      0x20\n      add\n      swap2\n      jump(tag_43)\n    tag_44:\n      dup3\n      add\n      swap2\n      swap1\n      0x00\n      mstore\n      keccak256(0x00, 0x20)\n      swap1\n    tag_45:\n      dup2\n      sload\n      dup2\n      mstore\n      swap1\n      0x01\n      add\n      swap1\n      0x20\n      add\n      dup1\n      dup4\n      gt\n      tag_45\n      jumpi\n      dup3\n      swap1\n      sub\n      0x1f\n      and\n      dup3\n      add\n      swap2\n    tag_43:\n      pop\n      pop\n      pop\n      pop\n      pop\n      dup2\n      jump\t// out\n        /* \"Tipos de variables y operadores/mas_variables.sol\":230:261  string public string_vacio = \"\" */\n    tag_37:\n      0x02\n      dup1\n      sload\n      0x01\n      dup2\n      0x01\n      and\n      iszero\n      0x0100\n      mul\n      sub\n      and\n      0x02\n      swap1\n      div\n      dup1\n      0x1f\n      add\n      0x20\n      dup1\n      swap2\n      div\n      mul\n      0x20\n      add\n      mload(0x40)\n      swap1\n      dup2\n      add\n      0x40\n      mstore\n      dup1\n      swap3\n      swap2\n      swap1\n      dup2\n      dup2\n      mstore\n      0x20\n      add\n      dup3\n      dup1\n      sload\n      0x01\n      dup2\n      0x01\n      and\n      iszero\n      0x0100\n      mul\n      sub\n      and\n      0x02\n      swap1\n      div\n      dup1\n      iszero\n      tag_46\n      jumpi\n      dup1\n      0x1f\n      lt\n      tag_47\n      jumpi\n      0x0100\n      dup1\n      dup4\n      sload\n      div\n      mul\n      dup4\n      mstore\n      swap2\n      0x20\n      add\n      swap2\n      jump(tag_46)\n    tag_47:\n      dup3\n      add\n      swap2\n      swap1\n      0x00\n      mstore\n      keccak256(0x00, 0x20)\n      swap1\n    tag_48:\n      dup2\n      sload\n      dup2\n      mstore\n      swap1\n      0x01\n      add\n      swap1\n      0x20\n      add\n      dup1\n      dup4\n      gt\n      tag_48\n      jumpi\n      dup3\n      swap1\n      sub\n      0x1f\n      and\n      dup3\n      add\n      swap2\n    tag_46:\n      pop\n      pop\n      pop\n      pop\n      pop\n      dup2\n      jump\t// out\n        /* \"--CODEGEN--\":5:118   */\n    tag_50:\n        /* \"--CODEGEN--\":88:112   */\n      tag_52\n        /* \"--CODEGEN--\":106:111   */\n      dup2\n        /* \"--CODEGEN--\":88:112   */\n      tag_53\n      jump\t// in\n    tag_52:\n        /* \"--CODEGEN--\":83:86   */\n      dup3\n        /* \"--CODEGEN--\":76:113   */\n      mstore\n        /* \"--CODEGEN--\":70:118   */\n      pop\n      pop\n      jump\t// out\n        /* \"--CODEGEN--\":125:229   */\n    tag_54:\n        /* \"--CODEGEN--\":202:223   */\n      tag_56\n        /* \"--CODEGEN--\":217:222   */\n      dup2\n        /* \"--CODEGEN--\":202:223   */\n      tag_57\n      jump\t// in\n    tag_56:\n        /* \"--CODEGEN--\":197:200   */\n      dup3\n        /* \"--CODEGEN--\":190:224   */\n      mstore\n        /* \"--CODEGEN--\":184:229   */\n      pop\n      pop\n      jump\t// out\n        /* \"--CODEGEN--\":236:349   */\n    tag_58:\n        /* \"--CODEGEN--\":319:343   */\n      tag_60\n        /* \"--CODEGEN--\":337:342   */\n      dup2\n        /* \"--CODEGEN--\":319:343   */\n      tag_61\n      jump\t// in\n    tag_60:\n        /* \"--CODEGEN--\":314:317   */\n      dup3\n        /* \"--CODEGEN--\":307:344   */\n      mstore\n        /* \"--CODEGEN--\":301:349   */\n      pop\n      pop\n      jump\t// out\n        /* \"--CODEGEN--\":356:703   */\n    tag_62:\n      0x00\n        /* \"--CODEGEN--\":468:507   */\n      tag_64\n        /* \"--CODEGEN--\":501:506   */\n      dup3\n        /* \"--CODEGEN--\":468:507   */\n      tag_65\n      jump\t// in\n    tag_64:\n        /* \"--CODEGEN--\":519:590   */\n      tag_66\n        /* \"--CODEGEN--\":583:589   */\n      dup2\n        /* \"--CODEGEN--\":578:581   */\n      dup6\n        /* \"--CODEGEN--\":519:590   */\n      tag_67\n      jump\t// in\n    tag_66:\n        /* \"--CODEGEN--\":512:590   */\n      swap4\n      pop\n        /* \"--CODEGEN--\":595:647   */\n      tag_68\n        /* \"--CODEGEN--\":640:646   */\n      dup2\n        /* \"--CODEGEN--\":635:638   */\n      dup6\n        /* \"--CODEGEN--\":628:632   */\n      0x20\n        /* \"--CODEGEN--\":621:626   */\n      dup7\n        /* \"--CODEGEN--\":617:633   */\n      add\n        /* \"--CODEGEN--\":595:647   */\n      tag_69\n      jump\t// in\n    tag_68:\n        /* \"--CODEGEN--\":668:697   */\n      tag_70\n        /* \"--CODEGEN--\":690:696   */\n      dup2\n        /* \"--CODEGEN--\":668:697   */\n      tag_71\n      jump\t// in\n    tag_70:\n        /* \"--CODEGEN--\":663:666   */\n      dup5\n        /* \"--CODEGEN--\":659:698   */\n      add\n        /* \"--CODEGEN--\":652:698   */\n      swap2\n      pop\n        /* \"--CODEGEN--\":448:703   */\n      pop\n      swap3\n      swap2\n      pop\n      pop\n      jump\t// out\n        /* \"--CODEGEN--\":710:932   */\n    tag_23:\n      0x00\n        /* \"--CODEGEN--\":837:839   */\n      0x20\n        /* \"--CODEGEN--\":826:835   */\n      dup3\n        /* \"--CODEGEN--\":822:840   */\n      add\n        /* \"--CODEGEN--\":814:840   */\n      swap1\n      pop\n        /* \"--CODEGEN--\":851:922   */\n      tag_73\n        /* \"--CODEGEN--\":919:920   */\n      0x00\n        /* \"--CODEGEN--\":908:917   */\n      dup4\n        /* \"--CODEGEN--\":904:921   */\n      add\n        /* \"--CODEGEN--\":895:901   */\n      dup5\n        /* \"--CODEGEN--\":851:922   */\n      tag_50\n      jump\t// in\n    tag_73:\n        /* \"--CODEGEN--\":808:932   */\n      swap3\n      swap2\n      pop\n      pop\n      jump\t// out\n        /* \"--CODEGEN--\":939:1149   */\n    tag_27:\n      0x00\n        /* \"--CODEGEN--\":1060:1062   */\n      0x20\n        /* \"--CODEGEN--\":1049:1058   */\n      dup3\n        /* \"--CODEGEN--\":1045:1063   */\n      add\n        /* \"--CODEGEN--\":1037:1063   */\n      swap1\n      pop\n        /* \"--CODEGEN--\":1074:1139   */\n      tag_75\n        /* \"--CODEGEN--\":1136:1137   */\n      0x00\n        /* \"--CODEGEN--\":1125:1134   */\n      dup4\n        /* \"--CODEGEN--\":1121:1138   */\n      add\n        /* \"--CODEGEN--\":1112:1118   */\n      dup5\n        /* \"--CODEGEN--\":1074:1139   */\n      tag_54\n      jump\t// in\n    tag_75:\n        /* \"--CODEGEN--\":1031:1149   */\n      swap3\n      swap2\n      pop\n      pop\n      jump\t// out\n        /* \"--CODEGEN--\":1156:1378   */\n    tag_15:\n      0x00\n        /* \"--CODEGEN--\":1283:1285   */\n      0x20\n        /* \"--CODEGEN--\":1272:1281   */\n      dup3\n        /* \"--CODEGEN--\":1268:1286   */\n      add\n        /* \"--CODEGEN--\":1260:1286   */\n      swap1\n      pop\n        /* \"--CODEGEN--\":1297:1368   */\n      tag_77\n        /* \"--CODEGEN--\":1365:1366   */\n      0x00\n        /* \"--CODEGEN--\":1354:1363   */\n      dup4\n        /* \"--CODEGEN--\":1350:1367   */\n      add\n        /* \"--CODEGEN--\":1341:1347   */\n      dup5\n        /* \"--CODEGEN--\":1297:1368   */\n      tag_58\n      jump\t// in\n    tag_77:\n        /* \"--CODEGEN--\":1254:1378   */\n      swap3\n      swap2\n      pop\n      pop\n      jump\t// out\n        /* \"--CODEGEN--\":1385:1695   */\n    tag_19:\n      0x00\n        /* \"--CODEGEN--\":1532:1534   */\n      0x20\n        /* \"--CODEGEN--\":1521:1530   */\n      dup3\n        /* \"--CODEGEN--\":1517:1535   */\n      add\n        /* \"--CODEGEN--\":1509:1535   */\n      swap1\n      pop\n        /* \"--CODEGEN--\":1582:1591   */\n      dup2\n        /* \"--CODEGEN--\":1576:1580   */\n      dup2\n        /* \"--CODEGEN--\":1572:1592   */\n      sub\n        /* \"--CODEGEN--\":1568:1569   */\n      0x00\n        /* \"--CODEGEN--\":1557:1566   */\n      dup4\n        /* \"--CODEGEN--\":1553:1570   */\n      add\n        /* \"--CODEGEN--\":1546:1593   */\n      mstore\n        /* \"--CODEGEN--\":1607:1685   */\n      tag_79\n        /* \"--CODEGEN--\":1680:1684   */\n      dup2\n        /* \"--CODEGEN--\":1671:1677   */\n      dup5\n        /* \"--CODEGEN--\":1607:1685   */\n      tag_62\n      jump\t// in\n    tag_79:\n        /* \"--CODEGEN--\":1599:1685   */\n      swap1\n      pop\n        /* \"--CODEGEN--\":1503:1695   */\n      swap3\n      swap2\n      pop\n      pop\n      jump\t// out\n        /* \"--CODEGEN--\":1702:1824   */\n    tag_65:\n      0x00\n        /* \"--CODEGEN--\":1796:1801   */\n      dup2\n        /* \"--CODEGEN--\":1790:1802   */\n      mload\n        /* \"--CODEGEN--\":1780:1802   */\n      swap1\n      pop\n        /* \"--CODEGEN--\":1761:1824   */\n      swap2\n      swap1\n      pop\n      jump\t// out\n        /* \"--CODEGEN--\":1832:1995   */\n    tag_67:\n      0x00\n        /* \"--CODEGEN--\":1947:1953   */\n      dup3\n        /* \"--CODEGEN--\":1942:1945   */\n      dup3\n        /* \"--CODEGEN--\":1935:1954   */\n      mstore\n        /* \"--CODEGEN--\":1984:1988   */\n      0x20\n        /* \"--CODEGEN--\":1979:1982   */\n      dup3\n        /* \"--CODEGEN--\":1975:1989   */\n      add\n        /* \"--CODEGEN--\":1960:1989   */\n      swap1\n      pop\n        /* \"--CODEGEN--\":1928:1995   */\n      swap3\n      swap2\n      pop\n      pop\n      jump\t// out\n        /* \"--CODEGEN--\":2003:2094   */\n    tag_53:\n      0x00\n        /* \"--CODEGEN--\":2065:2089   */\n      tag_83\n        /* \"--CODEGEN--\":2083:2088   */\n      dup3\n        /* \"--CODEGEN--\":2065:2089   */\n      tag_84\n      jump\t// in\n    tag_83:\n        /* \"--CODEGEN--\":2054:2089   */\n      swap1\n      pop\n        /* \"--CODEGEN--\":2048:2094   */\n      swap2\n      swap1\n      pop\n      jump\t// out\n        /* \"--CODEGEN--\":2101:2186   */\n    tag_57:\n      0x00\n        /* \"--CODEGEN--\":2174:2179   */\n      dup2\n        /* \"--CODEGEN--\":2167:2180   */\n      iszero\n        /* \"--CODEGEN--\":2160:2181   */\n      iszero\n        /* \"--CODEGEN--\":2149:2181   */\n      swap1\n      pop\n        /* \"--CODEGEN--\":2143:2186   */\n      swap2\n      swap1\n      pop\n      jump\t// out\n        /* \"--CODEGEN--\":2193:2265   */\n    tag_61:\n      0x00\n        /* \"--CODEGEN--\":2255:2260   */\n      dup2\n        /* \"--CODEGEN--\":2244:2260   */\n      swap1\n      pop\n        /* \"--CODEGEN--\":2238:2265   */\n      swap2\n      swap1\n      pop\n      jump\t// out\n        /* \"--CODEGEN--\":2272:2393   */\n    tag_84:\n      0x00\n        /* \"--CODEGEN--\":2345:2387   */\n      0xffffffffffffffffffffffffffffffffffffffff\n        /* \"--CODEGEN--\":2338:2343   */\n      dup3\n        /* \"--CODEGEN--\":2334:2388   */\n      and\n        /* \"--CODEGEN--\":2323:2388   */\n      swap1\n      pop\n        /* \"--CODEGEN--\":2317:2393   */\n      swap2\n      swap1\n      pop\n      jump\t// out\n        /* \"--CODEGEN--\":2401:2669   */\n    tag_69:\n        /* \"--CODEGEN--\":2466:2467   */\n      0x00\n        /* \"--CODEGEN--\":2473:2574   */\n    tag_89:\n        /* \"--CODEGEN--\":2487:2493   */\n      dup4\n        /* \"--CODEGEN--\":2484:2485   */\n      dup2\n        /* \"--CODEGEN--\":2481:2494   */\n      lt\n        /* \"--CODEGEN--\":2473:2574   */\n      iszero\n      tag_91\n      jumpi\n        /* \"--CODEGEN--\":2563:2564   */\n      dup1\n        /* \"--CODEGEN--\":2558:2561   */\n      dup3\n        /* \"--CODEGEN--\":2554:2565   */\n      add\n        /* \"--CODEGEN--\":2548:2566   */\n      mload\n        /* \"--CODEGEN--\":2544:2545   */\n      dup2\n        /* \"--CODEGEN--\":2539:2542   */\n      dup5\n        /* \"--CODEGEN--\":2535:2546   */\n      add\n        /* \"--CODEGEN--\":2528:2567   */\n      mstore\n        /* \"--CODEGEN--\":2509:2511   */\n      0x20\n        /* \"--CODEGEN--\":2506:2507   */\n      dup2\n        /* \"--CODEGEN--\":2502:2512   */\n      add\n        /* \"--CODEGEN--\":2497:2512   */\n      swap1\n      pop\n        /* \"--CODEGEN--\":2473:2574   */\n      jump(tag_89)\n    tag_91:\n        /* \"--CODEGEN--\":2589:2595   */\n      dup4\n        /* \"--CODEGEN--\":2586:2587   */\n      dup2\n        /* \"--CODEGEN--\":2583:2596   */\n      gt\n        /* \"--CODEGEN--\":2580:2582   */\n      iszero\n      tag_92\n      jumpi\n        /* \"--CODEGEN--\":2654:2655   */\n      0x00\n        /* \"--CODEGEN--\":2645:2651   */\n      dup5\n        /* \"--CODEGEN--\":2640:2643   */\n      dup5\n        /* \"--CODEGEN--\":2636:2652   */\n      add\n        /* \"--CODEGEN--\":2629:2656   */\n      mstore\n        /* \"--CODEGEN--\":2580:2582   */\n    tag_92:\n        /* \"--CODEGEN--\":2450:2669   */\n      pop\n      pop\n      pop\n      pop\n      jump\t// out\n        /* \"--CODEGEN--\":2677:2774   */\n    tag_71:\n      0x00\n        /* \"--CODEGEN--\":2765:2767   */\n      0x1f\n        /* \"--CODEGEN--\":2761:2768   */\n      not\n        /* \"--CODEGEN--\":2756:2758   */\n      0x1f\n        /* \"--CODEGEN--\":2749:2754   */\n      dup4\n        /* \"--CODEGEN--\":2745:2759   */\n      add\n        /* \"--CODEGEN--\":2741:2769   */\n      and\n        /* \"--CODEGEN--\":2731:2769   */\n      swap1\n      pop\n        /* \"--CODEGEN--\":2725:2774   */\n      swap2\n      swap1\n      pop\n      jump\t// out\n\n    auxdata: 0xa2646970667358221220527111c3513b129b6d4e31f5c1447eabd17db29bb39d4d8ceb45bdcfb8de84cc64736f6c634300060c0033\n}\n",
				"bytecode": {
					"linkReferences": {},
					"object": "60806040526040518060400160405280600d81526020017f486f6c6120636f6d6f2076613f000000000000000000000000000000000000008152506001908051906020019061004f92919061018a565b50604051806020016040528060008152506002908051906020019061007592919061018a565b506001600360016101000a81548160ff0219169083151502179055506000600360026101000a81548160ff0219169083151502179055506040518060400160405280600781526020017f666163756e646f00000000000000000000000000000000000000000000000000815250600690805190602001906100f792919061018a565b50600660405160200161010a91906102b5565b60405160208183030381529060405280519060200120600755735b38da6a701c568545dcfcb03fcb875f56beddc4600960006101000a81548173ffffffffffffffffffffffffffffffffffffffff021916908373ffffffffffffffffffffffffffffffffffffffff16021790555034801561018457600080fd5b506102ec565b828054600181600116156101000203166002900490600052602060002090601f016020900481019282601f106101cb57805160ff19168380011785556101f9565b828001600101855582156101f9579182015b828111156101f85782518255916020019190600101906101dd565b5b509050610206919061020a565b5090565b5b8082111561022357600081600090555060010161020b565b5090565b6000815460018116600081146102445760018114610269576102ad565b607f600283041661025581876102e1565b955060ff19831686528086019350506102ad565b6002820461027781876102e1565b9550610282856102cc565b60005b828110156102a457815481890152600182019150602081019050610285565b82880195505050505b505092915050565b60006102c18284610227565b915081905092915050565b60008190508160005260206000209050919050565b600081905092915050565b610590806102fb6000396000f3fe608060405234801561001057600080fd5b50600436106100885760003560e01c80638320422e1161005b5780638320422e146101055780639ef934e71461010f578063bc7b35b21461012d578063e83ec4d21461014b57610088565b806309bd5a601461008d5780630a3a9d63146100ab578063519a2c1f146100c95780635fe4c677146100e7575b600080fd5b610095610169565b6040516100a29190610475565b60405180910390f35b6100b361016f565b6040516100c09190610490565b60405180910390f35b6100d161020d565b6040516100de919061043f565b60405180910390f35b6100ef610233565b6040516100fc919061045a565b60405180910390f35b61010d610246565b005b61011761028a565b604051610124919061045a565b60405180910390f35b61013561029d565b6040516101429190610490565b60405180910390f35b61015361033b565b6040516101609190610490565b60405180910390f35b60075481565b60018054600181600116156101000203166002900480601f0160208091040260200160405190810160405280929190818152602001828054600181600116156101000203166002900480156102055780601f106101da57610100808354040283529160200191610205565b820191906000526020600020905b8154815290600101906020018083116101e857829003601f168201915b505050505081565b600960009054906101000a900473ffffffffffffffffffffffffffffffffffffffff1681565b600360029054906101000a900460ff1681565b6000357fffffffff0000000000000000000000000000000000000000000000000000000016600860006101000a81548163ffffffff021916908360e01c0217905550565b600360019054906101000a900460ff1681565b60068054600181600116156101000203166002900480601f0160208091040260200160405190810160405280929190818152602001828054600181600116156101000203166002900480156103335780601f1061030857610100808354040283529160200191610333565b820191906000526020600020905b81548152906001019060200180831161031657829003601f168201915b505050505081565b60028054600181600116156101000203166002900480601f0160208091040260200160405190810160405280929190818152602001828054600181600116156101000203166002900480156103d15780601f106103a6576101008083540402835291602001916103d1565b820191906000526020600020905b8154815290600101906020018083116103b457829003601f168201915b505050505081565b6103e2816104ce565b82525050565b6103f1816104e0565b82525050565b610400816104ec565b82525050565b6000610411826104b2565b61041b81856104bd565b935061042b818560208601610516565b61043481610549565b840191505092915050565b600060208201905061045460008301846103d9565b92915050565b600060208201905061046f60008301846103e8565b92915050565b600060208201905061048a60008301846103f7565b92915050565b600060208201905081810360008301526104aa8184610406565b905092915050565b600081519050919050565b600082825260208201905092915050565b60006104d9826104f6565b9050919050565b60008115159050919050565b6000819050919050565b600073ffffffffffffffffffffffffffffffffffffffff82169050919050565b60005b83811015610534578082015181840152602081019050610519565b83811115610543576000848401525b50505050565b6000601f19601f830116905091905056fea2646970667358221220527111c3513b129b6d4e31f5c1447eabd17db29bb39d4d8ceb45bdcfb8de84cc64736f6c634300060c0033",
					"opcodes": "PUSH1 0x80 PUSH1 0x40 MSTORE PUSH1 0x40 MLOAD DUP1 PUSH1 0x40 ADD PUSH1 0x40 MSTORE DUP1 PUSH1 0xD DUP2 MSTORE PUSH1 0x20 ADD PUSH32 0x486F6C6120636F6D6F2076613F00000000000000000000000000000000000000 DUP2 MSTORE POP PUSH1 0x1 SWAP1 DUP1 MLOAD SWAP1 PUSH1 0x20 ADD SWAP1 PUSH2 0x4F SWAP3 SWAP2 SWAP1 PUSH2 0x18A JUMP JUMPDEST POP PUSH1 0x40 MLOAD DUP1 PUSH1 0x20 ADD PUSH1 0x40 MSTORE DUP1 PUSH1 0x0 DUP2 MSTORE POP PUSH1 0x2 SWAP1 DUP1 MLOAD SWAP1 PUSH1 0x20 ADD SWAP1 PUSH2 0x75 SWAP3 SWAP2 SWAP1 PUSH2 0x18A JUMP JUMPDEST POP PUSH1 0x1 PUSH1 0x3 PUSH1 0x1 PUSH2 0x100 EXP DUP2 SLOAD DUP2 PUSH1 0xFF MUL NOT AND SWAP1 DUP4 ISZERO ISZERO MUL OR SWAP1 SSTORE POP PUSH1 0x0 PUSH1 0x3 PUSH1 0x2 PUSH2 0x100 EXP DUP2 SLOAD DUP2 PUSH1 0xFF MUL NOT AND SWAP1 DUP4 ISZERO ISZERO MUL OR SWAP1 SSTORE POP PUSH1 0x40 MLOAD DUP1 PUSH1 0x40 ADD PUSH1 0x40 MSTORE DUP1 PUSH1 0x7 DUP2 MSTORE PUSH1 0x20 ADD PUSH32 0x666163756E646F00000000000000000000000000000000000000000000000000 DUP2 MSTORE POP PUSH1 0x6 SWAP1 DUP1 MLOAD SWAP1 PUSH1 0x20 ADD SWAP1 PUSH2 0xF7 SWAP3 SWAP2 SWAP1 PUSH2 0x18A JUMP JUMPDEST POP PUSH1 0x6 PUSH1 0x40 MLOAD PUSH1 0x20 ADD PUSH2 0x10A SWAP2 SWAP1 PUSH2 0x2B5 JUMP JUMPDEST PUSH1 0x40 MLOAD PUSH1 0x20 DUP2 DUP4 SUB SUB DUP2 MSTORE SWAP1 PUSH1 0x40 MSTORE DUP1 MLOAD SWAP1 PUSH1 0x20 ADD KECCAK256 PUSH1 0x7 SSTORE PUSH20 0x5B38DA6A701C568545DCFCB03FCB875F56BEDDC4 PUSH1 0x9 PUSH1 0x0 PUSH2 0x100 EXP DUP2 SLOAD DUP2 PUSH20 0xFFFFFFFFFFFFFFFFFFFFFFFFFFFFFFFFFFFFFFFF MUL NOT AND SWAP1 DUP4 PUSH20 0xFFFFFFFFFFFFFFFFFFFFFFFFFFFFFFFFFFFFFFFF AND MUL OR SWAP1 SSTORE POP CALLVALUE DUP1 ISZERO PUSH2 0x184 JUMPI PUSH1 0x0 DUP1 REVERT JUMPDEST POP PUSH2 0x2EC JUMP JUMPDEST DUP3 DUP1 SLOAD PUSH1 0x1 DUP2 PUSH1 0x1 AND ISZERO PUSH2 0x100 MUL SUB AND PUSH1 0x2 SWAP1 DIV SWAP1 PUSH1 0x0 MSTORE PUSH1 0x20 PUSH1 0x0 KECCAK256 SWAP1 PUSH1 0x1F ADD PUSH1 0x20 SWAP1 DIV DUP2 ADD SWAP3 DUP3 PUSH1 0x1F LT PUSH2 0x1CB JUMPI DUP1 MLOAD PUSH1 0xFF NOT AND DUP4 DUP1 ADD OR DUP6 SSTORE PUSH2 0x1F9 JUMP JUMPDEST DUP3 DUP1 ADD PUSH1 0x1 ADD DUP6 SSTORE DUP3 ISZERO PUSH2 0x1F9 JUMPI SWAP2 DUP3 ADD JUMPDEST DUP3 DUP2 GT ISZERO PUSH2 0x1F8 JUMPI DUP3 MLOAD DUP3 SSTORE SWAP2 PUSH1 0x20 ADD SWAP2 SWAP1 PUSH1 0x1 ADD SWAP1 PUSH2 0x1DD JUMP JUMPDEST JUMPDEST POP SWAP1 POP PUSH2 0x206 SWAP2 SWAP1 PUSH2 0x20A JUMP JUMPDEST POP SWAP1 JUMP JUMPDEST JUMPDEST DUP1 DUP3 GT ISZERO PUSH2 0x223 JUMPI PUSH1 0x0 DUP2 PUSH1 0x0 SWAP1 SSTORE POP PUSH1 0x1 ADD PUSH2 0x20B JUMP JUMPDEST POP SWAP1 JUMP JUMPDEST PUSH1 0x0 DUP2 SLOAD PUSH1 0x1 DUP2 AND PUSH1 0x0 DUP2 EQ PUSH2 0x244 JUMPI PUSH1 0x1 DUP2 EQ PUSH2 0x269 JUMPI PUSH2 0x2AD JUMP JUMPDEST PUSH1 0x7F PUSH1 0x2 DUP4 DIV AND PUSH2 0x255 DUP2 DUP8 PUSH2 0x2E1 JUMP JUMPDEST SWAP6 POP PUSH1 0xFF NOT DUP4 AND DUP7 MSTORE DUP1 DUP7 ADD SWAP4 POP POP PUSH2 0x2AD JUMP JUMPDEST PUSH1 0x2 DUP3 DIV PUSH2 0x277 DUP2 DUP8 PUSH2 0x2E1 JUMP JUMPDEST SWAP6 POP PUSH2 0x282 DUP6 PUSH2 0x2CC JUMP JUMPDEST PUSH1 0x0 JUMPDEST DUP3 DUP2 LT ISZERO PUSH2 0x2A4 JUMPI DUP2 SLOAD DUP2 DUP10 ADD MSTORE PUSH1 0x1 DUP3 ADD SWAP2 POP PUSH1 0x20 DUP2 ADD SWAP1 POP PUSH2 0x285 JUMP JUMPDEST DUP3 DUP9 ADD SWAP6 POP POP POP POP JUMPDEST POP POP SWAP3 SWAP2 POP POP JUMP JUMPDEST PUSH1 0x0 PUSH2 0x2C1 DUP3 DUP5 PUSH2 0x227 JUMP JUMPDEST SWAP2 POP DUP2 SWAP1 POP SWAP3 SWAP2 POP POP JUMP JUMPDEST PUSH1 0x0 DUP2 SWAP1 POP DUP2 PUSH1 0x0 MSTORE PUSH1 0x20 PUSH1 0x0 KECCAK256 SWAP1 POP SWAP2 SWAP1 POP JUMP JUMPDEST PUSH1 0x0 DUP2 SWAP1 POP SWAP3 SWAP2 POP POP JUMP JUMPDEST PUSH2 0x590 DUP1 PUSH2 0x2FB PUSH1 0x0 CODECOPY PUSH1 0x0 RETURN INVALID PUSH1 0x80 PUSH1 0x40 MSTORE CALLVALUE DUP1 ISZERO PUSH2 0x10 JUMPI PUSH1 0x0 DUP1 REVERT JUMPDEST POP PUSH1 0x4 CALLDATASIZE LT PUSH2 0x88 JUMPI PUSH1 0x0 CALLDATALOAD PUSH1 0xE0 SHR DUP1 PUSH4 0x8320422E GT PUSH2 0x5B JUMPI DUP1 PUSH4 0x8320422E EQ PUSH2 0x105 JUMPI DUP1 PUSH4 0x9EF934E7 EQ PUSH2 0x10F JUMPI DUP1 PUSH4 0xBC7B35B2 EQ PUSH2 0x12D JUMPI DUP1 PUSH4 0xE83EC4D2 EQ PUSH2 0x14B JUMPI PUSH2 0x88 JUMP JUMPDEST DUP1 PUSH4 0x9BD5A60 EQ PUSH2 0x8D JUMPI DUP1 PUSH4 0xA3A9D63 EQ PUSH2 0xAB JUMPI DUP1 PUSH4 0x519A2C1F EQ PUSH2 0xC9 JUMPI DUP1 PUSH4 0x5FE4C677 EQ PUSH2 0xE7 JUMPI JUMPDEST PUSH1 0x0 DUP1 REVERT JUMPDEST PUSH2 0x95 PUSH2 0x169 JUMP JUMPDEST PUSH1 0x40 MLOAD PUSH2 0xA2 SWAP2 SWAP1 PUSH2 0x475 JUMP JUMPDEST PUSH1 0x40 MLOAD DUP1 SWAP2 SUB SWAP1 RETURN JUMPDEST PUSH2 0xB3 PUSH2 0x16F JUMP JUMPDEST PUSH1 0x40 MLOAD PUSH2 0xC0 SWAP2 SWAP1 PUSH2 0x490 JUMP JUMPDEST PUSH1 0x40 MLOAD DUP1 SWAP2 SUB SWAP1 RETURN JUMPDEST PUSH2 0xD1 PUSH2 0x20D JUMP JUMPDEST PUSH1 0x40 MLOAD PUSH2 0xDE SWAP2 SWAP1 PUSH2 0x43F JUMP JUMPDEST PUSH1 0x40 MLOAD DUP1 SWAP2 SUB SWAP1 RETURN JUMPDEST PUSH2 0xEF PUSH2 0x233 JUMP JUMPDEST PUSH1 0x40 MLOAD PUSH2 0xFC SWAP2 SWAP1 PUSH2 0x45A JUMP JUMPDEST PUSH1 0x40 MLOAD DUP1 SWAP2 SUB SWAP1 RETURN JUMPDEST PUSH2 0x10D PUSH2 0x246 JUMP JUMPDEST STOP JUMPDEST PUSH2 0x117 PUSH2 0x28A JUMP JUMPDEST PUSH1 0x40 MLOAD PUSH2 0x124 SWAP2 SWAP1 PUSH2 0x45A JUMP JUMPDEST PUSH1 0x40 MLOAD DUP1 SWAP2 SUB SWAP1 RETURN JUMPDEST PUSH2 0x135 PUSH2 0x29D JUMP JUMPDEST PUSH1 0x40 MLOAD PUSH2 0x142 SWAP2 SWAP1 PUSH2 0x490 JUMP JUMPDEST PUSH1 0x40 MLOAD DUP1 SWAP2 SUB SWAP1 RETURN JUMPDEST PUSH2 0x153 PUSH2 0x33B JUMP JUMPDEST PUSH1 0x40 MLOAD PUSH2 0x160 SWAP2 SWAP1 PUSH2 0x490 JUMP JUMPDEST PUSH1 0x40 MLOAD DUP1 SWAP2 SUB SWAP1 RETURN JUMPDEST PUSH1 0x7 SLOAD DUP2 JUMP JUMPDEST PUSH1 0x1 DUP1 SLOAD PUSH1 0x1 DUP2 PUSH1 0x1 AND ISZERO PUSH2 0x100 MUL SUB AND PUSH1 0x2 SWAP1 DIV DUP1 PUSH1 0x1F ADD PUSH1 0x20 DUP1 SWAP2 DIV MUL PUSH1 0x20 ADD PUSH1 0x40 MLOAD SWAP1 DUP2 ADD PUSH1 0x40 MSTORE DUP1 SWAP3 SWAP2 SWAP1 DUP2 DUP2 MSTORE PUSH1 0x20 ADD DUP3 DUP1 SLOAD PUSH1 0x1 DUP2 PUSH1 0x1 AND ISZERO PUSH2 0x100 MUL SUB AND PUSH1 0x2 SWAP1 DIV DUP1 ISZERO PUSH2 0x205 JUMPI DUP1 PUSH1 0x1F LT PUSH2 0x1DA JUMPI PUSH2 0x100 DUP1 DUP4 SLOAD DIV MUL DUP4 MSTORE SWAP2 PUSH1 0x20 ADD SWAP2 PUSH2 0x205 JUMP JUMPDEST DUP3 ADD SWAP2 SWAP1 PUSH1 0x0 MSTORE PUSH1 0x20 PUSH1 0x0 KECCAK256 SWAP1 JUMPDEST DUP2 SLOAD DUP2 MSTORE SWAP1 PUSH1 0x1 ADD SWAP1 PUSH1 0x20 ADD DUP1 DUP4 GT PUSH2 0x1E8 JUMPI DUP3 SWAP1 SUB PUSH1 0x1F AND DUP3 ADD SWAP2 JUMPDEST POP POP POP POP POP DUP2 JUMP JUMPDEST PUSH1 0x9 PUSH1 0x0 SWAP1 SLOAD SWAP1 PUSH2 0x100 EXP SWAP1 DIV PUSH20 0xFFFFFFFFFFFFFFFFFFFFFFFFFFFFFFFFFFFFFFFF AND DUP2 JUMP JUMPDEST PUSH1 0x3 PUSH1 0x2 SWAP1 SLOAD SWAP1 PUSH2 0x100 EXP SWAP1 DIV PUSH1 0xFF AND DUP2 JUMP JUMPDEST PUSH1 0x0 CALLDATALOAD PUSH32 0xFFFFFFFF00000000000000000000000000000000000000000000000000000000 AND PUSH1 0x8 PUSH1 0x0 PUSH2 0x100 EXP DUP2 SLOAD DUP2 PUSH4 0xFFFFFFFF MUL NOT AND SWAP1 DUP4 PUSH1 0xE0 SHR MUL OR SWAP1 SSTORE POP JUMP JUMPDEST PUSH1 0x3 PUSH1 0x1 SWAP1 SLOAD SWAP1 PUSH2 0x100 EXP SWAP1 DIV PUSH1 0xFF AND DUP2 JUMP JUMPDEST PUSH1 0x6 DUP1 SLOAD PUSH1 0x1 DUP2 PUSH1 0x1 AND ISZERO PUSH2 0x100 MUL SUB AND PUSH1 0x2 SWAP1 DIV DUP1 PUSH1 0x1F ADD PUSH1 0x20 DUP1 SWAP2 DIV MUL PUSH1 0x20 ADD PUSH1 0x40 MLOAD SWAP1 DUP2 ADD PUSH1 0x40 MSTORE DUP1 SWAP3 SWAP2 SWAP1 DUP2 DUP2 MSTORE PUSH1 0x20 ADD DUP3 DUP1 SLOAD PUSH1 0x1 DUP2 PUSH1 0x1 AND ISZERO PUSH2 0x100 MUL SUB AND PUSH1 0x2 SWAP1 DIV DUP1 ISZERO PUSH2 0x333 JUMPI DUP1 PUSH1 0x1F LT PUSH2 0x308 JUMPI PUSH2 0x100 DUP1 DUP4 SLOAD DIV MUL DUP4 MSTORE SWAP2 PUSH1 0x20 ADD SWAP2 PUSH2 0x333 JUMP JUMPDEST DUP3 ADD SWAP2 SWAP1 PUSH1 0x0 MSTORE PUSH1 0x20 PUSH1 0x0 KECCAK256 SWAP1 JUMPDEST DUP2 SLOAD DUP2 MSTORE SWAP1 PUSH1 0x1 ADD SWAP1 PUSH1 0x20 ADD DUP1 DUP4 GT PUSH2 0x316 JUMPI DUP3 SWAP1 SUB PUSH1 0x1F AND DUP3 ADD SWAP2 JUMPDEST POP POP POP POP POP DUP2 JUMP JUMPDEST PUSH1 0x2 DUP1 SLOAD PUSH1 0x1 DUP2 PUSH1 0x1 AND ISZERO PUSH2 0x100 MUL SUB AND PUSH1 0x2 SWAP1 DIV DUP1 PUSH1 0x1F ADD PUSH1 0x20 DUP1 SWAP2 DIV MUL PUSH1 0x20 ADD PUSH1 0x40 MLOAD SWAP1 DUP2 ADD PUSH1 0x40 MSTORE DUP1 SWAP3 SWAP2 SWAP1 DUP2 DUP2 MSTORE PUSH1 0x20 ADD DUP3 DUP1 SLOAD PUSH1 0x1 DUP2 PUSH1 0x1 AND ISZERO PUSH2 0x100 MUL SUB AND PUSH1 0x2 SWAP1 DIV DUP1 ISZERO PUSH2 0x3D1 JUMPI DUP1 PUSH1 0x1F LT PUSH2 0x3A6 JUMPI PUSH2 0x100 DUP1 DUP4 SLOAD DIV MUL DUP4 MSTORE SWAP2 PUSH1 0x20 ADD SWAP2 PUSH2 0x3D1 JUMP JUMPDEST DUP3 ADD SWAP2 SWAP1 PUSH1 0x0 MSTORE PUSH1 0x20 PUSH1 0x0 KECCAK256 SWAP1 JUMPDEST DUP2 SLOAD DUP2 MSTORE SWAP1 PUSH1 0x1 ADD SWAP1 PUSH1 0x20 ADD DUP1 DUP4 GT PUSH2 0x3B4 JUMPI DUP3 SWAP1 SUB PUSH1 0x1F AND DUP3 ADD SWAP2 JUMPDEST POP POP POP POP POP DUP2 JUMP JUMPDEST PUSH2 0x3E2 DUP2 PUSH2 0x4CE JUMP JUMPDEST DUP3 MSTORE POP POP JUMP JUMPDEST PUSH2 0x3F1 DUP2 PUSH2 0x4E0 JUMP JUMPDEST DUP3 MSTORE POP POP JUMP JUMPDEST PUSH2 0x400 DUP2 PUSH2 0x4EC JUMP JUMPDEST DUP3 MSTORE POP POP JUMP JUMPDEST PUSH1 0x0 PUSH2 0x411 DUP3 PUSH2 0x4B2 JUMP JUMPDEST PUSH2 0x41B DUP2 DUP6 PUSH2 0x4BD JUMP JUMPDEST SWAP4 POP PUSH2 0x42B DUP2 DUP6 PUSH1 0x20 DUP7 ADD PUSH2 0x516 JUMP JUMPDEST PUSH2 0x434 DUP2 PUSH2 0x549 JUMP JUMPDEST DUP5 ADD SWAP2 POP POP SWAP3 SWAP2 POP POP JUMP JUMPDEST PUSH1 0x0 PUSH1 0x20 DUP3 ADD SWAP1 POP PUSH2 0x454 PUSH1 0x0 DUP4 ADD DUP5 PUSH2 0x3D9 JUMP JUMPDEST SWAP3 SWAP2 POP POP JUMP JUMPDEST PUSH1 0x0 PUSH1 0x20 DUP3 ADD SWAP1 POP PUSH2 0x46F PUSH1 0x0 DUP4 ADD DUP5 PUSH2 0x3E8 JUMP JUMPDEST SWAP3 SWAP2 POP POP JUMP JUMPDEST PUSH1 0x0 PUSH1 0x20 DUP3 ADD SWAP1 POP PUSH2 0x48A PUSH1 0x0 DUP4 ADD DUP5 PUSH2 0x3F7 JUMP JUMPDEST SWAP3 SWAP2 POP POP JUMP JUMPDEST PUSH1 0x0 PUSH1 0x20 DUP3 ADD SWAP1 POP DUP2 DUP2 SUB PUSH1 0x0 DUP4 ADD MSTORE PUSH2 0x4AA DUP2 DUP5 PUSH2 0x406 JUMP JUMPDEST SWAP1 POP SWAP3 SWAP2 POP POP JUMP JUMPDEST PUSH1 0x0 DUP2 MLOAD SWAP1 POP SWAP2 SWAP1 POP JUMP JUMPDEST PUSH1 0x0 DUP3 DUP3 MSTORE PUSH1 0x20 DUP3 ADD SWAP1 POP SWAP3 SWAP2 POP POP JUMP JUMPDEST PUSH1 0x0 PUSH2 0x4D9 DUP3 PUSH2 0x4F6 JUMP JUMPDEST SWAP1 POP SWAP2 SWAP1 POP JUMP JUMPDEST PUSH1 0x0 DUP2 ISZERO ISZERO SWAP1 POP SWAP2 SWAP1 POP JUMP JUMPDEST PUSH1 0x0 DUP2 SWAP1 POP SWAP2 SWAP1 POP JUMP JUMPDEST PUSH1 0x0 PUSH20 0xFFFFFFFFFFFFFFFFFFFFFFFFFFFFFFFFFFFFFFFF DUP3 AND SWAP1 POP SWAP2 SWAP1 POP JUMP JUMPDEST PUSH1 0x0 JUMPDEST DUP4 DUP2 LT ISZERO PUSH2 0x534 JUMPI DUP1 DUP3 ADD MLOAD DUP2 DUP5 ADD MSTORE PUSH1 0x20 DUP2 ADD SWAP1 POP PUSH2 0x519 JUMP JUMPDEST DUP4 DUP2 GT ISZERO PUSH2 0x543 JUMPI PUSH1 0x0 DUP5 DUP5 ADD MSTORE JUMPDEST POP POP POP POP JUMP JUMPDEST PUSH1 0x0 PUSH1 0x1F NOT PUSH1 0x1F DUP4 ADD AND SWAP1 POP SWAP2 SWAP1 POP JUMP INVALID LOG2 PUSH5 0x6970667358 0x22 SLT KECCAK256 MSTORE PUSH18 0x11C3513B129B6D4E31F5C1447EABD17DB29B 0xB3 SWAP14 0x4D DUP13 0xEB GASLIMIT 0xBD 0xCF 0xB8 0xDE DUP5 0xCC PUSH5 0x736F6C6343 STOP MOD 0xC STOP CALLER "
				},
				"gasEstimates": {
					"creation": {
						"codeDepositCost": "284800",
						"executionCost": "infinite",
						"totalCost": "infinite"
					},
					"external": {
						"boolean_inicialized()": "1243",
						"direccion_local()": "1259",
						"ejemploBytes4()": "21020",
						"flag_false()": "1288",
						"hash()": "1130",
						"nombre()": "infinite",
						"saludo()": "infinite",
						"string_vacio()": "infinite"
					}
				},
				"methodIdentifiers": {
					"boolean_inicialized()": "9ef934e7",
					"direccion_local()": "519a2c1f",
					"ejemploBytes4()": "8320422e",
					"flag_false()": "5fe4c677",
					"hash()": "09bd5a60",
					"nombre()": "bc7b35b2",
					"saludo()": "0a3a9d63",
					"string_vacio()": "e83ec4d2"
				}
			},
			"storageLayout": {
				"storage": [
					{
						"astId": 4,
						"contract": "Tipos de variables y operadores/mas_variables.sol:mas_variables",
						"label": "mi_primer_string",
						"offset": 0,
						"slot": "0",
						"type": "t_string_storage"
					},
					{
						"astId": 7,
						"contract": "Tipos de variables y operadores/mas_variables.sol:mas_variables",
						"label": "saludo",
						"offset": 0,
						"slot": "1",
						"type": "t_string_storage"
					},
					{
						"astId": 10,
						"contract": "Tipos de variables y operadores/mas_variables.sol:mas_variables",
						"label": "string_vacio",
						"offset": 0,
						"slot": "2",
						"type": "t_string_storage"
					},
					{
						"astId": 12,
						"contract": "Tipos de variables y operadores/mas_variables.sol:mas_variables",
						"label": "boolean",
						"offset": 0,
						"slot": "3",
						"type": "t_bool"
					},
					{
						"astId": 15,
						"contract": "Tipos de variables y operadores/mas_variables.sol:mas_variables",
						"label": "boolean_inicialized",
						"offset": 1,
						"slot": "3",
						"type": "t_bool"
					},
					{
						"astId": 18,
						"contract": "Tipos de variables y operadores/mas_variables.sol:mas_variables",
						"label": "flag_false",
						"offset": 2,
						"slot": "3",
						"type": "t_bool"
					},
					{
						"astId": 20,
						"contract": "Tipos de variables y operadores/mas_variables.sol:mas_variables",
						"label": "primer_bytes",
						"offset": 0,
						"slot": "4",
						"type": "t_bytes32"
					},
					{
						"astId": 22,
						"contract": "Tipos de variables y operadores/mas_variables.sol:mas_variables",
						"label": "segund_bytes",
						"offset": 0,
						"slot": "5",
						"type": "t_bytes4"
					},
					{
						"astId": 25,
						"contract": "Tipos de variables y operadores/mas_variables.sol:mas_variables",
						"label": "nombre",
						"offset": 0,
						"slot": "6",
						"type": "t_string_storage"
					},
					{
						"astId": 33,
						"contract": "Tipos de variables y operadores/mas_variables.sol:mas_variables",
						"label": "hash",
						"offset": 0,
						"slot": "7",
						"type": "t_bytes32"
					},
					{
						"astId": 35,
						"contract": "Tipos de variables y operadores/mas_variables.sol:mas_variables",
						"label": "identificador",
						"offset": 0,
						"slot": "8",
						"type": "t_bytes4"
					},
					{
						"astId": 46,
						"contract": "Tipos de variables y operadores/mas_variables.sol:mas_variables",
						"label": "mi_primera_direccion",
						"offset": 4,
						"slot": "8",
						"type": "t_address"
					},
					{
						"astId": 49,
						"contract": "Tipos de variables y operadores/mas_variables.sol:mas_variables",
						"label": "direccion_local",
						"offset": 0,
						"slot": "9",
						"type": "t_address"
					}
				],
				"types": {
					"t_address": {
						"encoding": "inplace",
						"label": "address",
						"numberOfBytes": "20"
					},
					"t_bool": {
						"encoding": "inplace",
						"label": "bool",
						"numberOfBytes": "1"
					},
					"t_bytes32": {
						"encoding": "inplace",
						"label": "bytes32",
						"numberOfBytes": "32"
					},
					"t_bytes4": {
						"encoding": "inplace",
						"label": "bytes4",
						"numberOfBytes": "4"
					},
					"t_string_storage": {
						"encoding": "bytes",
						"label": "string",
						"numberOfBytes": "32"
					}
				}
			},
			"userdoc": {
				"kind": "user",
				"methods": {},
				"version": 1
			}
		}
	}
}