{
	"Tipos de variables y operadores/casteo_variables.sol": {
		"casteo": {
			"abi": [
				{
					"inputs": [],
					"name": "casteo_1",
					"outputs": [
						{
							"internalType": "uint64",
							"name": "",
							"type": "uint64"
						}
					],
					"stateMutability": "view",
					"type": "function"
				},
				{
					"inputs": [],
					"name": "casteo_2",
					"outputs": [
						{
							"internalType": "uint64",
							"name": "",
							"type": "uint64"
						}
					],
					"stateMutability": "view",
					"type": "function"
				},
				{
					"inputs": [],
					"name": "casteo_3",
					"outputs": [
						{
							"internalType": "uint8",
							"name": "",
							"type": "uint8"
						}
					],
					"stateMutability": "view",
					"type": "function"
				},
				{
					"inputs": [],
					"name": "casteo_4",
					"outputs": [
						{
							"internalType": "int256",
							"name": "",
							"type": "int256"
						}
					],
					"stateMutability": "view",
					"type": "function"
				},
				{
					"inputs": [],
					"name": "casteo_5",
					"outputs": [
						{
							"internalType": "int256",
							"name": "",
							"type": "int256"
						}
					],
					"stateMutability": "view",
					"type": "function"
				},
				{
					"inputs": [
						{
							"internalType": "uint8",
							"name": "_k",
							"type": "uint8"
						}
					],
					"name": "convertir",
					"outputs": [
						{
							"internalType": "uint64",
							"name": "",
							"type": "uint64"
						}
					],
					"stateMutability": "view",
					"type": "function"
				}
			],
			"devdoc": {
				"kind": "dev",
				"methods": {},
				"version": 1
			},
			"evm": {
				"assembly": "    /* \"Tipos de variables y operadores/casteo_variables.sol\":35:627  contract casteo {\r... */\n  mstore(0x40, 0x80)\n    /* \"Tipos de variables y operadores/casteo_variables.sol\":104:106  42 */\n  0x2a\n    /* \"Tipos de variables y operadores/casteo_variables.sol\":87:106  uint8 entero_8 = 42 */\n  0x00\n  dup1\n  0x0100\n  exp\n  dup2\n  sload\n  dup2\n  0xff\n  mul\n  not\n  and\n  swap1\n  dup4\n  0xff\n  and\n  mul\n  or\n  swap1\n  sstore\n  pop\n    /* \"Tipos de variables y operadores/casteo_variables.sol\":132:137  60000 */\n  0xea60\n    /* \"Tipos de variables y operadores/casteo_variables.sol\":113:137  uint64 entero_64 = 60000 */\n  0x00\n  exp(0x0100, 0x01)\n  dup2\n  sload\n  dup2\n  0xffffffffffffffff\n  mul\n  not\n  and\n  swap1\n  dup4\n  0xffffffffffffffff\n  and\n  mul\n  or\n  swap1\n  sstore\n  pop\n    /* \"Tipos de variables y operadores/casteo_variables.sol\":162:169  1000000 */\n  0x0f4240\n    /* \"Tipos de variables y operadores/casteo_variables.sol\":144:169  uint entero_256 = 1000000 */\n  0x01\n  sstore\n    /* \"Tipos de variables y operadores/casteo_variables.sol\":194:197  156 */\n  0x9c\n    /* \"Tipos de variables y operadores/casteo_variables.sol\":176:197  int16 entero_16 = 156 */\n  0x02\n  exp(0x0100, 0x00)\n  dup2\n  sload\n  dup2\n  0xffff\n  mul\n  not\n  and\n  swap1\n  dup4\n  0x01\n  signextend\n  0xffff\n  and\n  mul\n  or\n  swap1\n  sstore\n  pop\n    /* \"Tipos de variables y operadores/casteo_variables.sol\":224:230  900000 */\n  0x0dbba0\n    /* \"Tipos de variables y operadores/casteo_variables.sol\":204:230  int120 entero_120 = 900000 */\n  0x02\n  dup1\n  0x0100\n  exp\n  dup2\n  sload\n  dup2\n  0xffffffffffffffffffffffffffffff\n  mul\n  not\n  and\n  swap1\n  dup4\n  0x0e\n  signextend\n  0xffffffffffffffffffffffffffffff\n  and\n  mul\n  or\n  swap1\n  sstore\n  pop\n    /* \"Tipos de variables y operadores/casteo_variables.sol\":250:257  5000000 */\n  0x4c4b40\n    /* \"Tipos de variables y operadores/casteo_variables.sol\":237:257  int entero = 5000000 */\n  0x03\n  sstore\n    /* \"Tipos de variables y operadores/casteo_variables.sol\":325:333  entero_8 */\n  0x00\n  dup1\n  sload\n  swap1\n  0x0100\n  exp\n  swap1\n  div\n  0xff\n  and\n    /* \"Tipos de variables y operadores/casteo_variables.sol\":318:334  uint64(entero_8) */\n  0xff\n  and\n    /* \"Tipos de variables y operadores/casteo_variables.sol\":293:334  uint64 public casteo_1 = uint64(entero_8) */\n  0x04\n  exp(0x0100, 0x00)\n  dup2\n  sload\n  dup2\n  0xffffffffffffffff\n  mul\n  not\n  and\n  swap1\n  dup4\n  0xffffffffffffffff\n  and\n  mul\n  or\n  swap1\n  sstore\n  pop\n    /* \"Tipos de variables y operadores/casteo_variables.sol\":373:383  entero_256 */\n  sload(0x01)\n    /* \"Tipos de variables y operadores/casteo_variables.sol\":341:384  uint64 public casteo_2 = uint64(entero_256) */\n  0x04\n  exp(0x0100, 0x08)\n  dup2\n  sload\n  dup2\n  0xffffffffffffffff\n  mul\n  not\n  and\n  swap1\n  dup4\n  0xffffffffffffffff\n  and\n  mul\n  or\n  swap1\n  sstore\n  pop\n    /* \"Tipos de variables y operadores/casteo_variables.sol\":421:430  entero_16 */\n  0x02\n  0x00\n  swap1\n  sload\n  swap1\n  0x0100\n  exp\n  swap1\n  div\n  0x01\n  signextend\n    /* \"Tipos de variables y operadores/casteo_variables.sol\":391:431  uint8 public casteo_3 = uint8(entero_16) */\n  0x04\n  exp(0x0100, 0x10)\n  dup2\n  sload\n  dup2\n  0xff\n  mul\n  not\n  and\n  swap1\n  dup4\n  0xff\n  and\n  mul\n  or\n  swap1\n  sstore\n  pop\n    /* \"Tipos de variables y operadores/casteo_variables.sol\":464:474  entero_120 */\n  0x02\n  dup1\n  sload\n  swap1\n  0x0100\n  exp\n  swap1\n  div\n  0x0e\n  signextend\n    /* \"Tipos de variables y operadores/casteo_variables.sol\":460:475  int(entero_120) */\n  0x0e\n  signextend\n    /* \"Tipos de variables y operadores/casteo_variables.sol\":438:475  int public casteo_4 = int(entero_120) */\n  0x05\n  sstore\n    /* \"Tipos de variables y operadores/casteo_variables.sol\":510:520  entero_256 */\n  sload(0x01)\n    /* \"Tipos de variables y operadores/casteo_variables.sol\":484:521  int public casteo_5 = int(entero_256) */\n  0x06\n  sstore\n    /* \"Tipos de variables y operadores/casteo_variables.sol\":35:627  contract casteo {\r... */\n  callvalue\n  dup1\n  iszero\n  tag_1\n  jumpi\n  0x00\n  dup1\n  revert\ntag_1:\n  pop\n  dataSize(sub_0)\n  dup1\n  dataOffset(sub_0)\n  0x00\n  codecopy\n  0x00\n  return\nstop\n\nsub_0: assembly {\n        /* \"Tipos de variables y operadores/casteo_variables.sol\":35:627  contract casteo {\r... */\n      mstore(0x40, 0x80)\n      callvalue\n      dup1\n      iszero\n      tag_1\n      jumpi\n      0x00\n      dup1\n      revert\n    tag_1:\n      pop\n      jumpi(tag_2, lt(calldatasize, 0x04))\n      shr(0xe0, calldataload(0x00))\n      dup1\n      0x02b037a7\n      eq\n      tag_3\n      jumpi\n      dup1\n      0x2b74311b\n      eq\n      tag_4\n      jumpi\n      dup1\n      0x9fe40a17\n      eq\n      tag_5\n      jumpi\n      dup1\n      0xaf489aa6\n      eq\n      tag_6\n      jumpi\n      dup1\n      0xd5d240c1\n      eq\n      tag_7\n      jumpi\n      dup1\n      0xed4885e5\n      eq\n      tag_8\n      jumpi\n    tag_2:\n      0x00\n      dup1\n      revert\n        /* \"Tipos de variables y operadores/casteo_variables.sol\":293:334  uint64 public casteo_1 = uint64(entero_8) */\n    tag_3:\n      tag_9\n      tag_10\n      jump\t// in\n    tag_9:\n      mload(0x40)\n      dup1\n      dup3\n      0xffffffffffffffff\n      and\n      dup2\n      mstore\n      0x20\n      add\n      swap2\n      pop\n      pop\n      mload(0x40)\n      dup1\n      swap2\n      sub\n      swap1\n      return\n        /* \"Tipos de variables y operadores/casteo_variables.sol\":341:384  uint64 public casteo_2 = uint64(entero_256) */\n    tag_4:\n      tag_11\n      tag_12\n      jump\t// in\n    tag_11:\n      mload(0x40)\n      dup1\n      dup3\n      0xffffffffffffffff\n      and\n      dup2\n      mstore\n      0x20\n      add\n      swap2\n      pop\n      pop\n      mload(0x40)\n      dup1\n      swap2\n      sub\n      swap1\n      return\n        /* \"Tipos de variables y operadores/casteo_variables.sol\":530:624  function convertir(uint8 _k) public view returns (uint64) {\r... */\n    tag_5:\n      tag_13\n      0x04\n      dup1\n      calldatasize\n      sub\n      0x20\n      dup2\n      lt\n      iszero\n      tag_14\n      jumpi\n      0x00\n      dup1\n      revert\n    tag_14:\n      dup2\n      add\n      swap1\n      dup1\n      dup1\n      calldataload\n      0xff\n      and\n      swap1\n      0x20\n      add\n      swap1\n      swap3\n      swap2\n      swap1\n      pop\n      pop\n      pop\n      tag_15\n      jump\t// in\n    tag_13:\n      mload(0x40)\n      dup1\n      dup3\n      0xffffffffffffffff\n      and\n      dup2\n      mstore\n      0x20\n      add\n      swap2\n      pop\n      pop\n      mload(0x40)\n      dup1\n      swap2\n      sub\n      swap1\n      return\n        /* \"Tipos de variables y operadores/casteo_variables.sol\":484:521  int public casteo_5 = int(entero_256) */\n    tag_6:\n      tag_16\n      tag_17\n      jump\t// in\n    tag_16:\n      mload(0x40)\n      dup1\n      dup3\n      dup2\n      mstore\n      0x20\n      add\n      swap2\n      pop\n      pop\n      mload(0x40)\n      dup1\n      swap2\n      sub\n      swap1\n      return\n        /* \"Tipos de variables y operadores/casteo_variables.sol\":391:431  uint8 public casteo_3 = uint8(entero_16) */\n    tag_7:\n      tag_18\n      tag_19\n      jump\t// in\n    tag_18:\n      mload(0x40)\n      dup1\n      dup3\n      0xff\n      and\n      dup2\n      mstore\n      0x20\n      add\n      swap2\n      pop\n      pop\n      mload(0x40)\n      dup1\n      swap2\n      sub\n      swap1\n      return\n        /* \"Tipos de variables y operadores/casteo_variables.sol\":438:475  int public casteo_4 = int(entero_120) */\n    tag_8:\n      tag_20\n      tag_21\n      jump\t// in\n    tag_20:\n      mload(0x40)\n      dup1\n      dup3\n      dup2\n      mstore\n      0x20\n      add\n      swap2\n      pop\n      pop\n      mload(0x40)\n      dup1\n      swap2\n      sub\n      swap1\n      return\n        /* \"Tipos de variables y operadores/casteo_variables.sol\":293:334  uint64 public casteo_1 = uint64(entero_8) */\n    tag_10:\n      0x04\n      0x00\n      swap1\n      sload\n      swap1\n      0x0100\n      exp\n      swap1\n      div\n      0xffffffffffffffff\n      and\n      dup2\n      jump\t// out\n        /* \"Tipos de variables y operadores/casteo_variables.sol\":341:384  uint64 public casteo_2 = uint64(entero_256) */\n    tag_12:\n      0x04\n      0x08\n      swap1\n      sload\n      swap1\n      0x0100\n      exp\n      swap1\n      div\n      0xffffffffffffffff\n      and\n      dup2\n      jump\t// out\n        /* \"Tipos de variables y operadores/casteo_variables.sol\":530:624  function convertir(uint8 _k) public view returns (uint64) {\r... */\n    tag_15:\n        /* \"Tipos de variables y operadores/casteo_variables.sol\":580:586  uint64 */\n      0x00\n        /* \"Tipos de variables y operadores/casteo_variables.sol\":613:615  _k */\n      dup2\n        /* \"Tipos de variables y operadores/casteo_variables.sol\":606:616  uint64(_k) */\n      0xff\n      and\n        /* \"Tipos de variables y operadores/casteo_variables.sol\":599:616  return uint64(_k) */\n      swap1\n      pop\n        /* \"Tipos de variables y operadores/casteo_variables.sol\":530:624  function convertir(uint8 _k) public view returns (uint64) {\r... */\n      swap2\n      swap1\n      pop\n      jump\t// out\n        /* \"Tipos de variables y operadores/casteo_variables.sol\":484:521  int public casteo_5 = int(entero_256) */\n    tag_17:\n      sload(0x06)\n      dup2\n      jump\t// out\n        /* \"Tipos de variables y operadores/casteo_variables.sol\":391:431  uint8 public casteo_3 = uint8(entero_16) */\n    tag_19:\n      0x04\n      0x10\n      swap1\n      sload\n      swap1\n      0x0100\n      exp\n      swap1\n      div\n      0xff\n      and\n      dup2\n      jump\t// out\n        /* \"Tipos de variables y operadores/casteo_variables.sol\":438:475  int public casteo_4 = int(entero_120) */\n    tag_21:\n      sload(0x05)\n      dup2\n      jump\t// out\n\n    auxdata: 0xa2646970667358221220fd91a47154435b2c9bc75acb999e5ad78b7c3a392f83ae25bea4d862cc3f472364736f6c634300060c0033\n}\n",
				"bytecode": {
					"linkReferences": {},
					"object": "6080604052602a6000806101000a81548160ff021916908360ff16021790555061ea60600060016101000a81548167ffffffffffffffff021916908367ffffffffffffffff160217905550620f4240600155609c600260006101000a81548161ffff021916908360010b61ffff160217905550620dbba06002806101000a8154816effffffffffffffffffffffffffffff0219169083600e0b6effffffffffffffffffffffffffffff160217905550624c4b4060035560008054906101000a900460ff1660ff16600460006101000a81548167ffffffffffffffff021916908367ffffffffffffffff160217905550600154600460086101000a81548167ffffffffffffffff021916908367ffffffffffffffff160217905550600260009054906101000a900460010b600460106101000a81548160ff021916908360ff16021790555060028054906101000a9004600e0b600e0b60055560015460065534801561016957600080fd5b506101f9806101796000396000f3fe608060405234801561001057600080fd5b50600436106100625760003560e01c806302b037a7146100675780632b74311b1461008f5780639fe40a17146100b7578063af489aa614610106578063d5d240c114610124578063ed4885e514610145575b600080fd5b61006f610163565b604051808267ffffffffffffffff16815260200191505060405180910390f35b61009761017d565b604051808267ffffffffffffffff16815260200191505060405180910390f35b6100e6600480360360208110156100cd57600080fd5b81019080803560ff169060200190929190505050610197565b604051808267ffffffffffffffff16815260200191505060405180910390f35b61010e6101a4565b6040518082815260200191505060405180910390f35b61012c6101aa565b604051808260ff16815260200191505060405180910390f35b61014d6101bd565b6040518082815260200191505060405180910390f35b600460009054906101000a900467ffffffffffffffff1681565b600460089054906101000a900467ffffffffffffffff1681565b60008160ff169050919050565b60065481565b600460109054906101000a900460ff1681565b6005548156fea2646970667358221220fd91a47154435b2c9bc75acb999e5ad78b7c3a392f83ae25bea4d862cc3f472364736f6c634300060c0033",
					"opcodes": "PUSH1 0x80 PUSH1 0x40 MSTORE PUSH1 0x2A PUSH1 0x0 DUP1 PUSH2 0x100 EXP DUP2 SLOAD DUP2 PUSH1 0xFF MUL NOT AND SWAP1 DUP4 PUSH1 0xFF AND MUL OR SWAP1 SSTORE POP PUSH2 0xEA60 PUSH1 0x0 PUSH1 0x1 PUSH2 0x100 EXP DUP2 SLOAD DUP2 PUSH8 0xFFFFFFFFFFFFFFFF MUL NOT AND SWAP1 DUP4 PUSH8 0xFFFFFFFFFFFFFFFF AND MUL OR SWAP1 SSTORE POP PUSH3 0xF4240 PUSH1 0x1 SSTORE PUSH1 0x9C PUSH1 0x2 PUSH1 0x0 PUSH2 0x100 EXP DUP2 SLOAD DUP2 PUSH2 0xFFFF MUL NOT AND SWAP1 DUP4 PUSH1 0x1 SIGNEXTEND PUSH2 0xFFFF AND MUL OR SWAP1 SSTORE POP PUSH3 0xDBBA0 PUSH1 0x2 DUP1 PUSH2 0x100 EXP DUP2 SLOAD DUP2 PUSH15 0xFFFFFFFFFFFFFFFFFFFFFFFFFFFFFF MUL NOT AND SWAP1 DUP4 PUSH1 0xE SIGNEXTEND PUSH15 0xFFFFFFFFFFFFFFFFFFFFFFFFFFFFFF AND MUL OR SWAP1 SSTORE POP PUSH3 0x4C4B40 PUSH1 0x3 SSTORE PUSH1 0x0 DUP1 SLOAD SWAP1 PUSH2 0x100 EXP SWAP1 DIV PUSH1 0xFF AND PUSH1 0xFF AND PUSH1 0x4 PUSH1 0x0 PUSH2 0x100 EXP DUP2 SLOAD DUP2 PUSH8 0xFFFFFFFFFFFFFFFF MUL NOT AND SWAP1 DUP4 PUSH8 0xFFFFFFFFFFFFFFFF AND MUL OR SWAP1 SSTORE POP PUSH1 0x1 SLOAD PUSH1 0x4 PUSH1 0x8 PUSH2 0x100 EXP DUP2 SLOAD DUP2 PUSH8 0xFFFFFFFFFFFFFFFF MUL NOT AND SWAP1 DUP4 PUSH8 0xFFFFFFFFFFFFFFFF AND MUL OR SWAP1 SSTORE POP PUSH1 0x2 PUSH1 0x0 SWAP1 SLOAD SWAP1 PUSH2 0x100 EXP SWAP1 DIV PUSH1 0x1 SIGNEXTEND PUSH1 0x4 PUSH1 0x10 PUSH2 0x100 EXP DUP2 SLOAD DUP2 PUSH1 0xFF MUL NOT AND SWAP1 DUP4 PUSH1 0xFF AND MUL OR SWAP1 SSTORE POP PUSH1 0x2 DUP1 SLOAD SWAP1 PUSH2 0x100 EXP SWAP1 DIV PUSH1 0xE SIGNEXTEND PUSH1 0xE SIGNEXTEND PUSH1 0x5 SSTORE PUSH1 0x1 SLOAD PUSH1 0x6 SSTORE CALLVALUE DUP1 ISZERO PUSH2 0x169 JUMPI PUSH1 0x0 DUP1 REVERT JUMPDEST POP PUSH2 0x1F9 DUP1 PUSH2 0x179 PUSH1 0x0 CODECOPY PUSH1 0x0 RETURN INVALID PUSH1 0x80 PUSH1 0x40 MSTORE CALLVALUE DUP1 ISZERO PUSH2 0x10 JUMPI PUSH1 0x0 DUP1 REVERT JUMPDEST POP PUSH1 0x4 CALLDATASIZE LT PUSH2 0x62 JUMPI PUSH1 0x0 CALLDATALOAD PUSH1 0xE0 SHR DUP1 PUSH4 0x2B037A7 EQ PUSH2 0x67 JUMPI DUP1 PUSH4 0x2B74311B EQ PUSH2 0x8F JUMPI DUP1 PUSH4 0x9FE40A17 EQ PUSH2 0xB7 JUMPI DUP1 PUSH4 0xAF489AA6 EQ PUSH2 0x106 JUMPI DUP1 PUSH4 0xD5D240C1 EQ PUSH2 0x124 JUMPI DUP1 PUSH4 0xED4885E5 EQ PUSH2 0x145 JUMPI JUMPDEST PUSH1 0x0 DUP1 REVERT JUMPDEST PUSH2 0x6F PUSH2 0x163 JUMP JUMPDEST PUSH1 0x40 MLOAD DUP1 DUP3 PUSH8 0xFFFFFFFFFFFFFFFF AND DUP2 MSTORE PUSH1 0x20 ADD SWAP2 POP POP PUSH1 0x40 MLOAD DUP1 SWAP2 SUB SWAP1 RETURN JUMPDEST PUSH2 0x97 PUSH2 0x17D JUMP JUMPDEST PUSH1 0x40 MLOAD DUP1 DUP3 PUSH8 0xFFFFFFFFFFFFFFFF AND DUP2 MSTORE PUSH1 0x20 ADD SWAP2 POP POP PUSH1 0x40 MLOAD DUP1 SWAP2 SUB SWAP1 RETURN JUMPDEST PUSH2 0xE6 PUSH1 0x4 DUP1 CALLDATASIZE SUB PUSH1 0x20 DUP2 LT ISZERO PUSH2 0xCD JUMPI PUSH1 0x0 DUP1 REVERT JUMPDEST DUP2 ADD SWAP1 DUP1 DUP1 CALLDATALOAD PUSH1 0xFF AND SWAP1 PUSH1 0x20 ADD SWAP1 SWAP3 SWAP2 SWAP1 POP POP POP PUSH2 0x197 JUMP JUMPDEST PUSH1 0x40 MLOAD DUP1 DUP3 PUSH8 0xFFFFFFFFFFFFFFFF AND DUP2 MSTORE PUSH1 0x20 ADD SWAP2 POP POP PUSH1 0x40 MLOAD DUP1 SWAP2 SUB SWAP1 RETURN JUMPDEST PUSH2 0x10E PUSH2 0x1A4 JUMP JUMPDEST PUSH1 0x40 MLOAD DUP1 DUP3 DUP2 MSTORE PUSH1 0x20 ADD SWAP2 POP POP PUSH1 0x40 MLOAD DUP1 SWAP2 SUB SWAP1 RETURN JUMPDEST PUSH2 0x12C PUSH2 0x1AA JUMP JUMPDEST PUSH1 0x40 MLOAD DUP1 DUP3 PUSH1 0xFF AND DUP2 MSTORE PUSH1 0x20 ADD SWAP2 POP POP PUSH1 0x40 MLOAD DUP1 SWAP2 SUB SWAP1 RETURN JUMPDEST PUSH2 0x14D PUSH2 0x1BD JUMP JUMPDEST PUSH1 0x40 MLOAD DUP1 DUP3 DUP2 MSTORE PUSH1 0x20 ADD SWAP2 POP POP PUSH1 0x40 MLOAD DUP1 SWAP2 SUB SWAP1 RETURN JUMPDEST PUSH1 0x4 PUSH1 0x0 SWAP1 SLOAD SWAP1 PUSH2 0x100 EXP SWAP1 DIV PUSH8 0xFFFFFFFFFFFFFFFF AND DUP2 JUMP JUMPDEST PUSH1 0x4 PUSH1 0x8 SWAP1 SLOAD SWAP1 PUSH2 0x100 EXP SWAP1 DIV PUSH8 0xFFFFFFFFFFFFFFFF AND DUP2 JUMP JUMPDEST PUSH1 0x0 DUP2 PUSH1 0xFF AND SWAP1 POP SWAP2 SWAP1 POP JUMP JUMPDEST PUSH1 0x6 SLOAD DUP2 JUMP JUMPDEST PUSH1 0x4 PUSH1 0x10 SWAP1 SLOAD SWAP1 PUSH2 0x100 EXP SWAP1 DIV PUSH1 0xFF AND DUP2 JUMP JUMPDEST PUSH1 0x5 SLOAD DUP2 JUMP INVALID LOG2 PUSH5 0x6970667358 0x22 SLT KECCAK256 REVERT SWAP2 LOG4 PUSH18 0x54435B2C9BC75ACB999E5AD78B7C3A392F83 0xAE 0x25 0xBE LOG4 0xD8 PUSH3 0xCC3F47 0x23 PUSH5 0x736F6C6343 STOP MOD 0xC STOP CALLER "
				},
				"gasEstimates": {
					"creation": {
						"codeDepositCost": "101000",
						"executionCost": "230626",
						"totalCost": "331626"
					},
					"external": {
						"casteo_1()": "1025",
						"casteo_2()": "1097",
						"casteo_3()": "1163",
						"casteo_4()": "1093",
						"casteo_5()": "1049",
						"convertir(uint8)": "340"
					}
				},
				"methodIdentifiers": {
					"casteo_1()": "02b037a7",
					"casteo_2()": "2b74311b",
					"casteo_3()": "d5d240c1",
					"casteo_4()": "ed4885e5",
					"casteo_5()": "af489aa6",
					"convertir(uint8)": "9fe40a17"
				}
			},
			"storageLayout": {
				"storage": [
					{
						"astId": 4,
						"contract": "Tipos de variables y operadores/casteo_variables.sol:casteo",
						"label": "entero_8",
						"offset": 0,
						"slot": "0",
						"type": "t_uint8"
					},
					{
						"astId": 7,
						"contract": "Tipos de variables y operadores/casteo_variables.sol:casteo",
						"label": "entero_64",
						"offset": 1,
						"slot": "0",
						"type": "t_uint64"
					},
					{
						"astId": 10,
						"contract": "Tipos de variables y operadores/casteo_variables.sol:casteo",
						"label": "entero_256",
						"offset": 0,
						"slot": "1",
						"type": "t_uint256"
					},
					{
						"astId": 13,
						"contract": "Tipos de variables y operadores/casteo_variables.sol:casteo",
						"label": "entero_16",
						"offset": 0,
						"slot": "2",
						"type": "t_int16"
					},
					{
						"astId": 16,
						"contract": "Tipos de variables y operadores/casteo_variables.sol:casteo",
						"label": "entero_120",
						"offset": 2,
						"slot": "2",
						"type": "t_int120"
					},
					{
						"astId": 19,
						"contract": "Tipos de variables y operadores/casteo_variables.sol:casteo",
						"label": "entero",
						"offset": 0,
						"slot": "3",
						"type": "t_int256"
					},
					{
						"astId": 25,
						"contract": "Tipos de variables y operadores/casteo_variables.sol:casteo",
						"label": "casteo_1",
						"offset": 0,
						"slot": "4",
						"type": "t_uint64"
					},
					{
						"astId": 31,
						"contract": "Tipos de variables y operadores/casteo_variables.sol:casteo",
						"label": "casteo_2",
						"offset": 8,
						"slot": "4",
						"type": "t_uint64"
					},
					{
						"astId": 37,
						"contract": "Tipos de variables y operadores/casteo_variables.sol:casteo",
						"label": "casteo_3",
						"offset": 16,
						"slot": "4",
						"type": "t_uint8"
					},
					{
						"astId": 43,
						"contract": "Tipos de variables y operadores/casteo_variables.sol:casteo",
						"label": "casteo_4",
						"offset": 0,
						"slot": "5",
						"type": "t_int256"
					},
					{
						"astId": 49,
						"contract": "Tipos de variables y operadores/casteo_variables.sol:casteo",
						"label": "casteo_5",
						"offset": 0,
						"slot": "6",
						"type": "t_int256"
					}
				],
				"types": {
					"t_int120": {
						"encoding": "inplace",
						"label": "int120",
						"numberOfBytes": "15"
					},
					"t_int16": {
						"encoding": "inplace",
						"label": "int16",
						"numberOfBytes": "2"
					},
					"t_int256": {
						"encoding": "inplace",
						"label": "int256",
						"numberOfBytes": "32"
					},
					"t_uint256": {
						"encoding": "inplace",
						"label": "uint256",
						"numberOfBytes": "32"
					},
					"t_uint64": {
						"encoding": "inplace",
						"label": "uint64",
						"numberOfBytes": "8"
					},
					"t_uint8": {
						"encoding": "inplace",
						"label": "uint8",
						"numberOfBytes": "1"
					}
				}
			},
			"userdoc": {
				"kind": "user",
				"methods": {},
				"version": 1
			}
		}
	}
}