{
	"Propiedades de Transacciones y Bloques/funciones_globales.sol": {
		"funciones_globales": {
			"abi": [
				{
					"inputs": [],
					"name": "BlockCoinbase",
					"outputs": [
						{
							"internalType": "address",
							"name": "",
							"type": "address"
						}
					],
					"stateMutability": "view",
					"type": "function"
				},
				{
					"inputs": [],
					"name": "BlockDifficulty",
					"outputs": [
						{
							"internalType": "uint256",
							"name": "",
							"type": "uint256"
						}
					],
					"stateMutability": "view",
					"type": "function"
				},
				{
					"inputs": [],
					"name": "BlockNumber",
					"outputs": [
						{
							"internalType": "uint256",
							"name": "",
							"type": "uint256"
						}
					],
					"stateMutability": "view",
					"type": "function"
				},
				{
					"inputs": [],
					"name": "MsgSender",
					"outputs": [
						{
							"internalType": "address",
							"name": "",
							"type": "address"
						}
					],
					"stateMutability": "view",
					"type": "function"
				},
				{
					"inputs": [],
					"name": "MsgSig",
					"outputs": [
						{
							"internalType": "bytes4",
							"name": "",
							"type": "bytes4"
						}
					],
					"stateMutability": "view",
					"type": "function"
				},
				{
					"inputs": [],
					"name": "Now",
					"outputs": [
						{
							"internalType": "uint256",
							"name": "",
							"type": "uint256"
						}
					],
					"stateMutability": "view",
					"type": "function"
				},
				{
					"inputs": [],
					"name": "txGasPrice",
					"outputs": [
						{
							"internalType": "uint256",
							"name": "",
							"type": "uint256"
						}
					],
					"stateMutability": "view",
					"type": "function"
				}
			],
			"devdoc": {
				"kind": "dev",
				"methods": {},
				"version": 1
			},
			"evm": {
				"assembly": "    /* \"Propiedades de Transacciones y Bloques/funciones_globales.sol\":59:937  contract funciones_globales {\r... */\n  mstore(0x40, 0x80)\n  callvalue\n  dup1\n  iszero\n  tag_1\n  jumpi\n  0x00\n  dup1\n  revert\ntag_1:\n  pop\n  dataSize(sub_0)\n  dup1\n  dataOffset(sub_0)\n  0x00\n  codecopy\n  0x00\n  return\nstop\n\nsub_0: assembly {\n        /* \"Propiedades de Transacciones y Bloques/funciones_globales.sol\":59:937  contract funciones_globales {\r... */\n      mstore(0x40, 0x80)\n      callvalue\n      dup1\n      iszero\n      tag_1\n      jumpi\n      0x00\n      dup1\n      revert\n    tag_1:\n      pop\n      jumpi(tag_2, lt(calldatasize, 0x04))\n      shr(0xe0, calldataload(0x00))\n      dup1\n      0x534ca054\n      gt\n      tag_10\n      jumpi\n      dup1\n      0x534ca054\n      eq\n      tag_6\n      jumpi\n      dup1\n      0x64868510\n      eq\n      tag_7\n      jumpi\n      dup1\n      0x84d63e12\n      eq\n      tag_8\n      jumpi\n      dup1\n      0xe6c595c0\n      eq\n      tag_9\n      jumpi\n      jump(tag_2)\n    tag_10:\n      dup1\n      0x083f3ec4\n      eq\n      tag_3\n      jumpi\n      dup1\n      0x0a649267\n      eq\n      tag_4\n      jumpi\n      dup1\n      0x44d4fd19\n      eq\n      tag_5\n      jumpi\n    tag_2:\n      0x00\n      dup1\n      revert\n        /* \"Propiedades de Transacciones y Bloques/funciones_globales.sol\":732:812  function MsgSig() public view returns (bytes4) {\r... */\n    tag_3:\n      tag_11\n      tag_12\n      jump\t// in\n    tag_11:\n      mload(0x40)\n      dup1\n      dup3\n      not(0xffffffffffffffffffffffffffffffffffffffffffffffffffffffff)\n      and\n      dup2\n      mstore\n      0x20\n      add\n      swap2\n      pop\n      pop\n      mload(0x40)\n      dup1\n      swap2\n      sub\n      swap1\n      return\n        /* \"Propiedades de Transacciones y Bloques/funciones_globales.sol\":343:438  function BlockCoinbase() public view returns (address) {\r... */\n    tag_4:\n      tag_13\n      tag_14\n      jump\t// in\n    tag_13:\n      mload(0x40)\n      dup1\n      dup3\n      0xffffffffffffffffffffffffffffffffffffffff\n      and\n      dup2\n      mstore\n      0x20\n      add\n      swap2\n      pop\n      pop\n      mload(0x40)\n      dup1\n      swap2\n      sub\n      swap1\n      return\n        /* \"Propiedades de Transacciones y Bloques/funciones_globales.sol\":235:306  function Now() public view returns (uint) {\r... */\n    tag_5:\n      tag_15\n      tag_16\n      jump\t// in\n    tag_15:\n      mload(0x40)\n      dup1\n      dup3\n      dup2\n      mstore\n      0x20\n      add\n      swap2\n      pop\n      pop\n      mload(0x40)\n      dup1\n      swap2\n      sub\n      swap1\n      return\n        /* \"Propiedades de Transacciones y Bloques/funciones_globales.sol\":848:934  function txGasPrice() public view returns (uint) {\r... */\n    tag_6:\n      tag_17\n      tag_18\n      jump\t// in\n    tag_17:\n      mload(0x40)\n      dup1\n      dup3\n      dup2\n      mstore\n      0x20\n      add\n      swap2\n      pop\n      pop\n      mload(0x40)\n      dup1\n      swap2\n      sub\n      swap1\n      return\n        /* \"Propiedades de Transacciones y Bloques/funciones_globales.sol\":612:700  function BlockNumber() public view returns (uint) {\r... */\n    tag_7:\n      tag_19\n      tag_20\n      jump\t// in\n    tag_19:\n      mload(0x40)\n      dup1\n      dup3\n      dup2\n      mstore\n      0x20\n      add\n      swap2\n      pop\n      pop\n      mload(0x40)\n      dup1\n      swap2\n      sub\n      swap1\n      return\n        /* \"Propiedades de Transacciones y Bloques/funciones_globales.sol\":120:207  function MsgSender() public view returns (address) {\r... */\n    tag_8:\n      tag_21\n      tag_22\n      jump\t// in\n    tag_21:\n      mload(0x40)\n      dup1\n      dup3\n      0xffffffffffffffffffffffffffffffffffffffff\n      and\n      dup2\n      mstore\n      0x20\n      add\n      swap2\n      pop\n      pop\n      mload(0x40)\n      dup1\n      swap2\n      sub\n      swap1\n      return\n        /* \"Propiedades de Transacciones y Bloques/funciones_globales.sol\":479:575  function BlockDifficulty() public view returns (uint) {\r... */\n    tag_9:\n      tag_23\n      tag_24\n      jump\t// in\n    tag_23:\n      mload(0x40)\n      dup1\n      dup3\n      dup2\n      mstore\n      0x20\n      add\n      swap2\n      pop\n      pop\n      mload(0x40)\n      dup1\n      swap2\n      sub\n      swap1\n      return\n        /* \"Propiedades de Transacciones y Bloques/funciones_globales.sol\":732:812  function MsgSig() public view returns (bytes4) {\r... */\n    tag_12:\n        /* \"Propiedades de Transacciones y Bloques/funciones_globales.sol\":771:777  bytes4 */\n      0x00\n        /* \"Propiedades de Transacciones y Bloques/funciones_globales.sol\":797:804  msg.sig */\n      dup1\n      calldataload\n      0xffffffff00000000000000000000000000000000000000000000000000000000\n      and\n        /* \"Propiedades de Transacciones y Bloques/funciones_globales.sol\":790:804  return msg.sig */\n      swap1\n      pop\n        /* \"Propiedades de Transacciones y Bloques/funciones_globales.sol\":732:812  function MsgSig() public view returns (bytes4) {\r... */\n      swap1\n      jump\t// out\n        /* \"Propiedades de Transacciones y Bloques/funciones_globales.sol\":343:438  function BlockCoinbase() public view returns (address) {\r... */\n    tag_14:\n        /* \"Propiedades de Transacciones y Bloques/funciones_globales.sol\":389:396  address */\n      0x00\n        /* \"Propiedades de Transacciones y Bloques/funciones_globales.sol\":416:430  block.coinbase */\n      coinbase\n        /* \"Propiedades de Transacciones y Bloques/funciones_globales.sol\":409:430  return block.coinbase */\n      swap1\n      pop\n        /* \"Propiedades de Transacciones y Bloques/funciones_globales.sol\":343:438  function BlockCoinbase() public view returns (address) {\r... */\n      swap1\n      jump\t// out\n        /* \"Propiedades de Transacciones y Bloques/funciones_globales.sol\":235:306  function Now() public view returns (uint) {\r... */\n    tag_16:\n        /* \"Propiedades de Transacciones y Bloques/funciones_globales.sol\":271:275  uint */\n      0x00\n        /* \"Propiedades de Transacciones y Bloques/funciones_globales.sol\":295:298  now */\n      timestamp\n        /* \"Propiedades de Transacciones y Bloques/funciones_globales.sol\":288:298  return now */\n      swap1\n      pop\n        /* \"Propiedades de Transacciones y Bloques/funciones_globales.sol\":235:306  function Now() public view returns (uint) {\r... */\n      swap1\n      jump\t// out\n        /* \"Propiedades de Transacciones y Bloques/funciones_globales.sol\":848:934  function txGasPrice() public view returns (uint) {\r... */\n    tag_18:\n        /* \"Propiedades de Transacciones y Bloques/funciones_globales.sol\":891:895  uint */\n      0x00\n        /* \"Propiedades de Transacciones y Bloques/funciones_globales.sol\":915:926  tx.gasprice */\n      gasprice\n        /* \"Propiedades de Transacciones y Bloques/funciones_globales.sol\":908:926  return tx.gasprice */\n      swap1\n      pop\n        /* \"Propiedades de Transacciones y Bloques/funciones_globales.sol\":848:934  function txGasPrice() public view returns (uint) {\r... */\n      swap1\n      jump\t// out\n        /* \"Propiedades de Transacciones y Bloques/funciones_globales.sol\":612:700  function BlockNumber() public view returns (uint) {\r... */\n    tag_20:\n        /* \"Propiedades de Transacciones y Bloques/funciones_globales.sol\":656:660  uint */\n      0x00\n        /* \"Propiedades de Transacciones y Bloques/funciones_globales.sol\":680:692  block.number */\n      number\n        /* \"Propiedades de Transacciones y Bloques/funciones_globales.sol\":673:692  return block.number */\n      swap1\n      pop\n        /* \"Propiedades de Transacciones y Bloques/funciones_globales.sol\":612:700  function BlockNumber() public view returns (uint) {\r... */\n      swap1\n      jump\t// out\n        /* \"Propiedades de Transacciones y Bloques/funciones_globales.sol\":120:207  function MsgSender() public view returns (address) {\r... */\n    tag_22:\n        /* \"Propiedades de Transacciones y Bloques/funciones_globales.sol\":162:169  address */\n      0x00\n        /* \"Propiedades de Transacciones y Bloques/funciones_globales.sol\":189:199  msg.sender */\n      caller\n        /* \"Propiedades de Transacciones y Bloques/funciones_globales.sol\":182:199  return msg.sender */\n      swap1\n      pop\n        /* \"Propiedades de Transacciones y Bloques/funciones_globales.sol\":120:207  function MsgSender() public view returns (address) {\r... */\n      swap1\n      jump\t// out\n        /* \"Propiedades de Transacciones y Bloques/funciones_globales.sol\":479:575  function BlockDifficulty() public view returns (uint) {\r... */\n    tag_24:\n        /* \"Propiedades de Transacciones y Bloques/funciones_globales.sol\":527:531  uint */\n      0x00\n        /* \"Propiedades de Transacciones y Bloques/funciones_globales.sol\":551:567  block.difficulty */\n      difficulty\n        /* \"Propiedades de Transacciones y Bloques/funciones_globales.sol\":544:567  return block.difficulty */\n      swap1\n      pop\n        /* \"Propiedades de Transacciones y Bloques/funciones_globales.sol\":479:575  function BlockDifficulty() public view returns (uint) {\r... */\n      swap1\n      jump\t// out\n\n    auxdata: 0xa26469706673582212202083ec376abc890a93f8e1c3fa1a3b0a16950d5c9a667ff647e035b4d94de4ce64736f6c634300060c0033\n}\n",
				"bytecode": {
					"linkReferences": {},
					"object": "608060405234801561001057600080fd5b50610230806100206000396000f3fe608060405234801561001057600080fd5b506004361061007d5760003560e01c8063534ca0541161005b578063534ca05414610111578063648685101461012f57806384d63e121461014d578063e6c595c0146101815761007d565b8063083f3ec4146100825780630a649267146100bf57806344d4fd19146100f3575b600080fd5b61008a61019f565b60405180827bffffffffffffffffffffffffffffffffffffffffffffffffffffffff1916815260200191505060405180910390f35b6100c76101ca565b604051808273ffffffffffffffffffffffffffffffffffffffff16815260200191505060405180910390f35b6100fb6101d2565b6040518082815260200191505060405180910390f35b6101196101da565b6040518082815260200191505060405180910390f35b6101376101e2565b6040518082815260200191505060405180910390f35b6101556101ea565b604051808273ffffffffffffffffffffffffffffffffffffffff16815260200191505060405180910390f35b6101896101f2565b6040518082815260200191505060405180910390f35b600080357fffffffff0000000000000000000000000000000000000000000000000000000016905090565b600041905090565b600042905090565b60003a905090565b600043905090565b600033905090565b60004490509056fea26469706673582212202083ec376abc890a93f8e1c3fa1a3b0a16950d5c9a667ff647e035b4d94de4ce64736f6c634300060c0033",
					"opcodes": "PUSH1 0x80 PUSH1 0x40 MSTORE CALLVALUE DUP1 ISZERO PUSH2 0x10 JUMPI PUSH1 0x0 DUP1 REVERT JUMPDEST POP PUSH2 0x230 DUP1 PUSH2 0x20 PUSH1 0x0 CODECOPY PUSH1 0x0 RETURN INVALID PUSH1 0x80 PUSH1 0x40 MSTORE CALLVALUE DUP1 ISZERO PUSH2 0x10 JUMPI PUSH1 0x0 DUP1 REVERT JUMPDEST POP PUSH1 0x4 CALLDATASIZE LT PUSH2 0x7D JUMPI PUSH1 0x0 CALLDATALOAD PUSH1 0xE0 SHR DUP1 PUSH4 0x534CA054 GT PUSH2 0x5B JUMPI DUP1 PUSH4 0x534CA054 EQ PUSH2 0x111 JUMPI DUP1 PUSH4 0x64868510 EQ PUSH2 0x12F JUMPI DUP1 PUSH4 0x84D63E12 EQ PUSH2 0x14D JUMPI DUP1 PUSH4 0xE6C595C0 EQ PUSH2 0x181 JUMPI PUSH2 0x7D JUMP JUMPDEST DUP1 PUSH4 0x83F3EC4 EQ PUSH2 0x82 JUMPI DUP1 PUSH4 0xA649267 EQ PUSH2 0xBF JUMPI DUP1 PUSH4 0x44D4FD19 EQ PUSH2 0xF3 JUMPI JUMPDEST PUSH1 0x0 DUP1 REVERT JUMPDEST PUSH2 0x8A PUSH2 0x19F JUMP JUMPDEST PUSH1 0x40 MLOAD DUP1 DUP3 PUSH28 0xFFFFFFFFFFFFFFFFFFFFFFFFFFFFFFFFFFFFFFFFFFFFFFFFFFFFFFFF NOT AND DUP2 MSTORE PUSH1 0x20 ADD SWAP2 POP POP PUSH1 0x40 MLOAD DUP1 SWAP2 SUB SWAP1 RETURN JUMPDEST PUSH2 0xC7 PUSH2 0x1CA JUMP JUMPDEST PUSH1 0x40 MLOAD DUP1 DUP3 PUSH20 0xFFFFFFFFFFFFFFFFFFFFFFFFFFFFFFFFFFFFFFFF AND DUP2 MSTORE PUSH1 0x20 ADD SWAP2 POP POP PUSH1 0x40 MLOAD DUP1 SWAP2 SUB SWAP1 RETURN JUMPDEST PUSH2 0xFB PUSH2 0x1D2 JUMP JUMPDEST PUSH1 0x40 MLOAD DUP1 DUP3 DUP2 MSTORE PUSH1 0x20 ADD SWAP2 POP POP PUSH1 0x40 MLOAD DUP1 SWAP2 SUB SWAP1 RETURN JUMPDEST PUSH2 0x119 PUSH2 0x1DA JUMP JUMPDEST PUSH1 0x40 MLOAD DUP1 DUP3 DUP2 MSTORE PUSH1 0x20 ADD SWAP2 POP POP PUSH1 0x40 MLOAD DUP1 SWAP2 SUB SWAP1 RETURN JUMPDEST PUSH2 0x137 PUSH2 0x1E2 JUMP JUMPDEST PUSH1 0x40 MLOAD DUP1 DUP3 DUP2 MSTORE PUSH1 0x20 ADD SWAP2 POP POP PUSH1 0x40 MLOAD DUP1 SWAP2 SUB SWAP1 RETURN JUMPDEST PUSH2 0x155 PUSH2 0x1EA JUMP JUMPDEST PUSH1 0x40 MLOAD DUP1 DUP3 PUSH20 0xFFFFFFFFFFFFFFFFFFFFFFFFFFFFFFFFFFFFFFFF AND DUP2 MSTORE PUSH1 0x20 ADD SWAP2 POP POP PUSH1 0x40 MLOAD DUP1 SWAP2 SUB SWAP1 RETURN JUMPDEST PUSH2 0x189 PUSH2 0x1F2 JUMP JUMPDEST PUSH1 0x40 MLOAD DUP1 DUP3 DUP2 MSTORE PUSH1 0x20 ADD SWAP2 POP POP PUSH1 0x40 MLOAD DUP1 SWAP2 SUB SWAP1 RETURN JUMPDEST PUSH1 0x0 DUP1 CALLDATALOAD PUSH32 0xFFFFFFFF00000000000000000000000000000000000000000000000000000000 AND SWAP1 POP SWAP1 JUMP JUMPDEST PUSH1 0x0 COINBASE SWAP1 POP SWAP1 JUMP JUMPDEST PUSH1 0x0 TIMESTAMP SWAP1 POP SWAP1 JUMP JUMPDEST PUSH1 0x0 GASPRICE SWAP1 POP SWAP1 JUMP JUMPDEST PUSH1 0x0 NUMBER SWAP1 POP SWAP1 JUMP JUMPDEST PUSH1 0x0 CALLER SWAP1 POP SWAP1 JUMP JUMPDEST PUSH1 0x0 DIFFICULTY SWAP1 POP SWAP1 JUMP INVALID LOG2 PUSH5 0x6970667358 0x22 SLT KECCAK256 KECCAK256 DUP4 0xEC CALLDATACOPY PUSH11 0xBC890A93F8E1C3FA1A3B0A AND SWAP6 0xD 0x5C SWAP11 PUSH7 0x7FF647E035B4D9 0x4D 0xE4 0xCE PUSH5 0x736F6C6343 STOP MOD 0xC STOP CALLER "
				},
				"gasEstimates": {
					"creation": {
						"codeDepositCost": "112000",
						"executionCost": "159",
						"totalCost": "112159"
					},
					"external": {
						"BlockCoinbase()": "241",
						"BlockDifficulty()": "278",
						"BlockNumber()": "234",
						"MsgSender()": "262",
						"MsgSig()": "232",
						"Now()": "257",
						"txGasPrice()": "212"
					}
				},
				"methodIdentifiers": {
					"BlockCoinbase()": "0a649267",
					"BlockDifficulty()": "e6c595c0",
					"BlockNumber()": "64868510",
					"MsgSender()": "84d63e12",
					"MsgSig()": "083f3ec4",
					"Now()": "44d4fd19",
					"txGasPrice()": "534ca054"
				}
			},
			"storageLayout": {
				"storage": [],
				"types": null
			},
			"userdoc": {
				"kind": "user",
				"methods": {},
				"version": 1
			}
		}
	}
}