{
	"Bucles y condicionales/bucle_while.sol": {
		"bucle_while": {
			"abi": [
				{
					"inputs": [],
					"name": "espera",
					"outputs": [
						{
							"internalType": "bool",
							"name": "",
							"type": "bool"
						}
					],
					"stateMutability": "view",
					"type": "function"
				},
				{
					"inputs": [],
					"name": "fijarTiempo",
					"outputs": [],
					"stateMutability": "nonpayable",
					"type": "function"
				},
				{
					"inputs": [
						{
							"internalType": "uint256",
							"name": "_p",
							"type": "uint256"
						}
					],
					"name": "siguientePrimo",
					"outputs": [
						{
							"internalType": "uint256",
							"name": "",
							"type": "uint256"
						}
					],
					"stateMutability": "pure",
					"type": "function"
				},
				{
					"inputs": [],
					"name": "suma_imapres",
					"outputs": [
						{
							"internalType": "uint256",
							"name": "",
							"type": "uint256"
						}
					],
					"stateMutability": "pure",
					"type": "function"
				}
			],
			"devdoc": {
				"kind": "dev",
				"methods": {},
				"version": 1
			},
			"evm": {
				"assembly": "    /* \"Bucles y condicionales/bucle_while.sol\":47:1653  contract bucle_while{\r... */\n  mstore(0x40, 0x80)\n  callvalue\n  dup1\n  iszero\n  tag_1\n  jumpi\n  0x00\n  dup1\n  revert\ntag_1:\n  pop\n  dataSize(sub_0)\n  dup1\n  dataOffset(sub_0)\n  0x00\n  codecopy\n  0x00\n  return\nstop\n\nsub_0: assembly {\n        /* \"Bucles y condicionales/bucle_while.sol\":47:1653  contract bucle_while{\r... */\n      mstore(0x40, 0x80)\n      callvalue\n      dup1\n      iszero\n      tag_1\n      jumpi\n      0x00\n      dup1\n      revert\n    tag_1:\n      pop\n      jumpi(tag_2, lt(calldatasize, 0x04))\n      shr(0xe0, calldataload(0x00))\n      dup1\n      0x0614fd7e\n      eq\n      tag_3\n      jumpi\n      dup1\n      0xe0353ed8\n      eq\n      tag_4\n      jumpi\n      dup1\n      0xeb57b482\n      eq\n      tag_5\n      jumpi\n      dup1\n      0xfa7f51fd\n      eq\n      tag_6\n      jumpi\n    tag_2:\n      0x00\n      dup1\n      revert\n        /* \"Bucles y condicionales/bucle_while.sol\":738:1110  function siguientePrimo(uint _p) public pure returns (uint) {\r... */\n    tag_3:\n      tag_7\n      0x04\n      dup1\n      calldatasize\n      sub\n      0x20\n      dup2\n      lt\n      iszero\n      tag_8\n      jumpi\n      0x00\n      dup1\n      revert\n    tag_8:\n      dup2\n      add\n      swap1\n      dup1\n      dup1\n      calldataload\n      swap1\n      0x20\n      add\n      swap1\n      swap3\n      swap2\n      swap1\n      pop\n      pop\n      pop\n      tag_9\n      jump\t// in\n    tag_7:\n      mload(0x40)\n      dup1\n      dup3\n      dup2\n      mstore\n      0x20\n      add\n      swap2\n      pop\n      pop\n      mload(0x40)\n      dup1\n      swap2\n      sub\n      swap1\n      return\n        /* \"Bucles y condicionales/bucle_while.sol\":135:417  function suma_imapres() public pure returns(uint){\r... */\n    tag_4:\n      tag_10\n      tag_11\n      jump\t// in\n    tag_10:\n      mload(0x40)\n      dup1\n      dup3\n      dup2\n      mstore\n      0x20\n      add\n      swap2\n      pop\n      pop\n      mload(0x40)\n      dup1\n      swap2\n      sub\n      swap1\n      return\n        /* \"Bucles y condicionales/bucle_while.sol\":543:695  function espera() public view returns(bool){\r... */\n    tag_5:\n      tag_12\n      tag_13\n      jump\t// in\n    tag_12:\n      mload(0x40)\n      dup1\n      dup3\n      iszero\n      iszero\n      dup2\n      mstore\n      0x20\n      add\n      swap2\n      pop\n      pop\n      mload(0x40)\n      dup1\n      swap2\n      sub\n      swap1\n      return\n        /* \"Bucles y condicionales/bucle_while.sol\":475:535  function fijarTiempo() public{\r... */\n    tag_6:\n      tag_14\n      tag_15\n      jump\t// in\n    tag_14:\n      stop\n        /* \"Bucles y condicionales/bucle_while.sol\":738:1110  function siguientePrimo(uint _p) public pure returns (uint) {\r... */\n    tag_9:\n        /* \"Bucles y condicionales/bucle_while.sol\":792:796  uint */\n      0x00\n        /* \"Bucles y condicionales/bucle_while.sol\":809:829  uint primo_siguiente */\n      dup1\n        /* \"Bucles y condicionales/bucle_while.sol\":837:838  1 */\n      0x01\n        /* \"Bucles y condicionales/bucle_while.sol\":832:834  _p */\n      dup4\n        /* \"Bucles y condicionales/bucle_while.sol\":832:838  _p + 1 */\n      add\n        /* \"Bucles y condicionales/bucle_while.sol\":809:838  uint primo_siguiente = _p + 1 */\n      swap1\n      pop\n        /* \"Bucles y condicionales/bucle_while.sol\":897:1018  while (!esPrimo(primo_siguiente)) {\r... */\n    tag_17:\n        /* \"Bucles y condicionales/bucle_while.sol\":905:929  esPrimo(primo_siguiente) */\n      tag_19\n        /* \"Bucles y condicionales/bucle_while.sol\":913:928  primo_siguiente */\n      dup2\n        /* \"Bucles y condicionales/bucle_while.sol\":905:912  esPrimo */\n      tag_20\n        /* \"Bucles y condicionales/bucle_while.sol\":905:929  esPrimo(primo_siguiente) */\n      jump\t// in\n    tag_19:\n        /* \"Bucles y condicionales/bucle_while.sol\":897:1018  while (!esPrimo(primo_siguiente)) {\r... */\n      tag_18\n      jumpi\n        /* \"Bucles y condicionales/bucle_while.sol\":946:963  primo_siguiente++ */\n      dup1\n      dup1\n      0x01\n      add\n      swap2\n      pop\n      pop\n        /* \"Bucles y condicionales/bucle_while.sol\":897:1018  while (!esPrimo(primo_siguiente)) {\r... */\n      jump(tag_17)\n    tag_18:\n        /* \"Bucles y condicionales/bucle_while.sol\":1037:1052  primo_siguiente */\n      dup1\n        /* \"Bucles y condicionales/bucle_while.sol\":1030:1052  return primo_siguiente */\n      swap2\n      pop\n      pop\n        /* \"Bucles y condicionales/bucle_while.sol\":738:1110  function siguientePrimo(uint _p) public pure returns (uint) {\r... */\n      swap2\n      swap1\n      pop\n      jump\t// out\n        /* \"Bucles y condicionales/bucle_while.sol\":135:417  function suma_imapres() public pure returns(uint){\r... */\n    tag_11:\n        /* \"Bucles y condicionales/bucle_while.sol\":179:183  uint */\n      0x00\n        /* \"Bucles y condicionales/bucle_while.sol\":195:204  uint suma */\n      dup1\n        /* \"Bucles y condicionales/bucle_while.sol\":205:206  0 */\n      0x00\n        /* \"Bucles y condicionales/bucle_while.sol\":195:206  uint suma=0 */\n      swap1\n      pop\n        /* \"Bucles y condicionales/bucle_while.sol\":217:230  uint contador */\n      0x00\n        /* \"Bucles y condicionales/bucle_while.sol\":231:232  1 */\n      0x01\n        /* \"Bucles y condicionales/bucle_while.sol\":217:232  uint contador=1 */\n      swap1\n      pop\n        /* \"Bucles y condicionales/bucle_while.sol\":245:386  while(contador <= 4){\r... */\n    tag_22:\n        /* \"Bucles y condicionales/bucle_while.sol\":263:264  4 */\n      0x04\n        /* \"Bucles y condicionales/bucle_while.sol\":251:259  contador */\n      dup2\n        /* \"Bucles y condicionales/bucle_while.sol\":251:264  contador <= 4 */\n      gt\n        /* \"Bucles y condicionales/bucle_while.sol\":245:386  while(contador <= 4){\r... */\n      tag_23\n      jumpi\n        /* \"Bucles y condicionales/bucle_while.sol\":299:300  0 */\n      0x00\n        /* \"Bucles y condicionales/bucle_while.sol\":294:295  2 */\n      0x02\n        /* \"Bucles y condicionales/bucle_while.sol\":283:291  contador */\n      dup3\n        /* \"Bucles y condicionales/bucle_while.sol\":283:295  contador % 2 */\n      dup2\n      tag_24\n      jumpi\n      invalid\n    tag_24:\n      mod\n        /* \"Bucles y condicionales/bucle_while.sol\":283:300  contador % 2 != 0 */\n      eq\n        /* \"Bucles y condicionales/bucle_while.sol\":280:350  if(contador % 2 != 0){\r... */\n      tag_25\n      jumpi\n        /* \"Bucles y condicionales/bucle_while.sol\":326:334  contador */\n      dup1\n        /* \"Bucles y condicionales/bucle_while.sol\":320:334  suma+=contador */\n      dup3\n      add\n      swap2\n      pop\n        /* \"Bucles y condicionales/bucle_while.sol\":280:350  if(contador % 2 != 0){\r... */\n    tag_25:\n        /* \"Bucles y condicionales/bucle_while.sol\":364:374  contador++ */\n      dup1\n      dup1\n      0x01\n      add\n      swap2\n      pop\n      pop\n        /* \"Bucles y condicionales/bucle_while.sol\":245:386  while(contador <= 4){\r... */\n      jump(tag_22)\n    tag_23:\n        /* \"Bucles y condicionales/bucle_while.sol\":405:409  suma */\n      dup2\n        /* \"Bucles y condicionales/bucle_while.sol\":398:409  return suma */\n      swap3\n      pop\n      pop\n      pop\n        /* \"Bucles y condicionales/bucle_while.sol\":135:417  function suma_imapres() public pure returns(uint){\r... */\n      swap1\n      jump\t// out\n        /* \"Bucles y condicionales/bucle_while.sol\":543:695  function espera() public view returns(bool){\r... */\n    tag_13:\n        /* \"Bucles y condicionales/bucle_while.sol\":581:585  bool */\n      0x00\n        /* \"Bucles y condicionales/bucle_while.sol\":616:626  10 seconds */\n      0x0a\n        /* \"Bucles y condicionales/bucle_while.sol\":607:613  tiempo */\n      sload(0x00)\n        /* \"Bucles y condicionales/bucle_while.sol\":607:626  tiempo + 10 seconds */\n      add\n        /* \"Bucles y condicionales/bucle_while.sol\":603:606  now */\n      timestamp\n        /* \"Bucles y condicionales/bucle_while.sol\":603:626  now<tiempo + 10 seconds */\n      lt\n        /* \"Bucles y condicionales/bucle_while.sol\":597:666  while(now<tiempo + 10 seconds){\r... */\n      iszero\n      tag_28\n      jumpi\n        /* \"Bucles y condicionales/bucle_while.sol\":649:654  false */\n      0x00\n        /* \"Bucles y condicionales/bucle_while.sol\":642:654  return false */\n      swap1\n      pop\n      jump(tag_26)\n        /* \"Bucles y condicionales/bucle_while.sol\":597:666  while(now<tiempo + 10 seconds){\r... */\n    tag_28:\n        /* \"Bucles y condicionales/bucle_while.sol\":683:687  true */\n      0x01\n        /* \"Bucles y condicionales/bucle_while.sol\":676:687  return true */\n      swap1\n      pop\n        /* \"Bucles y condicionales/bucle_while.sol\":543:695  function espera() public view returns(bool){\r... */\n    tag_26:\n      swap1\n      jump\t// out\n        /* \"Bucles y condicionales/bucle_while.sol\":475:535  function fijarTiempo() public{\r... */\n    tag_15:\n        /* \"Bucles y condicionales/bucle_while.sol\":524:527  now */\n      timestamp\n        /* \"Bucles y condicionales/bucle_while.sol\":515:521  tiempo */\n      0x00\n        /* \"Bucles y condicionales/bucle_while.sol\":515:527  tiempo = now */\n      dup2\n      swap1\n      sstore\n      pop\n        /* \"Bucles y condicionales/bucle_while.sol\":475:535  function fijarTiempo() public{\r... */\n      jump\t// out\n        /* \"Bucles y condicionales/bucle_while.sol\":1118:1650  function esPrimo(uint _n) internal pure returns (bool) {\r... */\n    tag_20:\n        /* \"Bucles y condicionales/bucle_while.sol\":1167:1171  bool */\n      0x00\n        /* \"Bucles y condicionales/bucle_while.sol\":1193:1194  2 */\n      0x02\n        /* \"Bucles y condicionales/bucle_while.sol\":1188:1190  _n */\n      dup3\n        /* \"Bucles y condicionales/bucle_while.sol\":1188:1194  _n < 2 */\n      lt\n        /* \"Bucles y condicionales/bucle_while.sol\":1184:1280  if (_n < 2) {\r... */\n      iszero\n      tag_31\n      jumpi\n        /* \"Bucles y condicionales/bucle_while.sol\":1218:1223  false */\n      0x00\n        /* \"Bucles y condicionales/bucle_while.sol\":1211:1223  return false */\n      swap1\n      pop\n      jump(tag_30)\n        /* \"Bucles y condicionales/bucle_while.sol\":1184:1280  if (_n < 2) {\r... */\n    tag_31:\n        /* \"Bucles y condicionales/bucle_while.sol\":1300:1306  uint i */\n      0x00\n        /* \"Bucles y condicionales/bucle_while.sol\":1309:1310  2 */\n      0x02\n        /* \"Bucles y condicionales/bucle_while.sol\":1300:1310  uint i = 2 */\n      swap1\n      pop\n        /* \"Bucles y condicionales/bucle_while.sol\":1421:1583  while (i * i <= _n) {\r... */\n    tag_32:\n        /* \"Bucles y condicionales/bucle_while.sol\":1437:1439  _n */\n      dup3\n        /* \"Bucles y condicionales/bucle_while.sol\":1432:1433  i */\n      dup2\n        /* \"Bucles y condicionales/bucle_while.sol\":1428:1429  i */\n      dup3\n        /* \"Bucles y condicionales/bucle_while.sol\":1428:1433  i * i */\n      mul\n        /* \"Bucles y condicionales/bucle_while.sol\":1428:1439  i * i <= _n */\n      gt\n        /* \"Bucles y condicionales/bucle_while.sol\":1421:1583  while (i * i <= _n) {\r... */\n      tag_33\n      jumpi\n        /* \"Bucles y condicionales/bucle_while.sol\":1470:1471  0 */\n      0x00\n        /* \"Bucles y condicionales/bucle_while.sol\":1465:1466  i */\n      dup2\n        /* \"Bucles y condicionales/bucle_while.sol\":1460:1462  _n */\n      dup5\n        /* \"Bucles y condicionales/bucle_while.sol\":1460:1466  _n % i */\n      dup2\n      tag_34\n      jumpi\n      invalid\n    tag_34:\n      mod\n        /* \"Bucles y condicionales/bucle_while.sol\":1460:1471  _n % i == 0 */\n      eq\n        /* \"Bucles y condicionales/bucle_while.sol\":1456:1554  if (_n % i == 0) {\r... */\n      iszero\n      tag_35\n      jumpi\n        /* \"Bucles y condicionales/bucle_while.sol\":1499:1504  false */\n      0x00\n        /* \"Bucles y condicionales/bucle_while.sol\":1492:1504  return false */\n      swap2\n      pop\n      pop\n      jump(tag_30)\n        /* \"Bucles y condicionales/bucle_while.sol\":1456:1554  if (_n % i == 0) {\r... */\n    tag_35:\n        /* \"Bucles y condicionales/bucle_while.sol\":1568:1571  i++ */\n      dup1\n      dup1\n      0x01\n      add\n      swap2\n      pop\n      pop\n        /* \"Bucles y condicionales/bucle_while.sol\":1421:1583  while (i * i <= _n) {\r... */\n      jump(tag_32)\n    tag_33:\n        /* \"Bucles y condicionales/bucle_while.sol\":1602:1606  true */\n      0x01\n        /* \"Bucles y condicionales/bucle_while.sol\":1595:1606  return true */\n      swap2\n      pop\n      pop\n        /* \"Bucles y condicionales/bucle_while.sol\":1118:1650  function esPrimo(uint _n) internal pure returns (bool) {\r... */\n    tag_30:\n      swap2\n      swap1\n      pop\n      jump\t// out\n\n    auxdata: 0xa2646970667358221220577faf220a4effcedfadd6519665150ea8a16bad07594d8cd51e287b52abf8bb64736f6c634300060c0033\n}\n",
				"bytecode": {
					"linkReferences": {},
					"object": "608060405234801561001057600080fd5b50610202806100206000396000f3fe608060405234801561001057600080fd5b506004361061004c5760003560e01c80630614fd7e14610051578063e0353ed814610093578063eb57b482146100b1578063fa7f51fd146100d1575b600080fd5b61007d6004803603602081101561006757600080fd5b81019080803590602001909291905050506100db565b6040518082815260200191505060405180910390f35b61009b610108565b6040518082815260200191505060405180910390f35b6100b961014b565b60405180821515815260200191505060405180910390f35b6100d961016b565b005b6000806001830190505b6100ee81610174565b6100ff5780806001019150506100e5565b80915050919050565b600080600090506000600190505b600481116101435760006002828161012a57fe5b06146101365780820191505b8080600101915050610116565b819250505090565b6000600a600054014210156101635760009050610168565b600190505b90565b42600081905550565b6000600282101561018857600090506101c7565b6000600290505b82818202116101c15760008184816101a357fe5b0614156101b45760009150506101c7565b808060010191505061018f565b60019150505b91905056fea2646970667358221220577faf220a4effcedfadd6519665150ea8a16bad07594d8cd51e287b52abf8bb64736f6c634300060c0033",
					"opcodes": "PUSH1 0x80 PUSH1 0x40 MSTORE CALLVALUE DUP1 ISZERO PUSH2 0x10 JUMPI PUSH1 0x0 DUP1 REVERT JUMPDEST POP PUSH2 0x202 DUP1 PUSH2 0x20 PUSH1 0x0 CODECOPY PUSH1 0x0 RETURN INVALID PUSH1 0x80 PUSH1 0x40 MSTORE CALLVALUE DUP1 ISZERO PUSH2 0x10 JUMPI PUSH1 0x0 DUP1 REVERT JUMPDEST POP PUSH1 0x4 CALLDATASIZE LT PUSH2 0x4C JUMPI PUSH1 0x0 CALLDATALOAD PUSH1 0xE0 SHR DUP1 PUSH4 0x614FD7E EQ PUSH2 0x51 JUMPI DUP1 PUSH4 0xE0353ED8 EQ PUSH2 0x93 JUMPI DUP1 PUSH4 0xEB57B482 EQ PUSH2 0xB1 JUMPI DUP1 PUSH4 0xFA7F51FD EQ PUSH2 0xD1 JUMPI JUMPDEST PUSH1 0x0 DUP1 REVERT JUMPDEST PUSH2 0x7D PUSH1 0x4 DUP1 CALLDATASIZE SUB PUSH1 0x20 DUP2 LT ISZERO PUSH2 0x67 JUMPI PUSH1 0x0 DUP1 REVERT JUMPDEST DUP2 ADD SWAP1 DUP1 DUP1 CALLDATALOAD SWAP1 PUSH1 0x20 ADD SWAP1 SWAP3 SWAP2 SWAP1 POP POP POP PUSH2 0xDB JUMP JUMPDEST PUSH1 0x40 MLOAD DUP1 DUP3 DUP2 MSTORE PUSH1 0x20 ADD SWAP2 POP POP PUSH1 0x40 MLOAD DUP1 SWAP2 SUB SWAP1 RETURN JUMPDEST PUSH2 0x9B PUSH2 0x108 JUMP JUMPDEST PUSH1 0x40 MLOAD DUP1 DUP3 DUP2 MSTORE PUSH1 0x20 ADD SWAP2 POP POP PUSH1 0x40 MLOAD DUP1 SWAP2 SUB SWAP1 RETURN JUMPDEST PUSH2 0xB9 PUSH2 0x14B JUMP JUMPDEST PUSH1 0x40 MLOAD DUP1 DUP3 ISZERO ISZERO DUP2 MSTORE PUSH1 0x20 ADD SWAP2 POP POP PUSH1 0x40 MLOAD DUP1 SWAP2 SUB SWAP1 RETURN JUMPDEST PUSH2 0xD9 PUSH2 0x16B JUMP JUMPDEST STOP JUMPDEST PUSH1 0x0 DUP1 PUSH1 0x1 DUP4 ADD SWAP1 POP JUMPDEST PUSH2 0xEE DUP2 PUSH2 0x174 JUMP JUMPDEST PUSH2 0xFF JUMPI DUP1 DUP1 PUSH1 0x1 ADD SWAP2 POP POP PUSH2 0xE5 JUMP JUMPDEST DUP1 SWAP2 POP POP SWAP2 SWAP1 POP JUMP JUMPDEST PUSH1 0x0 DUP1 PUSH1 0x0 SWAP1 POP PUSH1 0x0 PUSH1 0x1 SWAP1 POP JUMPDEST PUSH1 0x4 DUP2 GT PUSH2 0x143 JUMPI PUSH1 0x0 PUSH1 0x2 DUP3 DUP2 PUSH2 0x12A JUMPI INVALID JUMPDEST MOD EQ PUSH2 0x136 JUMPI DUP1 DUP3 ADD SWAP2 POP JUMPDEST DUP1 DUP1 PUSH1 0x1 ADD SWAP2 POP POP PUSH2 0x116 JUMP JUMPDEST DUP2 SWAP3 POP POP POP SWAP1 JUMP JUMPDEST PUSH1 0x0 PUSH1 0xA PUSH1 0x0 SLOAD ADD TIMESTAMP LT ISZERO PUSH2 0x163 JUMPI PUSH1 0x0 SWAP1 POP PUSH2 0x168 JUMP JUMPDEST PUSH1 0x1 SWAP1 POP JUMPDEST SWAP1 JUMP JUMPDEST TIMESTAMP PUSH1 0x0 DUP2 SWAP1 SSTORE POP JUMP JUMPDEST PUSH1 0x0 PUSH1 0x2 DUP3 LT ISZERO PUSH2 0x188 JUMPI PUSH1 0x0 SWAP1 POP PUSH2 0x1C7 JUMP JUMPDEST PUSH1 0x0 PUSH1 0x2 SWAP1 POP JUMPDEST DUP3 DUP2 DUP3 MUL GT PUSH2 0x1C1 JUMPI PUSH1 0x0 DUP2 DUP5 DUP2 PUSH2 0x1A3 JUMPI INVALID JUMPDEST MOD EQ ISZERO PUSH2 0x1B4 JUMPI PUSH1 0x0 SWAP2 POP POP PUSH2 0x1C7 JUMP JUMPDEST DUP1 DUP1 PUSH1 0x1 ADD SWAP2 POP POP PUSH2 0x18F JUMP JUMPDEST PUSH1 0x1 SWAP2 POP POP JUMPDEST SWAP2 SWAP1 POP JUMP INVALID LOG2 PUSH5 0x6970667358 0x22 SLT KECCAK256 JUMPI PUSH32 0xAF220A4EFFCEDFADD6519665150EA8A16BAD07594D8CD51E287B52ABF8BB6473 PUSH16 0x6C634300060C00330000000000000000 "
				},
				"gasEstimates": {
					"creation": {
						"codeDepositCost": "102800",
						"executionCost": "153",
						"totalCost": "102953"
					},
					"external": {
						"espera()": "1083",
						"fijarTiempo()": "20201",
						"siguientePrimo(uint256)": "infinite",
						"suma_imapres()": "infinite"
					},
					"internal": {
						"esPrimo(uint256)": "infinite"
					}
				},
				"methodIdentifiers": {
					"espera()": "eb57b482",
					"fijarTiempo()": "fa7f51fd",
					"siguientePrimo(uint256)": "0614fd7e",
					"suma_imapres()": "e0353ed8"
				}
			},
			"storageLayout": {
				"storage": [
					{
						"astId": 38,
						"contract": "Bucles y condicionales/bucle_while.sol:bucle_while",
						"label": "tiempo",
						"offset": 0,
						"slot": "0",
						"type": "t_uint256"
					}
				],
				"types": {
					"t_uint256": {
						"encoding": "inplace",
						"label": "uint256",
						"numberOfBytes": "32"
					}
				}
			},
			"userdoc": {
				"kind": "user",
				"methods": {},
				"version": 1
			}
		}
	}
}