{
	"herencia/librerias.sol": {
		"operaciones": {
			"abi": [
				{
					"inputs": [
						{
							"internalType": "uint256",
							"name": "_a",
							"type": "uint256"
						},
						{
							"internalType": "uint256",
							"name": "_b",
							"type": "uint256"
						}
					],
					"name": "division",
					"outputs": [
						{
							"internalType": "uint256",
							"name": "",
							"type": "uint256"
						}
					],
					"stateMutability": "pure",
					"type": "function"
				},
				{
					"inputs": [
						{
							"internalType": "uint256",
							"name": "_i",
							"type": "uint256"
						},
						{
							"internalType": "uint256",
							"name": "_j",
							"type": "uint256"
						}
					],
					"name": "multiplicacion",
					"outputs": [
						{
							"internalType": "uint256",
							"name": "",
							"type": "uint256"
						}
					],
					"stateMutability": "pure",
					"type": "function"
				}
			],
			"devdoc": {
				"kind": "dev",
				"methods": {},
				"version": 1
			},
			"evm": {
				"assembly": "    /* \"herencia/librerias.sol\":59:429  library operaciones {\r... */\n  dataSize(sub_0)\n  dataOffset(sub_0)\n  0x0b\n  dup3\n  dup3\n  dup3\n  codecopy\n  dup1\n  mload\n  0x00\n  byte\n  0x73\n  eq\n  tag_1\n  jumpi\n  invalid\ntag_1:\n  mstore(0x00, address)\n  0x73\n  dup2\n  mstore8\n  dup3\n  dup2\n  return\nstop\n\nsub_0: assembly {\n        /* \"herencia/librerias.sol\":59:429  library operaciones {\r... */\n      eq(address, deployTimeAddress())\n      mstore(0x40, 0x80)\n      jumpi(tag_1, lt(calldatasize, 0x04))\n      shr(0xe0, calldataload(0x00))\n      dup1\n      0xd17fb9ea\n      eq\n      tag_2\n      jumpi\n      dup1\n      0xe0068052\n      eq\n      tag_3\n      jumpi\n    tag_1:\n      0x00\n      dup1\n      revert\n        /* \"herencia/librerias.sol\":236:426  function multiplicacion(uint _i,uint _j) public pure returns(uint){\r... */\n    tag_2:\n      tag_4\n      0x04\n      dup1\n      calldatasize\n      sub\n      0x40\n      dup2\n      lt\n      iszero\n      tag_5\n      jumpi\n      0x00\n      dup1\n      revert\n    tag_5:\n      dup2\n      add\n      swap1\n      dup1\n      dup1\n      calldataload\n      swap1\n      0x20\n      add\n      swap1\n      swap3\n      swap2\n      swap1\n      dup1\n      calldataload\n      swap1\n      0x20\n      add\n      swap1\n      swap3\n      swap2\n      swap1\n      pop\n      pop\n      pop\n      tag_6\n      jump\t// in\n    tag_4:\n      mload(0x40)\n      dup1\n      dup3\n      dup2\n      mstore\n      0x20\n      add\n      swap2\n      pop\n      pop\n      mload(0x40)\n      dup1\n      swap2\n      sub\n      swap1\n      return\n        /* \"herencia/librerias.sol\":86:228  function division (uint _a, uint _b) public pure returns(uint){\r... */\n    tag_3:\n      tag_7\n      0x04\n      dup1\n      calldatasize\n      sub\n      0x40\n      dup2\n      lt\n      iszero\n      tag_8\n      jumpi\n      0x00\n      dup1\n      revert\n    tag_8:\n      dup2\n      add\n      swap1\n      dup1\n      dup1\n      calldataload\n      swap1\n      0x20\n      add\n      swap1\n      swap3\n      swap2\n      swap1\n      dup1\n      calldataload\n      swap1\n      0x20\n      add\n      swap1\n      swap3\n      swap2\n      swap1\n      pop\n      pop\n      pop\n      tag_9\n      jump\t// in\n    tag_7:\n      mload(0x40)\n      dup1\n      dup3\n      dup2\n      mstore\n      0x20\n      add\n      swap2\n      pop\n      pop\n      mload(0x40)\n      dup1\n      swap2\n      sub\n      swap1\n      return\n        /* \"herencia/librerias.sol\":236:426  function multiplicacion(uint _i,uint _j) public pure returns(uint){\r... */\n    tag_6:\n        /* \"herencia/librerias.sol\":297:301  uint */\n      0x00\n        /* \"herencia/librerias.sol\":321:322  0 */\n      dup1\n        /* \"herencia/librerias.sol\":317:319  _j */\n      dup3\n        /* \"herencia/librerias.sol\":317:322  _j==0 */\n      eq\n        /* \"herencia/librerias.sol\":316:336  (_j==0) || (_i == 0) */\n      dup1\n      tag_11\n      jumpi\n      pop\n        /* \"herencia/librerias.sol\":334:335  0 */\n      0x00\n        /* \"herencia/librerias.sol\":328:330  _i */\n      dup4\n        /* \"herencia/librerias.sol\":328:335  _i == 0 */\n      eq\n        /* \"herencia/librerias.sol\":316:336  (_j==0) || (_i == 0) */\n    tag_11:\n        /* \"herencia/librerias.sol\":313:419  if((_j==0) || (_i == 0)){\r... */\n      iszero\n      tag_12\n      jumpi\n        /* \"herencia/librerias.sol\":359:360  0 */\n      0x00\n        /* \"herencia/librerias.sol\":352:360  return 0 */\n      swap1\n      pop\n      jump(tag_10)\n        /* \"herencia/librerias.sol\":313:419  if((_j==0) || (_i == 0)){\r... */\n    tag_12:\n        /* \"herencia/librerias.sol\":405:407  _j */\n      dup2\n        /* \"herencia/librerias.sol\":400:402  _i */\n      dup4\n        /* \"herencia/librerias.sol\":400:407  _i * _j */\n      mul\n        /* \"herencia/librerias.sol\":393:407  return _i * _j */\n      swap1\n      pop\n        /* \"herencia/librerias.sol\":236:426  function multiplicacion(uint _i,uint _j) public pure returns(uint){\r... */\n    tag_10:\n      swap3\n      swap2\n      pop\n      pop\n      jump\t// out\n        /* \"herencia/librerias.sol\":86:228  function division (uint _a, uint _b) public pure returns(uint){\r... */\n    tag_9:\n        /* \"herencia/librerias.sol\":143:147  uint */\n      0x00\n        /* \"herencia/librerias.sol\":170:171  0 */\n      dup1\n        /* \"herencia/librerias.sol\":167:169  _b */\n      dup3\n        /* \"herencia/librerias.sol\":167:171  _b>0 */\n      gt\n        /* \"herencia/librerias.sol\":159:197  require(_b>0, \"You can't divide by 0\") */\n      tag_15\n      jumpi\n      mload(0x40)\n      0x08c379a000000000000000000000000000000000000000000000000000000000\n      dup2\n      mstore\n      0x04\n      add\n      dup1\n      dup1\n      0x20\n      add\n      dup3\n      dup2\n      sub\n      dup3\n      mstore\n      0x15\n      dup2\n      mstore\n      0x20\n      add\n      dup1\n      0x596f752063616e27742064697669646520627920300000000000000000000000\n      dup2\n      mstore\n      pop\n      0x20\n      add\n      swap2\n      pop\n      pop\n      mload(0x40)\n      dup1\n      swap2\n      sub\n      swap1\n      revert\n    tag_15:\n        /* \"herencia/librerias.sol\":218:220  _b */\n      dup2\n        /* \"herencia/librerias.sol\":215:217  _a */\n      dup4\n        /* \"herencia/librerias.sol\":215:220  _a/_b */\n      dup2\n      tag_16\n      jumpi\n      invalid\n    tag_16:\n      div\n        /* \"herencia/librerias.sol\":208:220  return _a/_b */\n      swap1\n      pop\n        /* \"herencia/librerias.sol\":86:228  function division (uint _a, uint _b) public pure returns(uint){\r... */\n      swap3\n      swap2\n      pop\n      pop\n      jump\t// out\n\n    auxdata: 0xa2646970667358221220ebc71411de7f6e0cf0d19944baef9a2a5301b5d51474ca794f8acdec063afacb64736f6c634300060c0033\n}\n",
				"bytecode": {
					"linkReferences": {},
					"object": "6101c6610026600b82828239805160001a60731461001957fe5b30600052607381538281f3fe73000000000000000000000000000000000000000030146080604052600436106100405760003560e01c8063d17fb9ea14610045578063e006805214610091575b600080fd5b61007b6004803603604081101561005b57600080fd5b8101908080359060200190929190803590602001909291905050506100dd565b6040518082815260200191505060405180910390f35b6100c7600480360360408110156100a757600080fd5b810190808035906020019092919080359060200190929190505050610107565b6040518082815260200191505060405180910390f35b6000808214806100ed5750600083145b156100fb5760009050610101565b81830290505b92915050565b600080821161017e576040517f08c379a00000000000000000000000000000000000000000000000000000000081526004018080602001828103825260158152602001807f596f752063616e2774206469766964652062792030000000000000000000000081525060200191505060405180910390fd5b81838161018757fe5b0490509291505056fea2646970667358221220ebc71411de7f6e0cf0d19944baef9a2a5301b5d51474ca794f8acdec063afacb64736f6c634300060c0033",
					"opcodes": "PUSH2 0x1C6 PUSH2 0x26 PUSH1 0xB DUP3 DUP3 DUP3 CODECOPY DUP1 MLOAD PUSH1 0x0 BYTE PUSH1 0x73 EQ PUSH2 0x19 JUMPI INVALID JUMPDEST ADDRESS PUSH1 0x0 MSTORE PUSH1 0x73 DUP2 MSTORE8 DUP3 DUP2 RETURN INVALID PUSH20 0x0 ADDRESS EQ PUSH1 0x80 PUSH1 0x40 MSTORE PUSH1 0x4 CALLDATASIZE LT PUSH2 0x40 JUMPI PUSH1 0x0 CALLDATALOAD PUSH1 0xE0 SHR DUP1 PUSH4 0xD17FB9EA EQ PUSH2 0x45 JUMPI DUP1 PUSH4 0xE0068052 EQ PUSH2 0x91 JUMPI JUMPDEST PUSH1 0x0 DUP1 REVERT JUMPDEST PUSH2 0x7B PUSH1 0x4 DUP1 CALLDATASIZE SUB PUSH1 0x40 DUP2 LT ISZERO PUSH2 0x5B JUMPI PUSH1 0x0 DUP1 REVERT JUMPDEST DUP2 ADD SWAP1 DUP1 DUP1 CALLDATALOAD SWAP1 PUSH1 0x20 ADD SWAP1 SWAP3 SWAP2 SWAP1 DUP1 CALLDATALOAD SWAP1 PUSH1 0x20 ADD SWAP1 SWAP3 SWAP2 SWAP1 POP POP POP PUSH2 0xDD JUMP JUMPDEST PUSH1 0x40 MLOAD DUP1 DUP3 DUP2 MSTORE PUSH1 0x20 ADD SWAP2 POP POP PUSH1 0x40 MLOAD DUP1 SWAP2 SUB SWAP1 RETURN JUMPDEST PUSH2 0xC7 PUSH1 0x4 DUP1 CALLDATASIZE SUB PUSH1 0x40 DUP2 LT ISZERO PUSH2 0xA7 JUMPI PUSH1 0x0 DUP1 REVERT JUMPDEST DUP2 ADD SWAP1 DUP1 DUP1 CALLDATALOAD SWAP1 PUSH1 0x20 ADD SWAP1 SWAP3 SWAP2 SWAP1 DUP1 CALLDATALOAD SWAP1 PUSH1 0x20 ADD SWAP1 SWAP3 SWAP2 SWAP1 POP POP POP PUSH2 0x107 JUMP JUMPDEST PUSH1 0x40 MLOAD DUP1 DUP3 DUP2 MSTORE PUSH1 0x20 ADD SWAP2 POP POP PUSH1 0x40 MLOAD DUP1 SWAP2 SUB SWAP1 RETURN JUMPDEST PUSH1 0x0 DUP1 DUP3 EQ DUP1 PUSH2 0xED JUMPI POP PUSH1 0x0 DUP4 EQ JUMPDEST ISZERO PUSH2 0xFB JUMPI PUSH1 0x0 SWAP1 POP PUSH2 0x101 JUMP JUMPDEST DUP2 DUP4 MUL SWAP1 POP JUMPDEST SWAP3 SWAP2 POP POP JUMP JUMPDEST PUSH1 0x0 DUP1 DUP3 GT PUSH2 0x17E JUMPI PUSH1 0x40 MLOAD PUSH32 0x8C379A000000000000000000000000000000000000000000000000000000000 DUP2 MSTORE PUSH1 0x4 ADD DUP1 DUP1 PUSH1 0x20 ADD DUP3 DUP2 SUB DUP3 MSTORE PUSH1 0x15 DUP2 MSTORE PUSH1 0x20 ADD DUP1 PUSH32 0x596F752063616E27742064697669646520627920300000000000000000000000 DUP2 MSTORE POP PUSH1 0x20 ADD SWAP2 POP POP PUSH1 0x40 MLOAD DUP1 SWAP2 SUB SWAP1 REVERT JUMPDEST DUP2 DUP4 DUP2 PUSH2 0x187 JUMPI INVALID JUMPDEST DIV SWAP1 POP SWAP3 SWAP2 POP POP JUMP INVALID LOG2 PUSH5 0x6970667358 0x22 SLT KECCAK256 0xEB 0xC7 EQ GT 0xDE PUSH32 0x6E0CF0D19944BAEF9A2A5301B5D51474CA794F8ACDEC063AFACB64736F6C6343 STOP MOD 0xC STOP CALLER "
				},
				"gasEstimates": {
					"creation": {
						"codeDepositCost": "90800",
						"executionCost": "166",
						"totalCost": "90966"
					},
					"external": {
						"division(uint256,uint256)": "376",
						"multiplicacion(uint256,uint256)": "356"
					}
				},
				"methodIdentifiers": {
					"division(uint256,uint256)": "e0068052",
					"multiplicacion(uint256,uint256)": "d17fb9ea"
				}
			},
			"storageLayout": {
				"storage": [],
				"types": null
			},
			"userdoc": {
				"kind": "user",
				"methods": {},
				"version": 1
			}
		}
	}
}