{
	"Proyectos/Votaciones/votaciones.sol": {
		"votacion": {
			"abi": [
				{
					"constant": true,
					"inputs": [],
					"name": "verResultados",
					"outputs": [
						{
							"name": "",
							"type": "string"
						}
					],
					"payable": false,
					"stateMutability": "view",
					"type": "function"
				},
				{
					"constant": false,
					"inputs": [
						{
							"name": "_candidato",
							"type": "string"
						}
					],
					"name": "verVotos",
					"outputs": [
						{
							"name": "",
							"type": "uint256"
						}
					],
					"payable": false,
					"stateMutability": "nonpayable",
					"type": "function"
				},
				{
					"constant": false,
					"inputs": [
						{
							"name": "_nombreCandidato",
							"type": "string"
						}
					],
					"name": "votarCandidato",
					"outputs": [],
					"payable": false,
					"stateMutability": "nonpayable",
					"type": "function"
				},
				{
					"constant": false,
					"inputs": [
						{
							"name": "_nom",
							"type": "string"
						},
						{
							"name": "_edad",
							"type": "uint256"
						},
						{
							"name": "_id",
							"type": "string"
						}
					],
					"name": "presentarCandidato",
					"outputs": [],
					"payable": false,
					"stateMutability": "nonpayable",
					"type": "function"
				},
				{
					"constant": true,
					"inputs": [],
					"name": "ganadorVotaciones",
					"outputs": [
						{
							"name": "",
							"type": "string"
						}
					],
					"payable": false,
					"stateMutability": "view",
					"type": "function"
				},
				{
					"constant": true,
					"inputs": [],
					"name": "owner",
					"outputs": [
						{
							"name": "",
							"type": "address"
						}
					],
					"payable": false,
					"stateMutability": "view",
					"type": "function"
				},
				{
					"constant": true,
					"inputs": [],
					"name": "verCandidatos",
					"outputs": [
						{
							"name": "",
							"type": "string[]"
						}
					],
					"payable": false,
					"stateMutability": "view",
					"type": "function"
				},
				{
					"inputs": [],
					"payable": false,
					"stateMutability": "nonpayable",
					"type": "constructor"
				}
			],
			"devdoc": {
				"methods": {}
			},
			"evm": {
				"assembly": "    /* \"Proyectos/Votaciones/votaciones.sol\":142:3409  contract votacion{\r... */\n  mstore(0x40, 0x80)\n    /* \"Proyectos/Votaciones/votaciones.sol\":245:304  constructor () public {\r... */\n  callvalue\n    /* \"--CODEGEN--\":8:17   */\n  dup1\n    /* \"--CODEGEN--\":5:7   */\n  iszero\n  tag_1\n  jumpi\n    /* \"--CODEGEN--\":30:31   */\n  0x0\n    /* \"--CODEGEN--\":27:28   */\n  dup1\n    /* \"--CODEGEN--\":20:32   */\n  revert\n    /* \"--CODEGEN--\":5:7   */\ntag_1:\n    /* \"Proyectos/Votaciones/votaciones.sol\":245:304  constructor () public {\r... */\n  pop\n    /* \"Proyectos/Votaciones/votaciones.sol\":286:296  msg.sender */\n  caller\n    /* \"Proyectos/Votaciones/votaciones.sol\":278:283  owner */\n  0x0\n  dup1\n    /* \"Proyectos/Votaciones/votaciones.sol\":278:296  owner = msg.sender */\n  0x100\n  exp\n  dup2\n  sload\n  dup2\n  0xffffffffffffffffffffffffffffffffffffffff\n  mul\n  not\n  and\n  swap1\n  dup4\n  0xffffffffffffffffffffffffffffffffffffffff\n  and\n  mul\n  or\n  swap1\n  sstore\n  pop\n    /* \"Proyectos/Votaciones/votaciones.sol\":142:3409  contract votacion{\r... */\n  dataSize(sub_0)\n  dup1\n  dataOffset(sub_0)\n  0x0\n  codecopy\n  0x0\n  return\nstop\n\nsub_0: assembly {\n        /* \"Proyectos/Votaciones/votaciones.sol\":142:3409  contract votacion{\r... */\n      mstore(0x40, 0x80)\n      jumpi(tag_1, lt(calldatasize, 0x4))\n      calldataload(0x0)\n      0x100000000000000000000000000000000000000000000000000000000\n      swap1\n      div\n      0xffffffff\n      and\n      dup1\n      0x58c6414f\n      eq\n      tag_2\n      jumpi\n      dup1\n      0x60df75d4\n      eq\n      tag_3\n      jumpi\n      dup1\n      0x64714e22\n      eq\n      tag_4\n      jumpi\n      dup1\n      0x723cbc3d\n      eq\n      tag_5\n      jumpi\n      dup1\n      0x7f12af43\n      eq\n      tag_6\n      jumpi\n      dup1\n      0x8da5cb5b\n      eq\n      tag_7\n      jumpi\n      dup1\n      0xcaaa49a6\n      eq\n      tag_8\n      jumpi\n    tag_1:\n      0x0\n      dup1\n      revert\n        /* \"Proyectos/Votaciones/votaciones.sol\":2421:2746  function verResultados() public view returns(string memory){\r... */\n    tag_2:\n      callvalue\n        /* \"--CODEGEN--\":8:17   */\n      dup1\n        /* \"--CODEGEN--\":5:7   */\n      iszero\n      tag_9\n      jumpi\n        /* \"--CODEGEN--\":30:31   */\n      0x0\n        /* \"--CODEGEN--\":27:28   */\n      dup1\n        /* \"--CODEGEN--\":20:32   */\n      revert\n        /* \"--CODEGEN--\":5:7   */\n    tag_9:\n        /* \"Proyectos/Votaciones/votaciones.sol\":2421:2746  function verResultados() public view returns(string memory){\r... */\n      pop\n      tag_10\n      jump(tag_11)\n    tag_10:\n      mload(0x40)\n      tag_12\n      swap2\n      swap1\n      jump(tag_13)\n    tag_12:\n      mload(0x40)\n      dup1\n      swap2\n      sub\n      swap1\n      return\n        /* \"Proyectos/Votaciones/votaciones.sol\":1712:1856  function verVotos(string memory _candidato) public onlyGoverment(msg.sender) returns (uint){\r... */\n    tag_3:\n      callvalue\n        /* \"--CODEGEN--\":8:17   */\n      dup1\n        /* \"--CODEGEN--\":5:7   */\n      iszero\n      tag_14\n      jumpi\n        /* \"--CODEGEN--\":30:31   */\n      0x0\n        /* \"--CODEGEN--\":27:28   */\n      dup1\n        /* \"--CODEGEN--\":20:32   */\n      revert\n        /* \"--CODEGEN--\":5:7   */\n    tag_14:\n        /* \"Proyectos/Votaciones/votaciones.sol\":1712:1856  function verVotos(string memory _candidato) public onlyGoverment(msg.sender) returns (uint){\r... */\n      pop\n      tag_15\n      0x4\n      dup1\n      calldatasize\n      sub\n      tag_16\n      swap2\n      swap1\n      dup2\n      add\n      swap1\n      jump(tag_17)\n    tag_16:\n      jump(tag_18)\n    tag_15:\n      mload(0x40)\n      tag_19\n      swap2\n      swap1\n      jump(tag_20)\n    tag_19:\n      mload(0x40)\n      dup1\n      swap2\n      sub\n      swap1\n      return\n        /* \"Proyectos/Votaciones/votaciones.sol\":1324:1704  function votarCandidato(string memory _nombreCandidato) public {\r... */\n    tag_4:\n      callvalue\n        /* \"--CODEGEN--\":8:17   */\n      dup1\n        /* \"--CODEGEN--\":5:7   */\n      iszero\n      tag_21\n      jumpi\n        /* \"--CODEGEN--\":30:31   */\n      0x0\n        /* \"--CODEGEN--\":27:28   */\n      dup1\n        /* \"--CODEGEN--\":20:32   */\n      revert\n        /* \"--CODEGEN--\":5:7   */\n    tag_21:\n        /* \"Proyectos/Votaciones/votaciones.sol\":1324:1704  function votarCandidato(string memory _nombreCandidato) public {\r... */\n      pop\n      tag_22\n      0x4\n      dup1\n      calldatasize\n      sub\n      tag_23\n      swap2\n      swap1\n      dup2\n      add\n      swap1\n      jump(tag_17)\n    tag_23:\n      jump(tag_24)\n    tag_22:\n      stop\n        /* \"Proyectos/Votaciones/votaciones.sol\":915:1210  function presentarCandidato(string memory _nom,uint _edad,string memory _id) public {\r... */\n    tag_5:\n      callvalue\n        /* \"--CODEGEN--\":8:17   */\n      dup1\n        /* \"--CODEGEN--\":5:7   */\n      iszero\n      tag_25\n      jumpi\n        /* \"--CODEGEN--\":30:31   */\n      0x0\n        /* \"--CODEGEN--\":27:28   */\n      dup1\n        /* \"--CODEGEN--\":20:32   */\n      revert\n        /* \"--CODEGEN--\":5:7   */\n    tag_25:\n        /* \"Proyectos/Votaciones/votaciones.sol\":915:1210  function presentarCandidato(string memory _nom,uint _edad,string memory _id) public {\r... */\n      pop\n      tag_26\n      0x4\n      dup1\n      calldatasize\n      sub\n      tag_27\n      swap2\n      swap1\n      dup2\n      add\n      swap1\n      jump(tag_28)\n    tag_27:\n      jump(tag_29)\n    tag_26:\n      stop\n        /* \"Proyectos/Votaciones/votaciones.sol\":2754:3404  function ganadorVotaciones() public view returns(string memory){\r... */\n    tag_6:\n      callvalue\n        /* \"--CODEGEN--\":8:17   */\n      dup1\n        /* \"--CODEGEN--\":5:7   */\n      iszero\n      tag_30\n      jumpi\n        /* \"--CODEGEN--\":30:31   */\n      0x0\n        /* \"--CODEGEN--\":27:28   */\n      dup1\n        /* \"--CODEGEN--\":20:32   */\n      revert\n        /* \"--CODEGEN--\":5:7   */\n    tag_30:\n        /* \"Proyectos/Votaciones/votaciones.sol\":2754:3404  function ganadorVotaciones() public view returns(string memory){\r... */\n      pop\n      tag_31\n      jump(tag_32)\n    tag_31:\n      mload(0x40)\n      tag_33\n      swap2\n      swap1\n      jump(tag_13)\n    tag_33:\n      mload(0x40)\n      dup1\n      swap2\n      sub\n      swap1\n      return\n        /* \"Proyectos/Votaciones/votaciones.sol\":216:236  address public owner */\n    tag_7:\n      callvalue\n        /* \"--CODEGEN--\":8:17   */\n      dup1\n        /* \"--CODEGEN--\":5:7   */\n      iszero\n      tag_34\n      jumpi\n        /* \"--CODEGEN--\":30:31   */\n      0x0\n        /* \"--CODEGEN--\":27:28   */\n      dup1\n        /* \"--CODEGEN--\":20:32   */\n      revert\n        /* \"--CODEGEN--\":5:7   */\n    tag_34:\n        /* \"Proyectos/Votaciones/votaciones.sol\":216:236  address public owner */\n      pop\n      tag_35\n      jump(tag_36)\n    tag_35:\n      mload(0x40)\n      tag_37\n      swap2\n      swap1\n      jump(tag_38)\n    tag_37:\n      mload(0x40)\n      dup1\n      swap2\n      sub\n      swap1\n      return\n        /* \"Proyectos/Votaciones/votaciones.sol\":1218:1316  function verCandidatos() public view returns(string [] memory){\r... */\n    tag_8:\n      callvalue\n        /* \"--CODEGEN--\":8:17   */\n      dup1\n        /* \"--CODEGEN--\":5:7   */\n      iszero\n      tag_39\n      jumpi\n        /* \"--CODEGEN--\":30:31   */\n      0x0\n        /* \"--CODEGEN--\":27:28   */\n      dup1\n        /* \"--CODEGEN--\":20:32   */\n      revert\n        /* \"--CODEGEN--\":5:7   */\n    tag_39:\n        /* \"Proyectos/Votaciones/votaciones.sol\":1218:1316  function verCandidatos() public view returns(string [] memory){\r... */\n      pop\n      tag_40\n      jump(tag_41)\n    tag_40:\n      mload(0x40)\n      tag_42\n      swap2\n      swap1\n      jump(tag_43)\n    tag_42:\n      mload(0x40)\n      dup1\n      swap2\n      sub\n      swap1\n      return\n        /* \"Proyectos/Votaciones/votaciones.sol\":2421:2746  function verResultados() public view returns(string memory){\r... */\n    tag_11:\n        /* \"Proyectos/Votaciones/votaciones.sol\":2466:2472  string */\n      0x60\n        /* \"Proyectos/Votaciones/votaciones.sol\":2491:2515  string memory resultados */\n      dup1\n        /* \"Proyectos/Votaciones/votaciones.sol\":2531:2538  uint _i */\n      0x0\n        /* \"Proyectos/Votaciones/votaciones.sol\":2539:2540  0 */\n      dup1\n        /* \"Proyectos/Votaciones/votaciones.sol\":2531:2540  uint _i=0 */\n      swap1\n      pop\n        /* \"Proyectos/Votaciones/votaciones.sol\":2526:2715  for (uint _i=0;_i<candidatos.length;_i++){\r... */\n    tag_45:\n        /* \"Proyectos/Votaciones/votaciones.sol\":2544:2554  candidatos */\n      0x3\n        /* \"Proyectos/Votaciones/votaciones.sol\":2544:2561  candidatos.length */\n      dup1\n      sload\n      swap1\n      pop\n        /* \"Proyectos/Votaciones/votaciones.sol\":2541:2543  _i */\n      dup2\n        /* \"Proyectos/Votaciones/votaciones.sol\":2541:2561  _i<candidatos.length */\n      lt\n        /* \"Proyectos/Votaciones/votaciones.sol\":2526:2715  for (uint _i=0;_i<candidatos.length;_i++){\r... */\n      iszero\n      tag_46\n      jumpi\n        /* \"Proyectos/Votaciones/votaciones.sol\":2619:2629  resultados */\n      dup2\n        /* \"Proyectos/Votaciones/votaciones.sol\":2634:2644  candidatos */\n      0x3\n        /* \"Proyectos/Votaciones/votaciones.sol\":2645:2647  _i */\n      dup3\n        /* \"Proyectos/Votaciones/votaciones.sol\":2634:2648  candidatos[_i] */\n      dup2\n      sload\n      dup2\n      lt\n      iszero\n      iszero\n      tag_48\n      jumpi\n      invalid\n    tag_48:\n      swap1\n      0x0\n      mstore\n      keccak256(0x0, 0x20)\n      add\n        /* \"Proyectos/Votaciones/votaciones.sol\":2655:2689  uint2str(verVotos(candidatos[_i])) */\n      tag_50\n        /* \"Proyectos/Votaciones/votaciones.sol\":2664:2688  verVotos(candidatos[_i]) */\n      tag_51\n        /* \"Proyectos/Votaciones/votaciones.sol\":2673:2683  candidatos */\n      0x3\n        /* \"Proyectos/Votaciones/votaciones.sol\":2684:2686  _i */\n      dup6\n        /* \"Proyectos/Votaciones/votaciones.sol\":2673:2687  candidatos[_i] */\n      dup2\n      sload\n      dup2\n      lt\n      iszero\n      iszero\n      tag_52\n      jumpi\n      invalid\n    tag_52:\n      swap1\n      0x0\n      mstore\n      keccak256(0x0, 0x20)\n      add\n        /* \"Proyectos/Votaciones/votaciones.sol\":2664:2688  verVotos(candidatos[_i]) */\n      dup1\n      sload\n      0x1\n      dup2\n      0x1\n      and\n      iszero\n      0x100\n      mul\n      sub\n      and\n      0x2\n      swap1\n      div\n      dup1\n      0x1f\n      add\n      0x20\n      dup1\n      swap2\n      div\n      mul\n      0x20\n      add\n      mload(0x40)\n      swap1\n      dup2\n      add\n      0x40\n      mstore\n      dup1\n      swap3\n      swap2\n      swap1\n      dup2\n      dup2\n      mstore\n      0x20\n      add\n      dup3\n      dup1\n      sload\n      0x1\n      dup2\n      0x1\n      and\n      iszero\n      0x100\n      mul\n      sub\n      and\n      0x2\n      swap1\n      div\n      dup1\n      iszero\n      tag_54\n      jumpi\n      dup1\n      0x1f\n      lt\n      tag_55\n      jumpi\n      0x100\n      dup1\n      dup4\n      sload\n      div\n      mul\n      dup4\n      mstore\n      swap2\n      0x20\n      add\n      swap2\n      jump(tag_54)\n    tag_55:\n      dup3\n      add\n      swap2\n      swap1\n      0x0\n      mstore\n      keccak256(0x0, 0x20)\n      swap1\n    tag_56:\n      dup2\n      sload\n      dup2\n      mstore\n      swap1\n      0x1\n      add\n      swap1\n      0x20\n      add\n      dup1\n      dup4\n      gt\n      tag_56\n      jumpi\n      dup3\n      swap1\n      sub\n      0x1f\n      and\n      dup3\n      add\n      swap2\n    tag_54:\n      pop\n      pop\n      pop\n      pop\n      pop\n        /* \"Proyectos/Votaciones/votaciones.sol\":2664:2672  verVotos */\n      tag_18\n        /* \"Proyectos/Votaciones/votaciones.sol\":2664:2688  verVotos(candidatos[_i]) */\n      jump\t// in\n    tag_51:\n        /* \"Proyectos/Votaciones/votaciones.sol\":2655:2663  uint2str */\n      tag_57\n        /* \"Proyectos/Votaciones/votaciones.sol\":2655:2689  uint2str(verVotos(candidatos[_i])) */\n      jump\t// in\n    tag_50:\n        /* \"Proyectos/Votaciones/votaciones.sol\":2602:2702  abi.encodePacked(resultados,\"(\",candidatos[_i],\" | \",uint2str(verVotos(candidatos[_i])), \") ------\") */\n      add(0x20, mload(0x40))\n      dup1\n      dup5\n      dup1\n      mload\n      swap1\n      0x20\n      add\n      swap1\n      dup1\n      dup4\n      dup4\n        /* \"--CODEGEN--\":36:189   */\n    tag_58:\n        /* \"--CODEGEN--\":66:68   */\n      0x20\n        /* \"--CODEGEN--\":61:64   */\n      dup4\n        /* \"--CODEGEN--\":58:69   */\n      lt\n        /* \"--CODEGEN--\":51:70   */\n      iszero\n        /* \"--CODEGEN--\":36:189   */\n      iszero\n      tag_59\n      jumpi\n        /* \"--CODEGEN--\":182:185   */\n      dup1\n        /* \"--CODEGEN--\":176:186   */\n      mload\n        /* \"--CODEGEN--\":171:174   */\n      dup3\n        /* \"--CODEGEN--\":164:187   */\n      mstore\n        /* \"--CODEGEN--\":98:100   */\n      0x20\n        /* \"--CODEGEN--\":93:96   */\n      dup3\n        /* \"--CODEGEN--\":89:101   */\n      add\n        /* \"--CODEGEN--\":82:101   */\n      swap2\n      pop\n        /* \"--CODEGEN--\":123:125   */\n      0x20\n        /* \"--CODEGEN--\":118:121   */\n      dup2\n        /* \"--CODEGEN--\":114:126   */\n      add\n        /* \"--CODEGEN--\":107:126   */\n      swap1\n      pop\n        /* \"--CODEGEN--\":148:150   */\n      0x20\n        /* \"--CODEGEN--\":143:146   */\n      dup4\n        /* \"--CODEGEN--\":139:151   */\n      sub\n        /* \"--CODEGEN--\":132:151   */\n      swap3\n      pop\n        /* \"--CODEGEN--\":36:189   */\n      jump(tag_58)\n    tag_59:\n        /* \"--CODEGEN--\":274:275   */\n      0x1\n        /* \"--CODEGEN--\":267:270   */\n      dup4\n        /* \"--CODEGEN--\":263:265   */\n      0x20\n        /* \"--CODEGEN--\":259:271   */\n      sub\n        /* \"--CODEGEN--\":254:257   */\n      0x100\n        /* \"--CODEGEN--\":250:272   */\n      exp\n        /* \"--CODEGEN--\":246:276   */\n      sub\n        /* \"--CODEGEN--\":315:319   */\n      dup1\n        /* \"--CODEGEN--\":311:320   */\n      not\n        /* \"--CODEGEN--\":305:308   */\n      dup3\n        /* \"--CODEGEN--\":299:309   */\n      mload\n        /* \"--CODEGEN--\":295:321   */\n      and\n        /* \"--CODEGEN--\":356:360   */\n      dup2\n        /* \"--CODEGEN--\":350:353   */\n      dup5\n        /* \"--CODEGEN--\":344:354   */\n      mload\n        /* \"--CODEGEN--\":340:361   */\n      and\n        /* \"--CODEGEN--\":389:396   */\n      dup1\n        /* \"--CODEGEN--\":380:387   */\n      dup3\n        /* \"--CODEGEN--\":377:397   */\n      or\n        /* \"--CODEGEN--\":372:375   */\n      dup6\n        /* \"--CODEGEN--\":365:398   */\n      mstore\n        /* \"--CODEGEN--\":3:402   */\n      pop\n      pop\n      pop\n        /* \"Proyectos/Votaciones/votaciones.sol\":2602:2702  abi.encodePacked(resultados,\"(\",candidatos[_i],\" | \",uint2str(verVotos(candidatos[_i])), \") ------\") */\n      pop\n      pop\n      pop\n      swap1\n      pop\n      add\n      dup1\n      0x2800000000000000000000000000000000000000000000000000000000000000\n      dup2\n      mstore\n      pop\n      0x1\n      add\n      dup4\n      dup1\n      sload\n      0x1\n      dup2\n      0x1\n      and\n      iszero\n      0x100\n      mul\n      sub\n      and\n      0x2\n      swap1\n      div\n      dup1\n      iszero\n      tag_61\n      jumpi\n      dup1\n      0x1f\n      lt\n      tag_62\n      jumpi\n      0x100\n      dup1\n      dup4\n      sload\n      div\n      mul\n      dup4\n      mstore\n      swap2\n      dup3\n      add\n      swap2\n      jump(tag_61)\n    tag_62:\n      dup3\n      add\n      swap2\n      swap1\n      0x0\n      mstore\n      keccak256(0x0, 0x20)\n      swap1\n    tag_63:\n      dup2\n      sload\n      dup2\n      mstore\n      swap1\n      0x1\n      add\n      swap1\n      0x20\n      add\n      dup1\n      dup4\n      gt\n      tag_63\n      jumpi\n    tag_61:\n      pop\n      pop\n      dup1\n      0x207c200000000000000000000000000000000000000000000000000000000000\n      dup2\n      mstore\n      pop\n      0x3\n      add\n      dup3\n      dup1\n      mload\n      swap1\n      0x20\n      add\n      swap1\n      dup1\n      dup4\n      dup4\n        /* \"--CODEGEN--\":36:189   */\n    tag_64:\n        /* \"--CODEGEN--\":66:68   */\n      0x20\n        /* \"--CODEGEN--\":61:64   */\n      dup4\n        /* \"--CODEGEN--\":58:69   */\n      lt\n        /* \"--CODEGEN--\":51:70   */\n      iszero\n        /* \"--CODEGEN--\":36:189   */\n      iszero\n      tag_65\n      jumpi\n        /* \"--CODEGEN--\":182:185   */\n      dup1\n        /* \"--CODEGEN--\":176:186   */\n      mload\n        /* \"--CODEGEN--\":171:174   */\n      dup3\n        /* \"--CODEGEN--\":164:187   */\n      mstore\n        /* \"--CODEGEN--\":98:100   */\n      0x20\n        /* \"--CODEGEN--\":93:96   */\n      dup3\n        /* \"--CODEGEN--\":89:101   */\n      add\n        /* \"--CODEGEN--\":82:101   */\n      swap2\n      pop\n        /* \"--CODEGEN--\":123:125   */\n      0x20\n        /* \"--CODEGEN--\":118:121   */\n      dup2\n        /* \"--CODEGEN--\":114:126   */\n      add\n        /* \"--CODEGEN--\":107:126   */\n      swap1\n      pop\n        /* \"--CODEGEN--\":148:150   */\n      0x20\n        /* \"--CODEGEN--\":143:146   */\n      dup4\n        /* \"--CODEGEN--\":139:151   */\n      sub\n        /* \"--CODEGEN--\":132:151   */\n      swap3\n      pop\n        /* \"--CODEGEN--\":36:189   */\n      jump(tag_64)\n    tag_65:\n        /* \"--CODEGEN--\":274:275   */\n      0x1\n        /* \"--CODEGEN--\":267:270   */\n      dup4\n        /* \"--CODEGEN--\":263:265   */\n      0x20\n        /* \"--CODEGEN--\":259:271   */\n      sub\n        /* \"--CODEGEN--\":254:257   */\n      0x100\n        /* \"--CODEGEN--\":250:272   */\n      exp\n        /* \"--CODEGEN--\":246:276   */\n      sub\n        /* \"--CODEGEN--\":315:319   */\n      dup1\n        /* \"--CODEGEN--\":311:320   */\n      not\n        /* \"--CODEGEN--\":305:308   */\n      dup3\n        /* \"--CODEGEN--\":299:309   */\n      mload\n        /* \"--CODEGEN--\":295:321   */\n      and\n        /* \"--CODEGEN--\":356:360   */\n      dup2\n        /* \"--CODEGEN--\":350:353   */\n      dup5\n        /* \"--CODEGEN--\":344:354   */\n      mload\n        /* \"--CODEGEN--\":340:361   */\n      and\n        /* \"--CODEGEN--\":389:396   */\n      dup1\n        /* \"--CODEGEN--\":380:387   */\n      dup3\n        /* \"--CODEGEN--\":377:397   */\n      or\n        /* \"--CODEGEN--\":372:375   */\n      dup6\n        /* \"--CODEGEN--\":365:398   */\n      mstore\n        /* \"--CODEGEN--\":3:402   */\n      pop\n      pop\n      pop\n        /* \"Proyectos/Votaciones/votaciones.sol\":2602:2702  abi.encodePacked(resultados,\"(\",candidatos[_i],\" | \",uint2str(verVotos(candidatos[_i])), \") ------\") */\n      pop\n      pop\n      pop\n      swap1\n      pop\n      add\n      dup1\n      0x29202d2d2d2d2d2d000000000000000000000000000000000000000000000000\n      dup2\n      mstore\n      pop\n      0x8\n      add\n      swap4\n      pop\n      pop\n      pop\n      pop\n      mload(0x40)\n        /* \"--CODEGEN--\":49:53   */\n      0x20\n        /* \"--CODEGEN--\":39:46   */\n      dup2\n        /* \"--CODEGEN--\":30:37   */\n      dup4\n        /* \"--CODEGEN--\":26:47   */\n      sub\n        /* \"--CODEGEN--\":22:54   */\n      sub\n        /* \"--CODEGEN--\":13:20   */\n      dup2\n        /* \"--CODEGEN--\":6:55   */\n      mstore\n        /* \"Proyectos/Votaciones/votaciones.sol\":2602:2702  abi.encodePacked(resultados,\"(\",candidatos[_i],\" | \",uint2str(verVotos(candidatos[_i])), \") ------\") */\n      swap1\n      0x40\n      mstore\n        /* \"Proyectos/Votaciones/votaciones.sol\":2582:2703  resultados = string(abi.encodePacked(resultados,\"(\",candidatos[_i],\" | \",uint2str(verVotos(candidatos[_i])), \") ------\")) */\n      swap2\n      pop\n        /* \"Proyectos/Votaciones/votaciones.sol\":2562:2566  _i++ */\n      dup1\n      dup1\n      0x1\n      add\n      swap2\n      pop\n      pop\n        /* \"Proyectos/Votaciones/votaciones.sol\":2526:2715  for (uint _i=0;_i<candidatos.length;_i++){\r... */\n      jump(tag_45)\n    tag_46:\n        /* \"Proyectos/Votaciones/votaciones.sol\":2728:2738  resultados */\n      dup2\n        /* \"Proyectos/Votaciones/votaciones.sol\":2721:2738  return resultados */\n      swap3\n      pop\n        /* \"Proyectos/Votaciones/votaciones.sol\":2421:2746  function verResultados() public view returns(string memory){\r... */\n      pop\n      pop\n      swap1\n      jump\t// out\n        /* \"Proyectos/Votaciones/votaciones.sol\":1712:1856  function verVotos(string memory _candidato) public onlyGoverment(msg.sender) returns (uint){\r... */\n    tag_18:\n        /* \"Proyectos/Votaciones/votaciones.sol\":1798:1802  uint */\n      0x0\n        /* \"Proyectos/Votaciones/votaciones.sol\":1777:1787  msg.sender */\n      caller\n        /* \"Proyectos/Votaciones/votaciones.sol\":828:833  owner */\n      0x0\n      dup1\n      swap1\n      sload\n      swap1\n      0x100\n      exp\n      swap1\n      div\n      0xffffffffffffffffffffffffffffffffffffffff\n      and\n        /* \"Proyectos/Votaciones/votaciones.sol\":816:833  _address == owner */\n      0xffffffffffffffffffffffffffffffffffffffff\n      and\n        /* \"Proyectos/Votaciones/votaciones.sol\":816:824  _address */\n      dup2\n        /* \"Proyectos/Votaciones/votaciones.sol\":816:833  _address == owner */\n      0xffffffffffffffffffffffffffffffffffffffff\n      and\n      eq\n        /* \"Proyectos/Votaciones/votaciones.sol\":808:885  require(_address == owner,\"No puedes ver los votos si no eres el gobernador\") */\n      iszero\n      iszero\n      tag_68\n      jumpi\n      mload(0x40)\n      0x8c379a000000000000000000000000000000000000000000000000000000000\n      dup2\n      mstore\n      0x4\n      add\n      tag_69\n      swap1\n      jump(tag_70)\n    tag_69:\n      mload(0x40)\n      dup1\n      swap2\n      sub\n      swap1\n      revert\n    tag_68:\n        /* \"Proyectos/Votaciones/votaciones.sol\":1821:1836  votos_Candidato */\n      0x2\n        /* \"Proyectos/Votaciones/votaciones.sol\":1837:1847  _candidato */\n      dup4\n        /* \"Proyectos/Votaciones/votaciones.sol\":1821:1848  votos_Candidato[_candidato] */\n      mload(0x40)\n      dup1\n      dup3\n      dup1\n      mload\n      swap1\n      0x20\n      add\n      swap1\n      dup1\n      dup4\n      dup4\n        /* \"--CODEGEN--\":36:189   */\n    tag_72:\n        /* \"--CODEGEN--\":66:68   */\n      0x20\n        /* \"--CODEGEN--\":61:64   */\n      dup4\n        /* \"--CODEGEN--\":58:69   */\n      lt\n        /* \"--CODEGEN--\":51:70   */\n      iszero\n        /* \"--CODEGEN--\":36:189   */\n      iszero\n      tag_73\n      jumpi\n        /* \"--CODEGEN--\":182:185   */\n      dup1\n        /* \"--CODEGEN--\":176:186   */\n      mload\n        /* \"--CODEGEN--\":171:174   */\n      dup3\n        /* \"--CODEGEN--\":164:187   */\n      mstore\n        /* \"--CODEGEN--\":98:100   */\n      0x20\n        /* \"--CODEGEN--\":93:96   */\n      dup3\n        /* \"--CODEGEN--\":89:101   */\n      add\n        /* \"--CODEGEN--\":82:101   */\n      swap2\n      pop\n        /* \"--CODEGEN--\":123:125   */\n      0x20\n        /* \"--CODEGEN--\":118:121   */\n      dup2\n        /* \"--CODEGEN--\":114:126   */\n      add\n        /* \"--CODEGEN--\":107:126   */\n      swap1\n      pop\n        /* \"--CODEGEN--\":148:150   */\n      0x20\n        /* \"--CODEGEN--\":143:146   */\n      dup4\n        /* \"--CODEGEN--\":139:151   */\n      sub\n        /* \"--CODEGEN--\":132:151   */\n      swap3\n      pop\n        /* \"--CODEGEN--\":36:189   */\n      jump(tag_72)\n    tag_73:\n        /* \"--CODEGEN--\":274:275   */\n      0x1\n        /* \"--CODEGEN--\":267:270   */\n      dup4\n        /* \"--CODEGEN--\":263:265   */\n      0x20\n        /* \"--CODEGEN--\":259:271   */\n      sub\n        /* \"--CODEGEN--\":254:257   */\n      0x100\n        /* \"--CODEGEN--\":250:272   */\n      exp\n        /* \"--CODEGEN--\":246:276   */\n      sub\n        /* \"--CODEGEN--\":315:319   */\n      dup1\n        /* \"--CODEGEN--\":311:320   */\n      not\n        /* \"--CODEGEN--\":305:308   */\n      dup3\n        /* \"--CODEGEN--\":299:309   */\n      mload\n        /* \"--CODEGEN--\":295:321   */\n      and\n        /* \"--CODEGEN--\":356:360   */\n      dup2\n        /* \"--CODEGEN--\":350:353   */\n      dup5\n        /* \"--CODEGEN--\":344:354   */\n      mload\n        /* \"--CODEGEN--\":340:361   */\n      and\n        /* \"--CODEGEN--\":389:396   */\n      dup1\n        /* \"--CODEGEN--\":380:387   */\n      dup3\n        /* \"--CODEGEN--\":377:397   */\n      or\n        /* \"--CODEGEN--\":372:375   */\n      dup6\n        /* \"--CODEGEN--\":365:398   */\n      mstore\n        /* \"--CODEGEN--\":3:402   */\n      pop\n      pop\n      pop\n        /* \"Proyectos/Votaciones/votaciones.sol\":1821:1848  votos_Candidato[_candidato] */\n      pop\n      pop\n      pop\n      swap1\n      pop\n      add\n      swap2\n      pop\n      pop\n      swap1\n      dup2\n      mstore\n      0x20\n      add\n      mload(0x40)\n      dup1\n      swap2\n      sub\n      swap1\n      keccak256\n      sload\n        /* \"Proyectos/Votaciones/votaciones.sol\":1814:1848  return votos_Candidato[_candidato] */\n      swap2\n      pop\n        /* \"Proyectos/Votaciones/votaciones.sol\":1712:1856  function verVotos(string memory _candidato) public onlyGoverment(msg.sender) returns (uint){\r... */\n      pop\n      swap2\n      swap1\n      pop\n      jump\t// out\n        /* \"Proyectos/Votaciones/votaciones.sol\":1324:1704  function votarCandidato(string memory _nombreCandidato) public {\r... */\n    tag_24:\n        /* \"Proyectos/Votaciones/votaciones.sol\":1398:1418  bytes32 hash_votante */\n      0x0\n        /* \"Proyectos/Votaciones/votaciones.sol\":1478:1484  uint i */\n      dup1\n        /* \"Proyectos/Votaciones/votaciones.sol\":1448:1458  msg.sender */\n      caller\n        /* \"Proyectos/Votaciones/votaciones.sol\":1431:1459  abi.encodePacked(msg.sender) */\n      add(0x20, mload(0x40))\n      dup1\n      dup3\n      0xffffffffffffffffffffffffffffffffffffffff\n      and\n      0xffffffffffffffffffffffffffffffffffffffff\n      and\n      0x1000000000000000000000000\n      mul\n      dup2\n      mstore\n      0x14\n      add\n      swap2\n      pop\n      pop\n      mload(0x40)\n        /* \"--CODEGEN--\":49:53   */\n      0x20\n        /* \"--CODEGEN--\":39:46   */\n      dup2\n        /* \"--CODEGEN--\":30:37   */\n      dup4\n        /* \"--CODEGEN--\":26:47   */\n      sub\n        /* \"--CODEGEN--\":22:54   */\n      sub\n        /* \"--CODEGEN--\":13:20   */\n      dup2\n        /* \"--CODEGEN--\":6:55   */\n      mstore\n        /* \"Proyectos/Votaciones/votaciones.sol\":1431:1459  abi.encodePacked(msg.sender) */\n      swap1\n      0x40\n      mstore\n        /* \"Proyectos/Votaciones/votaciones.sol\":1421:1460  keccak256(abi.encodePacked(msg.sender)) */\n      mload(0x40)\n      dup1\n      dup3\n      dup1\n      mload\n      swap1\n      0x20\n      add\n      swap1\n      dup1\n      dup4\n      dup4\n        /* \"--CODEGEN--\":36:189   */\n    tag_76:\n        /* \"--CODEGEN--\":66:68   */\n      0x20\n        /* \"--CODEGEN--\":61:64   */\n      dup4\n        /* \"--CODEGEN--\":58:69   */\n      lt\n        /* \"--CODEGEN--\":51:70   */\n      iszero\n        /* \"--CODEGEN--\":36:189   */\n      iszero\n      tag_77\n      jumpi\n        /* \"--CODEGEN--\":182:185   */\n      dup1\n        /* \"--CODEGEN--\":176:186   */\n      mload\n        /* \"--CODEGEN--\":171:174   */\n      dup3\n        /* \"--CODEGEN--\":164:187   */\n      mstore\n        /* \"--CODEGEN--\":98:100   */\n      0x20\n        /* \"--CODEGEN--\":93:96   */\n      dup3\n        /* \"--CODEGEN--\":89:101   */\n      add\n        /* \"--CODEGEN--\":82:101   */\n      swap2\n      pop\n        /* \"--CODEGEN--\":123:125   */\n      0x20\n        /* \"--CODEGEN--\":118:121   */\n      dup2\n        /* \"--CODEGEN--\":114:126   */\n      add\n        /* \"--CODEGEN--\":107:126   */\n      swap1\n      pop\n        /* \"--CODEGEN--\":148:150   */\n      0x20\n        /* \"--CODEGEN--\":143:146   */\n      dup4\n        /* \"--CODEGEN--\":139:151   */\n      sub\n        /* \"--CODEGEN--\":132:151   */\n      swap3\n      pop\n        /* \"--CODEGEN--\":36:189   */\n      jump(tag_76)\n    tag_77:\n        /* \"--CODEGEN--\":274:275   */\n      0x1\n        /* \"--CODEGEN--\":267:270   */\n      dup4\n        /* \"--CODEGEN--\":263:265   */\n      0x20\n        /* \"--CODEGEN--\":259:271   */\n      sub\n        /* \"--CODEGEN--\":254:257   */\n      0x100\n        /* \"--CODEGEN--\":250:272   */\n      exp\n        /* \"--CODEGEN--\":246:276   */\n      sub\n        /* \"--CODEGEN--\":315:319   */\n      dup1\n        /* \"--CODEGEN--\":311:320   */\n      not\n        /* \"--CODEGEN--\":305:308   */\n      dup3\n        /* \"--CODEGEN--\":299:309   */\n      mload\n        /* \"--CODEGEN--\":295:321   */\n      and\n        /* \"--CODEGEN--\":356:360   */\n      dup2\n        /* \"--CODEGEN--\":350:353   */\n      dup5\n        /* \"--CODEGEN--\":344:354   */\n      mload\n        /* \"--CODEGEN--\":340:361   */\n      and\n        /* \"--CODEGEN--\":389:396   */\n      dup1\n        /* \"--CODEGEN--\":380:387   */\n      dup3\n        /* \"--CODEGEN--\":377:397   */\n      or\n        /* \"--CODEGEN--\":372:375   */\n      dup6\n        /* \"--CODEGEN--\":365:398   */\n      mstore\n        /* \"--CODEGEN--\":3:402   */\n      pop\n      pop\n      pop\n        /* \"Proyectos/Votaciones/votaciones.sol\":1421:1460  keccak256(abi.encodePacked(msg.sender)) */\n      pop\n      pop\n      pop\n      swap1\n      pop\n      add\n      swap2\n      pop\n      pop\n      mload(0x40)\n      dup1\n      swap2\n      sub\n      swap1\n      keccak256\n        /* \"Proyectos/Votaciones/votaciones.sol\":1398:1460  bytes32 hash_votante = keccak256(abi.encodePacked(msg.sender)) */\n      swap2\n      pop\n        /* \"Proyectos/Votaciones/votaciones.sol\":1486:1487  0 */\n      0x0\n        /* \"Proyectos/Votaciones/votaciones.sol\":1478:1487  uint i =0 */\n      swap1\n      pop\n        /* \"Proyectos/Votaciones/votaciones.sol\":1473:1613  for (uint i =0; i<votantes.length;i++){\r... */\n    tag_79:\n        /* \"Proyectos/Votaciones/votaciones.sol\":1491:1499  votantes */\n      0x4\n        /* \"Proyectos/Votaciones/votaciones.sol\":1491:1506  votantes.length */\n      dup1\n      sload\n      swap1\n      pop\n        /* \"Proyectos/Votaciones/votaciones.sol\":1489:1490  i */\n      dup2\n        /* \"Proyectos/Votaciones/votaciones.sol\":1489:1506  i<votantes.length */\n      lt\n        /* \"Proyectos/Votaciones/votaciones.sol\":1473:1613  for (uint i =0; i<votantes.length;i++){\r... */\n      iszero\n      tag_80\n      jumpi\n        /* \"Proyectos/Votaciones/votaciones.sol\":1547:1559  hash_votante */\n      dup2\n        /* \"Proyectos/Votaciones/votaciones.sol\":1534:1559  votantes[i]!=hash_votante */\n      not(0x0)\n      and\n        /* \"Proyectos/Votaciones/votaciones.sol\":1534:1542  votantes */\n      0x4\n        /* \"Proyectos/Votaciones/votaciones.sol\":1543:1544  i */\n      dup3\n        /* \"Proyectos/Votaciones/votaciones.sol\":1534:1545  votantes[i] */\n      dup2\n      sload\n      dup2\n      lt\n      iszero\n      iszero\n      tag_82\n      jumpi\n      invalid\n    tag_82:\n      swap1\n      0x0\n      mstore\n      keccak256(0x0, 0x20)\n      add\n      sload\n        /* \"Proyectos/Votaciones/votaciones.sol\":1534:1559  votantes[i]!=hash_votante */\n      not(0x0)\n      and\n      eq\n      iszero\n        /* \"Proyectos/Votaciones/votaciones.sol\":1526:1601  require(votantes[i]!=hash_votante,\"No esta permitido votar mas de una vez\") */\n      iszero\n      iszero\n      tag_84\n      jumpi\n      mload(0x40)\n      0x8c379a000000000000000000000000000000000000000000000000000000000\n      dup2\n      mstore\n      0x4\n      add\n      tag_85\n      swap1\n      jump(tag_86)\n    tag_85:\n      mload(0x40)\n      dup1\n      swap2\n      sub\n      swap1\n      revert\n    tag_84:\n        /* \"Proyectos/Votaciones/votaciones.sol\":1507:1510  i++ */\n      dup1\n      dup1\n      0x1\n      add\n      swap2\n      pop\n      pop\n        /* \"Proyectos/Votaciones/votaciones.sol\":1473:1613  for (uint i =0; i<votantes.length;i++){\r... */\n      jump(tag_79)\n    tag_80:\n        /* \"Proyectos/Votaciones/votaciones.sol\":1623:1638  votos_Candidato */\n      0x2\n        /* \"Proyectos/Votaciones/votaciones.sol\":1639:1655  _nombreCandidato */\n      dup4\n        /* \"Proyectos/Votaciones/votaciones.sol\":1623:1656  votos_Candidato[_nombreCandidato] */\n      mload(0x40)\n      dup1\n      dup3\n      dup1\n      mload\n      swap1\n      0x20\n      add\n      swap1\n      dup1\n      dup4\n      dup4\n        /* \"--CODEGEN--\":36:189   */\n    tag_87:\n        /* \"--CODEGEN--\":66:68   */\n      0x20\n        /* \"--CODEGEN--\":61:64   */\n      dup4\n        /* \"--CODEGEN--\":58:69   */\n      lt\n        /* \"--CODEGEN--\":51:70   */\n      iszero\n        /* \"--CODEGEN--\":36:189   */\n      iszero\n      tag_88\n      jumpi\n        /* \"--CODEGEN--\":182:185   */\n      dup1\n        /* \"--CODEGEN--\":176:186   */\n      mload\n        /* \"--CODEGEN--\":171:174   */\n      dup3\n        /* \"--CODEGEN--\":164:187   */\n      mstore\n        /* \"--CODEGEN--\":98:100   */\n      0x20\n        /* \"--CODEGEN--\":93:96   */\n      dup3\n        /* \"--CODEGEN--\":89:101   */\n      add\n        /* \"--CODEGEN--\":82:101   */\n      swap2\n      pop\n        /* \"--CODEGEN--\":123:125   */\n      0x20\n        /* \"--CODEGEN--\":118:121   */\n      dup2\n        /* \"--CODEGEN--\":114:126   */\n      add\n        /* \"--CODEGEN--\":107:126   */\n      swap1\n      pop\n        /* \"--CODEGEN--\":148:150   */\n      0x20\n        /* \"--CODEGEN--\":143:146   */\n      dup4\n        /* \"--CODEGEN--\":139:151   */\n      sub\n        /* \"--CODEGEN--\":132:151   */\n      swap3\n      pop\n        /* \"--CODEGEN--\":36:189   */\n      jump(tag_87)\n    tag_88:\n        /* \"--CODEGEN--\":274:275   */\n      0x1\n        /* \"--CODEGEN--\":267:270   */\n      dup4\n        /* \"--CODEGEN--\":263:265   */\n      0x20\n        /* \"--CODEGEN--\":259:271   */\n      sub\n        /* \"--CODEGEN--\":254:257   */\n      0x100\n        /* \"--CODEGEN--\":250:272   */\n      exp\n        /* \"--CODEGEN--\":246:276   */\n      sub\n        /* \"--CODEGEN--\":315:319   */\n      dup1\n        /* \"--CODEGEN--\":311:320   */\n      not\n        /* \"--CODEGEN--\":305:308   */\n      dup3\n        /* \"--CODEGEN--\":299:309   */\n      mload\n        /* \"--CODEGEN--\":295:321   */\n      and\n        /* \"--CODEGEN--\":356:360   */\n      dup2\n        /* \"--CODEGEN--\":350:353   */\n      dup5\n        /* \"--CODEGEN--\":344:354   */\n      mload\n        /* \"--CODEGEN--\":340:361   */\n      and\n        /* \"--CODEGEN--\":389:396   */\n      dup1\n        /* \"--CODEGEN--\":380:387   */\n      dup3\n        /* \"--CODEGEN--\":377:397   */\n      or\n        /* \"--CODEGEN--\":372:375   */\n      dup6\n        /* \"--CODEGEN--\":365:398   */\n      mstore\n        /* \"--CODEGEN--\":3:402   */\n      pop\n      pop\n      pop\n        /* \"Proyectos/Votaciones/votaciones.sol\":1623:1656  votos_Candidato[_nombreCandidato] */\n      pop\n      pop\n      pop\n      swap1\n      pop\n      add\n      swap2\n      pop\n      pop\n      swap1\n      dup2\n      mstore\n      0x20\n      add\n      mload(0x40)\n      dup1\n      swap2\n      sub\n      swap1\n      keccak256\n      0x0\n        /* \"Proyectos/Votaciones/votaciones.sol\":1623:1658  votos_Candidato[_nombreCandidato]++ */\n      dup2\n      sload\n      dup1\n      swap3\n      swap2\n      swap1\n      0x1\n      add\n      swap2\n      swap1\n      pop\n      sstore\n      pop\n        /* \"Proyectos/Votaciones/votaciones.sol\":1669:1677  votantes */\n      0x4\n        /* \"Proyectos/Votaciones/votaciones.sol\":1683:1695  hash_votante */\n      dup3\n        /* \"Proyectos/Votaciones/votaciones.sol\":1669:1696  votantes.push(hash_votante) */\n      swap1\n      dup1\n        /* \"--CODEGEN--\":39:40   */\n      0x1\n        /* \"--CODEGEN--\":33:36   */\n      dup2\n        /* \"--CODEGEN--\":27:37   */\n      sload\n        /* \"--CODEGEN--\":23:41   */\n      add\n        /* \"--CODEGEN--\":57:67   */\n      dup1\n        /* \"--CODEGEN--\":52:55   */\n      dup3\n        /* \"--CODEGEN--\":45:68   */\n      sstore\n        /* \"--CODEGEN--\":79:89   */\n      dup1\n        /* \"--CODEGEN--\":72:89   */\n      swap2\n      pop\n        /* \"--CODEGEN--\":0:93   */\n      pop\n        /* \"Proyectos/Votaciones/votaciones.sol\":1669:1696  votantes.push(hash_votante) */\n      swap1\n      0x1\n      dup3\n      sub\n      swap1\n      0x0\n      mstore\n      keccak256(0x0, 0x20)\n      add\n      0x0\n      swap1\n      swap2\n      swap3\n      swap1\n      swap2\n      swap1\n      swap2\n      pop\n      swap1\n      not(0x0)\n      and\n      swap1\n      sstore\n      pop\n        /* \"Proyectos/Votaciones/votaciones.sol\":1324:1704  function votarCandidato(string memory _nombreCandidato) public {\r... */\n      pop\n      pop\n      pop\n      jump\t// out\n        /* \"Proyectos/Votaciones/votaciones.sol\":915:1210  function presentarCandidato(string memory _nom,uint _edad,string memory _id) public {\r... */\n    tag_29:\n        /* \"Proyectos/Votaciones/votaciones.sol\":1055:1077  bytes32 hash_candidato */\n      0x0\n        /* \"Proyectos/Votaciones/votaciones.sol\":1107:1111  _nom */\n      dup4\n        /* \"Proyectos/Votaciones/votaciones.sol\":1112:1117  _edad */\n      dup4\n        /* \"Proyectos/Votaciones/votaciones.sol\":1118:1121  _id */\n      dup4\n        /* \"Proyectos/Votaciones/votaciones.sol\":1090:1122  abi.encodePacked(_nom,_edad,_id) */\n      add(0x20, mload(0x40))\n      dup1\n      dup5\n      dup1\n      mload\n      swap1\n      0x20\n      add\n      swap1\n      dup1\n      dup4\n      dup4\n        /* \"--CODEGEN--\":36:189   */\n    tag_92:\n        /* \"--CODEGEN--\":66:68   */\n      0x20\n        /* \"--CODEGEN--\":61:64   */\n      dup4\n        /* \"--CODEGEN--\":58:69   */\n      lt\n        /* \"--CODEGEN--\":51:70   */\n      iszero\n        /* \"--CODEGEN--\":36:189   */\n      iszero\n      tag_93\n      jumpi\n        /* \"--CODEGEN--\":182:185   */\n      dup1\n        /* \"--CODEGEN--\":176:186   */\n      mload\n        /* \"--CODEGEN--\":171:174   */\n      dup3\n        /* \"--CODEGEN--\":164:187   */\n      mstore\n        /* \"--CODEGEN--\":98:100   */\n      0x20\n        /* \"--CODEGEN--\":93:96   */\n      dup3\n        /* \"--CODEGEN--\":89:101   */\n      add\n        /* \"--CODEGEN--\":82:101   */\n      swap2\n      pop\n        /* \"--CODEGEN--\":123:125   */\n      0x20\n        /* \"--CODEGEN--\":118:121   */\n      dup2\n        /* \"--CODEGEN--\":114:126   */\n      add\n        /* \"--CODEGEN--\":107:126   */\n      swap1\n      pop\n        /* \"--CODEGEN--\":148:150   */\n      0x20\n        /* \"--CODEGEN--\":143:146   */\n      dup4\n        /* \"--CODEGEN--\":139:151   */\n      sub\n        /* \"--CODEGEN--\":132:151   */\n      swap3\n      pop\n        /* \"--CODEGEN--\":36:189   */\n      jump(tag_92)\n    tag_93:\n        /* \"--CODEGEN--\":274:275   */\n      0x1\n        /* \"--CODEGEN--\":267:270   */\n      dup4\n        /* \"--CODEGEN--\":263:265   */\n      0x20\n        /* \"--CODEGEN--\":259:271   */\n      sub\n        /* \"--CODEGEN--\":254:257   */\n      0x100\n        /* \"--CODEGEN--\":250:272   */\n      exp\n        /* \"--CODEGEN--\":246:276   */\n      sub\n        /* \"--CODEGEN--\":315:319   */\n      dup1\n        /* \"--CODEGEN--\":311:320   */\n      not\n        /* \"--CODEGEN--\":305:308   */\n      dup3\n        /* \"--CODEGEN--\":299:309   */\n      mload\n        /* \"--CODEGEN--\":295:321   */\n      and\n        /* \"--CODEGEN--\":356:360   */\n      dup2\n        /* \"--CODEGEN--\":350:353   */\n      dup5\n        /* \"--CODEGEN--\":344:354   */\n      mload\n        /* \"--CODEGEN--\":340:361   */\n      and\n        /* \"--CODEGEN--\":389:396   */\n      dup1\n        /* \"--CODEGEN--\":380:387   */\n      dup3\n        /* \"--CODEGEN--\":377:397   */\n      or\n        /* \"--CODEGEN--\":372:375   */\n      dup6\n        /* \"--CODEGEN--\":365:398   */\n      mstore\n        /* \"--CODEGEN--\":3:402   */\n      pop\n      pop\n      pop\n        /* \"Proyectos/Votaciones/votaciones.sol\":1090:1122  abi.encodePacked(_nom,_edad,_id) */\n      pop\n      pop\n      pop\n      swap1\n      pop\n      add\n      dup4\n      dup2\n      mstore\n      0x20\n      add\n      dup3\n      dup1\n      mload\n      swap1\n      0x20\n      add\n      swap1\n      dup1\n      dup4\n      dup4\n        /* \"--CODEGEN--\":36:189   */\n    tag_95:\n        /* \"--CODEGEN--\":66:68   */\n      0x20\n        /* \"--CODEGEN--\":61:64   */\n      dup4\n        /* \"--CODEGEN--\":58:69   */\n      lt\n        /* \"--CODEGEN--\":51:70   */\n      iszero\n        /* \"--CODEGEN--\":36:189   */\n      iszero\n      tag_96\n      jumpi\n        /* \"--CODEGEN--\":182:185   */\n      dup1\n        /* \"--CODEGEN--\":176:186   */\n      mload\n        /* \"--CODEGEN--\":171:174   */\n      dup3\n        /* \"--CODEGEN--\":164:187   */\n      mstore\n        /* \"--CODEGEN--\":98:100   */\n      0x20\n        /* \"--CODEGEN--\":93:96   */\n      dup3\n        /* \"--CODEGEN--\":89:101   */\n      add\n        /* \"--CODEGEN--\":82:101   */\n      swap2\n      pop\n        /* \"--CODEGEN--\":123:125   */\n      0x20\n        /* \"--CODEGEN--\":118:121   */\n      dup2\n        /* \"--CODEGEN--\":114:126   */\n      add\n        /* \"--CODEGEN--\":107:126   */\n      swap1\n      pop\n        /* \"--CODEGEN--\":148:150   */\n      0x20\n        /* \"--CODEGEN--\":143:146   */\n      dup4\n        /* \"--CODEGEN--\":139:151   */\n      sub\n        /* \"--CODEGEN--\":132:151   */\n      swap3\n      pop\n        /* \"--CODEGEN--\":36:189   */\n      jump(tag_95)\n    tag_96:\n        /* \"--CODEGEN--\":274:275   */\n      0x1\n        /* \"--CODEGEN--\":267:270   */\n      dup4\n        /* \"--CODEGEN--\":263:265   */\n      0x20\n        /* \"--CODEGEN--\":259:271   */\n      sub\n        /* \"--CODEGEN--\":254:257   */\n      0x100\n        /* \"--CODEGEN--\":250:272   */\n      exp\n        /* \"--CODEGEN--\":246:276   */\n      sub\n        /* \"--CODEGEN--\":315:319   */\n      dup1\n        /* \"--CODEGEN--\":311:320   */\n      not\n        /* \"--CODEGEN--\":305:308   */\n      dup3\n        /* \"--CODEGEN--\":299:309   */\n      mload\n        /* \"--CODEGEN--\":295:321   */\n      and\n        /* \"--CODEGEN--\":356:360   */\n      dup2\n        /* \"--CODEGEN--\":350:353   */\n      dup5\n        /* \"--CODEGEN--\":344:354   */\n      mload\n        /* \"--CODEGEN--\":340:361   */\n      and\n        /* \"--CODEGEN--\":389:396   */\n      dup1\n        /* \"--CODEGEN--\":380:387   */\n      dup3\n        /* \"--CODEGEN--\":377:397   */\n      or\n        /* \"--CODEGEN--\":372:375   */\n      dup6\n        /* \"--CODEGEN--\":365:398   */\n      mstore\n        /* \"--CODEGEN--\":3:402   */\n      pop\n      pop\n      pop\n        /* \"Proyectos/Votaciones/votaciones.sol\":1090:1122  abi.encodePacked(_nom,_edad,_id) */\n      pop\n      pop\n      pop\n      swap1\n      pop\n      add\n      swap4\n      pop\n      pop\n      pop\n      pop\n      mload(0x40)\n        /* \"--CODEGEN--\":49:53   */\n      0x20\n        /* \"--CODEGEN--\":39:46   */\n      dup2\n        /* \"--CODEGEN--\":30:37   */\n      dup4\n        /* \"--CODEGEN--\":26:47   */\n      sub\n        /* \"--CODEGEN--\":22:54   */\n      sub\n        /* \"--CODEGEN--\":13:20   */\n      dup2\n        /* \"--CODEGEN--\":6:55   */\n      mstore\n        /* \"Proyectos/Votaciones/votaciones.sol\":1090:1122  abi.encodePacked(_nom,_edad,_id) */\n      swap1\n      0x40\n      mstore\n        /* \"Proyectos/Votaciones/votaciones.sol\":1080:1123  keccak256(abi.encodePacked(_nom,_edad,_id)) */\n      mload(0x40)\n      dup1\n      dup3\n      dup1\n      mload\n      swap1\n      0x20\n      add\n      swap1\n      dup1\n      dup4\n      dup4\n        /* \"--CODEGEN--\":36:189   */\n    tag_98:\n        /* \"--CODEGEN--\":66:68   */\n      0x20\n        /* \"--CODEGEN--\":61:64   */\n      dup4\n        /* \"--CODEGEN--\":58:69   */\n      lt\n        /* \"--CODEGEN--\":51:70   */\n      iszero\n        /* \"--CODEGEN--\":36:189   */\n      iszero\n      tag_99\n      jumpi\n        /* \"--CODEGEN--\":182:185   */\n      dup1\n        /* \"--CODEGEN--\":176:186   */\n      mload\n        /* \"--CODEGEN--\":171:174   */\n      dup3\n        /* \"--CODEGEN--\":164:187   */\n      mstore\n        /* \"--CODEGEN--\":98:100   */\n      0x20\n        /* \"--CODEGEN--\":93:96   */\n      dup3\n        /* \"--CODEGEN--\":89:101   */\n      add\n        /* \"--CODEGEN--\":82:101   */\n      swap2\n      pop\n        /* \"--CODEGEN--\":123:125   */\n      0x20\n        /* \"--CODEGEN--\":118:121   */\n      dup2\n        /* \"--CODEGEN--\":114:126   */\n      add\n        /* \"--CODEGEN--\":107:126   */\n      swap1\n      pop\n        /* \"--CODEGEN--\":148:150   */\n      0x20\n        /* \"--CODEGEN--\":143:146   */\n      dup4\n        /* \"--CODEGEN--\":139:151   */\n      sub\n        /* \"--CODEGEN--\":132:151   */\n      swap3\n      pop\n        /* \"--CODEGEN--\":36:189   */\n      jump(tag_98)\n    tag_99:\n        /* \"--CODEGEN--\":274:275   */\n      0x1\n        /* \"--CODEGEN--\":267:270   */\n      dup4\n        /* \"--CODEGEN--\":263:265   */\n      0x20\n        /* \"--CODEGEN--\":259:271   */\n      sub\n        /* \"--CODEGEN--\":254:257   */\n      0x100\n        /* \"--CODEGEN--\":250:272   */\n      exp\n        /* \"--CODEGEN--\":246:276   */\n      sub\n        /* \"--CODEGEN--\":315:319   */\n      dup1\n        /* \"--CODEGEN--\":311:320   */\n      not\n        /* \"--CODEGEN--\":305:308   */\n      dup3\n        /* \"--CODEGEN--\":299:309   */\n      mload\n        /* \"--CODEGEN--\":295:321   */\n      and\n        /* \"--CODEGEN--\":356:360   */\n      dup2\n        /* \"--CODEGEN--\":350:353   */\n      dup5\n        /* \"--CODEGEN--\":344:354   */\n      mload\n        /* \"--CODEGEN--\":340:361   */\n      and\n        /* \"--CODEGEN--\":389:396   */\n      dup1\n        /* \"--CODEGEN--\":380:387   */\n      dup3\n        /* \"--CODEGEN--\":377:397   */\n      or\n        /* \"--CODEGEN--\":372:375   */\n      dup6\n        /* \"--CODEGEN--\":365:398   */\n      mstore\n        /* \"--CODEGEN--\":3:402   */\n      pop\n      pop\n      pop\n        /* \"Proyectos/Votaciones/votaciones.sol\":1080:1123  keccak256(abi.encodePacked(_nom,_edad,_id)) */\n      pop\n      pop\n      pop\n      swap1\n      pop\n      add\n      swap2\n      pop\n      pop\n      mload(0x40)\n      dup1\n      swap2\n      sub\n      swap1\n      keccak256\n        /* \"Proyectos/Votaciones/votaciones.sol\":1055:1123  bytes32 hash_candidato = keccak256(abi.encodePacked(_nom,_edad,_id)) */\n      swap1\n      pop\n        /* \"Proyectos/Votaciones/votaciones.sol\":1134:1144  candidatos */\n      0x3\n        /* \"Proyectos/Votaciones/votaciones.sol\":1150:1154  _nom */\n      dup5\n        /* \"Proyectos/Votaciones/votaciones.sol\":1134:1155  candidatos.push(_nom) */\n      swap1\n      dup1\n        /* \"--CODEGEN--\":39:40   */\n      0x1\n        /* \"--CODEGEN--\":33:36   */\n      dup2\n        /* \"--CODEGEN--\":27:37   */\n      sload\n        /* \"--CODEGEN--\":23:41   */\n      add\n        /* \"--CODEGEN--\":57:67   */\n      dup1\n        /* \"--CODEGEN--\":52:55   */\n      dup3\n        /* \"--CODEGEN--\":45:68   */\n      sstore\n        /* \"--CODEGEN--\":79:89   */\n      dup1\n        /* \"--CODEGEN--\":72:89   */\n      swap2\n      pop\n        /* \"--CODEGEN--\":0:93   */\n      pop\n        /* \"Proyectos/Votaciones/votaciones.sol\":1134:1155  candidatos.push(_nom) */\n      swap1\n      0x1\n      dup3\n      sub\n      swap1\n      0x0\n      mstore\n      keccak256(0x0, 0x20)\n      add\n      0x0\n      swap1\n      swap2\n      swap3\n      swap1\n      swap2\n      swap1\n      swap2\n      pop\n      swap1\n      dup1\n      mload\n      swap1\n      0x20\n      add\n      swap1\n      tag_102\n      swap3\n      swap2\n      swap1\n      jump\t// in(tag_103)\n    tag_102:\n      pop\n      pop\n        /* \"Proyectos/Votaciones/votaciones.sol\":1188:1202  hash_candidato */\n      dup1\n        /* \"Proyectos/Votaciones/votaciones.sol\":1166:1179  ID_candidatos */\n      0x1\n        /* \"Proyectos/Votaciones/votaciones.sol\":1180:1184  _nom */\n      dup6\n        /* \"Proyectos/Votaciones/votaciones.sol\":1166:1185  ID_candidatos[_nom] */\n      mload(0x40)\n      dup1\n      dup3\n      dup1\n      mload\n      swap1\n      0x20\n      add\n      swap1\n      dup1\n      dup4\n      dup4\n        /* \"--CODEGEN--\":36:189   */\n    tag_104:\n        /* \"--CODEGEN--\":66:68   */\n      0x20\n        /* \"--CODEGEN--\":61:64   */\n      dup4\n        /* \"--CODEGEN--\":58:69   */\n      lt\n        /* \"--CODEGEN--\":51:70   */\n      iszero\n        /* \"--CODEGEN--\":36:189   */\n      iszero\n      tag_105\n      jumpi\n        /* \"--CODEGEN--\":182:185   */\n      dup1\n        /* \"--CODEGEN--\":176:186   */\n      mload\n        /* \"--CODEGEN--\":171:174   */\n      dup3\n        /* \"--CODEGEN--\":164:187   */\n      mstore\n        /* \"--CODEGEN--\":98:100   */\n      0x20\n        /* \"--CODEGEN--\":93:96   */\n      dup3\n        /* \"--CODEGEN--\":89:101   */\n      add\n        /* \"--CODEGEN--\":82:101   */\n      swap2\n      pop\n        /* \"--CODEGEN--\":123:125   */\n      0x20\n        /* \"--CODEGEN--\":118:121   */\n      dup2\n        /* \"--CODEGEN--\":114:126   */\n      add\n        /* \"--CODEGEN--\":107:126   */\n      swap1\n      pop\n        /* \"--CODEGEN--\":148:150   */\n      0x20\n        /* \"--CODEGEN--\":143:146   */\n      dup4\n        /* \"--CODEGEN--\":139:151   */\n      sub\n        /* \"--CODEGEN--\":132:151   */\n      swap3\n      pop\n        /* \"--CODEGEN--\":36:189   */\n      jump(tag_104)\n    tag_105:\n        /* \"--CODEGEN--\":274:275   */\n      0x1\n        /* \"--CODEGEN--\":267:270   */\n      dup4\n        /* \"--CODEGEN--\":263:265   */\n      0x20\n        /* \"--CODEGEN--\":259:271   */\n      sub\n        /* \"--CODEGEN--\":254:257   */\n      0x100\n        /* \"--CODEGEN--\":250:272   */\n      exp\n        /* \"--CODEGEN--\":246:276   */\n      sub\n        /* \"--CODEGEN--\":315:319   */\n      dup1\n        /* \"--CODEGEN--\":311:320   */\n      not\n        /* \"--CODEGEN--\":305:308   */\n      dup3\n        /* \"--CODEGEN--\":299:309   */\n      mload\n        /* \"--CODEGEN--\":295:321   */\n      and\n        /* \"--CODEGEN--\":356:360   */\n      dup2\n        /* \"--CODEGEN--\":350:353   */\n      dup5\n        /* \"--CODEGEN--\":344:354   */\n      mload\n        /* \"--CODEGEN--\":340:361   */\n      and\n        /* \"--CODEGEN--\":389:396   */\n      dup1\n        /* \"--CODEGEN--\":380:387   */\n      dup3\n        /* \"--CODEGEN--\":377:397   */\n      or\n        /* \"--CODEGEN--\":372:375   */\n      dup6\n        /* \"--CODEGEN--\":365:398   */\n      mstore\n        /* \"--CODEGEN--\":3:402   */\n      pop\n      pop\n      pop\n        /* \"Proyectos/Votaciones/votaciones.sol\":1166:1185  ID_candidatos[_nom] */\n      pop\n      pop\n      pop\n      swap1\n      pop\n      add\n      swap2\n      pop\n      pop\n      swap1\n      dup2\n      mstore\n      0x20\n      add\n      mload(0x40)\n      dup1\n      swap2\n      sub\n      swap1\n      keccak256\n        /* \"Proyectos/Votaciones/votaciones.sol\":1166:1202  ID_candidatos[_nom] = hash_candidato */\n      dup2\n      not(0x0)\n      and\n      swap1\n      sstore\n      pop\n        /* \"Proyectos/Votaciones/votaciones.sol\":915:1210  function presentarCandidato(string memory _nom,uint _edad,string memory _id) public {\r... */\n      pop\n      pop\n      pop\n      pop\n      jump\t// out\n        /* \"Proyectos/Votaciones/votaciones.sol\":2754:3404  function ganadorVotaciones() public view returns(string memory){\r... */\n    tag_32:\n        /* \"Proyectos/Votaciones/votaciones.sol\":2803:2809  string */\n      0x60\n        /* \"Proyectos/Votaciones/votaciones.sol\":2828:2849  string memory ganador */\n      dup1\n        /* \"Proyectos/Votaciones/votaciones.sol\":2876:2891  uint mayorVotos */\n      0x0\n        /* \"Proyectos/Votaciones/votaciones.sol\":2906:2915  bool flag */\n      dup1\n        /* \"Proyectos/Votaciones/votaciones.sol\":2931:2938  uint _i */\n      0x0\n        /* \"Proyectos/Votaciones/votaciones.sol\":2852:2862  candidatos */\n      0x3\n        /* \"Proyectos/Votaciones/votaciones.sol\":2863:2864  0 */\n      0x0\n        /* \"Proyectos/Votaciones/votaciones.sol\":2852:2865  candidatos[0] */\n      dup2\n      sload\n      dup2\n      lt\n      iszero\n      iszero\n      tag_108\n      jumpi\n      invalid\n    tag_108:\n      swap1\n      0x0\n      mstore\n      keccak256(0x0, 0x20)\n      add\n        /* \"Proyectos/Votaciones/votaciones.sol\":2828:2865  string memory ganador = candidatos[0] */\n      dup1\n      sload\n      0x1\n      dup2\n      0x1\n      and\n      iszero\n      0x100\n      mul\n      sub\n      and\n      0x2\n      swap1\n      div\n      dup1\n      0x1f\n      add\n      0x20\n      dup1\n      swap2\n      div\n      mul\n      0x20\n      add\n      mload(0x40)\n      swap1\n      dup2\n      add\n      0x40\n      mstore\n      dup1\n      swap3\n      swap2\n      swap1\n      dup2\n      dup2\n      mstore\n      0x20\n      add\n      dup3\n      dup1\n      sload\n      0x1\n      dup2\n      0x1\n      and\n      iszero\n      0x100\n      mul\n      sub\n      and\n      0x2\n      swap1\n      div\n      dup1\n      iszero\n      tag_110\n      jumpi\n      dup1\n      0x1f\n      lt\n      tag_111\n      jumpi\n      0x100\n      dup1\n      dup4\n      sload\n      div\n      mul\n      dup4\n      mstore\n      swap2\n      0x20\n      add\n      swap2\n      jump(tag_110)\n    tag_111:\n      dup3\n      add\n      swap2\n      swap1\n      0x0\n      mstore\n      keccak256(0x0, 0x20)\n      swap1\n    tag_112:\n      dup2\n      sload\n      dup2\n      mstore\n      swap1\n      0x1\n      add\n      swap1\n      0x20\n      add\n      dup1\n      dup4\n      gt\n      tag_112\n      jumpi\n      dup3\n      swap1\n      sub\n      0x1f\n      and\n      dup3\n      add\n      swap2\n    tag_110:\n      pop\n      pop\n      pop\n      pop\n      pop\n      swap4\n      pop\n        /* \"Proyectos/Votaciones/votaciones.sol\":2894:2895  0 */\n      0x0\n        /* \"Proyectos/Votaciones/votaciones.sol\":2876:2895  uint mayorVotos = 0 */\n      swap3\n      pop\n        /* \"Proyectos/Votaciones/votaciones.sol\":2939:2940  1 */\n      0x1\n        /* \"Proyectos/Votaciones/votaciones.sol\":2931:2940  uint _i=1 */\n      swap1\n      pop\n        /* \"Proyectos/Votaciones/votaciones.sol\":2926:3296  for (uint _i=1;_i<candidatos.length;_i++){\r... */\n    tag_113:\n        /* \"Proyectos/Votaciones/votaciones.sol\":2944:2954  candidatos */\n      0x3\n        /* \"Proyectos/Votaciones/votaciones.sol\":2944:2961  candidatos.length */\n      dup1\n      sload\n      swap1\n      pop\n        /* \"Proyectos/Votaciones/votaciones.sol\":2941:2943  _i */\n      dup2\n        /* \"Proyectos/Votaciones/votaciones.sol\":2941:2961  _i<candidatos.length */\n      lt\n        /* \"Proyectos/Votaciones/votaciones.sol\":2926:3296  for (uint _i=1;_i<candidatos.length;_i++){\r... */\n      iszero\n      tag_114\n      jumpi\n        /* \"Proyectos/Votaciones/votaciones.sol\":3020:3030  mayorVotos */\n      dup3\n        /* \"Proyectos/Votaciones/votaciones.sol\":2986:3001  votos_Candidato */\n      0x2\n        /* \"Proyectos/Votaciones/votaciones.sol\":3002:3012  candidatos */\n      0x3\n        /* \"Proyectos/Votaciones/votaciones.sol\":3013:3015  _i */\n      dup4\n        /* \"Proyectos/Votaciones/votaciones.sol\":3002:3016  candidatos[_i] */\n      dup2\n      sload\n      dup2\n      lt\n      iszero\n      iszero\n      tag_116\n      jumpi\n      invalid\n    tag_116:\n      swap1\n      0x0\n      mstore\n      keccak256(0x0, 0x20)\n      add\n        /* \"Proyectos/Votaciones/votaciones.sol\":2986:3017  votos_Candidato[candidatos[_i]] */\n      mload(0x40)\n      dup1\n      dup3\n      dup1\n      sload\n      0x1\n      dup2\n      0x1\n      and\n      iszero\n      0x100\n      mul\n      sub\n      and\n      0x2\n      swap1\n      div\n      dup1\n      iszero\n      tag_118\n      jumpi\n      dup1\n      0x1f\n      lt\n      tag_119\n      jumpi\n      0x100\n      dup1\n      dup4\n      sload\n      div\n      mul\n      dup4\n      mstore\n      swap2\n      dup3\n      add\n      swap2\n      jump(tag_118)\n    tag_119:\n      dup3\n      add\n      swap2\n      swap1\n      0x0\n      mstore\n      keccak256(0x0, 0x20)\n      swap1\n    tag_120:\n      dup2\n      sload\n      dup2\n      mstore\n      swap1\n      0x1\n      add\n      swap1\n      0x20\n      add\n      dup1\n      dup4\n      gt\n      tag_120\n      jumpi\n    tag_118:\n      pop\n      pop\n      swap2\n      pop\n      pop\n      swap1\n      dup2\n      mstore\n      0x20\n      add\n      mload(0x40)\n      dup1\n      swap2\n      sub\n      swap1\n      keccak256\n      sload\n        /* \"Proyectos/Votaciones/votaciones.sol\":2986:3030  votos_Candidato[candidatos[_i]] > mayorVotos */\n      gt\n        /* \"Proyectos/Votaciones/votaciones.sol\":2982:3285  if (votos_Candidato[candidatos[_i]] > mayorVotos){\r... */\n      iszero\n      tag_121\n      jumpi\n        /* \"Proyectos/Votaciones/votaciones.sol\":3063:3078  votos_Candidato */\n      0x2\n        /* \"Proyectos/Votaciones/votaciones.sol\":3079:3089  candidatos */\n      0x3\n        /* \"Proyectos/Votaciones/votaciones.sol\":3090:3092  _i */\n      dup3\n        /* \"Proyectos/Votaciones/votaciones.sol\":3079:3093  candidatos[_i] */\n      dup2\n      sload\n      dup2\n      lt\n      iszero\n      iszero\n      tag_122\n      jumpi\n      invalid\n    tag_122:\n      swap1\n      0x0\n      mstore\n      keccak256(0x0, 0x20)\n      add\n        /* \"Proyectos/Votaciones/votaciones.sol\":3063:3094  votos_Candidato[candidatos[_i]] */\n      mload(0x40)\n      dup1\n      dup3\n      dup1\n      sload\n      0x1\n      dup2\n      0x1\n      and\n      iszero\n      0x100\n      mul\n      sub\n      and\n      0x2\n      swap1\n      div\n      dup1\n      iszero\n      tag_124\n      jumpi\n      dup1\n      0x1f\n      lt\n      tag_125\n      jumpi\n      0x100\n      dup1\n      dup4\n      sload\n      div\n      mul\n      dup4\n      mstore\n      swap2\n      dup3\n      add\n      swap2\n      jump(tag_124)\n    tag_125:\n      dup3\n      add\n      swap2\n      swap1\n      0x0\n      mstore\n      keccak256(0x0, 0x20)\n      swap1\n    tag_126:\n      dup2\n      sload\n      dup2\n      mstore\n      swap1\n      0x1\n      add\n      swap1\n      0x20\n      add\n      dup1\n      dup4\n      gt\n      tag_126\n      jumpi\n    tag_124:\n      pop\n      pop\n      swap2\n      pop\n      pop\n      swap1\n      dup2\n      mstore\n      0x20\n      add\n      mload(0x40)\n      dup1\n      swap2\n      sub\n      swap1\n      keccak256\n      sload\n        /* \"Proyectos/Votaciones/votaciones.sol\":3050:3094  mayorVotos = votos_Candidato[candidatos[_i]] */\n      swap3\n      pop\n        /* \"Proyectos/Votaciones/votaciones.sol\":3123:3133  candidatos */\n      0x3\n        /* \"Proyectos/Votaciones/votaciones.sol\":3134:3136  _i */\n      dup2\n        /* \"Proyectos/Votaciones/votaciones.sol\":3123:3137  candidatos[_i] */\n      dup2\n      sload\n      dup2\n      lt\n      iszero\n      iszero\n      tag_127\n      jumpi\n      invalid\n    tag_127:\n      swap1\n      0x0\n      mstore\n      keccak256(0x0, 0x20)\n      add\n        /* \"Proyectos/Votaciones/votaciones.sol\":3113:3137  ganador = candidatos[_i] */\n      dup1\n      sload\n      0x1\n      dup2\n      0x1\n      and\n      iszero\n      0x100\n      mul\n      sub\n      and\n      0x2\n      swap1\n      div\n      dup1\n      0x1f\n      add\n      0x20\n      dup1\n      swap2\n      div\n      mul\n      0x20\n      add\n      mload(0x40)\n      swap1\n      dup2\n      add\n      0x40\n      mstore\n      dup1\n      swap3\n      swap2\n      swap1\n      dup2\n      dup2\n      mstore\n      0x20\n      add\n      dup3\n      dup1\n      sload\n      0x1\n      dup2\n      0x1\n      and\n      iszero\n      0x100\n      mul\n      sub\n      and\n      0x2\n      swap1\n      div\n      dup1\n      iszero\n      tag_129\n      jumpi\n      dup1\n      0x1f\n      lt\n      tag_130\n      jumpi\n      0x100\n      dup1\n      dup4\n      sload\n      div\n      mul\n      dup4\n      mstore\n      swap2\n      0x20\n      add\n      swap2\n      jump(tag_129)\n    tag_130:\n      dup3\n      add\n      swap2\n      swap1\n      0x0\n      mstore\n      keccak256(0x0, 0x20)\n      swap1\n    tag_131:\n      dup2\n      sload\n      dup2\n      mstore\n      swap1\n      0x1\n      add\n      swap1\n      0x20\n      add\n      dup1\n      dup4\n      gt\n      tag_131\n      jumpi\n      dup3\n      swap1\n      sub\n      0x1f\n      and\n      dup3\n      add\n      swap2\n    tag_129:\n      pop\n      pop\n      pop\n      pop\n      pop\n      swap4\n      pop\n        /* \"Proyectos/Votaciones/votaciones.sol\":3163:3168  false */\n      0x0\n        /* \"Proyectos/Votaciones/votaciones.sol\":3156:3168  flag = false */\n      swap2\n      pop\n        /* \"Proyectos/Votaciones/votaciones.sol\":2982:3285  if (votos_Candidato[candidatos[_i]] > mayorVotos){\r... */\n      jump(tag_132)\n    tag_121:\n        /* \"Proyectos/Votaciones/votaciones.sol\":3207:3222  votos_Candidato */\n      0x2\n        /* \"Proyectos/Votaciones/votaciones.sol\":3223:3233  candidatos */\n      0x3\n        /* \"Proyectos/Votaciones/votaciones.sol\":3234:3236  _i */\n      dup3\n        /* \"Proyectos/Votaciones/votaciones.sol\":3223:3237  candidatos[_i] */\n      dup2\n      sload\n      dup2\n      lt\n      iszero\n      iszero\n      tag_133\n      jumpi\n      invalid\n    tag_133:\n      swap1\n      0x0\n      mstore\n      keccak256(0x0, 0x20)\n      add\n        /* \"Proyectos/Votaciones/votaciones.sol\":3207:3238  votos_Candidato[candidatos[_i]] */\n      mload(0x40)\n      dup1\n      dup3\n      dup1\n      sload\n      0x1\n      dup2\n      0x1\n      and\n      iszero\n      0x100\n      mul\n      sub\n      and\n      0x2\n      swap1\n      div\n      dup1\n      iszero\n      tag_135\n      jumpi\n      dup1\n      0x1f\n      lt\n      tag_136\n      jumpi\n      0x100\n      dup1\n      dup4\n      sload\n      div\n      mul\n      dup4\n      mstore\n      swap2\n      dup3\n      add\n      swap2\n      jump(tag_135)\n    tag_136:\n      dup3\n      add\n      swap2\n      swap1\n      0x0\n      mstore\n      keccak256(0x0, 0x20)\n      swap1\n    tag_137:\n      dup2\n      sload\n      dup2\n      mstore\n      swap1\n      0x1\n      add\n      swap1\n      0x20\n      add\n      dup1\n      dup4\n      gt\n      tag_137\n      jumpi\n    tag_135:\n      pop\n      pop\n      swap2\n      pop\n      pop\n      swap1\n      dup2\n      mstore\n      0x20\n      add\n      mload(0x40)\n      dup1\n      swap2\n      sub\n      swap1\n      keccak256\n      sload\n        /* \"Proyectos/Votaciones/votaciones.sol\":3193:3203  mayorVotos */\n      dup4\n        /* \"Proyectos/Votaciones/votaciones.sol\":3193:3238  mayorVotos == votos_Candidato[candidatos[_i]] */\n      eq\n        /* \"Proyectos/Votaciones/votaciones.sol\":3190:3285  if(mayorVotos == votos_Candidato[candidatos[_i]]){\r... */\n      iszero\n      tag_138\n      jumpi\n        /* \"Proyectos/Votaciones/votaciones.sol\":3265:3269  true */\n      0x1\n        /* \"Proyectos/Votaciones/votaciones.sol\":3258:3269  flag = true */\n      swap2\n      pop\n        /* \"Proyectos/Votaciones/votaciones.sol\":3190:3285  if(mayorVotos == votos_Candidato[candidatos[_i]]){\r... */\n    tag_138:\n        /* \"Proyectos/Votaciones/votaciones.sol\":2982:3285  if (votos_Candidato[candidatos[_i]] > mayorVotos){\r... */\n    tag_132:\n        /* \"Proyectos/Votaciones/votaciones.sol\":2962:2966  _i++ */\n      dup1\n      dup1\n      0x1\n      add\n      swap2\n      pop\n      pop\n        /* \"Proyectos/Votaciones/votaciones.sol\":2926:3296  for (uint _i=1;_i<candidatos.length;_i++){\r... */\n      jump(tag_113)\n    tag_114:\n        /* \"Proyectos/Votaciones/votaciones.sol\":3318:3322  true */\n      0x1\n        /* \"Proyectos/Votaciones/votaciones.sol\":3312:3322  flag==true */\n      iszero\n      iszero\n        /* \"Proyectos/Votaciones/votaciones.sol\":3312:3316  flag */\n      dup3\n        /* \"Proyectos/Votaciones/votaciones.sol\":3312:3322  flag==true */\n      iszero\n      iszero\n      eq\n        /* \"Proyectos/Votaciones/votaciones.sol\":3308:3372  if (flag==true){\r... */\n      iszero\n      tag_139\n      jumpi\n        /* \"Proyectos/Votaciones/votaciones.sol\":3338:3360  ganador = \"Hay empate\" */\n      0x40\n      dup1\n      mload\n      swap1\n      dup2\n      add\n      0x40\n      mstore\n      dup1\n      0xa\n      dup2\n      mstore\n      0x20\n      add\n      0x48617920656d7061746500000000000000000000000000000000000000000000\n      dup2\n      mstore\n      pop\n      swap4\n      pop\n        /* \"Proyectos/Votaciones/votaciones.sol\":3308:3372  if (flag==true){\r... */\n    tag_139:\n        /* \"Proyectos/Votaciones/votaciones.sol\":3389:3396  ganador */\n      dup4\n        /* \"Proyectos/Votaciones/votaciones.sol\":3382:3396  return ganador */\n      swap5\n      pop\n        /* \"Proyectos/Votaciones/votaciones.sol\":2754:3404  function ganadorVotaciones() public view returns(string memory){\r... */\n      pop\n      pop\n      pop\n      pop\n      swap1\n      jump\t// out\n        /* \"Proyectos/Votaciones/votaciones.sol\":216:236  address public owner */\n    tag_36:\n      0x0\n      dup1\n      swap1\n      sload\n      swap1\n      0x100\n      exp\n      swap1\n      div\n      0xffffffffffffffffffffffffffffffffffffffff\n      and\n      dup2\n      jump\t// out\n        /* \"Proyectos/Votaciones/votaciones.sol\":1218:1316  function verCandidatos() public view returns(string [] memory){\r... */\n    tag_41:\n        /* \"Proyectos/Votaciones/votaciones.sol\":1263:1272  string [] */\n      0x60\n        /* \"Proyectos/Votaciones/votaciones.sol\":1298:1308  candidatos */\n      0x3\n        /* \"Proyectos/Votaciones/votaciones.sol\":1291:1308  return candidatos */\n      dup1\n      sload\n      dup1\n      0x20\n      mul\n      0x20\n      add\n      mload(0x40)\n      swap1\n      dup2\n      add\n      0x40\n      mstore\n      dup1\n      swap3\n      swap2\n      swap1\n      dup2\n      dup2\n      mstore\n      0x20\n      add\n      0x0\n      swap1\n    tag_141:\n      dup3\n      dup3\n      lt\n      iszero\n      tag_142\n      jumpi\n      dup4\n      dup3\n      swap1\n      0x0\n      mstore\n      keccak256(0x0, 0x20)\n      add\n      dup1\n      sload\n      0x1\n      dup2\n      0x1\n      and\n      iszero\n      0x100\n      mul\n      sub\n      and\n      0x2\n      swap1\n      div\n      dup1\n      0x1f\n      add\n      0x20\n      dup1\n      swap2\n      div\n      mul\n      0x20\n      add\n      mload(0x40)\n      swap1\n      dup2\n      add\n      0x40\n      mstore\n      dup1\n      swap3\n      swap2\n      swap1\n      dup2\n      dup2\n      mstore\n      0x20\n      add\n      dup3\n      dup1\n      sload\n      0x1\n      dup2\n      0x1\n      and\n      iszero\n      0x100\n      mul\n      sub\n      and\n      0x2\n      swap1\n      div\n      dup1\n      iszero\n      tag_144\n      jumpi\n      dup1\n      0x1f\n      lt\n      tag_145\n      jumpi\n      0x100\n      dup1\n      dup4\n      sload\n      div\n      mul\n      dup4\n      mstore\n      swap2\n      0x20\n      add\n      swap2\n      jump(tag_144)\n    tag_145:\n      dup3\n      add\n      swap2\n      swap1\n      0x0\n      mstore\n      keccak256(0x0, 0x20)\n      swap1\n    tag_146:\n      dup2\n      sload\n      dup2\n      mstore\n      swap1\n      0x1\n      add\n      swap1\n      0x20\n      add\n      dup1\n      dup4\n      gt\n      tag_146\n      jumpi\n      dup3\n      swap1\n      sub\n      0x1f\n      and\n      dup3\n      add\n      swap2\n    tag_144:\n      pop\n      pop\n      pop\n      pop\n      pop\n      dup2\n      mstore\n      0x20\n      add\n      swap1\n      0x1\n      add\n      swap1\n      jump(tag_141)\n    tag_142:\n      pop\n      pop\n      pop\n      pop\n      swap1\n      pop\n        /* \"Proyectos/Votaciones/votaciones.sol\":1218:1316  function verCandidatos() public view returns(string [] memory){\r... */\n      swap1\n      jump\t// out\n        /* \"Proyectos/Votaciones/votaciones.sol\":1927:2409  function uint2str(uint _i) internal pure returns (string memory _uintAsString) {\r... */\n    tag_57:\n        /* \"Proyectos/Votaciones/votaciones.sol\":1977:2004  string memory _uintAsString */\n      0x60\n        /* \"Proyectos/Votaciones/votaciones.sol\":2077:2083  uint j */\n      0x0\n        /* \"Proyectos/Votaciones/votaciones.sol\":2099:2107  uint len */\n      dup1\n        /* \"Proyectos/Votaciones/votaciones.sol\":2197:2214  bytes memory bstr */\n      0x60\n        /* \"Proyectos/Votaciones/votaciones.sol\":2242:2248  uint k */\n      0x0\n        /* \"Proyectos/Votaciones/votaciones.sol\":2027:2028  0 */\n      dup1\n        /* \"Proyectos/Votaciones/votaciones.sol\":2021:2023  _i */\n      dup7\n        /* \"Proyectos/Votaciones/votaciones.sol\":2021:2028  _i == 0 */\n      eq\n        /* \"Proyectos/Votaciones/votaciones.sol\":2017:2067  if (_i == 0) {\r... */\n      iszero\n      tag_148\n      jumpi\n        /* \"Proyectos/Votaciones/votaciones.sol\":2045:2055  return \"0\" */\n      0x40\n      dup1\n      mload\n      swap1\n      dup2\n      add\n      0x40\n      mstore\n      dup1\n      0x1\n      dup2\n      mstore\n      0x20\n      add\n      0x3000000000000000000000000000000000000000000000000000000000000000\n      dup2\n      mstore\n      pop\n      swap5\n      pop\n      jump(tag_147)\n        /* \"Proyectos/Votaciones/votaciones.sol\":2017:2067  if (_i == 0) {\r... */\n    tag_148:\n        /* \"Proyectos/Votaciones/votaciones.sol\":2086:2088  _i */\n      dup6\n        /* \"Proyectos/Votaciones/votaciones.sol\":2077:2088  uint j = _i */\n      swap4\n      pop\n        /* \"Proyectos/Votaciones/votaciones.sol\":2118:2187  while (j != 0) {\r... */\n    tag_149:\n        /* \"Proyectos/Votaciones/votaciones.sol\":2130:2131  0 */\n      0x0\n        /* \"Proyectos/Votaciones/votaciones.sol\":2125:2126  j */\n      dup5\n        /* \"Proyectos/Votaciones/votaciones.sol\":2125:2131  j != 0 */\n      eq\n      iszero\n        /* \"Proyectos/Votaciones/votaciones.sol\":2118:2187  while (j != 0) {\r... */\n      iszero\n      tag_150\n      jumpi\n        /* \"Proyectos/Votaciones/votaciones.sol\":2148:2153  len++ */\n      dup3\n      dup1\n      0x1\n      add\n      swap4\n      pop\n      pop\n        /* \"Proyectos/Votaciones/votaciones.sol\":2173:2175  10 */\n      0xa\n        /* \"Proyectos/Votaciones/votaciones.sol\":2168:2175  j /= 10 */\n      dup5\n      dup2\n      iszero\n      iszero\n      tag_151\n      jumpi\n      invalid\n    tag_151:\n      div\n      swap4\n      pop\n        /* \"Proyectos/Votaciones/votaciones.sol\":2118:2187  while (j != 0) {\r... */\n      jump(tag_149)\n    tag_150:\n        /* \"Proyectos/Votaciones/votaciones.sol\":2227:2230  len */\n      dup3\n        /* \"Proyectos/Votaciones/votaciones.sol\":2217:2231  new bytes(len) */\n      mload(0x40)\n      swap1\n      dup1\n      dup3\n      mstore\n      dup1\n      0x1f\n      add\n      not(0x1f)\n      and\n      0x20\n      add\n      dup3\n      add\n      0x40\n      mstore\n      dup1\n      iszero\n      tag_152\n      jumpi\n      dup2\n      0x20\n      add\n        /* \"--CODEGEN--\":29:31   */\n      0x20\n        /* \"--CODEGEN--\":21:27   */\n      dup3\n        /* \"--CODEGEN--\":17:32   */\n      mul\n        /* \"--CODEGEN--\":117:121   */\n      dup1\n        /* \"--CODEGEN--\":105:115   */\n      codesize\n        /* \"--CODEGEN--\":97:103   */\n      dup4\n        /* \"--CODEGEN--\":88:122   */\n      codecopy\n        /* \"--CODEGEN--\":148:152   */\n      dup1\n        /* \"--CODEGEN--\":140:146   */\n      dup3\n        /* \"--CODEGEN--\":136:153   */\n      add\n        /* \"--CODEGEN--\":126:153   */\n      swap2\n      pop\n        /* \"--CODEGEN--\":0:157   */\n      pop\n        /* \"Proyectos/Votaciones/votaciones.sol\":2217:2231  new bytes(len) */\n      swap1\n      pop\n    tag_152:\n      pop\n        /* \"Proyectos/Votaciones/votaciones.sol\":2197:2231  bytes memory bstr = new bytes(len) */\n      swap2\n      pop\n        /* \"Proyectos/Votaciones/votaciones.sol\":2257:2258  1 */\n      0x1\n        /* \"Proyectos/Votaciones/votaciones.sol\":2251:2254  len */\n      dup4\n        /* \"Proyectos/Votaciones/votaciones.sol\":2251:2258  len - 1 */\n      sub\n        /* \"Proyectos/Votaciones/votaciones.sol\":2242:2258  uint k = len - 1 */\n      swap1\n      pop\n        /* \"Proyectos/Votaciones/votaciones.sol\":2269:2372  while (_i != 0) {\r... */\n    tag_153:\n        /* \"Proyectos/Votaciones/votaciones.sol\":2282:2283  0 */\n      0x0\n        /* \"Proyectos/Votaciones/votaciones.sol\":2276:2278  _i */\n      dup7\n        /* \"Proyectos/Votaciones/votaciones.sol\":2276:2283  _i != 0 */\n      eq\n      iszero\n        /* \"Proyectos/Votaciones/votaciones.sol\":2269:2372  while (_i != 0) {\r... */\n      iszero\n      tag_154\n      jumpi\n        /* \"Proyectos/Votaciones/votaciones.sol\":2333:2335  10 */\n      0xa\n        /* \"Proyectos/Votaciones/votaciones.sol\":2328:2330  _i */\n      dup7\n        /* \"Proyectos/Votaciones/votaciones.sol\":2328:2335  _i % 10 */\n      dup2\n      iszero\n      iszero\n      tag_155\n      jumpi\n      invalid\n    tag_155:\n      mod\n        /* \"Proyectos/Votaciones/votaciones.sol\":2323:2325  48 */\n      0x30\n        /* \"Proyectos/Votaciones/votaciones.sol\":2323:2335  48 + _i % 10 */\n      add\n        /* \"Proyectos/Votaciones/votaciones.sol\":2312:2337  byte(uint8(48 + _i % 10)) */\n      0x100000000000000000000000000000000000000000000000000000000000000\n      mul\n        /* \"Proyectos/Votaciones/votaciones.sol\":2300:2304  bstr */\n      dup3\n        /* \"Proyectos/Votaciones/votaciones.sol\":2305:2308  k-- */\n      dup3\n      dup1\n      0x1\n      swap1\n      sub\n      swap4\n      pop\n        /* \"Proyectos/Votaciones/votaciones.sol\":2300:2309  bstr[k--] */\n      dup2\n      mload\n      dup2\n      lt\n      iszero\n      iszero\n      tag_156\n      jumpi\n      invalid\n    tag_156:\n      swap1\n      0x20\n      add\n      add\n        /* \"Proyectos/Votaciones/votaciones.sol\":2300:2337  bstr[k--] = byte(uint8(48 + _i % 10)) */\n      swap1\n      not(0xffffffffffffffffffffffffffffffffffffffffffffffffffffffffffffff)\n      and\n      swap1\n      dup2\n      0x0\n      byte\n      swap1\n      mstore8\n      pop\n        /* \"Proyectos/Votaciones/votaciones.sol\":2358:2360  10 */\n      0xa\n        /* \"Proyectos/Votaciones/votaciones.sol\":2352:2360  _i /= 10 */\n      dup7\n      dup2\n      iszero\n      iszero\n      tag_157\n      jumpi\n      invalid\n    tag_157:\n      div\n      swap6\n      pop\n        /* \"Proyectos/Votaciones/votaciones.sol\":2269:2372  while (_i != 0) {\r... */\n      jump(tag_153)\n    tag_154:\n        /* \"Proyectos/Votaciones/votaciones.sol\":2396:2400  bstr */\n      dup2\n        /* \"Proyectos/Votaciones/votaciones.sol\":2382:2401  return string(bstr) */\n      swap5\n      pop\n        /* \"Proyectos/Votaciones/votaciones.sol\":1927:2409  function uint2str(uint _i) internal pure returns (string memory _uintAsString) {\r... */\n    tag_147:\n      pop\n      pop\n      pop\n      pop\n      swap2\n      swap1\n      pop\n      jump\t// out\n        /* \"Proyectos/Votaciones/votaciones.sol\":142:3409  contract votacion{\r... */\n    tag_103:\n      dup3\n      dup1\n      sload\n      0x1\n      dup2\n      0x1\n      and\n      iszero\n      0x100\n      mul\n      sub\n      and\n      0x2\n      swap1\n      div\n      swap1\n      0x0\n      mstore\n      keccak256(0x0, 0x20)\n      swap1\n      0x1f\n      add\n      0x20\n      swap1\n      div\n      dup2\n      add\n      swap3\n      dup3\n      0x1f\n      lt\n      tag_159\n      jumpi\n      dup1\n      mload\n      not(0xff)\n      and\n      dup4\n      dup1\n      add\n      or\n      dup6\n      sstore\n      jump(tag_158)\n    tag_159:\n      dup3\n      dup1\n      add\n      0x1\n      add\n      dup6\n      sstore\n      dup3\n      iszero\n      tag_158\n      jumpi\n      swap2\n      dup3\n      add\n    tag_160:\n      dup3\n      dup2\n      gt\n      iszero\n      tag_161\n      jumpi\n      dup3\n      mload\n      dup3\n      sstore\n      swap2\n      0x20\n      add\n      swap2\n      swap1\n      0x1\n      add\n      swap1\n      jump(tag_160)\n    tag_161:\n    tag_158:\n      pop\n      swap1\n      pop\n      tag_162\n      swap2\n      swap1\n      jump\t// in(tag_163)\n    tag_162:\n      pop\n      swap1\n      jump\t// out\n    tag_163:\n      tag_164\n      swap2\n      swap1\n    tag_165:\n      dup1\n      dup3\n      gt\n      iszero\n      tag_166\n      jumpi\n      0x0\n      dup2\n      0x0\n      swap1\n      sstore\n      pop\n      0x1\n      add\n      jump(tag_165)\n    tag_166:\n      pop\n      swap1\n      jump\n    tag_164:\n      swap1\n      jump\t// out\n        /* \"--CODEGEN--\":6:448   */\n    tag_168:\n      0x0\n        /* \"--CODEGEN--\":108:111   */\n      dup3\n        /* \"--CODEGEN--\":101:105   */\n      0x1f\n        /* \"--CODEGEN--\":93:99   */\n      dup4\n        /* \"--CODEGEN--\":89:106   */\n      add\n        /* \"--CODEGEN--\":85:112   */\n      slt\n        /* \"--CODEGEN--\":78:113   */\n      iszero\n        /* \"--CODEGEN--\":75:77   */\n      iszero\n      tag_169\n      jumpi\n        /* \"--CODEGEN--\":126:127   */\n      0x0\n        /* \"--CODEGEN--\":123:124   */\n      dup1\n        /* \"--CODEGEN--\":116:128   */\n      revert\n        /* \"--CODEGEN--\":75:77   */\n    tag_169:\n        /* \"--CODEGEN--\":163:169   */\n      dup2\n        /* \"--CODEGEN--\":150:170   */\n      calldataload\n        /* \"--CODEGEN--\":185:250   */\n      tag_170\n        /* \"--CODEGEN--\":200:249   */\n      tag_171\n        /* \"--CODEGEN--\":242:248   */\n      dup3\n        /* \"--CODEGEN--\":200:249   */\n      jump(tag_172)\n    tag_171:\n        /* \"--CODEGEN--\":185:250   */\n      jump(tag_173)\n    tag_170:\n        /* \"--CODEGEN--\":176:250   */\n      swap2\n      pop\n        /* \"--CODEGEN--\":270:276   */\n      dup1\n        /* \"--CODEGEN--\":263:268   */\n      dup3\n        /* \"--CODEGEN--\":256:277   */\n      mstore\n        /* \"--CODEGEN--\":306:310   */\n      0x20\n        /* \"--CODEGEN--\":298:304   */\n      dup4\n        /* \"--CODEGEN--\":294:311   */\n      add\n        /* \"--CODEGEN--\":339:343   */\n      0x20\n        /* \"--CODEGEN--\":332:337   */\n      dup4\n        /* \"--CODEGEN--\":328:344   */\n      add\n        /* \"--CODEGEN--\":374:377   */\n      dup6\n        /* \"--CODEGEN--\":365:371   */\n      dup4\n        /* \"--CODEGEN--\":360:363   */\n      dup4\n        /* \"--CODEGEN--\":356:372   */\n      add\n        /* \"--CODEGEN--\":353:378   */\n      gt\n        /* \"--CODEGEN--\":350:352   */\n      iszero\n      tag_174\n      jumpi\n        /* \"--CODEGEN--\":391:392   */\n      0x0\n        /* \"--CODEGEN--\":388:389   */\n      dup1\n        /* \"--CODEGEN--\":381:393   */\n      revert\n        /* \"--CODEGEN--\":350:352   */\n    tag_174:\n        /* \"--CODEGEN--\":401:442   */\n      tag_175\n        /* \"--CODEGEN--\":435:441   */\n      dup4\n        /* \"--CODEGEN--\":430:433   */\n      dup3\n        /* \"--CODEGEN--\":425:428   */\n      dup5\n        /* \"--CODEGEN--\":401:442   */\n      jump(tag_176)\n    tag_175:\n        /* \"--CODEGEN--\":68:448   */\n      pop\n      pop\n      pop\n      swap3\n      swap2\n      pop\n      pop\n      jump\n        /* \"--CODEGEN--\":456:574   */\n    tag_178:\n      0x0\n        /* \"--CODEGEN--\":523:569   */\n      tag_179\n        /* \"--CODEGEN--\":561:567   */\n      dup3\n        /* \"--CODEGEN--\":548:568   */\n      calldataload\n        /* \"--CODEGEN--\":523:569   */\n      jump(tag_180)\n    tag_179:\n        /* \"--CODEGEN--\":514:569   */\n      swap1\n      pop\n        /* \"--CODEGEN--\":508:574   */\n      swap3\n      swap2\n      pop\n      pop\n      jump\n        /* \"--CODEGEN--\":581:928   */\n    tag_17:\n      0x0\n        /* \"--CODEGEN--\":695:697   */\n      0x20\n        /* \"--CODEGEN--\":683:692   */\n      dup3\n        /* \"--CODEGEN--\":674:681   */\n      dup5\n        /* \"--CODEGEN--\":670:693   */\n      sub\n        /* \"--CODEGEN--\":666:698   */\n      slt\n        /* \"--CODEGEN--\":663:665   */\n      iszero\n      tag_182\n      jumpi\n        /* \"--CODEGEN--\":711:712   */\n      0x0\n        /* \"--CODEGEN--\":708:709   */\n      dup1\n        /* \"--CODEGEN--\":701:713   */\n      revert\n        /* \"--CODEGEN--\":663:665   */\n    tag_182:\n        /* \"--CODEGEN--\":774:775   */\n      0x0\n        /* \"--CODEGEN--\":763:772   */\n      dup3\n        /* \"--CODEGEN--\":759:776   */\n      add\n        /* \"--CODEGEN--\":746:777   */\n      calldataload\n        /* \"--CODEGEN--\":797:815   */\n      0xffffffffffffffff\n        /* \"--CODEGEN--\":789:795   */\n      dup2\n        /* \"--CODEGEN--\":786:816   */\n      gt\n        /* \"--CODEGEN--\":783:785   */\n      iszero\n      tag_183\n      jumpi\n        /* \"--CODEGEN--\":829:830   */\n      0x0\n        /* \"--CODEGEN--\":826:827   */\n      dup1\n        /* \"--CODEGEN--\":819:831   */\n      revert\n        /* \"--CODEGEN--\":783:785   */\n    tag_183:\n        /* \"--CODEGEN--\":849:912   */\n      tag_184\n        /* \"--CODEGEN--\":904:911   */\n      dup5\n        /* \"--CODEGEN--\":895:901   */\n      dup3\n        /* \"--CODEGEN--\":884:893   */\n      dup6\n        /* \"--CODEGEN--\":880:902   */\n      add\n        /* \"--CODEGEN--\":849:912   */\n      jump(tag_168)\n    tag_184:\n        /* \"--CODEGEN--\":839:912   */\n      swap2\n      pop\n        /* \"--CODEGEN--\":725:918   */\n      pop\n        /* \"--CODEGEN--\":657:928   */\n      swap3\n      swap2\n      pop\n      pop\n      jump\n        /* \"--CODEGEN--\":935:1638   */\n    tag_28:\n      0x0\n      dup1\n      0x0\n        /* \"--CODEGEN--\":1093:1095   */\n      0x60\n        /* \"--CODEGEN--\":1081:1090   */\n      dup5\n        /* \"--CODEGEN--\":1072:1079   */\n      dup7\n        /* \"--CODEGEN--\":1068:1091   */\n      sub\n        /* \"--CODEGEN--\":1064:1096   */\n      slt\n        /* \"--CODEGEN--\":1061:1063   */\n      iszero\n      tag_186\n      jumpi\n        /* \"--CODEGEN--\":1109:1110   */\n      0x0\n        /* \"--CODEGEN--\":1106:1107   */\n      dup1\n        /* \"--CODEGEN--\":1099:1111   */\n      revert\n        /* \"--CODEGEN--\":1061:1063   */\n    tag_186:\n        /* \"--CODEGEN--\":1172:1173   */\n      0x0\n        /* \"--CODEGEN--\":1161:1170   */\n      dup5\n        /* \"--CODEGEN--\":1157:1174   */\n      add\n        /* \"--CODEGEN--\":1144:1175   */\n      calldataload\n        /* \"--CODEGEN--\":1195:1213   */\n      0xffffffffffffffff\n        /* \"--CODEGEN--\":1187:1193   */\n      dup2\n        /* \"--CODEGEN--\":1184:1214   */\n      gt\n        /* \"--CODEGEN--\":1181:1183   */\n      iszero\n      tag_187\n      jumpi\n        /* \"--CODEGEN--\":1227:1228   */\n      0x0\n        /* \"--CODEGEN--\":1224:1225   */\n      dup1\n        /* \"--CODEGEN--\":1217:1229   */\n      revert\n        /* \"--CODEGEN--\":1181:1183   */\n    tag_187:\n        /* \"--CODEGEN--\":1247:1310   */\n      tag_188\n        /* \"--CODEGEN--\":1302:1309   */\n      dup7\n        /* \"--CODEGEN--\":1293:1299   */\n      dup3\n        /* \"--CODEGEN--\":1282:1291   */\n      dup8\n        /* \"--CODEGEN--\":1278:1300   */\n      add\n        /* \"--CODEGEN--\":1247:1310   */\n      jump(tag_168)\n    tag_188:\n        /* \"--CODEGEN--\":1237:1310   */\n      swap4\n      pop\n        /* \"--CODEGEN--\":1123:1316   */\n      pop\n        /* \"--CODEGEN--\":1347:1349   */\n      0x20\n        /* \"--CODEGEN--\":1365:1418   */\n      tag_189\n        /* \"--CODEGEN--\":1410:1417   */\n      dup7\n        /* \"--CODEGEN--\":1401:1407   */\n      dup3\n        /* \"--CODEGEN--\":1390:1399   */\n      dup8\n        /* \"--CODEGEN--\":1386:1408   */\n      add\n        /* \"--CODEGEN--\":1365:1418   */\n      jump(tag_178)\n    tag_189:\n        /* \"--CODEGEN--\":1355:1418   */\n      swap3\n      pop\n        /* \"--CODEGEN--\":1326:1424   */\n      pop\n        /* \"--CODEGEN--\":1483:1485   */\n      0x40\n        /* \"--CODEGEN--\":1472:1481   */\n      dup5\n        /* \"--CODEGEN--\":1468:1486   */\n      add\n        /* \"--CODEGEN--\":1455:1487   */\n      calldataload\n        /* \"--CODEGEN--\":1507:1525   */\n      0xffffffffffffffff\n        /* \"--CODEGEN--\":1499:1505   */\n      dup2\n        /* \"--CODEGEN--\":1496:1526   */\n      gt\n        /* \"--CODEGEN--\":1493:1495   */\n      iszero\n      tag_190\n      jumpi\n        /* \"--CODEGEN--\":1539:1540   */\n      0x0\n        /* \"--CODEGEN--\":1536:1537   */\n      dup1\n        /* \"--CODEGEN--\":1529:1541   */\n      revert\n        /* \"--CODEGEN--\":1493:1495   */\n    tag_190:\n        /* \"--CODEGEN--\":1559:1622   */\n      tag_191\n        /* \"--CODEGEN--\":1614:1621   */\n      dup7\n        /* \"--CODEGEN--\":1605:1611   */\n      dup3\n        /* \"--CODEGEN--\":1594:1603   */\n      dup8\n        /* \"--CODEGEN--\":1590:1612   */\n      add\n        /* \"--CODEGEN--\":1559:1622   */\n      jump(tag_168)\n    tag_191:\n        /* \"--CODEGEN--\":1549:1622   */\n      swap2\n      pop\n        /* \"--CODEGEN--\":1434:1628   */\n      pop\n        /* \"--CODEGEN--\":1055:1638   */\n      swap3\n      pop\n      swap3\n      pop\n      swap3\n      jump\n        /* \"--CODEGEN--\":1645:1755   */\n    tag_193:\n        /* \"--CODEGEN--\":1718:1749   */\n      tag_194\n        /* \"--CODEGEN--\":1743:1748   */\n      dup2\n        /* \"--CODEGEN--\":1718:1749   */\n      jump(tag_195)\n    tag_194:\n        /* \"--CODEGEN--\":1713:1716   */\n      dup3\n        /* \"--CODEGEN--\":1706:1750   */\n      mstore\n        /* \"--CODEGEN--\":1700:1755   */\n      pop\n      pop\n      jump\n        /* \"--CODEGEN--\":1791:2564   */\n    tag_197:\n      0x0\n        /* \"--CODEGEN--\":1938:1998   */\n      tag_198\n        /* \"--CODEGEN--\":1992:1997   */\n      dup3\n        /* \"--CODEGEN--\":1938:1998   */\n      jump(tag_199)\n    tag_198:\n        /* \"--CODEGEN--\":2016:2022   */\n      dup1\n        /* \"--CODEGEN--\":2011:2014   */\n      dup5\n        /* \"--CODEGEN--\":2004:2023   */\n      mstore\n        /* \"--CODEGEN--\":2040:2044   */\n      0x20\n        /* \"--CODEGEN--\":2035:2038   */\n      dup5\n        /* \"--CODEGEN--\":2031:2045   */\n      add\n        /* \"--CODEGEN--\":2024:2045   */\n      swap4\n      pop\n        /* \"--CODEGEN--\":2088:2091   */\n      dup4\n        /* \"--CODEGEN--\":2130:2134   */\n      0x20\n        /* \"--CODEGEN--\":2122:2128   */\n      dup3\n        /* \"--CODEGEN--\":2118:2135   */\n      mul\n        /* \"--CODEGEN--\":2113:2116   */\n      dup6\n        /* \"--CODEGEN--\":2109:2136   */\n      add\n        /* \"--CODEGEN--\":2156:2218   */\n      tag_200\n        /* \"--CODEGEN--\":2212:2217   */\n      dup6\n        /* \"--CODEGEN--\":2156:2218   */\n      jump(tag_201)\n    tag_200:\n        /* \"--CODEGEN--\":2239:2240   */\n      0x0\n        /* \"--CODEGEN--\":2224:2525   */\n    tag_202:\n        /* \"--CODEGEN--\":2249:2255   */\n      dup5\n        /* \"--CODEGEN--\":2246:2247   */\n      dup2\n        /* \"--CODEGEN--\":2243:2256   */\n      lt\n        /* \"--CODEGEN--\":2224:2525   */\n      iszero\n      tag_203\n      jumpi\n        /* \"--CODEGEN--\":2311:2320   */\n      dup4\n        /* \"--CODEGEN--\":2305:2309   */\n      dup4\n        /* \"--CODEGEN--\":2301:2321   */\n      sub\n        /* \"--CODEGEN--\":2296:2299   */\n      dup9\n        /* \"--CODEGEN--\":2289:2322   */\n      mstore\n        /* \"--CODEGEN--\":2337:2407   */\n      tag_205\n        /* \"--CODEGEN--\":2402:2406   */\n      dup4\n        /* \"--CODEGEN--\":2393:2399   */\n      dup4\n        /* \"--CODEGEN--\":2387:2400   */\n      mload\n        /* \"--CODEGEN--\":2337:2407   */\n      jump(tag_206)\n    tag_205:\n        /* \"--CODEGEN--\":2329:2407   */\n      swap3\n      pop\n        /* \"--CODEGEN--\":2424:2490   */\n      tag_207\n        /* \"--CODEGEN--\":2483:2489   */\n      dup3\n        /* \"--CODEGEN--\":2424:2490   */\n      jump(tag_208)\n    tag_207:\n        /* \"--CODEGEN--\":2414:2490   */\n      swap2\n      pop\n        /* \"--CODEGEN--\":2513:2517   */\n      0x20\n        /* \"--CODEGEN--\":2508:2511   */\n      dup9\n        /* \"--CODEGEN--\":2504:2518   */\n      add\n        /* \"--CODEGEN--\":2497:2518   */\n      swap8\n      pop\n        /* \"--CODEGEN--\":2271:2272   */\n      0x1\n        /* \"--CODEGEN--\":2268:2269   */\n      dup2\n        /* \"--CODEGEN--\":2264:2273   */\n      add\n        /* \"--CODEGEN--\":2259:2273   */\n      swap1\n      pop\n        /* \"--CODEGEN--\":2224:2525   */\n      jump(tag_202)\n    tag_203:\n        /* \"--CODEGEN--\":2228:2242   */\n      pop\n        /* \"--CODEGEN--\":2538:2542   */\n      dup2\n        /* \"--CODEGEN--\":2531:2542   */\n      swap7\n      pop\n        /* \"--CODEGEN--\":2555:2558   */\n      dup7\n        /* \"--CODEGEN--\":2548:2558   */\n      swap5\n      pop\n        /* \"--CODEGEN--\":1917:2564   */\n      pop\n      pop\n      pop\n      pop\n      swap3\n      swap2\n      pop\n      pop\n      jump\n        /* \"--CODEGEN--\":2572:2872   */\n    tag_210:\n      0x0\n        /* \"--CODEGEN--\":2674:2713   */\n      tag_211\n        /* \"--CODEGEN--\":2707:2712   */\n      dup3\n        /* \"--CODEGEN--\":2674:2713   */\n      jump(tag_212)\n    tag_211:\n        /* \"--CODEGEN--\":2730:2736   */\n      dup1\n        /* \"--CODEGEN--\":2725:2728   */\n      dup5\n        /* \"--CODEGEN--\":2718:2737   */\n      mstore\n        /* \"--CODEGEN--\":2742:2805   */\n      tag_213\n        /* \"--CODEGEN--\":2798:2804   */\n      dup2\n        /* \"--CODEGEN--\":2791:2795   */\n      0x20\n        /* \"--CODEGEN--\":2786:2789   */\n      dup7\n        /* \"--CODEGEN--\":2782:2796   */\n      add\n        /* \"--CODEGEN--\":2775:2779   */\n      0x20\n        /* \"--CODEGEN--\":2768:2773   */\n      dup7\n        /* \"--CODEGEN--\":2764:2780   */\n      add\n        /* \"--CODEGEN--\":2742:2805   */\n      jump(tag_214)\n    tag_213:\n        /* \"--CODEGEN--\":2837:2866   */\n      tag_215\n        /* \"--CODEGEN--\":2859:2865   */\n      dup2\n        /* \"--CODEGEN--\":2837:2866   */\n      jump(tag_216)\n    tag_215:\n        /* \"--CODEGEN--\":2830:2834   */\n      0x20\n        /* \"--CODEGEN--\":2825:2828   */\n      dup6\n        /* \"--CODEGEN--\":2821:2835   */\n      add\n        /* \"--CODEGEN--\":2817:2867   */\n      add\n        /* \"--CODEGEN--\":2810:2867   */\n      swap2\n      pop\n        /* \"--CODEGEN--\":2654:2872   */\n      pop\n      swap3\n      swap2\n      pop\n      pop\n      jump\n        /* \"--CODEGEN--\":2879:3171   */\n    tag_206:\n      0x0\n        /* \"--CODEGEN--\":2977:3012   */\n      tag_218\n        /* \"--CODEGEN--\":3006:3011   */\n      dup3\n        /* \"--CODEGEN--\":2977:3012   */\n      jump(tag_219)\n    tag_218:\n        /* \"--CODEGEN--\":3029:3035   */\n      dup1\n        /* \"--CODEGEN--\":3024:3027   */\n      dup5\n        /* \"--CODEGEN--\":3017:3036   */\n      mstore\n        /* \"--CODEGEN--\":3041:3104   */\n      tag_220\n        /* \"--CODEGEN--\":3097:3103   */\n      dup2\n        /* \"--CODEGEN--\":3090:3094   */\n      0x20\n        /* \"--CODEGEN--\":3085:3088   */\n      dup7\n        /* \"--CODEGEN--\":3081:3095   */\n      add\n        /* \"--CODEGEN--\":3074:3078   */\n      0x20\n        /* \"--CODEGEN--\":3067:3072   */\n      dup7\n        /* \"--CODEGEN--\":3063:3079   */\n      add\n        /* \"--CODEGEN--\":3041:3104   */\n      jump(tag_214)\n    tag_220:\n        /* \"--CODEGEN--\":3136:3165   */\n      tag_221\n        /* \"--CODEGEN--\":3158:3164   */\n      dup2\n        /* \"--CODEGEN--\":3136:3165   */\n      jump(tag_216)\n    tag_221:\n        /* \"--CODEGEN--\":3129:3133   */\n      0x20\n        /* \"--CODEGEN--\":3124:3127   */\n      dup6\n        /* \"--CODEGEN--\":3120:3134   */\n      add\n        /* \"--CODEGEN--\":3116:3166   */\n      add\n        /* \"--CODEGEN--\":3109:3166   */\n      swap2\n      pop\n        /* \"--CODEGEN--\":2957:3171   */\n      pop\n      swap3\n      swap2\n      pop\n      pop\n      jump\n        /* \"--CODEGEN--\":3179:3576   */\n    tag_223:\n      0x0\n        /* \"--CODEGEN--\":3334:3336   */\n      0x30\n        /* \"--CODEGEN--\":3329:3332   */\n      dup3\n        /* \"--CODEGEN--\":3322:3337   */\n      mstore\n        /* \"--CODEGEN--\":3371:3437   */\n      0x4e6f2070756564657320766572206c6f7320766f746f73207369206e6f206572\n        /* \"--CODEGEN--\":3366:3368   */\n      0x20\n        /* \"--CODEGEN--\":3361:3364   */\n      dup4\n        /* \"--CODEGEN--\":3357:3369   */\n      add\n        /* \"--CODEGEN--\":3350:3438   */\n      mstore\n        /* \"--CODEGEN--\":3472:3538   */\n      0x657320656c20676f6265726e61646f7200000000000000000000000000000000\n        /* \"--CODEGEN--\":3467:3469   */\n      0x40\n        /* \"--CODEGEN--\":3462:3465   */\n      dup4\n        /* \"--CODEGEN--\":3458:3470   */\n      add\n        /* \"--CODEGEN--\":3451:3539   */\n      mstore\n        /* \"--CODEGEN--\":3567:3569   */\n      0x60\n        /* \"--CODEGEN--\":3562:3565   */\n      dup3\n        /* \"--CODEGEN--\":3558:3570   */\n      add\n        /* \"--CODEGEN--\":3551:3570   */\n      swap1\n      pop\n        /* \"--CODEGEN--\":3315:3576   */\n      swap2\n      swap1\n      pop\n      jump\n        /* \"--CODEGEN--\":3585:3982   */\n    tag_225:\n      0x0\n        /* \"--CODEGEN--\":3740:3742   */\n      0x26\n        /* \"--CODEGEN--\":3735:3738   */\n      dup3\n        /* \"--CODEGEN--\":3728:3743   */\n      mstore\n        /* \"--CODEGEN--\":3777:3843   */\n      0x4e6f2065737461207065726d697469646f20766f746172206d61732064652075\n        /* \"--CODEGEN--\":3772:3774   */\n      0x20\n        /* \"--CODEGEN--\":3767:3770   */\n      dup4\n        /* \"--CODEGEN--\":3763:3775   */\n      add\n        /* \"--CODEGEN--\":3756:3844   */\n      mstore\n        /* \"--CODEGEN--\":3878:3944   */\n      0x6e612076657a0000000000000000000000000000000000000000000000000000\n        /* \"--CODEGEN--\":3873:3875   */\n      0x40\n        /* \"--CODEGEN--\":3868:3871   */\n      dup4\n        /* \"--CODEGEN--\":3864:3876   */\n      add\n        /* \"--CODEGEN--\":3857:3945   */\n      mstore\n        /* \"--CODEGEN--\":3973:3975   */\n      0x60\n        /* \"--CODEGEN--\":3968:3971   */\n      dup3\n        /* \"--CODEGEN--\":3964:3976   */\n      add\n        /* \"--CODEGEN--\":3957:3976   */\n      swap1\n      pop\n        /* \"--CODEGEN--\":3721:3982   */\n      swap2\n      swap1\n      pop\n      jump\n        /* \"--CODEGEN--\":3990:4100   */\n    tag_227:\n        /* \"--CODEGEN--\":4063:4094   */\n      tag_228\n        /* \"--CODEGEN--\":4088:4093   */\n      dup2\n        /* \"--CODEGEN--\":4063:4094   */\n      jump(tag_229)\n    tag_228:\n        /* \"--CODEGEN--\":4058:4061   */\n      dup3\n        /* \"--CODEGEN--\":4051:4095   */\n      mstore\n        /* \"--CODEGEN--\":4045:4100   */\n      pop\n      pop\n      jump\n        /* \"--CODEGEN--\":4107:4300   */\n    tag_38:\n      0x0\n        /* \"--CODEGEN--\":4215:4217   */\n      0x20\n        /* \"--CODEGEN--\":4204:4213   */\n      dup3\n        /* \"--CODEGEN--\":4200:4218   */\n      add\n        /* \"--CODEGEN--\":4192:4218   */\n      swap1\n      pop\n        /* \"--CODEGEN--\":4229:4290   */\n      tag_231\n        /* \"--CODEGEN--\":4287:4288   */\n      0x0\n        /* \"--CODEGEN--\":4276:4285   */\n      dup4\n        /* \"--CODEGEN--\":4272:4289   */\n      add\n        /* \"--CODEGEN--\":4263:4269   */\n      dup5\n        /* \"--CODEGEN--\":4229:4290   */\n      jump(tag_193)\n    tag_231:\n        /* \"--CODEGEN--\":4186:4300   */\n      swap3\n      swap2\n      pop\n      pop\n      jump\n        /* \"--CODEGEN--\":4307:4672   */\n    tag_43:\n      0x0\n        /* \"--CODEGEN--\":4477:4479   */\n      0x20\n        /* \"--CODEGEN--\":4466:4475   */\n      dup3\n        /* \"--CODEGEN--\":4462:4480   */\n      add\n        /* \"--CODEGEN--\":4454:4480   */\n      swap1\n      pop\n        /* \"--CODEGEN--\":4527:4536   */\n      dup2\n        /* \"--CODEGEN--\":4521:4525   */\n      dup2\n        /* \"--CODEGEN--\":4517:4537   */\n      sub\n        /* \"--CODEGEN--\":4513:4514   */\n      0x0\n        /* \"--CODEGEN--\":4502:4511   */\n      dup4\n        /* \"--CODEGEN--\":4498:4515   */\n      add\n        /* \"--CODEGEN--\":4491:4538   */\n      mstore\n        /* \"--CODEGEN--\":4552:4662   */\n      tag_233\n        /* \"--CODEGEN--\":4657:4661   */\n      dup2\n        /* \"--CODEGEN--\":4648:4654   */\n      dup5\n        /* \"--CODEGEN--\":4552:4662   */\n      jump(tag_197)\n    tag_233:\n        /* \"--CODEGEN--\":4544:4662   */\n      swap1\n      pop\n        /* \"--CODEGEN--\":4448:4672   */\n      swap3\n      swap2\n      pop\n      pop\n      jump\n        /* \"--CODEGEN--\":4679:4960   */\n    tag_13:\n      0x0\n        /* \"--CODEGEN--\":4807:4809   */\n      0x20\n        /* \"--CODEGEN--\":4796:4805   */\n      dup3\n        /* \"--CODEGEN--\":4792:4810   */\n      add\n        /* \"--CODEGEN--\":4784:4810   */\n      swap1\n      pop\n        /* \"--CODEGEN--\":4857:4866   */\n      dup2\n        /* \"--CODEGEN--\":4851:4855   */\n      dup2\n        /* \"--CODEGEN--\":4847:4867   */\n      sub\n        /* \"--CODEGEN--\":4843:4844   */\n      0x0\n        /* \"--CODEGEN--\":4832:4841   */\n      dup4\n        /* \"--CODEGEN--\":4828:4845   */\n      add\n        /* \"--CODEGEN--\":4821:4868   */\n      mstore\n        /* \"--CODEGEN--\":4882:4950   */\n      tag_235\n        /* \"--CODEGEN--\":4945:4949   */\n      dup2\n        /* \"--CODEGEN--\":4936:4942   */\n      dup5\n        /* \"--CODEGEN--\":4882:4950   */\n      jump(tag_210)\n    tag_235:\n        /* \"--CODEGEN--\":4874:4950   */\n      swap1\n      pop\n        /* \"--CODEGEN--\":4778:4960   */\n      swap3\n      swap2\n      pop\n      pop\n      jump\n        /* \"--CODEGEN--\":4967:5354   */\n    tag_70:\n      0x0\n        /* \"--CODEGEN--\":5148:5150   */\n      0x20\n        /* \"--CODEGEN--\":5137:5146   */\n      dup3\n        /* \"--CODEGEN--\":5133:5151   */\n      add\n        /* \"--CODEGEN--\":5125:5151   */\n      swap1\n      pop\n        /* \"--CODEGEN--\":5198:5207   */\n      dup2\n        /* \"--CODEGEN--\":5192:5196   */\n      dup2\n        /* \"--CODEGEN--\":5188:5208   */\n      sub\n        /* \"--CODEGEN--\":5184:5185   */\n      0x0\n        /* \"--CODEGEN--\":5173:5182   */\n      dup4\n        /* \"--CODEGEN--\":5169:5186   */\n      add\n        /* \"--CODEGEN--\":5162:5209   */\n      mstore\n        /* \"--CODEGEN--\":5223:5344   */\n      tag_237\n        /* \"--CODEGEN--\":5339:5343   */\n      dup2\n        /* \"--CODEGEN--\":5223:5344   */\n      jump(tag_223)\n    tag_237:\n        /* \"--CODEGEN--\":5215:5344   */\n      swap1\n      pop\n        /* \"--CODEGEN--\":5119:5354   */\n      swap2\n      swap1\n      pop\n      jump\n        /* \"--CODEGEN--\":5361:5748   */\n    tag_86:\n      0x0\n        /* \"--CODEGEN--\":5542:5544   */\n      0x20\n        /* \"--CODEGEN--\":5531:5540   */\n      dup3\n        /* \"--CODEGEN--\":5527:5545   */\n      add\n        /* \"--CODEGEN--\":5519:5545   */\n      swap1\n      pop\n        /* \"--CODEGEN--\":5592:5601   */\n      dup2\n        /* \"--CODEGEN--\":5586:5590   */\n      dup2\n        /* \"--CODEGEN--\":5582:5602   */\n      sub\n        /* \"--CODEGEN--\":5578:5579   */\n      0x0\n        /* \"--CODEGEN--\":5567:5576   */\n      dup4\n        /* \"--CODEGEN--\":5563:5580   */\n      add\n        /* \"--CODEGEN--\":5556:5603   */\n      mstore\n        /* \"--CODEGEN--\":5617:5738   */\n      tag_239\n        /* \"--CODEGEN--\":5733:5737   */\n      dup2\n        /* \"--CODEGEN--\":5617:5738   */\n      jump(tag_225)\n    tag_239:\n        /* \"--CODEGEN--\":5609:5738   */\n      swap1\n      pop\n        /* \"--CODEGEN--\":5513:5748   */\n      swap2\n      swap1\n      pop\n      jump\n        /* \"--CODEGEN--\":5755:5948   */\n    tag_20:\n      0x0\n        /* \"--CODEGEN--\":5863:5865   */\n      0x20\n        /* \"--CODEGEN--\":5852:5861   */\n      dup3\n        /* \"--CODEGEN--\":5848:5866   */\n      add\n        /* \"--CODEGEN--\":5840:5866   */\n      swap1\n      pop\n        /* \"--CODEGEN--\":5877:5938   */\n      tag_241\n        /* \"--CODEGEN--\":5935:5936   */\n      0x0\n        /* \"--CODEGEN--\":5924:5933   */\n      dup4\n        /* \"--CODEGEN--\":5920:5937   */\n      add\n        /* \"--CODEGEN--\":5911:5917   */\n      dup5\n        /* \"--CODEGEN--\":5877:5938   */\n      jump(tag_227)\n    tag_241:\n        /* \"--CODEGEN--\":5834:5948   */\n      swap3\n      swap2\n      pop\n      pop\n      jump\n        /* \"--CODEGEN--\":5955:6211   */\n    tag_173:\n      0x0\n        /* \"--CODEGEN--\":6017:6019   */\n      0x40\n        /* \"--CODEGEN--\":6011:6020   */\n      mload\n        /* \"--CODEGEN--\":6001:6020   */\n      swap1\n      pop\n        /* \"--CODEGEN--\":6055:6059   */\n      dup2\n        /* \"--CODEGEN--\":6047:6053   */\n      dup2\n        /* \"--CODEGEN--\":6043:6060   */\n      add\n        /* \"--CODEGEN--\":6154:6160   */\n      dup2\n        /* \"--CODEGEN--\":6142:6152   */\n      dup2\n        /* \"--CODEGEN--\":6139:6161   */\n      lt\n        /* \"--CODEGEN--\":6118:6136   */\n      0xffffffffffffffff\n        /* \"--CODEGEN--\":6106:6116   */\n      dup3\n        /* \"--CODEGEN--\":6103:6137   */\n      gt\n        /* \"--CODEGEN--\":6100:6162   */\n      or\n        /* \"--CODEGEN--\":6097:6099   */\n      iszero\n      tag_243\n      jumpi\n        /* \"--CODEGEN--\":6175:6176   */\n      0x0\n        /* \"--CODEGEN--\":6172:6173   */\n      dup1\n        /* \"--CODEGEN--\":6165:6177   */\n      revert\n        /* \"--CODEGEN--\":6097:6099   */\n    tag_243:\n        /* \"--CODEGEN--\":6195:6205   */\n      dup1\n        /* \"--CODEGEN--\":6191:6193   */\n      0x40\n        /* \"--CODEGEN--\":6184:6206   */\n      mstore\n        /* \"--CODEGEN--\":5995:6211   */\n      pop\n      swap2\n      swap1\n      pop\n      jump\n        /* \"--CODEGEN--\":6218:6477   */\n    tag_172:\n      0x0\n        /* \"--CODEGEN--\":6362:6380   */\n      0xffffffffffffffff\n        /* \"--CODEGEN--\":6354:6360   */\n      dup3\n        /* \"--CODEGEN--\":6351:6381   */\n      gt\n        /* \"--CODEGEN--\":6348:6350   */\n      iszero\n      tag_245\n      jumpi\n        /* \"--CODEGEN--\":6394:6395   */\n      0x0\n        /* \"--CODEGEN--\":6391:6392   */\n      dup1\n        /* \"--CODEGEN--\":6384:6396   */\n      revert\n        /* \"--CODEGEN--\":6348:6350   */\n    tag_245:\n        /* \"--CODEGEN--\":6438:6442   */\n      0x1f\n        /* \"--CODEGEN--\":6434:6443   */\n      not\n        /* \"--CODEGEN--\":6427:6431   */\n      0x1f\n        /* \"--CODEGEN--\":6419:6425   */\n      dup4\n        /* \"--CODEGEN--\":6415:6432   */\n      add\n        /* \"--CODEGEN--\":6411:6444   */\n      and\n        /* \"--CODEGEN--\":6403:6444   */\n      swap1\n      pop\n        /* \"--CODEGEN--\":6467:6471   */\n      0x20\n        /* \"--CODEGEN--\":6461:6465   */\n      dup2\n        /* \"--CODEGEN--\":6457:6472   */\n      add\n        /* \"--CODEGEN--\":6449:6472   */\n      swap1\n      pop\n        /* \"--CODEGEN--\":6285:6477   */\n      swap2\n      swap1\n      pop\n      jump\n        /* \"--CODEGEN--\":6486:6613   */\n    tag_201:\n      0x0\n        /* \"--CODEGEN--\":6601:6605   */\n      0x20\n        /* \"--CODEGEN--\":6593:6599   */\n      dup3\n        /* \"--CODEGEN--\":6589:6606   */\n      add\n        /* \"--CODEGEN--\":6578:6606   */\n      swap1\n      pop\n        /* \"--CODEGEN--\":6570:6613   */\n      swap2\n      swap1\n      pop\n      jump\n        /* \"--CODEGEN--\":6622:6735   */\n    tag_199:\n      0x0\n        /* \"--CODEGEN--\":6724:6729   */\n      dup2\n        /* \"--CODEGEN--\":6718:6730   */\n      mload\n        /* \"--CODEGEN--\":6708:6730   */\n      swap1\n      pop\n        /* \"--CODEGEN--\":6702:6735   */\n      swap2\n      swap1\n      pop\n      jump\n        /* \"--CODEGEN--\":6742:6830   */\n    tag_219:\n      0x0\n        /* \"--CODEGEN--\":6819:6824   */\n      dup2\n        /* \"--CODEGEN--\":6813:6825   */\n      mload\n        /* \"--CODEGEN--\":6803:6825   */\n      swap1\n      pop\n        /* \"--CODEGEN--\":6797:6830   */\n      swap2\n      swap1\n      pop\n      jump\n        /* \"--CODEGEN--\":6837:6929   */\n    tag_212:\n      0x0\n        /* \"--CODEGEN--\":6918:6923   */\n      dup2\n        /* \"--CODEGEN--\":6912:6924   */\n      mload\n        /* \"--CODEGEN--\":6902:6924   */\n      swap1\n      pop\n        /* \"--CODEGEN--\":6896:6929   */\n      swap2\n      swap1\n      pop\n      jump\n        /* \"--CODEGEN--\":6937:7065   */\n    tag_208:\n      0x0\n        /* \"--CODEGEN--\":7054:7058   */\n      0x20\n        /* \"--CODEGEN--\":7046:7052   */\n      dup3\n        /* \"--CODEGEN--\":7042:7059   */\n      add\n        /* \"--CODEGEN--\":7031:7059   */\n      swap1\n      pop\n        /* \"--CODEGEN--\":7024:7065   */\n      swap2\n      swap1\n      pop\n      jump\n        /* \"--CODEGEN--\":7073:7201   */\n    tag_195:\n      0x0\n        /* \"--CODEGEN--\":7153:7195   */\n      0xffffffffffffffffffffffffffffffffffffffff\n        /* \"--CODEGEN--\":7146:7151   */\n      dup3\n        /* \"--CODEGEN--\":7142:7196   */\n      and\n        /* \"--CODEGEN--\":7131:7196   */\n      swap1\n      pop\n        /* \"--CODEGEN--\":7125:7201   */\n      swap2\n      swap1\n      pop\n      jump\n        /* \"--CODEGEN--\":7208:7287   */\n    tag_229:\n      0x0\n        /* \"--CODEGEN--\":7277:7282   */\n      dup2\n        /* \"--CODEGEN--\":7266:7282   */\n      swap1\n      pop\n        /* \"--CODEGEN--\":7260:7287   */\n      swap2\n      swap1\n      pop\n      jump\n        /* \"--CODEGEN--\":7294:7373   */\n    tag_180:\n      0x0\n        /* \"--CODEGEN--\":7363:7368   */\n      dup2\n        /* \"--CODEGEN--\":7352:7368   */\n      swap1\n      pop\n        /* \"--CODEGEN--\":7346:7373   */\n      swap2\n      swap1\n      pop\n      jump\n        /* \"--CODEGEN--\":7381:7526   */\n    tag_176:\n        /* \"--CODEGEN--\":7462:7468   */\n      dup3\n        /* \"--CODEGEN--\":7457:7460   */\n      dup2\n        /* \"--CODEGEN--\":7452:7455   */\n      dup4\n        /* \"--CODEGEN--\":7439:7469   */\n      calldatacopy\n        /* \"--CODEGEN--\":7518:7519   */\n      0x0\n        /* \"--CODEGEN--\":7509:7515   */\n      dup4\n        /* \"--CODEGEN--\":7504:7507   */\n      dup4\n        /* \"--CODEGEN--\":7500:7516   */\n      add\n        /* \"--CODEGEN--\":7493:7520   */\n      mstore\n        /* \"--CODEGEN--\":7432:7526   */\n      pop\n      pop\n      pop\n      jump\n        /* \"--CODEGEN--\":7535:7803   */\n    tag_214:\n        /* \"--CODEGEN--\":7600:7601   */\n      0x0\n        /* \"--CODEGEN--\":7607:7708   */\n    tag_256:\n        /* \"--CODEGEN--\":7621:7627   */\n      dup4\n        /* \"--CODEGEN--\":7618:7619   */\n      dup2\n        /* \"--CODEGEN--\":7615:7628   */\n      lt\n        /* \"--CODEGEN--\":7607:7708   */\n      iszero\n      tag_257\n      jumpi\n        /* \"--CODEGEN--\":7697:7698   */\n      dup1\n        /* \"--CODEGEN--\":7692:7695   */\n      dup3\n        /* \"--CODEGEN--\":7688:7699   */\n      add\n        /* \"--CODEGEN--\":7682:7700   */\n      mload\n        /* \"--CODEGEN--\":7678:7679   */\n      dup2\n        /* \"--CODEGEN--\":7673:7676   */\n      dup5\n        /* \"--CODEGEN--\":7669:7680   */\n      add\n        /* \"--CODEGEN--\":7662:7701   */\n      mstore\n        /* \"--CODEGEN--\":7643:7645   */\n      0x20\n        /* \"--CODEGEN--\":7640:7641   */\n      dup2\n        /* \"--CODEGEN--\":7636:7646   */\n      add\n        /* \"--CODEGEN--\":7631:7646   */\n      swap1\n      pop\n        /* \"--CODEGEN--\":7607:7708   */\n      jump(tag_256)\n    tag_257:\n        /* \"--CODEGEN--\":7723:7729   */\n      dup4\n        /* \"--CODEGEN--\":7720:7721   */\n      dup2\n        /* \"--CODEGEN--\":7717:7730   */\n      gt\n        /* \"--CODEGEN--\":7714:7716   */\n      iszero\n      tag_259\n      jumpi\n        /* \"--CODEGEN--\":7788:7789   */\n      0x0\n        /* \"--CODEGEN--\":7779:7785   */\n      dup5\n        /* \"--CODEGEN--\":7774:7777   */\n      dup5\n        /* \"--CODEGEN--\":7770:7786   */\n      add\n        /* \"--CODEGEN--\":7763:7790   */\n      mstore\n        /* \"--CODEGEN--\":7714:7716   */\n    tag_259:\n        /* \"--CODEGEN--\":7584:7803   */\n      pop\n      pop\n      pop\n      pop\n      jump\n        /* \"--CODEGEN--\":7811:7908   */\n    tag_216:\n      0x0\n        /* \"--CODEGEN--\":7899:7901   */\n      0x1f\n        /* \"--CODEGEN--\":7895:7902   */\n      not\n        /* \"--CODEGEN--\":7890:7892   */\n      0x1f\n        /* \"--CODEGEN--\":7883:7888   */\n      dup4\n        /* \"--CODEGEN--\":7879:7893   */\n      add\n        /* \"--CODEGEN--\":7875:7903   */\n      and\n        /* \"--CODEGEN--\":7865:7903   */\n      swap1\n      pop\n        /* \"--CODEGEN--\":7859:7908   */\n      swap2\n      swap1\n      pop\n      jump\n\n    auxdata: 0xa265627a7a72305820fe585222f8bb92afad396cefba5eb8e182931a3ae50b59cf912590d06eaaaed36c6578706572696d656e74616cf50037\n}\n",
				"bytecode": {
					"linkReferences": {},
					"object": "608060405234801561001057600080fd5b50336000806101000a81548173ffffffffffffffffffffffffffffffffffffffff021916908373ffffffffffffffffffffffffffffffffffffffff1602179055506114de806100606000396000f300608060405260043610610083576000357c0100000000000000000000000000000000000000000000000000000000900463ffffffff16806358c6414f1461008857806360df75d4146100b357806364714e22146100f0578063723cbc3d146101195780637f12af43146101425780638da5cb5b1461016d578063caaa49a614610198575b600080fd5b34801561009457600080fd5b5061009d6101c3565b6040516100aa919061130c565b60405180910390f35b3480156100bf57600080fd5b506100da60048036036100d5919081019061105d565b61045e565b6040516100e7919061136e565b60405180910390f35b3480156100fc57600080fd5b506101176004803603610112919081019061105d565b610566565b005b34801561012557600080fd5b50610140600480360361013b919081019061109e565b61075f565b005b34801561014e57600080fd5b50610157610948565b604051610164919061130c565b60405180910390f35b34801561017957600080fd5b50610182610ce9565b60405161018f91906112cf565b60405180910390f35b3480156101a457600080fd5b506101ad610d0e565b6040516101ba91906112ea565b60405180910390f35b60608060008090505b60038054905081101561045657816003828154811015156101e957fe5b906000526020600020016102b56102b060038581548110151561020857fe5b906000526020600020018054600181600116156101000203166002900480601f0160208091040260200160405190810160405280929190818152602001828054600181600116156101000203166002900480156102a65780601f1061027b576101008083540402835291602001916102a6565b820191906000526020600020905b81548152906001019060200180831161028957829003601f168201915b505050505061045e565b610df7565b6040516020018084805190602001908083835b6020831015156102ed57805182526020820191506020810190506020830392506102c8565b6001836020036101000a038019825116818451168082178552505050505050905001807f28000000000000000000000000000000000000000000000000000000000000008152506001018380546001816001161561010002031660029004801561038e5780601f1061036c57610100808354040283529182019161038e565b820191906000526020600020905b81548152906001019060200180831161037a575b5050807f207c20000000000000000000000000000000000000000000000000000000000081525060030182805190602001908083835b6020831015156103e957805182526020820191506020810190506020830392506103c4565b6001836020036101000a038019825116818451168082178552505050505050905001807f29202d2d2d2d2d2d0000000000000000000000000000000000000000000000008152506008019350505050604051602081830303815290604052915080806001019150506101cc565b819250505090565b6000336000809054906101000a900473ffffffffffffffffffffffffffffffffffffffff1673ffffffffffffffffffffffffffffffffffffffff168173ffffffffffffffffffffffffffffffffffffffff161415156104f2576040517f08c379a00000000000000000000000000000000000000000000000000000000081526004016104e99061132e565b60405180910390fd5b6002836040518082805190602001908083835b60208310151561052a5780518252602082019150602081019050602083039250610505565b6001836020036101000a038019825116818451168082178552505050505050905001915050908152602001604051809103902054915050919050565b60008033604051602001808273ffffffffffffffffffffffffffffffffffffffff1673ffffffffffffffffffffffffffffffffffffffff166c010000000000000000000000000281526014019150506040516020818303038152906040526040518082805190602001908083835b6020831015156105f957805182526020820191506020810190506020830392506105d4565b6001836020036101000a03801982511681845116808217855250505050505090500191505060405180910390209150600090505b6004805490508110156106ad57816000191660048281548110151561064e57fe5b906000526020600020015460001916141515156106a0576040517f08c379a00000000000000000000000000000000000000000000000000000000081526004016106979061134e565b60405180910390fd5b808060010191505061062d565b6002836040518082805190602001908083835b6020831015156106e557805182526020820191506020810190506020830392506106c0565b6001836020036101000a0380198251168184511680821785525050505050509050019150509081526020016040518091039020600081548092919060010191905055506004829080600181540180825580915050906001820390600052602060002001600090919290919091509060001916905550505050565b60008383836040516020018084805190602001908083835b60208310151561079c5780518252602082019150602081019050602083039250610777565b6001836020036101000a03801982511681845116808217855250505050505090500183815260200182805190602001908083835b6020831015156107f557805182526020820191506020810190506020830392506107d0565b6001836020036101000a03801982511681845116808217855250505050505090500193505050506040516020818303038152906040526040518082805190602001908083835b602083101515610860578051825260208201915060208101905060208303925061083b565b6001836020036101000a0380198251168184511680821785525050505050509050019150506040518091039020905060038490806001815401808255809150509060018203906000526020600020016000909192909190915090805190602001906108cc929190610f4e565b5050806001856040518082805190602001908083835b60208310151561090757805182526020820191506020810190506020830392506108e2565b6001836020036101000a0380198251168184511680821785525050505050509050019150509081526020016040518091039020816000191690555050505050565b60608060008060006003600081548110151561096057fe5b906000526020600020018054600181600116156101000203166002900480601f0160208091040260200160405190810160405280929190818152602001828054600181600116156101000203166002900480156109fe5780601f106109d3576101008083540402835291602001916109fe565b820191906000526020600020905b8154815290600101906020018083116109e157829003601f168201915b5050505050935060009250600190505b600380549050811015610c9957826002600383815481101515610a2d57fe5b906000526020600020016040518082805460018160011615610100020316600290048015610a925780601f10610a70576101008083540402835291820191610a92565b820191906000526020600020905b815481529060010190602001808311610a7e575b50509150509081526020016040518091039020541115610bf5576002600382815481101515610abd57fe5b906000526020600020016040518082805460018160011615610100020316600290048015610b225780601f10610b00576101008083540402835291820191610b22565b820191906000526020600020905b815481529060010190602001808311610b0e575b50509150509081526020016040518091039020549250600381815481101515610b4757fe5b906000526020600020018054600181600116156101000203166002900480601f016020809104026020016040519081016040528092919081815260200182805460018160011615610100020316600290048015610be55780601f10610bba57610100808354040283529160200191610be5565b820191906000526020600020905b815481529060010190602001808311610bc857829003601f168201915b5050505050935060009150610c8c565b6002600382815481101515610c0657fe5b906000526020600020016040518082805460018160011615610100020316600290048015610c6b5780601f10610c49576101008083540402835291820191610c6b565b820191906000526020600020905b815481529060010190602001808311610c57575b5050915050908152602001604051809103902054831415610c8b57600191505b5b8080600101915050610a0e565b600115158215151415610cdf576040805190810160405280600a81526020017f48617920656d706174650000000000000000000000000000000000000000000081525093505b8394505050505090565b6000809054906101000a900473ffffffffffffffffffffffffffffffffffffffff1681565b60606003805480602002602001604051908101604052809291908181526020016000905b82821015610dee578382906000526020600020018054600181600116156101000203166002900480601f016020809104026020016040519081016040528092919081815260200182805460018160011615610100020316600290048015610dda5780601f10610daf57610100808354040283529160200191610dda565b820191906000526020600020905b815481529060010190602001808311610dbd57829003601f168201915b505050505081526020019060010190610d32565b50505050905090565b60606000806060600080861415610e45576040805190810160405280600181526020017f30000000000000000000000000000000000000000000000000000000000000008152509450610f45565b8593505b600084141515610e6f578280600101935050600a84811515610e6757fe5b049350610e49565b826040519080825280601f01601f191660200182016040528015610ea25781602001602082028038833980820191505090505b5091506001830390505b600086141515610f4157600a86811515610ec257fe5b066030017f010000000000000000000000000000000000000000000000000000000000000002828280600190039350815181101515610efd57fe5b9060200101907effffffffffffffffffffffffffffffffffffffffffffffffffffffffffffff1916908160001a905350600a86811515610f3957fe5b049550610eac565b8194505b50505050919050565b828054600181600116156101000203166002900490600052602060002090601f016020900481019282601f10610f8f57805160ff1916838001178555610fbd565b82800160010185558215610fbd579182015b82811115610fbc578251825591602001919060010190610fa1565b5b509050610fca9190610fce565b5090565b610ff091905b80821115610fec576000816000905550600101610fd4565b5090565b90565b600082601f830112151561100657600080fd5b8135611019611014826113b6565b611389565b9150808252602083016020830185838301111561103557600080fd5b611040838284611451565b50505092915050565b60006110558235611447565b905092915050565b60006020828403121561106f57600080fd5b600082013567ffffffffffffffff81111561108957600080fd5b61109584828501610ff3565b91505092915050565b6000806000606084860312156110b357600080fd5b600084013567ffffffffffffffff8111156110cd57600080fd5b6110d986828701610ff3565b93505060206110ea86828701611049565b925050604084013567ffffffffffffffff81111561110757600080fd5b61111386828701610ff3565b9150509250925092565b6111268161141d565b82525050565b6000611137826113ef565b80845260208401935083602082028501611150856113e2565b60005b8481101561118957838303885261116b8383516111d0565b925061117682611410565b9150602088019750600181019050611153565b508196508694505050505092915050565b60006111a582611405565b8084526111b9816020860160208601611460565b6111c281611493565b602085010191505092915050565b60006111db826113fa565b8084526111ef816020860160208601611460565b6111f881611493565b602085010191505092915050565b6000603082527f4e6f2070756564657320766572206c6f7320766f746f73207369206e6f20657260208301527f657320656c20676f6265726e61646f72000000000000000000000000000000006040830152606082019050919050565b6000602682527f4e6f2065737461207065726d697469646f20766f746172206d6173206465207560208301527f6e612076657a00000000000000000000000000000000000000000000000000006040830152606082019050919050565b6112c98161143d565b82525050565b60006020820190506112e4600083018461111d565b92915050565b60006020820190508181036000830152611304818461112c565b905092915050565b60006020820190508181036000830152611326818461119a565b905092915050565b6000602082019050818103600083015261134781611206565b9050919050565b6000602082019050818103600083015261136781611263565b9050919050565b600060208201905061138360008301846112c0565b92915050565b6000604051905081810181811067ffffffffffffffff821117156113ac57600080fd5b8060405250919050565b600067ffffffffffffffff8211156113cd57600080fd5b601f19601f8301169050602081019050919050565b6000602082019050919050565b600081519050919050565b600081519050919050565b600081519050919050565b6000602082019050919050565b600073ffffffffffffffffffffffffffffffffffffffff82169050919050565b6000819050919050565b6000819050919050565b82818337600083830152505050565b60005b8381101561147e578082015181840152602081019050611463565b8381111561148d576000848401525b50505050565b6000601f19601f83011690509190505600a265627a7a72305820fe585222f8bb92afad396cefba5eb8e182931a3ae50b59cf912590d06eaaaed36c6578706572696d656e74616cf50037",
					"opcodes": "PUSH1 0x80 PUSH1 0x40 MSTORE CALLVALUE DUP1 ISZERO PUSH2 0x10 JUMPI PUSH1 0x0 DUP1 REVERT JUMPDEST POP CALLER PUSH1 0x0 DUP1 PUSH2 0x100 EXP DUP2 SLOAD DUP2 PUSH20 0xFFFFFFFFFFFFFFFFFFFFFFFFFFFFFFFFFFFFFFFF MUL NOT AND SWAP1 DUP4 PUSH20 0xFFFFFFFFFFFFFFFFFFFFFFFFFFFFFFFFFFFFFFFF AND MUL OR SWAP1 SSTORE POP PUSH2 0x14DE DUP1 PUSH2 0x60 PUSH1 0x0 CODECOPY PUSH1 0x0 RETURN STOP PUSH1 0x80 PUSH1 0x40 MSTORE PUSH1 0x4 CALLDATASIZE LT PUSH2 0x83 JUMPI PUSH1 0x0 CALLDATALOAD PUSH29 0x100000000000000000000000000000000000000000000000000000000 SWAP1 DIV PUSH4 0xFFFFFFFF AND DUP1 PUSH4 0x58C6414F EQ PUSH2 0x88 JUMPI DUP1 PUSH4 0x60DF75D4 EQ PUSH2 0xB3 JUMPI DUP1 PUSH4 0x64714E22 EQ PUSH2 0xF0 JUMPI DUP1 PUSH4 0x723CBC3D EQ PUSH2 0x119 JUMPI DUP1 PUSH4 0x7F12AF43 EQ PUSH2 0x142 JUMPI DUP1 PUSH4 0x8DA5CB5B EQ PUSH2 0x16D JUMPI DUP1 PUSH4 0xCAAA49A6 EQ PUSH2 0x198 JUMPI JUMPDEST PUSH1 0x0 DUP1 REVERT JUMPDEST CALLVALUE DUP1 ISZERO PUSH2 0x94 JUMPI PUSH1 0x0 DUP1 REVERT JUMPDEST POP PUSH2 0x9D PUSH2 0x1C3 JUMP JUMPDEST PUSH1 0x40 MLOAD PUSH2 0xAA SWAP2 SWAP1 PUSH2 0x130C JUMP JUMPDEST PUSH1 0x40 MLOAD DUP1 SWAP2 SUB SWAP1 RETURN JUMPDEST CALLVALUE DUP1 ISZERO PUSH2 0xBF JUMPI PUSH1 0x0 DUP1 REVERT JUMPDEST POP PUSH2 0xDA PUSH1 0x4 DUP1 CALLDATASIZE SUB PUSH2 0xD5 SWAP2 SWAP1 DUP2 ADD SWAP1 PUSH2 0x105D JUMP JUMPDEST PUSH2 0x45E JUMP JUMPDEST PUSH1 0x40 MLOAD PUSH2 0xE7 SWAP2 SWAP1 PUSH2 0x136E JUMP JUMPDEST PUSH1 0x40 MLOAD DUP1 SWAP2 SUB SWAP1 RETURN JUMPDEST CALLVALUE DUP1 ISZERO PUSH2 0xFC JUMPI PUSH1 0x0 DUP1 REVERT JUMPDEST POP PUSH2 0x117 PUSH1 0x4 DUP1 CALLDATASIZE SUB PUSH2 0x112 SWAP2 SWAP1 DUP2 ADD SWAP1 PUSH2 0x105D JUMP JUMPDEST PUSH2 0x566 JUMP JUMPDEST STOP JUMPDEST CALLVALUE DUP1 ISZERO PUSH2 0x125 JUMPI PUSH1 0x0 DUP1 REVERT JUMPDEST POP PUSH2 0x140 PUSH1 0x4 DUP1 CALLDATASIZE SUB PUSH2 0x13B SWAP2 SWAP1 DUP2 ADD SWAP1 PUSH2 0x109E JUMP JUMPDEST PUSH2 0x75F JUMP JUMPDEST STOP JUMPDEST CALLVALUE DUP1 ISZERO PUSH2 0x14E JUMPI PUSH1 0x0 DUP1 REVERT JUMPDEST POP PUSH2 0x157 PUSH2 0x948 JUMP JUMPDEST PUSH1 0x40 MLOAD PUSH2 0x164 SWAP2 SWAP1 PUSH2 0x130C JUMP JUMPDEST PUSH1 0x40 MLOAD DUP1 SWAP2 SUB SWAP1 RETURN JUMPDEST CALLVALUE DUP1 ISZERO PUSH2 0x179 JUMPI PUSH1 0x0 DUP1 REVERT JUMPDEST POP PUSH2 0x182 PUSH2 0xCE9 JUMP JUMPDEST PUSH1 0x40 MLOAD PUSH2 0x18F SWAP2 SWAP1 PUSH2 0x12CF JUMP JUMPDEST PUSH1 0x40 MLOAD DUP1 SWAP2 SUB SWAP1 RETURN JUMPDEST CALLVALUE DUP1 ISZERO PUSH2 0x1A4 JUMPI PUSH1 0x0 DUP1 REVERT JUMPDEST POP PUSH2 0x1AD PUSH2 0xD0E JUMP JUMPDEST PUSH1 0x40 MLOAD PUSH2 0x1BA SWAP2 SWAP1 PUSH2 0x12EA JUMP JUMPDEST PUSH1 0x40 MLOAD DUP1 SWAP2 SUB SWAP1 RETURN JUMPDEST PUSH1 0x60 DUP1 PUSH1 0x0 DUP1 SWAP1 POP JUMPDEST PUSH1 0x3 DUP1 SLOAD SWAP1 POP DUP2 LT ISZERO PUSH2 0x456 JUMPI DUP2 PUSH1 0x3 DUP3 DUP2 SLOAD DUP2 LT ISZERO ISZERO PUSH2 0x1E9 JUMPI INVALID JUMPDEST SWAP1 PUSH1 0x0 MSTORE PUSH1 0x20 PUSH1 0x0 KECCAK256 ADD PUSH2 0x2B5 PUSH2 0x2B0 PUSH1 0x3 DUP6 DUP2 SLOAD DUP2 LT ISZERO ISZERO PUSH2 0x208 JUMPI INVALID JUMPDEST SWAP1 PUSH1 0x0 MSTORE PUSH1 0x20 PUSH1 0x0 KECCAK256 ADD DUP1 SLOAD PUSH1 0x1 DUP2 PUSH1 0x1 AND ISZERO PUSH2 0x100 MUL SUB AND PUSH1 0x2 SWAP1 DIV DUP1 PUSH1 0x1F ADD PUSH1 0x20 DUP1 SWAP2 DIV MUL PUSH1 0x20 ADD PUSH1 0x40 MLOAD SWAP1 DUP2 ADD PUSH1 0x40 MSTORE DUP1 SWAP3 SWAP2 SWAP1 DUP2 DUP2 MSTORE PUSH1 0x20 ADD DUP3 DUP1 SLOAD PUSH1 0x1 DUP2 PUSH1 0x1 AND ISZERO PUSH2 0x100 MUL SUB AND PUSH1 0x2 SWAP1 DIV DUP1 ISZERO PUSH2 0x2A6 JUMPI DUP1 PUSH1 0x1F LT PUSH2 0x27B JUMPI PUSH2 0x100 DUP1 DUP4 SLOAD DIV MUL DUP4 MSTORE SWAP2 PUSH1 0x20 ADD SWAP2 PUSH2 0x2A6 JUMP JUMPDEST DUP3 ADD SWAP2 SWAP1 PUSH1 0x0 MSTORE PUSH1 0x20 PUSH1 0x0 KECCAK256 SWAP1 JUMPDEST DUP2 SLOAD DUP2 MSTORE SWAP1 PUSH1 0x1 ADD SWAP1 PUSH1 0x20 ADD DUP1 DUP4 GT PUSH2 0x289 JUMPI DUP3 SWAP1 SUB PUSH1 0x1F AND DUP3 ADD SWAP2 JUMPDEST POP POP POP POP POP PUSH2 0x45E JUMP JUMPDEST PUSH2 0xDF7 JUMP JUMPDEST PUSH1 0x40 MLOAD PUSH1 0x20 ADD DUP1 DUP5 DUP1 MLOAD SWAP1 PUSH1 0x20 ADD SWAP1 DUP1 DUP4 DUP4 JUMPDEST PUSH1 0x20 DUP4 LT ISZERO ISZERO PUSH2 0x2ED JUMPI DUP1 MLOAD DUP3 MSTORE PUSH1 0x20 DUP3 ADD SWAP2 POP PUSH1 0x20 DUP2 ADD SWAP1 POP PUSH1 0x20 DUP4 SUB SWAP3 POP PUSH2 0x2C8 JUMP JUMPDEST PUSH1 0x1 DUP4 PUSH1 0x20 SUB PUSH2 0x100 EXP SUB DUP1 NOT DUP3 MLOAD AND DUP2 DUP5 MLOAD AND DUP1 DUP3 OR DUP6 MSTORE POP POP POP POP POP POP SWAP1 POP ADD DUP1 PUSH32 0x2800000000000000000000000000000000000000000000000000000000000000 DUP2 MSTORE POP PUSH1 0x1 ADD DUP4 DUP1 SLOAD PUSH1 0x1 DUP2 PUSH1 0x1 AND ISZERO PUSH2 0x100 MUL SUB AND PUSH1 0x2 SWAP1 DIV DUP1 ISZERO PUSH2 0x38E JUMPI DUP1 PUSH1 0x1F LT PUSH2 0x36C JUMPI PUSH2 0x100 DUP1 DUP4 SLOAD DIV MUL DUP4 MSTORE SWAP2 DUP3 ADD SWAP2 PUSH2 0x38E JUMP JUMPDEST DUP3 ADD SWAP2 SWAP1 PUSH1 0x0 MSTORE PUSH1 0x20 PUSH1 0x0 KECCAK256 SWAP1 JUMPDEST DUP2 SLOAD DUP2 MSTORE SWAP1 PUSH1 0x1 ADD SWAP1 PUSH1 0x20 ADD DUP1 DUP4 GT PUSH2 0x37A JUMPI JUMPDEST POP POP DUP1 PUSH32 0x207C200000000000000000000000000000000000000000000000000000000000 DUP2 MSTORE POP PUSH1 0x3 ADD DUP3 DUP1 MLOAD SWAP1 PUSH1 0x20 ADD SWAP1 DUP1 DUP4 DUP4 JUMPDEST PUSH1 0x20 DUP4 LT ISZERO ISZERO PUSH2 0x3E9 JUMPI DUP1 MLOAD DUP3 MSTORE PUSH1 0x20 DUP3 ADD SWAP2 POP PUSH1 0x20 DUP2 ADD SWAP1 POP PUSH1 0x20 DUP4 SUB SWAP3 POP PUSH2 0x3C4 JUMP JUMPDEST PUSH1 0x1 DUP4 PUSH1 0x20 SUB PUSH2 0x100 EXP SUB DUP1 NOT DUP3 MLOAD AND DUP2 DUP5 MLOAD AND DUP1 DUP3 OR DUP6 MSTORE POP POP POP POP POP POP SWAP1 POP ADD DUP1 PUSH32 0x29202D2D2D2D2D2D000000000000000000000000000000000000000000000000 DUP2 MSTORE POP PUSH1 0x8 ADD SWAP4 POP POP POP POP PUSH1 0x40 MLOAD PUSH1 0x20 DUP2 DUP4 SUB SUB DUP2 MSTORE SWAP1 PUSH1 0x40 MSTORE SWAP2 POP DUP1 DUP1 PUSH1 0x1 ADD SWAP2 POP POP PUSH2 0x1CC JUMP JUMPDEST DUP2 SWAP3 POP POP POP SWAP1 JUMP JUMPDEST PUSH1 0x0 CALLER PUSH1 0x0 DUP1 SWAP1 SLOAD SWAP1 PUSH2 0x100 EXP SWAP1 DIV PUSH20 0xFFFFFFFFFFFFFFFFFFFFFFFFFFFFFFFFFFFFFFFF AND PUSH20 0xFFFFFFFFFFFFFFFFFFFFFFFFFFFFFFFFFFFFFFFF AND DUP2 PUSH20 0xFFFFFFFFFFFFFFFFFFFFFFFFFFFFFFFFFFFFFFFF AND EQ ISZERO ISZERO PUSH2 0x4F2 JUMPI PUSH1 0x40 MLOAD PUSH32 0x8C379A000000000000000000000000000000000000000000000000000000000 DUP2 MSTORE PUSH1 0x4 ADD PUSH2 0x4E9 SWAP1 PUSH2 0x132E JUMP JUMPDEST PUSH1 0x40 MLOAD DUP1 SWAP2 SUB SWAP1 REVERT JUMPDEST PUSH1 0x2 DUP4 PUSH1 0x40 MLOAD DUP1 DUP3 DUP1 MLOAD SWAP1 PUSH1 0x20 ADD SWAP1 DUP1 DUP4 DUP4 JUMPDEST PUSH1 0x20 DUP4 LT ISZERO ISZERO PUSH2 0x52A JUMPI DUP1 MLOAD DUP3 MSTORE PUSH1 0x20 DUP3 ADD SWAP2 POP PUSH1 0x20 DUP2 ADD SWAP1 POP PUSH1 0x20 DUP4 SUB SWAP3 POP PUSH2 0x505 JUMP JUMPDEST PUSH1 0x1 DUP4 PUSH1 0x20 SUB PUSH2 0x100 EXP SUB DUP1 NOT DUP3 MLOAD AND DUP2 DUP5 MLOAD AND DUP1 DUP3 OR DUP6 MSTORE POP POP POP POP POP POP SWAP1 POP ADD SWAP2 POP POP SWAP1 DUP2 MSTORE PUSH1 0x20 ADD PUSH1 0x40 MLOAD DUP1 SWAP2 SUB SWAP1 KECCAK256 SLOAD SWAP2 POP POP SWAP2 SWAP1 POP JUMP JUMPDEST PUSH1 0x0 DUP1 CALLER PUSH1 0x40 MLOAD PUSH1 0x20 ADD DUP1 DUP3 PUSH20 0xFFFFFFFFFFFFFFFFFFFFFFFFFFFFFFFFFFFFFFFF AND PUSH20 0xFFFFFFFFFFFFFFFFFFFFFFFFFFFFFFFFFFFFFFFF AND PUSH13 0x1000000000000000000000000 MUL DUP2 MSTORE PUSH1 0x14 ADD SWAP2 POP POP PUSH1 0x40 MLOAD PUSH1 0x20 DUP2 DUP4 SUB SUB DUP2 MSTORE SWAP1 PUSH1 0x40 MSTORE PUSH1 0x40 MLOAD DUP1 DUP3 DUP1 MLOAD SWAP1 PUSH1 0x20 ADD SWAP1 DUP1 DUP4 DUP4 JUMPDEST PUSH1 0x20 DUP4 LT ISZERO ISZERO PUSH2 0x5F9 JUMPI DUP1 MLOAD DUP3 MSTORE PUSH1 0x20 DUP3 ADD SWAP2 POP PUSH1 0x20 DUP2 ADD SWAP1 POP PUSH1 0x20 DUP4 SUB SWAP3 POP PUSH2 0x5D4 JUMP JUMPDEST PUSH1 0x1 DUP4 PUSH1 0x20 SUB PUSH2 0x100 EXP SUB DUP1 NOT DUP3 MLOAD AND DUP2 DUP5 MLOAD AND DUP1 DUP3 OR DUP6 MSTORE POP POP POP POP POP POP SWAP1 POP ADD SWAP2 POP POP PUSH1 0x40 MLOAD DUP1 SWAP2 SUB SWAP1 KECCAK256 SWAP2 POP PUSH1 0x0 SWAP1 POP JUMPDEST PUSH1 0x4 DUP1 SLOAD SWAP1 POP DUP2 LT ISZERO PUSH2 0x6AD JUMPI DUP2 PUSH1 0x0 NOT AND PUSH1 0x4 DUP3 DUP2 SLOAD DUP2 LT ISZERO ISZERO PUSH2 0x64E JUMPI INVALID JUMPDEST SWAP1 PUSH1 0x0 MSTORE PUSH1 0x20 PUSH1 0x0 KECCAK256 ADD SLOAD PUSH1 0x0 NOT AND EQ ISZERO ISZERO ISZERO PUSH2 0x6A0 JUMPI PUSH1 0x40 MLOAD PUSH32 0x8C379A000000000000000000000000000000000000000000000000000000000 DUP2 MSTORE PUSH1 0x4 ADD PUSH2 0x697 SWAP1 PUSH2 0x134E JUMP JUMPDEST PUSH1 0x40 MLOAD DUP1 SWAP2 SUB SWAP1 REVERT JUMPDEST DUP1 DUP1 PUSH1 0x1 ADD SWAP2 POP POP PUSH2 0x62D JUMP JUMPDEST PUSH1 0x2 DUP4 PUSH1 0x40 MLOAD DUP1 DUP3 DUP1 MLOAD SWAP1 PUSH1 0x20 ADD SWAP1 DUP1 DUP4 DUP4 JUMPDEST PUSH1 0x20 DUP4 LT ISZERO ISZERO PUSH2 0x6E5 JUMPI DUP1 MLOAD DUP3 MSTORE PUSH1 0x20 DUP3 ADD SWAP2 POP PUSH1 0x20 DUP2 ADD SWAP1 POP PUSH1 0x20 DUP4 SUB SWAP3 POP PUSH2 0x6C0 JUMP JUMPDEST PUSH1 0x1 DUP4 PUSH1 0x20 SUB PUSH2 0x100 EXP SUB DUP1 NOT DUP3 MLOAD AND DUP2 DUP5 MLOAD AND DUP1 DUP3 OR DUP6 MSTORE POP POP POP POP POP POP SWAP1 POP ADD SWAP2 POP POP SWAP1 DUP2 MSTORE PUSH1 0x20 ADD PUSH1 0x40 MLOAD DUP1 SWAP2 SUB SWAP1 KECCAK256 PUSH1 0x0 DUP2 SLOAD DUP1 SWAP3 SWAP2 SWAP1 PUSH1 0x1 ADD SWAP2 SWAP1 POP SSTORE POP PUSH1 0x4 DUP3 SWAP1 DUP1 PUSH1 0x1 DUP2 SLOAD ADD DUP1 DUP3 SSTORE DUP1 SWAP2 POP POP SWAP1 PUSH1 0x1 DUP3 SUB SWAP1 PUSH1 0x0 MSTORE PUSH1 0x20 PUSH1 0x0 KECCAK256 ADD PUSH1 0x0 SWAP1 SWAP2 SWAP3 SWAP1 SWAP2 SWAP1 SWAP2 POP SWAP1 PUSH1 0x0 NOT AND SWAP1 SSTORE POP POP POP POP JUMP JUMPDEST PUSH1 0x0 DUP4 DUP4 DUP4 PUSH1 0x40 MLOAD PUSH1 0x20 ADD DUP1 DUP5 DUP1 MLOAD SWAP1 PUSH1 0x20 ADD SWAP1 DUP1 DUP4 DUP4 JUMPDEST PUSH1 0x20 DUP4 LT ISZERO ISZERO PUSH2 0x79C JUMPI DUP1 MLOAD DUP3 MSTORE PUSH1 0x20 DUP3 ADD SWAP2 POP PUSH1 0x20 DUP2 ADD SWAP1 POP PUSH1 0x20 DUP4 SUB SWAP3 POP PUSH2 0x777 JUMP JUMPDEST PUSH1 0x1 DUP4 PUSH1 0x20 SUB PUSH2 0x100 EXP SUB DUP1 NOT DUP3 MLOAD AND DUP2 DUP5 MLOAD AND DUP1 DUP3 OR DUP6 MSTORE POP POP POP POP POP POP SWAP1 POP ADD DUP4 DUP2 MSTORE PUSH1 0x20 ADD DUP3 DUP1 MLOAD SWAP1 PUSH1 0x20 ADD SWAP1 DUP1 DUP4 DUP4 JUMPDEST PUSH1 0x20 DUP4 LT ISZERO ISZERO PUSH2 0x7F5 JUMPI DUP1 MLOAD DUP3 MSTORE PUSH1 0x20 DUP3 ADD SWAP2 POP PUSH1 0x20 DUP2 ADD SWAP1 POP PUSH1 0x20 DUP4 SUB SWAP3 POP PUSH2 0x7D0 JUMP JUMPDEST PUSH1 0x1 DUP4 PUSH1 0x20 SUB PUSH2 0x100 EXP SUB DUP1 NOT DUP3 MLOAD AND DUP2 DUP5 MLOAD AND DUP1 DUP3 OR DUP6 MSTORE POP POP POP POP POP POP SWAP1 POP ADD SWAP4 POP POP POP POP PUSH1 0x40 MLOAD PUSH1 0x20 DUP2 DUP4 SUB SUB DUP2 MSTORE SWAP1 PUSH1 0x40 MSTORE PUSH1 0x40 MLOAD DUP1 DUP3 DUP1 MLOAD SWAP1 PUSH1 0x20 ADD SWAP1 DUP1 DUP4 DUP4 JUMPDEST PUSH1 0x20 DUP4 LT ISZERO ISZERO PUSH2 0x860 JUMPI DUP1 MLOAD DUP3 MSTORE PUSH1 0x20 DUP3 ADD SWAP2 POP PUSH1 0x20 DUP2 ADD SWAP1 POP PUSH1 0x20 DUP4 SUB SWAP3 POP PUSH2 0x83B JUMP JUMPDEST PUSH1 0x1 DUP4 PUSH1 0x20 SUB PUSH2 0x100 EXP SUB DUP1 NOT DUP3 MLOAD AND DUP2 DUP5 MLOAD AND DUP1 DUP3 OR DUP6 MSTORE POP POP POP POP POP POP SWAP1 POP ADD SWAP2 POP POP PUSH1 0x40 MLOAD DUP1 SWAP2 SUB SWAP1 KECCAK256 SWAP1 POP PUSH1 0x3 DUP5 SWAP1 DUP1 PUSH1 0x1 DUP2 SLOAD ADD DUP1 DUP3 SSTORE DUP1 SWAP2 POP POP SWAP1 PUSH1 0x1 DUP3 SUB SWAP1 PUSH1 0x0 MSTORE PUSH1 0x20 PUSH1 0x0 KECCAK256 ADD PUSH1 0x0 SWAP1 SWAP2 SWAP3 SWAP1 SWAP2 SWAP1 SWAP2 POP SWAP1 DUP1 MLOAD SWAP1 PUSH1 0x20 ADD SWAP1 PUSH2 0x8CC SWAP3 SWAP2 SWAP1 PUSH2 0xF4E JUMP JUMPDEST POP POP DUP1 PUSH1 0x1 DUP6 PUSH1 0x40 MLOAD DUP1 DUP3 DUP1 MLOAD SWAP1 PUSH1 0x20 ADD SWAP1 DUP1 DUP4 DUP4 JUMPDEST PUSH1 0x20 DUP4 LT ISZERO ISZERO PUSH2 0x907 JUMPI DUP1 MLOAD DUP3 MSTORE PUSH1 0x20 DUP3 ADD SWAP2 POP PUSH1 0x20 DUP2 ADD SWAP1 POP PUSH1 0x20 DUP4 SUB SWAP3 POP PUSH2 0x8E2 JUMP JUMPDEST PUSH1 0x1 DUP4 PUSH1 0x20 SUB PUSH2 0x100 EXP SUB DUP1 NOT DUP3 MLOAD AND DUP2 DUP5 MLOAD AND DUP1 DUP3 OR DUP6 MSTORE POP POP POP POP POP POP SWAP1 POP ADD SWAP2 POP POP SWAP1 DUP2 MSTORE PUSH1 0x20 ADD PUSH1 0x40 MLOAD DUP1 SWAP2 SUB SWAP1 KECCAK256 DUP2 PUSH1 0x0 NOT AND SWAP1 SSTORE POP POP POP POP POP JUMP JUMPDEST PUSH1 0x60 DUP1 PUSH1 0x0 DUP1 PUSH1 0x0 PUSH1 0x3 PUSH1 0x0 DUP2 SLOAD DUP2 LT ISZERO ISZERO PUSH2 0x960 JUMPI INVALID JUMPDEST SWAP1 PUSH1 0x0 MSTORE PUSH1 0x20 PUSH1 0x0 KECCAK256 ADD DUP1 SLOAD PUSH1 0x1 DUP2 PUSH1 0x1 AND ISZERO PUSH2 0x100 MUL SUB AND PUSH1 0x2 SWAP1 DIV DUP1 PUSH1 0x1F ADD PUSH1 0x20 DUP1 SWAP2 DIV MUL PUSH1 0x20 ADD PUSH1 0x40 MLOAD SWAP1 DUP2 ADD PUSH1 0x40 MSTORE DUP1 SWAP3 SWAP2 SWAP1 DUP2 DUP2 MSTORE PUSH1 0x20 ADD DUP3 DUP1 SLOAD PUSH1 0x1 DUP2 PUSH1 0x1 AND ISZERO PUSH2 0x100 MUL SUB AND PUSH1 0x2 SWAP1 DIV DUP1 ISZERO PUSH2 0x9FE JUMPI DUP1 PUSH1 0x1F LT PUSH2 0x9D3 JUMPI PUSH2 0x100 DUP1 DUP4 SLOAD DIV MUL DUP4 MSTORE SWAP2 PUSH1 0x20 ADD SWAP2 PUSH2 0x9FE JUMP JUMPDEST DUP3 ADD SWAP2 SWAP1 PUSH1 0x0 MSTORE PUSH1 0x20 PUSH1 0x0 KECCAK256 SWAP1 JUMPDEST DUP2 SLOAD DUP2 MSTORE SWAP1 PUSH1 0x1 ADD SWAP1 PUSH1 0x20 ADD DUP1 DUP4 GT PUSH2 0x9E1 JUMPI DUP3 SWAP1 SUB PUSH1 0x1F AND DUP3 ADD SWAP2 JUMPDEST POP POP POP POP POP SWAP4 POP PUSH1 0x0 SWAP3 POP PUSH1 0x1 SWAP1 POP JUMPDEST PUSH1 0x3 DUP1 SLOAD SWAP1 POP DUP2 LT ISZERO PUSH2 0xC99 JUMPI DUP3 PUSH1 0x2 PUSH1 0x3 DUP4 DUP2 SLOAD DUP2 LT ISZERO ISZERO PUSH2 0xA2D JUMPI INVALID JUMPDEST SWAP1 PUSH1 0x0 MSTORE PUSH1 0x20 PUSH1 0x0 KECCAK256 ADD PUSH1 0x40 MLOAD DUP1 DUP3 DUP1 SLOAD PUSH1 0x1 DUP2 PUSH1 0x1 AND ISZERO PUSH2 0x100 MUL SUB AND PUSH1 0x2 SWAP1 DIV DUP1 ISZERO PUSH2 0xA92 JUMPI DUP1 PUSH1 0x1F LT PUSH2 0xA70 JUMPI PUSH2 0x100 DUP1 DUP4 SLOAD DIV MUL DUP4 MSTORE SWAP2 DUP3 ADD SWAP2 PUSH2 0xA92 JUMP JUMPDEST DUP3 ADD SWAP2 SWAP1 PUSH1 0x0 MSTORE PUSH1 0x20 PUSH1 0x0 KECCAK256 SWAP1 JUMPDEST DUP2 SLOAD DUP2 MSTORE SWAP1 PUSH1 0x1 ADD SWAP1 PUSH1 0x20 ADD DUP1 DUP4 GT PUSH2 0xA7E JUMPI JUMPDEST POP POP SWAP2 POP POP SWAP1 DUP2 MSTORE PUSH1 0x20 ADD PUSH1 0x40 MLOAD DUP1 SWAP2 SUB SWAP1 KECCAK256 SLOAD GT ISZERO PUSH2 0xBF5 JUMPI PUSH1 0x2 PUSH1 0x3 DUP3 DUP2 SLOAD DUP2 LT ISZERO ISZERO PUSH2 0xABD JUMPI INVALID JUMPDEST SWAP1 PUSH1 0x0 MSTORE PUSH1 0x20 PUSH1 0x0 KECCAK256 ADD PUSH1 0x40 MLOAD DUP1 DUP3 DUP1 SLOAD PUSH1 0x1 DUP2 PUSH1 0x1 AND ISZERO PUSH2 0x100 MUL SUB AND PUSH1 0x2 SWAP1 DIV DUP1 ISZERO PUSH2 0xB22 JUMPI DUP1 PUSH1 0x1F LT PUSH2 0xB00 JUMPI PUSH2 0x100 DUP1 DUP4 SLOAD DIV MUL DUP4 MSTORE SWAP2 DUP3 ADD SWAP2 PUSH2 0xB22 JUMP JUMPDEST DUP3 ADD SWAP2 SWAP1 PUSH1 0x0 MSTORE PUSH1 0x20 PUSH1 0x0 KECCAK256 SWAP1 JUMPDEST DUP2 SLOAD DUP2 MSTORE SWAP1 PUSH1 0x1 ADD SWAP1 PUSH1 0x20 ADD DUP1 DUP4 GT PUSH2 0xB0E JUMPI JUMPDEST POP POP SWAP2 POP POP SWAP1 DUP2 MSTORE PUSH1 0x20 ADD PUSH1 0x40 MLOAD DUP1 SWAP2 SUB SWAP1 KECCAK256 SLOAD SWAP3 POP PUSH1 0x3 DUP2 DUP2 SLOAD DUP2 LT ISZERO ISZERO PUSH2 0xB47 JUMPI INVALID JUMPDEST SWAP1 PUSH1 0x0 MSTORE PUSH1 0x20 PUSH1 0x0 KECCAK256 ADD DUP1 SLOAD PUSH1 0x1 DUP2 PUSH1 0x1 AND ISZERO PUSH2 0x100 MUL SUB AND PUSH1 0x2 SWAP1 DIV DUP1 PUSH1 0x1F ADD PUSH1 0x20 DUP1 SWAP2 DIV MUL PUSH1 0x20 ADD PUSH1 0x40 MLOAD SWAP1 DUP2 ADD PUSH1 0x40 MSTORE DUP1 SWAP3 SWAP2 SWAP1 DUP2 DUP2 MSTORE PUSH1 0x20 ADD DUP3 DUP1 SLOAD PUSH1 0x1 DUP2 PUSH1 0x1 AND ISZERO PUSH2 0x100 MUL SUB AND PUSH1 0x2 SWAP1 DIV DUP1 ISZERO PUSH2 0xBE5 JUMPI DUP1 PUSH1 0x1F LT PUSH2 0xBBA JUMPI PUSH2 0x100 DUP1 DUP4 SLOAD DIV MUL DUP4 MSTORE SWAP2 PUSH1 0x20 ADD SWAP2 PUSH2 0xBE5 JUMP JUMPDEST DUP3 ADD SWAP2 SWAP1 PUSH1 0x0 MSTORE PUSH1 0x20 PUSH1 0x0 KECCAK256 SWAP1 JUMPDEST DUP2 SLOAD DUP2 MSTORE SWAP1 PUSH1 0x1 ADD SWAP1 PUSH1 0x20 ADD DUP1 DUP4 GT PUSH2 0xBC8 JUMPI DUP3 SWAP1 SUB PUSH1 0x1F AND DUP3 ADD SWAP2 JUMPDEST POP POP POP POP POP SWAP4 POP PUSH1 0x0 SWAP2 POP PUSH2 0xC8C JUMP JUMPDEST PUSH1 0x2 PUSH1 0x3 DUP3 DUP2 SLOAD DUP2 LT ISZERO ISZERO PUSH2 0xC06 JUMPI INVALID JUMPDEST SWAP1 PUSH1 0x0 MSTORE PUSH1 0x20 PUSH1 0x0 KECCAK256 ADD PUSH1 0x40 MLOAD DUP1 DUP3 DUP1 SLOAD PUSH1 0x1 DUP2 PUSH1 0x1 AND ISZERO PUSH2 0x100 MUL SUB AND PUSH1 0x2 SWAP1 DIV DUP1 ISZERO PUSH2 0xC6B JUMPI DUP1 PUSH1 0x1F LT PUSH2 0xC49 JUMPI PUSH2 0x100 DUP1 DUP4 SLOAD DIV MUL DUP4 MSTORE SWAP2 DUP3 ADD SWAP2 PUSH2 0xC6B JUMP JUMPDEST DUP3 ADD SWAP2 SWAP1 PUSH1 0x0 MSTORE PUSH1 0x20 PUSH1 0x0 KECCAK256 SWAP1 JUMPDEST DUP2 SLOAD DUP2 MSTORE SWAP1 PUSH1 0x1 ADD SWAP1 PUSH1 0x20 ADD DUP1 DUP4 GT PUSH2 0xC57 JUMPI JUMPDEST POP POP SWAP2 POP POP SWAP1 DUP2 MSTORE PUSH1 0x20 ADD PUSH1 0x40 MLOAD DUP1 SWAP2 SUB SWAP1 KECCAK256 SLOAD DUP4 EQ ISZERO PUSH2 0xC8B JUMPI PUSH1 0x1 SWAP2 POP JUMPDEST JUMPDEST DUP1 DUP1 PUSH1 0x1 ADD SWAP2 POP POP PUSH2 0xA0E JUMP JUMPDEST PUSH1 0x1 ISZERO ISZERO DUP3 ISZERO ISZERO EQ ISZERO PUSH2 0xCDF JUMPI PUSH1 0x40 DUP1 MLOAD SWAP1 DUP2 ADD PUSH1 0x40 MSTORE DUP1 PUSH1 0xA DUP2 MSTORE PUSH1 0x20 ADD PUSH32 0x48617920656D7061746500000000000000000000000000000000000000000000 DUP2 MSTORE POP SWAP4 POP JUMPDEST DUP4 SWAP5 POP POP POP POP POP SWAP1 JUMP JUMPDEST PUSH1 0x0 DUP1 SWAP1 SLOAD SWAP1 PUSH2 0x100 EXP SWAP1 DIV PUSH20 0xFFFFFFFFFFFFFFFFFFFFFFFFFFFFFFFFFFFFFFFF AND DUP2 JUMP JUMPDEST PUSH1 0x60 PUSH1 0x3 DUP1 SLOAD DUP1 PUSH1 0x20 MUL PUSH1 0x20 ADD PUSH1 0x40 MLOAD SWAP1 DUP2 ADD PUSH1 0x40 MSTORE DUP1 SWAP3 SWAP2 SWAP1 DUP2 DUP2 MSTORE PUSH1 0x20 ADD PUSH1 0x0 SWAP1 JUMPDEST DUP3 DUP3 LT ISZERO PUSH2 0xDEE JUMPI DUP4 DUP3 SWAP1 PUSH1 0x0 MSTORE PUSH1 0x20 PUSH1 0x0 KECCAK256 ADD DUP1 SLOAD PUSH1 0x1 DUP2 PUSH1 0x1 AND ISZERO PUSH2 0x100 MUL SUB AND PUSH1 0x2 SWAP1 DIV DUP1 PUSH1 0x1F ADD PUSH1 0x20 DUP1 SWAP2 DIV MUL PUSH1 0x20 ADD PUSH1 0x40 MLOAD SWAP1 DUP2 ADD PUSH1 0x40 MSTORE DUP1 SWAP3 SWAP2 SWAP1 DUP2 DUP2 MSTORE PUSH1 0x20 ADD DUP3 DUP1 SLOAD PUSH1 0x1 DUP2 PUSH1 0x1 AND ISZERO PUSH2 0x100 MUL SUB AND PUSH1 0x2 SWAP1 DIV DUP1 ISZERO PUSH2 0xDDA JUMPI DUP1 PUSH1 0x1F LT PUSH2 0xDAF JUMPI PUSH2 0x100 DUP1 DUP4 SLOAD DIV MUL DUP4 MSTORE SWAP2 PUSH1 0x20 ADD SWAP2 PUSH2 0xDDA JUMP JUMPDEST DUP3 ADD SWAP2 SWAP1 PUSH1 0x0 MSTORE PUSH1 0x20 PUSH1 0x0 KECCAK256 SWAP1 JUMPDEST DUP2 SLOAD DUP2 MSTORE SWAP1 PUSH1 0x1 ADD SWAP1 PUSH1 0x20 ADD DUP1 DUP4 GT PUSH2 0xDBD JUMPI DUP3 SWAP1 SUB PUSH1 0x1F AND DUP3 ADD SWAP2 JUMPDEST POP POP POP POP POP DUP2 MSTORE PUSH1 0x20 ADD SWAP1 PUSH1 0x1 ADD SWAP1 PUSH2 0xD32 JUMP JUMPDEST POP POP POP POP SWAP1 POP SWAP1 JUMP JUMPDEST PUSH1 0x60 PUSH1 0x0 DUP1 PUSH1 0x60 PUSH1 0x0 DUP1 DUP7 EQ ISZERO PUSH2 0xE45 JUMPI PUSH1 0x40 DUP1 MLOAD SWAP1 DUP2 ADD PUSH1 0x40 MSTORE DUP1 PUSH1 0x1 DUP2 MSTORE PUSH1 0x20 ADD PUSH32 0x3000000000000000000000000000000000000000000000000000000000000000 DUP2 MSTORE POP SWAP5 POP PUSH2 0xF45 JUMP JUMPDEST DUP6 SWAP4 POP JUMPDEST PUSH1 0x0 DUP5 EQ ISZERO ISZERO PUSH2 0xE6F JUMPI DUP3 DUP1 PUSH1 0x1 ADD SWAP4 POP POP PUSH1 0xA DUP5 DUP2 ISZERO ISZERO PUSH2 0xE67 JUMPI INVALID JUMPDEST DIV SWAP4 POP PUSH2 0xE49 JUMP JUMPDEST DUP3 PUSH1 0x40 MLOAD SWAP1 DUP1 DUP3 MSTORE DUP1 PUSH1 0x1F ADD PUSH1 0x1F NOT AND PUSH1 0x20 ADD DUP3 ADD PUSH1 0x40 MSTORE DUP1 ISZERO PUSH2 0xEA2 JUMPI DUP2 PUSH1 0x20 ADD PUSH1 0x20 DUP3 MUL DUP1 CODESIZE DUP4 CODECOPY DUP1 DUP3 ADD SWAP2 POP POP SWAP1 POP JUMPDEST POP SWAP2 POP PUSH1 0x1 DUP4 SUB SWAP1 POP JUMPDEST PUSH1 0x0 DUP7 EQ ISZERO ISZERO PUSH2 0xF41 JUMPI PUSH1 0xA DUP7 DUP2 ISZERO ISZERO PUSH2 0xEC2 JUMPI INVALID JUMPDEST MOD PUSH1 0x30 ADD PUSH32 0x100000000000000000000000000000000000000000000000000000000000000 MUL DUP3 DUP3 DUP1 PUSH1 0x1 SWAP1 SUB SWAP4 POP DUP2 MLOAD DUP2 LT ISZERO ISZERO PUSH2 0xEFD JUMPI INVALID JUMPDEST SWAP1 PUSH1 0x20 ADD ADD SWAP1 PUSH31 0xFFFFFFFFFFFFFFFFFFFFFFFFFFFFFFFFFFFFFFFFFFFFFFFFFFFFFFFFFFFFFF NOT AND SWAP1 DUP2 PUSH1 0x0 BYTE SWAP1 MSTORE8 POP PUSH1 0xA DUP7 DUP2 ISZERO ISZERO PUSH2 0xF39 JUMPI INVALID JUMPDEST DIV SWAP6 POP PUSH2 0xEAC JUMP JUMPDEST DUP2 SWAP5 POP JUMPDEST POP POP POP POP SWAP2 SWAP1 POP JUMP JUMPDEST DUP3 DUP1 SLOAD PUSH1 0x1 DUP2 PUSH1 0x1 AND ISZERO PUSH2 0x100 MUL SUB AND PUSH1 0x2 SWAP1 DIV SWAP1 PUSH1 0x0 MSTORE PUSH1 0x20 PUSH1 0x0 KECCAK256 SWAP1 PUSH1 0x1F ADD PUSH1 0x20 SWAP1 DIV DUP2 ADD SWAP3 DUP3 PUSH1 0x1F LT PUSH2 0xF8F JUMPI DUP1 MLOAD PUSH1 0xFF NOT AND DUP4 DUP1 ADD OR DUP6 SSTORE PUSH2 0xFBD JUMP JUMPDEST DUP3 DUP1 ADD PUSH1 0x1 ADD DUP6 SSTORE DUP3 ISZERO PUSH2 0xFBD JUMPI SWAP2 DUP3 ADD JUMPDEST DUP3 DUP2 GT ISZERO PUSH2 0xFBC JUMPI DUP3 MLOAD DUP3 SSTORE SWAP2 PUSH1 0x20 ADD SWAP2 SWAP1 PUSH1 0x1 ADD SWAP1 PUSH2 0xFA1 JUMP JUMPDEST JUMPDEST POP SWAP1 POP PUSH2 0xFCA SWAP2 SWAP1 PUSH2 0xFCE JUMP JUMPDEST POP SWAP1 JUMP JUMPDEST PUSH2 0xFF0 SWAP2 SWAP1 JUMPDEST DUP1 DUP3 GT ISZERO PUSH2 0xFEC JUMPI PUSH1 0x0 DUP2 PUSH1 0x0 SWAP1 SSTORE POP PUSH1 0x1 ADD PUSH2 0xFD4 JUMP JUMPDEST POP SWAP1 JUMP JUMPDEST SWAP1 JUMP JUMPDEST PUSH1 0x0 DUP3 PUSH1 0x1F DUP4 ADD SLT ISZERO ISZERO PUSH2 0x1006 JUMPI PUSH1 0x0 DUP1 REVERT JUMPDEST DUP2 CALLDATALOAD PUSH2 0x1019 PUSH2 0x1014 DUP3 PUSH2 0x13B6 JUMP JUMPDEST PUSH2 0x1389 JUMP JUMPDEST SWAP2 POP DUP1 DUP3 MSTORE PUSH1 0x20 DUP4 ADD PUSH1 0x20 DUP4 ADD DUP6 DUP4 DUP4 ADD GT ISZERO PUSH2 0x1035 JUMPI PUSH1 0x0 DUP1 REVERT JUMPDEST PUSH2 0x1040 DUP4 DUP3 DUP5 PUSH2 0x1451 JUMP JUMPDEST POP POP POP SWAP3 SWAP2 POP POP JUMP JUMPDEST PUSH1 0x0 PUSH2 0x1055 DUP3 CALLDATALOAD PUSH2 0x1447 JUMP JUMPDEST SWAP1 POP SWAP3 SWAP2 POP POP JUMP JUMPDEST PUSH1 0x0 PUSH1 0x20 DUP3 DUP5 SUB SLT ISZERO PUSH2 0x106F JUMPI PUSH1 0x0 DUP1 REVERT JUMPDEST PUSH1 0x0 DUP3 ADD CALLDATALOAD PUSH8 0xFFFFFFFFFFFFFFFF DUP2 GT ISZERO PUSH2 0x1089 JUMPI PUSH1 0x0 DUP1 REVERT JUMPDEST PUSH2 0x1095 DUP5 DUP3 DUP6 ADD PUSH2 0xFF3 JUMP JUMPDEST SWAP2 POP POP SWAP3 SWAP2 POP POP JUMP JUMPDEST PUSH1 0x0 DUP1 PUSH1 0x0 PUSH1 0x60 DUP5 DUP7 SUB SLT ISZERO PUSH2 0x10B3 JUMPI PUSH1 0x0 DUP1 REVERT JUMPDEST PUSH1 0x0 DUP5 ADD CALLDATALOAD PUSH8 0xFFFFFFFFFFFFFFFF DUP2 GT ISZERO PUSH2 0x10CD JUMPI PUSH1 0x0 DUP1 REVERT JUMPDEST PUSH2 0x10D9 DUP7 DUP3 DUP8 ADD PUSH2 0xFF3 JUMP JUMPDEST SWAP4 POP POP PUSH1 0x20 PUSH2 0x10EA DUP7 DUP3 DUP8 ADD PUSH2 0x1049 JUMP JUMPDEST SWAP3 POP POP PUSH1 0x40 DUP5 ADD CALLDATALOAD PUSH8 0xFFFFFFFFFFFFFFFF DUP2 GT ISZERO PUSH2 0x1107 JUMPI PUSH1 0x0 DUP1 REVERT JUMPDEST PUSH2 0x1113 DUP7 DUP3 DUP8 ADD PUSH2 0xFF3 JUMP JUMPDEST SWAP2 POP POP SWAP3 POP SWAP3 POP SWAP3 JUMP JUMPDEST PUSH2 0x1126 DUP2 PUSH2 0x141D JUMP JUMPDEST DUP3 MSTORE POP POP JUMP JUMPDEST PUSH1 0x0 PUSH2 0x1137 DUP3 PUSH2 0x13EF JUMP JUMPDEST DUP1 DUP5 MSTORE PUSH1 0x20 DUP5 ADD SWAP4 POP DUP4 PUSH1 0x20 DUP3 MUL DUP6 ADD PUSH2 0x1150 DUP6 PUSH2 0x13E2 JUMP JUMPDEST PUSH1 0x0 JUMPDEST DUP5 DUP2 LT ISZERO PUSH2 0x1189 JUMPI DUP4 DUP4 SUB DUP9 MSTORE PUSH2 0x116B DUP4 DUP4 MLOAD PUSH2 0x11D0 JUMP JUMPDEST SWAP3 POP PUSH2 0x1176 DUP3 PUSH2 0x1410 JUMP JUMPDEST SWAP2 POP PUSH1 0x20 DUP9 ADD SWAP8 POP PUSH1 0x1 DUP2 ADD SWAP1 POP PUSH2 0x1153 JUMP JUMPDEST POP DUP2 SWAP7 POP DUP7 SWAP5 POP POP POP POP POP SWAP3 SWAP2 POP POP JUMP JUMPDEST PUSH1 0x0 PUSH2 0x11A5 DUP3 PUSH2 0x1405 JUMP JUMPDEST DUP1 DUP5 MSTORE PUSH2 0x11B9 DUP2 PUSH1 0x20 DUP7 ADD PUSH1 0x20 DUP7 ADD PUSH2 0x1460 JUMP JUMPDEST PUSH2 0x11C2 DUP2 PUSH2 0x1493 JUMP JUMPDEST PUSH1 0x20 DUP6 ADD ADD SWAP2 POP POP SWAP3 SWAP2 POP POP JUMP JUMPDEST PUSH1 0x0 PUSH2 0x11DB DUP3 PUSH2 0x13FA JUMP JUMPDEST DUP1 DUP5 MSTORE PUSH2 0x11EF DUP2 PUSH1 0x20 DUP7 ADD PUSH1 0x20 DUP7 ADD PUSH2 0x1460 JUMP JUMPDEST PUSH2 0x11F8 DUP2 PUSH2 0x1493 JUMP JUMPDEST PUSH1 0x20 DUP6 ADD ADD SWAP2 POP POP SWAP3 SWAP2 POP POP JUMP JUMPDEST PUSH1 0x0 PUSH1 0x30 DUP3 MSTORE PUSH32 0x4E6F2070756564657320766572206C6F7320766F746F73207369206E6F206572 PUSH1 0x20 DUP4 ADD MSTORE PUSH32 0x657320656C20676F6265726E61646F7200000000000000000000000000000000 PUSH1 0x40 DUP4 ADD MSTORE PUSH1 0x60 DUP3 ADD SWAP1 POP SWAP2 SWAP1 POP JUMP JUMPDEST PUSH1 0x0 PUSH1 0x26 DUP3 MSTORE PUSH32 0x4E6F2065737461207065726D697469646F20766F746172206D61732064652075 PUSH1 0x20 DUP4 ADD MSTORE PUSH32 0x6E612076657A0000000000000000000000000000000000000000000000000000 PUSH1 0x40 DUP4 ADD MSTORE PUSH1 0x60 DUP3 ADD SWAP1 POP SWAP2 SWAP1 POP JUMP JUMPDEST PUSH2 0x12C9 DUP2 PUSH2 0x143D JUMP JUMPDEST DUP3 MSTORE POP POP JUMP JUMPDEST PUSH1 0x0 PUSH1 0x20 DUP3 ADD SWAP1 POP PUSH2 0x12E4 PUSH1 0x0 DUP4 ADD DUP5 PUSH2 0x111D JUMP JUMPDEST SWAP3 SWAP2 POP POP JUMP JUMPDEST PUSH1 0x0 PUSH1 0x20 DUP3 ADD SWAP1 POP DUP2 DUP2 SUB PUSH1 0x0 DUP4 ADD MSTORE PUSH2 0x1304 DUP2 DUP5 PUSH2 0x112C JUMP JUMPDEST SWAP1 POP SWAP3 SWAP2 POP POP JUMP JUMPDEST PUSH1 0x0 PUSH1 0x20 DUP3 ADD SWAP1 POP DUP2 DUP2 SUB PUSH1 0x0 DUP4 ADD MSTORE PUSH2 0x1326 DUP2 DUP5 PUSH2 0x119A JUMP JUMPDEST SWAP1 POP SWAP3 SWAP2 POP POP JUMP JUMPDEST PUSH1 0x0 PUSH1 0x20 DUP3 ADD SWAP1 POP DUP2 DUP2 SUB PUSH1 0x0 DUP4 ADD MSTORE PUSH2 0x1347 DUP2 PUSH2 0x1206 JUMP JUMPDEST SWAP1 POP SWAP2 SWAP1 POP JUMP JUMPDEST PUSH1 0x0 PUSH1 0x20 DUP3 ADD SWAP1 POP DUP2 DUP2 SUB PUSH1 0x0 DUP4 ADD MSTORE PUSH2 0x1367 DUP2 PUSH2 0x1263 JUMP JUMPDEST SWAP1 POP SWAP2 SWAP1 POP JUMP JUMPDEST PUSH1 0x0 PUSH1 0x20 DUP3 ADD SWAP1 POP PUSH2 0x1383 PUSH1 0x0 DUP4 ADD DUP5 PUSH2 0x12C0 JUMP JUMPDEST SWAP3 SWAP2 POP POP JUMP JUMPDEST PUSH1 0x0 PUSH1 0x40 MLOAD SWAP1 POP DUP2 DUP2 ADD DUP2 DUP2 LT PUSH8 0xFFFFFFFFFFFFFFFF DUP3 GT OR ISZERO PUSH2 0x13AC JUMPI PUSH1 0x0 DUP1 REVERT JUMPDEST DUP1 PUSH1 0x40 MSTORE POP SWAP2 SWAP1 POP JUMP JUMPDEST PUSH1 0x0 PUSH8 0xFFFFFFFFFFFFFFFF DUP3 GT ISZERO PUSH2 0x13CD JUMPI PUSH1 0x0 DUP1 REVERT JUMPDEST PUSH1 0x1F NOT PUSH1 0x1F DUP4 ADD AND SWAP1 POP PUSH1 0x20 DUP2 ADD SWAP1 POP SWAP2 SWAP1 POP JUMP JUMPDEST PUSH1 0x0 PUSH1 0x20 DUP3 ADD SWAP1 POP SWAP2 SWAP1 POP JUMP JUMPDEST PUSH1 0x0 DUP2 MLOAD SWAP1 POP SWAP2 SWAP1 POP JUMP JUMPDEST PUSH1 0x0 DUP2 MLOAD SWAP1 POP SWAP2 SWAP1 POP JUMP JUMPDEST PUSH1 0x0 DUP2 MLOAD SWAP1 POP SWAP2 SWAP1 POP JUMP JUMPDEST PUSH1 0x0 PUSH1 0x20 DUP3 ADD SWAP1 POP SWAP2 SWAP1 POP JUMP JUMPDEST PUSH1 0x0 PUSH20 0xFFFFFFFFFFFFFFFFFFFFFFFFFFFFFFFFFFFFFFFF DUP3 AND SWAP1 POP SWAP2 SWAP1 POP JUMP JUMPDEST PUSH1 0x0 DUP2 SWAP1 POP SWAP2 SWAP1 POP JUMP JUMPDEST PUSH1 0x0 DUP2 SWAP1 POP SWAP2 SWAP1 POP JUMP JUMPDEST DUP3 DUP2 DUP4 CALLDATACOPY PUSH1 0x0 DUP4 DUP4 ADD MSTORE POP POP POP JUMP JUMPDEST PUSH1 0x0 JUMPDEST DUP4 DUP2 LT ISZERO PUSH2 0x147E JUMPI DUP1 DUP3 ADD MLOAD DUP2 DUP5 ADD MSTORE PUSH1 0x20 DUP2 ADD SWAP1 POP PUSH2 0x1463 JUMP JUMPDEST DUP4 DUP2 GT ISZERO PUSH2 0x148D JUMPI PUSH1 0x0 DUP5 DUP5 ADD MSTORE JUMPDEST POP POP POP POP JUMP JUMPDEST PUSH1 0x0 PUSH1 0x1F NOT PUSH1 0x1F DUP4 ADD AND SWAP1 POP SWAP2 SWAP1 POP JUMP STOP LOG2 PUSH6 0x627A7A723058 KECCAK256 INVALID PC MSTORE 0x22 0xf8 0xbb SWAP3 0xaf 0xad CODECOPY PUSH13 0xEFBA5EB8E182931A3AE50B59CF SWAP2 0x25 SWAP1 0xd0 PUSH15 0xAAAED36C6578706572696D656E7461 PUSH13 0xF5003700000000000000000000 "
				},
				"gasEstimates": {
					"creation": {
						"codeDepositCost": "1068400",
						"executionCost": "21373",
						"totalCost": "1089773"
					},
					"external": {
						"ganadorVotaciones()": "infinite",
						"owner()": "670",
						"presentarCandidato(string,uint256,string)": "infinite",
						"verCandidatos()": "infinite",
						"verResultados()": "infinite",
						"verVotos(string)": "infinite",
						"votarCandidato(string)": "infinite"
					},
					"internal": {
						"uint2str(uint256)": "infinite"
					}
				},
				"methodIdentifiers": {
					"ganadorVotaciones()": "7f12af43",
					"owner()": "8da5cb5b",
					"presentarCandidato(string,uint256,string)": "723cbc3d",
					"verCandidatos()": "caaa49a6",
					"verResultados()": "58c6414f",
					"verVotos(string)": "60df75d4",
					"votarCandidato(string)": "64714e22"
				}
			},
			"userdoc": {
				"methods": {}
			}
		}
	}
}