{
	"data": {
		"bytecode": {
			"linkReferences": {},
			"object": "608060405234801561001057600080fd5b506107f4806100206000396000f3fe608060405234801561001057600080fd5b50600436106100935760003560e01c8063c19af07c11610066578063c19af07c146100fe578063d2de9f681461012e578063d84855311461014c578063e00680521461017c578063fbf188a2146101ae57610093565b80631629af951461009857806338d94193146100a2578063703b3404146100d2578063ae11ce3f146100f4575b600080fd5b6100a06101de565b005b6100bc60048036038101906100b791906104cb565b610204565b6040516100c99190610619565b60405180910390f35b6100da610225565b6040516100eb95949392919061066b565b60405180910390f35b6100fc610248565b005b610118600480360381019061011391906104cb565b610340565b60405161012591906105dc565b60405180910390f35b610136610367565b6040516101439190610619565b60405180910390f35b6101666004803603810190610161919061048a565b61036d565b60405161017391906105f7565b60405180910390f35b610196600480360381019061019191906104f4565b6103d2565b6040516101a593929190610634565b60405180910390f35b6101c860048036038101906101c391906104f4565b610414565b6040516101d59190610619565b60405180910390f35b60006101e8610225565b9091929350909192509091509050809150508060018190555050565b6000818154811061021157fe5b906000526020600020016000915090505481565b600080600080600060016002600360046005945094509450945094509091929394565b6000806000806000610258610225565b8095508196508297508398508499505050505050600085908060018154018082558091505060019003906000526020600020016000909190919091505560008490806001815401808255809150506001900390600052602060002001600090919091909150556000839080600181540180825580915050600190039060005260206000200160009091909190915055600082908060018154018082558091505060019003906000526020600020016000909190919091505560008190806001815401808255809150506001900390600052602060002001600090919091909150555050505050565b6000806002838161034d57fe5b06141561035d5760019050610362565b600090505b919050565b60015481565b6060806040518060400160405280601681526020017f73616c75646f732079206269656e76656e69646f2c2000000000000000000000815250905080836040516020016103bb9291906105b8565b604051602081830303815290604052915050919050565b6000806000808486816103e157fe5b04905060008587816103ef57fe5b06905060008082141561040157600190505b8282829550955095505050509250925092565b6000818302905092915050565b600082601f83011261043257600080fd5b8135610445610440826106eb565b6106be565b9150808252602083016020830185838301111561046157600080fd5b61046c838284610754565b50505092915050565b600081359050610484816107a7565b92915050565b60006020828403121561049c57600080fd5b600082013567ffffffffffffffff8111156104b657600080fd5b6104c284828501610421565b91505092915050565b6000602082840312156104dd57600080fd5b60006104eb84828501610475565b91505092915050565b6000806040838503121561050757600080fd5b600061051585828601610475565b925050602061052685828601610475565b9150509250929050565b6105398161073e565b82525050565b600061054a82610717565b6105548185610722565b9350610564818560208601610763565b61056d81610796565b840191505092915050565b600061058382610717565b61058d8185610733565b935061059d818560208601610763565b80840191505092915050565b6105b28161074a565b82525050565b60006105c48285610578565b91506105d08284610578565b91508190509392505050565b60006020820190506105f16000830184610530565b92915050565b60006020820190508181036000830152610611818461053f565b905092915050565b600060208201905061062e60008301846105a9565b92915050565b600060608201905061064960008301866105a9565b61065660208301856105a9565b6106636040830184610530565b949350505050565b600060a08201905061068060008301886105a9565b61068d60208301876105a9565b61069a60408301866105a9565b6106a760608301856105a9565b6106b460808301846105a9565b9695505050505050565b6000604051905081810181811067ffffffffffffffff821117156106e157600080fd5b8060405250919050565b600067ffffffffffffffff82111561070257600080fd5b601f19601f8301169050602081019050919050565b600081519050919050565b600082825260208201905092915050565b600081905092915050565b60008115159050919050565b6000819050919050565b82818337600083830152505050565b60005b83811015610781578082015181840152602081019050610766565b83811115610790576000848401525b50505050565b6000601f19601f8301169050919050565b6107b08161074a565b81146107bb57600080fd5b5056fea26469706673582212202e777e9bed2e6017dc0e6ea69794be9f3cf4e94956f8e42555ce7fd23d08691964736f6c634300060c0033",
			"opcodes": "PUSH1 0x80 PUSH1 0x40 MSTORE CALLVALUE DUP1 ISZERO PUSH2 0x10 JUMPI PUSH1 0x0 DUP1 REVERT JUMPDEST POP PUSH2 0x7F4 DUP1 PUSH2 0x20 PUSH1 0x0 CODECOPY PUSH1 0x0 RETURN INVALID PUSH1 0x80 PUSH1 0x40 MSTORE CALLVALUE DUP1 ISZERO PUSH2 0x10 JUMPI PUSH1 0x0 DUP1 REVERT JUMPDEST POP PUSH1 0x4 CALLDATASIZE LT PUSH2 0x93 JUMPI PUSH1 0x0 CALLDATALOAD PUSH1 0xE0 SHR DUP1 PUSH4 0xC19AF07C GT PUSH2 0x66 JUMPI DUP1 PUSH4 0xC19AF07C EQ PUSH2 0xFE JUMPI DUP1 PUSH4 0xD2DE9F68 EQ PUSH2 0x12E JUMPI DUP1 PUSH4 0xD8485531 EQ PUSH2 0x14C JUMPI DUP1 PUSH4 0xE0068052 EQ PUSH2 0x17C JUMPI DUP1 PUSH4 0xFBF188A2 EQ PUSH2 0x1AE JUMPI PUSH2 0x93 JUMP JUMPDEST DUP1 PUSH4 0x1629AF95 EQ PUSH2 0x98 JUMPI DUP1 PUSH4 0x38D94193 EQ PUSH2 0xA2 JUMPI DUP1 PUSH4 0x703B3404 EQ PUSH2 0xD2 JUMPI DUP1 PUSH4 0xAE11CE3F EQ PUSH2 0xF4 JUMPI JUMPDEST PUSH1 0x0 DUP1 REVERT JUMPDEST PUSH2 0xA0 PUSH2 0x1DE JUMP JUMPDEST STOP JUMPDEST PUSH2 0xBC PUSH1 0x4 DUP1 CALLDATASIZE SUB DUP2 ADD SWAP1 PUSH2 0xB7 SWAP2 SWAP1 PUSH2 0x4CB JUMP JUMPDEST PUSH2 0x204 JUMP JUMPDEST PUSH1 0x40 MLOAD PUSH2 0xC9 SWAP2 SWAP1 PUSH2 0x619 JUMP JUMPDEST PUSH1 0x40 MLOAD DUP1 SWAP2 SUB SWAP1 RETURN JUMPDEST PUSH2 0xDA PUSH2 0x225 JUMP JUMPDEST PUSH1 0x40 MLOAD PUSH2 0xEB SWAP6 SWAP5 SWAP4 SWAP3 SWAP2 SWAP1 PUSH2 0x66B JUMP JUMPDEST PUSH1 0x40 MLOAD DUP1 SWAP2 SUB SWAP1 RETURN JUMPDEST PUSH2 0xFC PUSH2 0x248 JUMP JUMPDEST STOP JUMPDEST PUSH2 0x118 PUSH1 0x4 DUP1 CALLDATASIZE SUB DUP2 ADD SWAP1 PUSH2 0x113 SWAP2 SWAP1 PUSH2 0x4CB JUMP JUMPDEST PUSH2 0x340 JUMP JUMPDEST PUSH1 0x40 MLOAD PUSH2 0x125 SWAP2 SWAP1 PUSH2 0x5DC JUMP JUMPDEST PUSH1 0x40 MLOAD DUP1 SWAP2 SUB SWAP1 RETURN JUMPDEST PUSH2 0x136 PUSH2 0x367 JUMP JUMPDEST PUSH1 0x40 MLOAD PUSH2 0x143 SWAP2 SWAP1 PUSH2 0x619 JUMP JUMPDEST PUSH1 0x40 MLOAD DUP1 SWAP2 SUB SWAP1 RETURN JUMPDEST PUSH2 0x166 PUSH1 0x4 DUP1 CALLDATASIZE SUB DUP2 ADD SWAP1 PUSH2 0x161 SWAP2 SWAP1 PUSH2 0x48A JUMP JUMPDEST PUSH2 0x36D JUMP JUMPDEST PUSH1 0x40 MLOAD PUSH2 0x173 SWAP2 SWAP1 PUSH2 0x5F7 JUMP JUMPDEST PUSH1 0x40 MLOAD DUP1 SWAP2 SUB SWAP1 RETURN JUMPDEST PUSH2 0x196 PUSH1 0x4 DUP1 CALLDATASIZE SUB DUP2 ADD SWAP1 PUSH2 0x191 SWAP2 SWAP1 PUSH2 0x4F4 JUMP JUMPDEST PUSH2 0x3D2 JUMP JUMPDEST PUSH1 0x40 MLOAD PUSH2 0x1A5 SWAP4 SWAP3 SWAP2 SWAP1 PUSH2 0x634 JUMP JUMPDEST PUSH1 0x40 MLOAD DUP1 SWAP2 SUB SWAP1 RETURN JUMPDEST PUSH2 0x1C8 PUSH1 0x4 DUP1 CALLDATASIZE SUB DUP2 ADD SWAP1 PUSH2 0x1C3 SWAP2 SWAP1 PUSH2 0x4F4 JUMP JUMPDEST PUSH2 0x414 JUMP JUMPDEST PUSH1 0x40 MLOAD PUSH2 0x1D5 SWAP2 SWAP1 PUSH2 0x619 JUMP JUMPDEST PUSH1 0x40 MLOAD DUP1 SWAP2 SUB SWAP1 RETURN JUMPDEST PUSH1 0x0 PUSH2 0x1E8 PUSH2 0x225 JUMP JUMPDEST SWAP1 SWAP2 SWAP3 SWAP4 POP SWAP1 SWAP2 SWAP3 POP SWAP1 SWAP2 POP SWAP1 POP DUP1 SWAP2 POP POP DUP1 PUSH1 0x1 DUP2 SWAP1 SSTORE POP POP JUMP JUMPDEST PUSH1 0x0 DUP2 DUP2 SLOAD DUP2 LT PUSH2 0x211 JUMPI INVALID JUMPDEST SWAP1 PUSH1 0x0 MSTORE PUSH1 0x20 PUSH1 0x0 KECCAK256 ADD PUSH1 0x0 SWAP2 POP SWAP1 POP SLOAD DUP2 JUMP JUMPDEST PUSH1 0x0 DUP1 PUSH1 0x0 DUP1 PUSH1 0x0 PUSH1 0x1 PUSH1 0x2 PUSH1 0x3 PUSH1 0x4 PUSH1 0x5 SWAP5 POP SWAP5 POP SWAP5 POP SWAP5 POP SWAP5 POP SWAP1 SWAP2 SWAP3 SWAP4 SWAP5 JUMP JUMPDEST PUSH1 0x0 DUP1 PUSH1 0x0 DUP1 PUSH1 0x0 PUSH2 0x258 PUSH2 0x225 JUMP JUMPDEST DUP1 SWAP6 POP DUP2 SWAP7 POP DUP3 SWAP8 POP DUP4 SWAP9 POP DUP5 SWAP10 POP POP POP POP POP POP PUSH1 0x0 DUP6 SWAP1 DUP1 PUSH1 0x1 DUP2 SLOAD ADD DUP1 DUP3 SSTORE DUP1 SWAP2 POP POP PUSH1 0x1 SWAP1 SUB SWAP1 PUSH1 0x0 MSTORE PUSH1 0x20 PUSH1 0x0 KECCAK256 ADD PUSH1 0x0 SWAP1 SWAP2 SWAP1 SWAP2 SWAP1 SWAP2 POP SSTORE PUSH1 0x0 DUP5 SWAP1 DUP1 PUSH1 0x1 DUP2 SLOAD ADD DUP1 DUP3 SSTORE DUP1 SWAP2 POP POP PUSH1 0x1 SWAP1 SUB SWAP1 PUSH1 0x0 MSTORE PUSH1 0x20 PUSH1 0x0 KECCAK256 ADD PUSH1 0x0 SWAP1 SWAP2 SWAP1 SWAP2 SWAP1 SWAP2 POP SSTORE PUSH1 0x0 DUP4 SWAP1 DUP1 PUSH1 0x1 DUP2 SLOAD ADD DUP1 DUP3 SSTORE DUP1 SWAP2 POP POP PUSH1 0x1 SWAP1 SUB SWAP1 PUSH1 0x0 MSTORE PUSH1 0x20 PUSH1 0x0 KECCAK256 ADD PUSH1 0x0 SWAP1 SWAP2 SWAP1 SWAP2 SWAP1 SWAP2 POP SSTORE PUSH1 0x0 DUP3 SWAP1 DUP1 PUSH1 0x1 DUP2 SLOAD ADD DUP1 DUP3 SSTORE DUP1 SWAP2 POP POP PUSH1 0x1 SWAP1 SUB SWAP1 PUSH1 0x0 MSTORE PUSH1 0x20 PUSH1 0x0 KECCAK256 ADD PUSH1 0x0 SWAP1 SWAP2 SWAP1 SWAP2 SWAP1 SWAP2 POP SSTORE PUSH1 0x0 DUP2 SWAP1 DUP1 PUSH1 0x1 DUP2 SLOAD ADD DUP1 DUP3 SSTORE DUP1 SWAP2 POP POP PUSH1 0x1 SWAP1 SUB SWAP1 PUSH1 0x0 MSTORE PUSH1 0x20 PUSH1 0x0 KECCAK256 ADD PUSH1 0x0 SWAP1 SWAP2 SWAP1 SWAP2 SWAP1 SWAP2 POP SSTORE POP POP POP POP POP JUMP JUMPDEST PUSH1 0x0 DUP1 PUSH1 0x2 DUP4 DUP2 PUSH2 0x34D JUMPI INVALID JUMPDEST MOD EQ ISZERO PUSH2 0x35D JUMPI PUSH1 0x1 SWAP1 POP PUSH2 0x362 JUMP JUMPDEST PUSH1 0x0 SWAP1 POP JUMPDEST SWAP2 SWAP1 POP JUMP JUMPDEST PUSH1 0x1 SLOAD DUP2 JUMP JUMPDEST PUSH1 0x60 DUP1 PUSH1 0x40 MLOAD DUP1 PUSH1 0x40 ADD PUSH1 0x40 MSTORE DUP1 PUSH1 0x16 DUP2 MSTORE PUSH1 0x20 ADD PUSH32 0x73616C75646F732079206269656E76656E69646F2C2000000000000000000000 DUP2 MSTORE POP SWAP1 POP DUP1 DUP4 PUSH1 0x40 MLOAD PUSH1 0x20 ADD PUSH2 0x3BB SWAP3 SWAP2 SWAP1 PUSH2 0x5B8 JUMP JUMPDEST PUSH1 0x40 MLOAD PUSH1 0x20 DUP2 DUP4 SUB SUB DUP2 MSTORE SWAP1 PUSH1 0x40 MSTORE SWAP2 POP POP SWAP2 SWAP1 POP JUMP JUMPDEST PUSH1 0x0 DUP1 PUSH1 0x0 DUP1 DUP5 DUP7 DUP2 PUSH2 0x3E1 JUMPI INVALID JUMPDEST DIV SWAP1 POP PUSH1 0x0 DUP6 DUP8 DUP2 PUSH2 0x3EF JUMPI INVALID JUMPDEST MOD SWAP1 POP PUSH1 0x0 DUP1 DUP3 EQ ISZERO PUSH2 0x401 JUMPI PUSH1 0x1 SWAP1 POP JUMPDEST DUP3 DUP3 DUP3 SWAP6 POP SWAP6 POP SWAP6 POP POP POP POP SWAP3 POP SWAP3 POP SWAP3 JUMP JUMPDEST PUSH1 0x0 DUP2 DUP4 MUL SWAP1 POP SWAP3 SWAP2 POP POP JUMP JUMPDEST PUSH1 0x0 DUP3 PUSH1 0x1F DUP4 ADD SLT PUSH2 0x432 JUMPI PUSH1 0x0 DUP1 REVERT JUMPDEST DUP2 CALLDATALOAD PUSH2 0x445 PUSH2 0x440 DUP3 PUSH2 0x6EB JUMP JUMPDEST PUSH2 0x6BE JUMP JUMPDEST SWAP2 POP DUP1 DUP3 MSTORE PUSH1 0x20 DUP4 ADD PUSH1 0x20 DUP4 ADD DUP6 DUP4 DUP4 ADD GT ISZERO PUSH2 0x461 JUMPI PUSH1 0x0 DUP1 REVERT JUMPDEST PUSH2 0x46C DUP4 DUP3 DUP5 PUSH2 0x754 JUMP JUMPDEST POP POP POP SWAP3 SWAP2 POP POP JUMP JUMPDEST PUSH1 0x0 DUP2 CALLDATALOAD SWAP1 POP PUSH2 0x484 DUP2 PUSH2 0x7A7 JUMP JUMPDEST SWAP3 SWAP2 POP POP JUMP JUMPDEST PUSH1 0x0 PUSH1 0x20 DUP3 DUP5 SUB SLT ISZERO PUSH2 0x49C JUMPI PUSH1 0x0 DUP1 REVERT JUMPDEST PUSH1 0x0 DUP3 ADD CALLDATALOAD PUSH8 0xFFFFFFFFFFFFFFFF DUP2 GT ISZERO PUSH2 0x4B6 JUMPI PUSH1 0x0 DUP1 REVERT JUMPDEST PUSH2 0x4C2 DUP5 DUP3 DUP6 ADD PUSH2 0x421 JUMP JUMPDEST SWAP2 POP POP SWAP3 SWAP2 POP POP JUMP JUMPDEST PUSH1 0x0 PUSH1 0x20 DUP3 DUP5 SUB SLT ISZERO PUSH2 0x4DD JUMPI PUSH1 0x0 DUP1 REVERT JUMPDEST PUSH1 0x0 PUSH2 0x4EB DUP5 DUP3 DUP6 ADD PUSH2 0x475 JUMP JUMPDEST SWAP2 POP POP SWAP3 SWAP2 POP POP JUMP JUMPDEST PUSH1 0x0 DUP1 PUSH1 0x40 DUP4 DUP6 SUB SLT ISZERO PUSH2 0x507 JUMPI PUSH1 0x0 DUP1 REVERT JUMPDEST PUSH1 0x0 PUSH2 0x515 DUP6 DUP3 DUP7 ADD PUSH2 0x475 JUMP JUMPDEST SWAP3 POP POP PUSH1 0x20 PUSH2 0x526 DUP6 DUP3 DUP7 ADD PUSH2 0x475 JUMP JUMPDEST SWAP2 POP POP SWAP3 POP SWAP3 SWAP1 POP JUMP JUMPDEST PUSH2 0x539 DUP2 PUSH2 0x73E JUMP JUMPDEST DUP3 MSTORE POP POP JUMP JUMPDEST PUSH1 0x0 PUSH2 0x54A DUP3 PUSH2 0x717 JUMP JUMPDEST PUSH2 0x554 DUP2 DUP6 PUSH2 0x722 JUMP JUMPDEST SWAP4 POP PUSH2 0x564 DUP2 DUP6 PUSH1 0x20 DUP7 ADD PUSH2 0x763 JUMP JUMPDEST PUSH2 0x56D DUP2 PUSH2 0x796 JUMP JUMPDEST DUP5 ADD SWAP2 POP POP SWAP3 SWAP2 POP POP JUMP JUMPDEST PUSH1 0x0 PUSH2 0x583 DUP3 PUSH2 0x717 JUMP JUMPDEST PUSH2 0x58D DUP2 DUP6 PUSH2 0x733 JUMP JUMPDEST SWAP4 POP PUSH2 0x59D DUP2 DUP6 PUSH1 0x20 DUP7 ADD PUSH2 0x763 JUMP JUMPDEST DUP1 DUP5 ADD SWAP2 POP POP SWAP3 SWAP2 POP POP JUMP JUMPDEST PUSH2 0x5B2 DUP2 PUSH2 0x74A JUMP JUMPDEST DUP3 MSTORE POP POP JUMP JUMPDEST PUSH1 0x0 PUSH2 0x5C4 DUP3 DUP6 PUSH2 0x578 JUMP JUMPDEST SWAP2 POP PUSH2 0x5D0 DUP3 DUP5 PUSH2 0x578 JUMP JUMPDEST SWAP2 POP DUP2 SWAP1 POP SWAP4 SWAP3 POP POP POP JUMP JUMPDEST PUSH1 0x0 PUSH1 0x20 DUP3 ADD SWAP1 POP PUSH2 0x5F1 PUSH1 0x0 DUP4 ADD DUP5 PUSH2 0x530 JUMP JUMPDEST SWAP3 SWAP2 POP POP JUMP JUMPDEST PUSH1 0x0 PUSH1 0x20 DUP3 ADD SWAP1 POP DUP2 DUP2 SUB PUSH1 0x0 DUP4 ADD MSTORE PUSH2 0x611 DUP2 DUP5 PUSH2 0x53F JUMP JUMPDEST SWAP1 POP SWAP3 SWAP2 POP POP JUMP JUMPDEST PUSH1 0x0 PUSH1 0x20 DUP3 ADD SWAP1 POP PUSH2 0x62E PUSH1 0x0 DUP4 ADD DUP5 PUSH2 0x5A9 JUMP JUMPDEST SWAP3 SWAP2 POP POP JUMP JUMPDEST PUSH1 0x0 PUSH1 0x60 DUP3 ADD SWAP1 POP PUSH2 0x649 PUSH1 0x0 DUP4 ADD DUP7 PUSH2 0x5A9 JUMP JUMPDEST PUSH2 0x656 PUSH1 0x20 DUP4 ADD DUP6 PUSH2 0x5A9 JUMP JUMPDEST PUSH2 0x663 PUSH1 0x40 DUP4 ADD DUP5 PUSH2 0x530 JUMP JUMPDEST SWAP5 SWAP4 POP POP POP POP JUMP JUMPDEST PUSH1 0x0 PUSH1 0xA0 DUP3 ADD SWAP1 POP PUSH2 0x680 PUSH1 0x0 DUP4 ADD DUP9 PUSH2 0x5A9 JUMP JUMPDEST PUSH2 0x68D PUSH1 0x20 DUP4 ADD DUP8 PUSH2 0x5A9 JUMP JUMPDEST PUSH2 0x69A PUSH1 0x40 DUP4 ADD DUP7 PUSH2 0x5A9 JUMP JUMPDEST PUSH2 0x6A7 PUSH1 0x60 DUP4 ADD DUP6 PUSH2 0x5A9 JUMP JUMPDEST PUSH2 0x6B4 PUSH1 0x80 DUP4 ADD DUP5 PUSH2 0x5A9 JUMP JUMPDEST SWAP7 SWAP6 POP POP POP POP POP POP JUMP JUMPDEST PUSH1 0x0 PUSH1 0x40 MLOAD SWAP1 POP DUP2 DUP2 ADD DUP2 DUP2 LT PUSH8 0xFFFFFFFFFFFFFFFF DUP3 GT OR ISZERO PUSH2 0x6E1 JUMPI PUSH1 0x0 DUP1 REVERT JUMPDEST DUP1 PUSH1 0x40 MSTORE POP SWAP2 SWAP1 POP JUMP JUMPDEST PUSH1 0x0 PUSH8 0xFFFFFFFFFFFFFFFF DUP3 GT ISZERO PUSH2 0x702 JUMPI PUSH1 0x0 DUP1 REVERT JUMPDEST PUSH1 0x1F NOT PUSH1 0x1F DUP4 ADD AND SWAP1 POP PUSH1 0x20 DUP2 ADD SWAP1 POP SWAP2 SWAP1 POP JUMP JUMPDEST PUSH1 0x0 DUP2 MLOAD SWAP1 POP SWAP2 SWAP1 POP JUMP JUMPDEST PUSH1 0x0 DUP3 DUP3 MSTORE PUSH1 0x20 DUP3 ADD SWAP1 POP SWAP3 SWAP2 POP POP JUMP JUMPDEST PUSH1 0x0 DUP2 SWAP1 POP SWAP3 SWAP2 POP POP JUMP JUMPDEST PUSH1 0x0 DUP2 ISZERO ISZERO SWAP1 POP SWAP2 SWAP1 POP JUMP JUMPDEST PUSH1 0x0 DUP2 SWAP1 POP SWAP2 SWAP1 POP JUMP JUMPDEST DUP3 DUP2 DUP4 CALLDATACOPY PUSH1 0x0 DUP4 DUP4 ADD MSTORE POP POP POP JUMP JUMPDEST PUSH1 0x0 JUMPDEST DUP4 DUP2 LT ISZERO PUSH2 0x781 JUMPI DUP1 DUP3 ADD MLOAD DUP2 DUP5 ADD MSTORE PUSH1 0x20 DUP2 ADD SWAP1 POP PUSH2 0x766 JUMP JUMPDEST DUP4 DUP2 GT ISZERO PUSH2 0x790 JUMPI PUSH1 0x0 DUP5 DUP5 ADD MSTORE JUMPDEST POP POP POP POP JUMP JUMPDEST PUSH1 0x0 PUSH1 0x1F NOT PUSH1 0x1F DUP4 ADD AND SWAP1 POP SWAP2 SWAP1 POP JUMP JUMPDEST PUSH2 0x7B0 DUP2 PUSH2 0x74A JUMP JUMPDEST DUP2 EQ PUSH2 0x7BB JUMPI PUSH1 0x0 DUP1 REVERT JUMPDEST POP JUMP INVALID LOG2 PUSH5 0x6970667358 0x22 SLT KECCAK256 0x2E PUSH24 0x7E9BED2E6017DC0E6EA69794BE9F3CF4E94956F8E42555CE PUSH32 0xD23D08691964736F6C634300060C003300000000000000000000000000000000 "
		},
		"gasEstimates": {
			"creation": {
				"codeDepositCost": "407200",
				"executionCost": "443",
				"totalCost": "407643"
			},
			"external": {
				"array(uint256)": "infinite",
				"division(uint256,uint256)": "infinite",
				"guardar_valores()": "204995",
				"multiplicar(uint256,uint256)": "infinite",
				"numeros()": "infinite",
				"par_impar(uint256)": "670",
				"saludos(string)": "infinite",
				"ultimoValor()": "20306",
				"variable_ultimo()": "1151"
			}
		},
		"methodIdentifiers": {
			"array(uint256)": "38d94193",
			"division(uint256,uint256)": "e0068052",
			"guardar_valores()": "ae11ce3f",
			"multiplicar(uint256,uint256)": "fbf188a2",
			"numeros()": "703b3404",
			"par_impar(uint256)": "c19af07c",
			"saludos(string)": "d8485531",
			"ultimoValor()": "1629af95",
			"variable_ultimo()": "d2de9f68"
		}
	},
	"abi": [
		{
			"inputs": [
				{
					"internalType": "uint256",
					"name": "",
					"type": "uint256"
				}
			],
			"name": "array",
			"outputs": [
				{
					"internalType": "uint256",
					"name": "",
					"type": "uint256"
				}
			],
			"stateMutability": "view",
			"type": "function"
		},
		{
			"inputs": [
				{
					"internalType": "uint256",
					"name": "_a",
					"type": "uint256"
				},
				{
					"internalType": "uint256",
					"name": "_b",
					"type": "uint256"
				}
			],
			"name": "division",
			"outputs": [
				{
					"internalType": "uint256",
					"name": "",
					"type": "uint256"
				},
				{
					"internalType": "uint256",
					"name": "",
					"type": "uint256"
				},
				{
					"internalType": "bool",
					"name": "",
					"type": "bool"
				}
			],
			"stateMutability": "nonpayable",
			"type": "function"
		},
		{
			"inputs": [],
			"name": "guardar_valores",
			"outputs": [],
			"stateMutability": "nonpayable",
			"type": "function"
		},
		{
			"inputs": [
				{
					"internalType": "uint256",
					"name": "_a",
					"type": "uint256"
				},
				{
					"internalType": "uint256",
					"name": "_b",
					"type": "uint256"
				}
			],
			"name": "multiplicar",
			"outputs": [
				{
					"internalType": "uint256",
					"name": "",
					"type": "uint256"
				}
			],
			"stateMutability": "nonpayable",
			"type": "function"
		},
		{
			"inputs": [],
			"name": "numeros",
			"outputs": [
				{
					"internalType": "uint256",
					"name": "",
					"type": "uint256"
				},
				{
					"internalType": "uint256",
					"name": "",
					"type": "uint256"
				},
				{
					"internalType": "uint256",
					"name": "",
					"type": "uint256"
				},
				{
					"internalType": "uint256",
					"name": "",
					"type": "uint256"
				},
				{
					"internalType": "uint256",
					"name": "",
					"type": "uint256"
				}
			],
			"stateMutability": "nonpayable",
			"type": "function"
		},
		{
			"inputs": [
				{
					"internalType": "uint256",
					"name": "_x",
					"type": "uint256"
				}
			],
			"name": "par_impar",
			"outputs": [
				{
					"internalType": "bool",
					"name": "",
					"type": "bool"
				}
			],
			"stateMutability": "nonpayable",
			"type": "function"
		},
		{
			"inputs": [
				{
					"internalType": "string",
					"name": "_nombre",
					"type": "string"
				}
			],
			"name": "saludos",
			"outputs": [
				{
					"internalType": "string",
					"name": "",
					"type": "string"
				}
			],
			"stateMutability": "nonpayable",
			"type": "function"
		},
		{
			"inputs": [],
			"name": "ultimoValor",
			"outputs": [],
			"stateMutability": "nonpayable",
			"type": "function"
		},
		{
			"inputs": [],
			"name": "variable_ultimo",
			"outputs": [
				{
					"internalType": "uint256",
					"name": "",
					"type": "uint256"
				}
			],
			"stateMutability": "view",
			"type": "function"
		}
	]
}