{
	"data": {
		"bytecode": {
			"linkReferences": {},
			"object": "608060405234801561001057600080fd5b50610202806100206000396000f3fe608060405234801561001057600080fd5b506004361061004c5760003560e01c80630614fd7e14610051578063e0353ed814610093578063eb57b482146100b1578063fa7f51fd146100d1575b600080fd5b61007d6004803603602081101561006757600080fd5b81019080803590602001909291905050506100db565b6040518082815260200191505060405180910390f35b61009b610108565b6040518082815260200191505060405180910390f35b6100b961014b565b60405180821515815260200191505060405180910390f35b6100d961016b565b005b6000806001830190505b6100ee81610174565b6100ff5780806001019150506100e5565b80915050919050565b600080600090506000600190505b600481116101435760006002828161012a57fe5b06146101365780820191505b8080600101915050610116565b819250505090565b6000600a600054014210156101635760009050610168565b600190505b90565b42600081905550565b6000600282101561018857600090506101c7565b6000600290505b82818202116101c15760008184816101a357fe5b0614156101b45760009150506101c7565b808060010191505061018f565b60019150505b91905056fea2646970667358221220577faf220a4effcedfadd6519665150ea8a16bad07594d8cd51e287b52abf8bb64736f6c634300060c0033",
			"opcodes": "PUSH1 0x80 PUSH1 0x40 MSTORE CALLVALUE DUP1 ISZERO PUSH2 0x10 JUMPI PUSH1 0x0 DUP1 REVERT JUMPDEST POP PUSH2 0x202 DUP1 PUSH2 0x20 PUSH1 0x0 CODECOPY PUSH1 0x0 RETURN INVALID PUSH1 0x80 PUSH1 0x40 MSTORE CALLVALUE DUP1 ISZERO PUSH2 0x10 JUMPI PUSH1 0x0 DUP1 REVERT JUMPDEST POP PUSH1 0x4 CALLDATASIZE LT PUSH2 0x4C JUMPI PUSH1 0x0 CALLDATALOAD PUSH1 0xE0 SHR DUP1 PUSH4 0x614FD7E EQ PUSH2 0x51 JUMPI DUP1 PUSH4 0xE0353ED8 EQ PUSH2 0x93 JUMPI DUP1 PUSH4 0xEB57B482 EQ PUSH2 0xB1 JUMPI DUP1 PUSH4 0xFA7F51FD EQ PUSH2 0xD1 JUMPI JUMPDEST PUSH1 0x0 DUP1 REVERT JUMPDEST PUSH2 0x7D PUSH1 0x4 DUP1 CALLDATASIZE SUB PUSH1 0x20 DUP2 LT ISZERO PUSH2 0x67 JUMPI PUSH1 0x0 DUP1 REVERT JUMPDEST DUP2 ADD SWAP1 DUP1 DUP1 CALLDATALOAD SWAP1 PUSH1 0x20 ADD SWAP1 SWAP3 SWAP2 SWAP1 POP POP POP PUSH2 0xDB JUMP JUMPDEST PUSH1 0x40 MLOAD DUP1 DUP3 DUP2 MSTORE PUSH1 0x20 ADD SWAP2 POP POP PUSH1 0x40 MLOAD DUP1 SWAP2 SUB SWAP1 RETURN JUMPDEST PUSH2 0x9B PUSH2 0x108 JUMP JUMPDEST PUSH1 0x40 MLOAD DUP1 DUP3 DUP2 MSTORE PUSH1 0x20 ADD SWAP2 POP POP PUSH1 0x40 MLOAD DUP1 SWAP2 SUB SWAP1 RETURN JUMPDEST PUSH2 0xB9 PUSH2 0x14B JUMP JUMPDEST PUSH1 0x40 MLOAD DUP1 DUP3 ISZERO ISZERO DUP2 MSTORE PUSH1 0x20 ADD SWAP2 POP POP PUSH1 0x40 MLOAD DUP1 SWAP2 SUB SWAP1 RETURN JUMPDEST PUSH2 0xD9 PUSH2 0x16B JUMP JUMPDEST STOP JUMPDEST PUSH1 0x0 DUP1 PUSH1 0x1 DUP4 ADD SWAP1 POP JUMPDEST PUSH2 0xEE DUP2 PUSH2 0x174 JUMP JUMPDEST PUSH2 0xFF JUMPI DUP1 DUP1 PUSH1 0x1 ADD SWAP2 POP POP PUSH2 0xE5 JUMP JUMPDEST DUP1 SWAP2 POP POP SWAP2 SWAP1 POP JUMP JUMPDEST PUSH1 0x0 DUP1 PUSH1 0x0 SWAP1 POP PUSH1 0x0 PUSH1 0x1 SWAP1 POP JUMPDEST PUSH1 0x4 DUP2 GT PUSH2 0x143 JUMPI PUSH1 0x0 PUSH1 0x2 DUP3 DUP2 PUSH2 0x12A JUMPI INVALID JUMPDEST MOD EQ PUSH2 0x136 JUMPI DUP1 DUP3 ADD SWAP2 POP JUMPDEST DUP1 DUP1 PUSH1 0x1 ADD SWAP2 POP POP PUSH2 0x116 JUMP JUMPDEST DUP2 SWAP3 POP POP POP SWAP1 JUMP JUMPDEST PUSH1 0x0 PUSH1 0xA PUSH1 0x0 SLOAD ADD TIMESTAMP LT ISZERO PUSH2 0x163 JUMPI PUSH1 0x0 SWAP1 POP PUSH2 0x168 JUMP JUMPDEST PUSH1 0x1 SWAP1 POP JUMPDEST SWAP1 JUMP JUMPDEST TIMESTAMP PUSH1 0x0 DUP2 SWAP1 SSTORE POP JUMP JUMPDEST PUSH1 0x0 PUSH1 0x2 DUP3 LT ISZERO PUSH2 0x188 JUMPI PUSH1 0x0 SWAP1 POP PUSH2 0x1C7 JUMP JUMPDEST PUSH1 0x0 PUSH1 0x2 SWAP1 POP JUMPDEST DUP3 DUP2 DUP3 MUL GT PUSH2 0x1C1 JUMPI PUSH1 0x0 DUP2 DUP5 DUP2 PUSH2 0x1A3 JUMPI INVALID JUMPDEST MOD EQ ISZERO PUSH2 0x1B4 JUMPI PUSH1 0x0 SWAP2 POP POP PUSH2 0x1C7 JUMP JUMPDEST DUP1 DUP1 PUSH1 0x1 ADD SWAP2 POP POP PUSH2 0x18F JUMP JUMPDEST PUSH1 0x1 SWAP2 POP POP JUMPDEST SWAP2 SWAP1 POP JUMP INVALID LOG2 PUSH5 0x6970667358 0x22 SLT KECCAK256 JUMPI PUSH32 0xAF220A4EFFCEDFADD6519665150EA8A16BAD07594D8CD51E287B52ABF8BB6473 PUSH16 0x6C634300060C00330000000000000000 "
		},
		"gasEstimates": {
			"creation": {
				"codeDepositCost": "102800",
				"executionCost": "153",
				"totalCost": "102953"
			},
			"external": {
				"espera()": "1083",
				"fijarTiempo()": "20201",
				"siguientePrimo(uint256)": "infinite",
				"suma_imapres()": "infinite"
			},
			"internal": {
				"esPrimo(uint256)": "infinite"
			}
		},
		"methodIdentifiers": {
			"espera()": "eb57b482",
			"fijarTiempo()": "fa7f51fd",
			"siguientePrimo(uint256)": "0614fd7e",
			"suma_imapres()": "e0353ed8"
		}
	},
	"abi": [
		{
			"inputs": [],
			"name": "espera",
			"outputs": [
				{
					"internalType": "bool",
					"name": "",
					"type": "bool"
				}
			],
			"stateMutability": "view",
			"type": "function"
		},
		{
			"inputs": [],
			"name": "fijarTiempo",
			"outputs": [],
			"stateMutability": "nonpayable",
			"type": "function"
		},
		{
			"inputs": [
				{
					"internalType": "uint256",
					"name": "_p",
					"type": "uint256"
				}
			],
			"name": "siguientePrimo",
			"outputs": [
				{
					"internalType": "uint256",
					"name": "",
					"type": "uint256"
				}
			],
			"stateMutability": "pure",
			"type": "function"
		},
		{
			"inputs": [],
			"name": "suma_imapres",
			"outputs": [
				{
					"internalType": "uint256",
					"name": "",
					"type": "uint256"
				}
			],
			"stateMutability": "pure",
			"type": "function"
		}
	]
}